{
	"data": {
		"bytecode": {
			"linkReferences": {},
			"object": "6080604052629896806005556004600660006101000a81548160ff021916908360ff1602179055506005600755336000806101000a81548173ffffffffffffffffffffffffffffffffffffffff021916908373ffffffffffffffffffffffffffffffffffffffff16021790555034600181905550612b1e806100826000396000f3fe608060405260043610620000d45760003560e01c80635463109e116200008b57806384465b3e116200006157806384465b3e14620002cd57806393990aa61462000311578063b4a8e0a91462000331578063d0e30db0146200037557620000d4565b80635463109e146200020f5780635758f4b7146200025357806365d0dfc4146200029757620000d4565b80633a853b5d14620000d95780633ccfd60b146200011d5780633cdb97621462000129578063403c9fa8146200016d5780634a432a46146200019d578063524f388914620001cb575b600080fd5b348015620000e657600080fd5b50620001056004803603810190620000ff919062001263565b62000381565b604051620001149190620016a3565b60405180910390f35b620001276200041e565b005b3480156200013657600080fd5b506200015560048036038101906200014f9190620012ac565b6200048d565b604051620001649190620016a3565b60405180910390f35b3480156200017a57600080fd5b5062000185620005a9565b604051620001949190620016a3565b60405180910390f35b348015620001aa57600080fd5b50620001c96004803603810190620001c39190620013cf565b620005b3565b005b348015620001d857600080fd5b50620001f76004803603810190620001f1919062001263565b62000672565b604051620002069190620016a3565b60405180910390f35b3480156200021c57600080fd5b506200023b600480360381019062000235919062001263565b620006d9565b6040516200024a9190620016a3565b60405180910390f35b3480156200026057600080fd5b506200027f600480360381019062000279919062001263565b620007e7565b6040516200028e9190620016a3565b60405180910390f35b620002b56004803603810190620002af919062001263565b62000884565b604051620002c49190620015f1565b60405180910390f35b348015620002da57600080fd5b50620002f96004803603810190620002f39190620012ac565b62000b0a565b604051620003089190620016a3565b60405180910390f35b6200032f6004803603810190620003299190620013cf565b62000c53565b005b3480156200033e57600080fd5b506200035d60048036038101906200035791906200130a565b62000f0d565b6040516200036c9190620015f1565b60405180910390f35b6200037f620010c9565b005b60003073ffffffffffffffffffffffffffffffffffffffff166384465b3e8484336040518463ffffffff1660e01b8152600401620003c2939291906200160e565b60206040518083038186803b158015620003db57600080fd5b505afa158015620003f0573d6000803e3d6000fd5b505050506040513d601f19601f820116820180604052508101906200041691906200142d565b905092915050565b60008054906101000a900473ffffffffffffffffffffffffffffffffffffffff1673ffffffffffffffffffffffffffffffffffffffff163373ffffffffffffffffffffffffffffffffffffffff16146200047757600080fd5b620004856001543462001138565b600181905550565b600060038484604051620004a3929190620014f9565b908152602001604051809103902060009054906101000a900460ff16620004c957600080fd5b600060048585604051620004df929190620014f9565b908152602001604051809103902060009054906101000a900473ffffffffffffffffffffffffffffffffffffffff1690508073ffffffffffffffffffffffffffffffffffffffff166370a08231846040518263ffffffff1660e01b81526004016200054b919062001514565b60206040518083038186803b1580156200056457600080fd5b505afa15801562000579573d6000803e3d6000fd5b505050506040513d601f19601f820116820180604052508101906200059f91906200142d565b9150509392505050565b6000600154905090565b60008054906101000a900473ffffffffffffffffffffffffffffffffffffffff1673ffffffffffffffffffffffffffffffffffffffff163373ffffffffffffffffffffffffffffffffffffffff16146200060c57600080fd5b6003838360405162000620929190620014f9565b908152602001604051809103902060009054906101000a900460ff166200064657600080fd5b80600284846040516200065b929190620014f9565b908152602001604051809103902081905550505050565b60006003838360405162000688929190620014f9565b908152602001604051809103902060009054906101000a900460ff16620006ae57600080fd5b60028383604051620006c2929190620014f9565b908152602001604051809103902054905092915050565b600060038383604051620006ef929190620014f9565b908152602001604051809103902060009054906101000a900460ff166200071557600080fd5b6000600484846040516200072b929190620014f9565b908152602001604051809103902060009054906101000a900473ffffffffffffffffffffffffffffffffffffffff1690508073ffffffffffffffffffffffffffffffffffffffff166318160ddd6040518163ffffffff1660e01b815260040160206040518083038186803b158015620007a357600080fd5b505afa158015620007b8573d6000803e3d6000fd5b505050506040513d601f19601f82011682018060405250810190620007de91906200142d565b91505092915050565b60003073ffffffffffffffffffffffffffffffffffffffff16633cdb97628484336040518463ffffffff1660e01b815260040162000828939291906200160e565b60206040518083038186803b1580156200084157600080fd5b505afa15801562000856573d6000803e3d6000fd5b505050506040513d601f19601f820116820180604052508101906200087c91906200142d565b905092915050565b600080600484846040516200089b929190620014f9565b908152602001604051809103902060009054906101000a900473ffffffffffffffffffffffffffffffffffffffff169050600060028585604051620008e2929190620014f9565b9081526020016040518091039020549050600060646200091360075460646200090c9190620016dc565b8462001150565b6200091f919062001739565b90506000813462000931919062001739565b9050813410156200094157600080fd5b600060019050808015620009e457508473ffffffffffffffffffffffffffffffffffffffff1663095ea7b333846040518363ffffffff1660e01b81526004016200098d929190620015c4565b602060405180830381600087803b158015620009a857600080fd5b505af1158015620009bd573d6000803e3d6000fd5b505050506040513d601f19601f82011682018060405250810190620009e3919062001237565b5b905080801562000aa557508473ffffffffffffffffffffffffffffffffffffffff166323b872dd60008054906101000a900473ffffffffffffffffffffffffffffffffffffffff1633856040518463ffffffff1660e01b815260040162000a4e9392919062001531565b602060405180830381600087803b15801562000a6957600080fd5b505af115801562000a7e573d6000803e3d6000fd5b505050506040513d601f19601f8201168201806040525081019062000aa4919062001237565b5b90507f40f5583ae6965366e0acfa8dc48c165ed2fce35c84de4966619b6e42e4d5f4c8338989878660405162000ae09594939291906200156e565b60405180910390a162000af66001543462001168565b600181905550809550505050505092915050565b60006003848460405162000b20929190620014f9565b908152602001604051809103902060009054906101000a900460ff1662000b4657600080fd5b60006004858560405162000b5c929190620014f9565b908152602001604051809103902060009054906101000a900473ffffffffffffffffffffffffffffffffffffffff16905062000c498173ffffffffffffffffffffffffffffffffffffffff166370a08231856040518263ffffffff1660e01b815260040162000bcc919062001514565b60206040518083038186803b15801562000be557600080fd5b505afa15801562000bfa573d6000803e3d6000fd5b505050506040513d601f19601f8201168201806040525081019062000c2091906200142d565b6002878760405162000c34929190620014f9565b90815260200160405180910390205462001150565b9150509392505050565b60006004848460405162000c69929190620014f9565b908152602001604051809103902060009054906101000a900473ffffffffffffffffffffffffffffffffffffffff16905060006002858560405162000cb0929190620014f9565b90815260200160405180910390205490506000606462000ce1600754606462000cda9190620016dc565b8462001150565b62000ced919062001739565b905060008373ffffffffffffffffffffffffffffffffffffffff166370a08231336040518263ffffffff1660e01b815260040162000d2c919062001514565b60206040518083038186803b15801562000d4557600080fd5b505afa15801562000d5a573d6000803e3d6000fd5b505050506040513d601f19601f8201168201806040525081019062000d8091906200142d565b90508481101562000d9057600080fd5b600062000d9e838762001150565b905080600154101562000db057600080fd5b8473ffffffffffffffffffffffffffffffffffffffff166323b872dd3360008054906101000a900473ffffffffffffffffffffffffffffffffffffffff16896040518463ffffffff1660e01b815260040162000e0f9392919062001531565b602060405180830381600087803b15801562000e2a57600080fd5b505af115801562000e3f573d6000803e3d6000fd5b505050506040513d601f19601f8201168201806040525081019062000e65919062001237565b503373ffffffffffffffffffffffffffffffffffffffff166108fc829081150290604051600060405180830381858888f1935050505015801562000ead573d6000803e3d6000fd5b507f049f57f92fe331c8352bc57011dd480b77f5dadaf815d7d9a33fae03e4acc349338989878a60405162000ee79594939291906200156e565b60405180910390a162000efd6001543462001138565b6001819055505050505050505050565b60008060009054906101000a900473ffffffffffffffffffffffffffffffffffffffff1673ffffffffffffffffffffffffffffffffffffffff163373ffffffffffffffffffffffffffffffffffffffff161462000f6957600080fd5b6003888860405162000f7d929190620014f9565b908152602001604051809103902060009054906101000a900460ff161562000fa457600080fd5b85858585600554600660009054906101000a900460ff1660405162000fc99062001180565b62000fda9695949392919062001644565b604051809103906000f08015801562000ff7573d6000803e3d6000fd5b50600489896040516200100c929190620014f9565b908152602001604051809103902060006101000a81548173ffffffffffffffffffffffffffffffffffffffff021916908373ffffffffffffffffffffffffffffffffffffffff1602179055506001600389896040516200106e929190620014f9565b908152602001604051809103902060006101000a81548160ff0219169083151502179055508160028989604051620010a8929190620014f9565b90815260200160405180910390208190555060019050979650505050505050565b60008054906101000a900473ffffffffffffffffffffffffffffffffffffffff1673ffffffffffffffffffffffffffffffffffffffff163373ffffffffffffffffffffffffffffffffffffffff16146200112257600080fd5b620011306001543462001168565b600181905550565b60008183620011489190620017d2565b905092915050565b6000818362001160919062001771565b905092915050565b60008183620011789190620016dc565b905092915050565b6111b8806200193183390190565b6000813590506200119f81620018e2565b92915050565b600081519050620011b681620018fc565b92915050565b60008083601f840112620011cf57600080fd5b8235905067ffffffffffffffff811115620011e957600080fd5b6020830191508360018202830111156200120257600080fd5b9250929050565b6000813590506200121a8162001916565b92915050565b600081519050620012318162001916565b92915050565b6000602082840312156200124a57600080fd5b60006200125a84828501620011a5565b91505092915050565b600080602083850312156200127757600080fd5b600083013567ffffffffffffffff8111156200129257600080fd5b620012a085828601620011bc565b92509250509250929050565b600080600060408486031215620012c257600080fd5b600084013567ffffffffffffffff811115620012dd57600080fd5b620012eb86828701620011bc565b9350935050602062001300868287016200118e565b9150509250925092565b60008060008060008060006080888a0312156200132657600080fd5b600088013567ffffffffffffffff8111156200134157600080fd5b6200134f8a828b01620011bc565b9750975050602088013567ffffffffffffffff8111156200136f57600080fd5b6200137d8a828b01620011bc565b9550955050604088013567ffffffffffffffff8111156200139d57600080fd5b620013ab8a828b01620011bc565b93509350506060620013c08a828b0162001209565b91505092959891949750929550565b600080600060408486031215620013e557600080fd5b600084013567ffffffffffffffff8111156200140057600080fd5b6200140e86828701620011bc565b93509350506020620014238682870162001209565b9150509250925092565b6000602082840312156200144057600080fd5b6000620014508482850162001220565b91505092915050565b62001464816200180d565b82525050565b620014758162001821565b82525050565b6000620014898385620016c0565b93506200149883858462001864565b620014a383620018d1565b840190509392505050565b6000620014bc8385620016d1565b9350620014cb83858462001864565b82840190509392505050565b620014e2816200184d565b82525050565b620014f38162001857565b82525050565b600062001508828486620014ae565b91508190509392505050565b60006020820190506200152b600083018462001459565b92915050565b600060608201905062001548600083018662001459565b62001557602083018562001459565b620015666040830184620014d7565b949350505050565b600060808201905062001585600083018862001459565b81810360208301526200159a8186886200147b565b9050620015ab6040830185620014d7565b620015ba6060830184620014d7565b9695505050505050565b6000604082019050620015db600083018562001459565b620015ea6020830184620014d7565b9392505050565b60006020820190506200160860008301846200146a565b92915050565b600060408201905081810360008301526200162b8185876200147b565b90506200163c602083018462001459565b949350505050565b600060808201905081810360008301526200166181888a6200147b565b90508181036020830152620016788186886200147b565b9050620016896040830185620014d7565b620016986060830184620014e8565b979650505050505050565b6000602082019050620016ba6000830184620014d7565b92915050565b600082825260208201905092915050565b600081905092915050565b6000620016e9826200184d565b9150620016f6836200184d565b9250827fffffffffffffffffffffffffffffffffffffffffffffffffffffffffffffffff038211156200172e576200172d62001873565b5b828201905092915050565b600062001746826200184d565b915062001753836200184d565b925082620017665762001765620018a2565b5b828204905092915050565b60006200177e826200184d565b91506200178b836200184d565b9250817fffffffffffffffffffffffffffffffffffffffffffffffffffffffffffffffff0483118215151615620017c757620017c662001873565b5b828202905092915050565b6000620017df826200184d565b9150620017ec836200184d565b92508282101562001802576200180162001873565b5b828203905092915050565b60006200181a826200182d565b9050919050565b60008115159050919050565b600073ffffffffffffffffffffffffffffffffffffffff82169050919050565b6000819050919050565b600060ff82169050919050565b82818337600083830152505050565b7f4e487b7100000000000000000000000000000000000000000000000000000000600052601160045260246000fd5b7f4e487b7100000000000000000000000000000000000000000000000000000000600052601260045260246000fd5b6000601f19601f8301169050919050565b620018ed816200180d565b8114620018f957600080fd5b50565b620019078162001821565b81146200191357600080fd5b50565b62001921816200184d565b81146200192d57600080fd5b5056fe6080604052604051620011b8380380620011b883398181016040528101906200002991906200027c565b336000806101000a81548173ffffffffffffffffffffffffffffffffffffffff021916908373ffffffffffffffffffffffffffffffffffffffff1602179055508360019080519060200190620000819291906200012c565b5082600290805190602001906200009a9291906200012c565b508160038190555080600460006101000a81548160ff021916908360ff16021790555081600560008060009054906101000a900473ffffffffffffffffffffffffffffffffffffffff1673ffffffffffffffffffffffffffffffffffffffff1673ffffffffffffffffffffffffffffffffffffffff1681526020019081526020016000208190555050505050620004d5565b8280546200013a90620003c6565b90600052602060002090601f0160209004810192826200015e5760008555620001aa565b82601f106200017957805160ff1916838001178555620001aa565b82800160010185558215620001aa579182015b82811115620001a95782518255916020019190600101906200018c565b5b509050620001b99190620001bd565b5090565b5b80821115620001d8576000816000905550600101620001be565b5090565b6000620001f3620001ed8462000343565b6200031a565b9050828152602081018484840111156200020c57600080fd5b6200021984828562000390565b509392505050565b600082601f8301126200023357600080fd5b815162000245848260208601620001dc565b91505092915050565b6000815190506200025f81620004a1565b92915050565b6000815190506200027681620004bb565b92915050565b600080600080608085870312156200029357600080fd5b600085015167ffffffffffffffff811115620002ae57600080fd5b620002bc8782880162000221565b945050602085015167ffffffffffffffff811115620002da57600080fd5b620002e88782880162000221565b9350506040620002fb878288016200024e565b92505060606200030e8782880162000265565b91505092959194509250565b60006200032662000339565b9050620003348282620003fc565b919050565b6000604051905090565b600067ffffffffffffffff82111562000361576200036062000461565b5b6200036c8262000490565b9050602081019050919050565b6000819050919050565b600060ff82169050919050565b60005b83811015620003b057808201518184015260208101905062000393565b83811115620003c0576000848401525b50505050565b60006002820490506001821680620003df57607f821691505b60208210811415620003f657620003f562000432565b5b50919050565b620004078262000490565b810181811067ffffffffffffffff8211171562000429576200042862000461565b5b80604052505050565b7f4e487b7100000000000000000000000000000000000000000000000000000000600052602260045260246000fd5b7f4e487b7100000000000000000000000000000000000000000000000000000000600052604160045260246000fd5b6000601f19601f8301169050919050565b620004ac8162000379565b8114620004b857600080fd5b50565b620004c68162000383565b8114620004d257600080fd5b50565b610cd380620004e56000396000f3fe608060405234801561001057600080fd5b50600436106100935760003560e01c8063313ce56711610066578063313ce5671461013457806370a082311461015257806395d89b4114610182578063a9059cbb146101a0578063dd62ed3e146101d057610093565b806306fdde0314610098578063095ea7b3146100b657806318160ddd146100e657806323b872dd14610104575b600080fd5b6100a0610200565b6040516100ad9190610a48565b60405180910390f35b6100d060048036038101906100cb919061098b565b610292565b6040516100dd9190610a2d565b60405180910390f35b6100ee610384565b6040516100fb9190610a6a565b60405180910390f35b61011e6004803603810190610119919061093c565b61038e565b60405161012b9190610a2d565b60405180910390f35b61013c6106f3565b6040516101499190610a85565b60405180910390f35b61016c600480360381019061016791906108d7565b61070a565b6040516101799190610a6a565b60405180910390f35b61018a610753565b6040516101979190610a48565b60405180910390f35b6101ba60048036038101906101b5919061098b565b6107e5565b6040516101c79190610a2d565b60405180910390f35b6101ea60048036038101906101e59190610900565b6107fa565b6040516101f79190610a6a565b60405180910390f35b60606001805461020f90610bce565b80601f016020809104026020016040519081016040528092919081815260200182805461023b90610bce565b80156102885780601f1061025d57610100808354040283529160200191610288565b820191906000526020600020905b81548152906001019060200180831161026b57829003601f168201915b5050505050905090565b600081600660003373ffffffffffffffffffffffffffffffffffffffff1673ffffffffffffffffffffffffffffffffffffffff16815260200190815260200160002060008573ffffffffffffffffffffffffffffffffffffffff1673ffffffffffffffffffffffffffffffffffffffff168152602001908152602001600020819055508273ffffffffffffffffffffffffffffffffffffffff163373ffffffffffffffffffffffffffffffffffffffff167f8c5be1e5ebec7d5bd14f71427d1e84f3dd0314c0f7b2291e5b200ac8c7c3b925846040516103729190610a6a565b60405180910390a36001905092915050565b6000600354905090565b600081600560008673ffffffffffffffffffffffffffffffffffffffff1673ffffffffffffffffffffffffffffffffffffffff1681526020019081526020016000205410156103dc57600080fd5b81600660008673ffffffffffffffffffffffffffffffffffffffff1673ffffffffffffffffffffffffffffffffffffffff16815260200190815260200160002060008573ffffffffffffffffffffffffffffffffffffffff1673ffffffffffffffffffffffffffffffffffffffff16815260200190815260200160002054101561046557600080fd5b6104ae600560008673ffffffffffffffffffffffffffffffffffffffff1673ffffffffffffffffffffffffffffffffffffffff1681526020019081526020016000205483610881565b600560008673ffffffffffffffffffffffffffffffffffffffff1673ffffffffffffffffffffffffffffffffffffffff1681526020019081526020016000208190555061053a600560008573ffffffffffffffffffffffffffffffffffffffff1673ffffffffffffffffffffffffffffffffffffffff1681526020019081526020016000205483610897565b600560008573ffffffffffffffffffffffffffffffffffffffff1673ffffffffffffffffffffffffffffffffffffffff16815260200190815260200160002081905550610603600660008673ffffffffffffffffffffffffffffffffffffffff1673ffffffffffffffffffffffffffffffffffffffff16815260200190815260200160002060008573ffffffffffffffffffffffffffffffffffffffff1673ffffffffffffffffffffffffffffffffffffffff1681526020019081526020016000205483610881565b600660008673ffffffffffffffffffffffffffffffffffffffff1673ffffffffffffffffffffffffffffffffffffffff16815260200190815260200160002060008573ffffffffffffffffffffffffffffffffffffffff1673ffffffffffffffffffffffffffffffffffffffff168152602001908152602001600020819055508273ffffffffffffffffffffffffffffffffffffffff168473ffffffffffffffffffffffffffffffffffffffff167fddf252ad1be2c89b69c2b068fc378daa952ba7f163c4a11628f55a4df523b3ef846040516106e09190610a6a565b60405180910390a3600190509392505050565b6000600460009054906101000a900460ff16905090565b6000600560008373ffffffffffffffffffffffffffffffffffffffff1673ffffffffffffffffffffffffffffffffffffffff168152602001908152602001600020549050919050565b60606002805461076290610bce565b80601f016020809104026020016040519081016040528092919081815260200182805461078e90610bce565b80156107db5780601f106107b0576101008083540402835291602001916107db565b820191906000526020600020905b8154815290600101906020018083116107be57829003601f168201915b5050505050905090565b60006107f233848461038e565b905092915050565b6000600660008473ffffffffffffffffffffffffffffffffffffffff1673ffffffffffffffffffffffffffffffffffffffff16815260200190815260200160002060008373ffffffffffffffffffffffffffffffffffffffff1673ffffffffffffffffffffffffffffffffffffffff16815260200190815260200160002054905092915050565b6000818361088f9190610b12565b905092915050565b600081836108a59190610abc565b905092915050565b6000813590506108bc81610c6f565b92915050565b6000813590506108d181610c86565b92915050565b6000602082840312156108e957600080fd5b60006108f7848285016108ad565b91505092915050565b6000806040838503121561091357600080fd5b6000610921858286016108ad565b9250506020610932858286016108ad565b9150509250929050565b60008060006060848603121561095157600080fd5b600061095f868287016108ad565b9350506020610970868287016108ad565b9250506040610981868287016108c2565b9150509250925092565b6000806040838503121561099e57600080fd5b60006109ac858286016108ad565b92505060206109bd858286016108c2565b9150509250929050565b6109d081610b58565b82525050565b60006109e182610aa0565b6109eb8185610aab565b93506109fb818560208601610b9b565b610a0481610c5e565b840191505092915050565b610a1881610b84565b82525050565b610a2781610b8e565b82525050565b6000602082019050610a4260008301846109c7565b92915050565b60006020820190508181036000830152610a6281846109d6565b905092915050565b6000602082019050610a7f6000830184610a0f565b92915050565b6000602082019050610a9a6000830184610a1e565b92915050565b600081519050919050565b600082825260208201905092915050565b6000610ac782610b84565b9150610ad283610b84565b9250827fffffffffffffffffffffffffffffffffffffffffffffffffffffffffffffffff03821115610b0757610b06610c00565b5b828201905092915050565b6000610b1d82610b84565b9150610b2883610b84565b925082821015610b3b57610b3a610c00565b5b828203905092915050565b6000610b5182610b64565b9050919050565b60008115159050919050565b600073ffffffffffffffffffffffffffffffffffffffff82169050919050565b6000819050919050565b600060ff82169050919050565b60005b83811015610bb9578082015181840152602081019050610b9e565b83811115610bc8576000848401525b50505050565b60006002820490506001821680610be657607f821691505b60208210811415610bfa57610bf9610c2f565b5b50919050565b7f4e487b7100000000000000000000000000000000000000000000000000000000600052601160045260246000fd5b7f4e487b7100000000000000000000000000000000000000000000000000000000600052602260045260246000fd5b6000601f19601f8301169050919050565b610c7881610b46565b8114610c8357600080fd5b50565b610c8f81610b84565b8114610c9a57600080fd5b5056fea26469706673582212202ea8f81429c52d767b1aa6d1d1bffa7ea585b1c208989ab0eb1f991e523b2c2b64736f6c63430008040033a26469706673582212207c46b5226d4d6470e26ed4073299e4232eb22c5763b6f8e90bc9bc0c19b6fc2a64736f6c63430008040033",
			"opcodes": "PUSH1 0x80 PUSH1 0x40 MSTORE PUSH3 0x989680 PUSH1 0x5 SSTORE PUSH1 0x4 PUSH1 0x6 PUSH1 0x0 PUSH2 0x100 EXP DUP2 SLOAD DUP2 PUSH1 0xFF MUL NOT AND SWAP1 DUP4 PUSH1 0xFF AND MUL OR SWAP1 SSTORE POP PUSH1 0x5 PUSH1 0x7 SSTORE CALLER PUSH1 0x0 DUP1 PUSH2 0x100 EXP DUP2 SLOAD DUP2 PUSH20 0xFFFFFFFFFFFFFFFFFFFFFFFFFFFFFFFFFFFFFFFF MUL NOT AND SWAP1 DUP4 PUSH20 0xFFFFFFFFFFFFFFFFFFFFFFFFFFFFFFFFFFFFFFFF AND MUL OR SWAP1 SSTORE POP CALLVALUE PUSH1 0x1 DUP2 SWAP1 SSTORE POP PUSH2 0x2B1E DUP1 PUSH2 0x82 PUSH1 0x0 CODECOPY PUSH1 0x0 RETURN INVALID PUSH1 0x80 PUSH1 0x40 MSTORE PUSH1 0x4 CALLDATASIZE LT PUSH3 0xD4 JUMPI PUSH1 0x0 CALLDATALOAD PUSH1 0xE0 SHR DUP1 PUSH4 0x5463109E GT PUSH3 0x8B JUMPI DUP1 PUSH4 0x84465B3E GT PUSH3 0x61 JUMPI DUP1 PUSH4 0x84465B3E EQ PUSH3 0x2CD JUMPI DUP1 PUSH4 0x93990AA6 EQ PUSH3 0x311 JUMPI DUP1 PUSH4 0xB4A8E0A9 EQ PUSH3 0x331 JUMPI DUP1 PUSH4 0xD0E30DB0 EQ PUSH3 0x375 JUMPI PUSH3 0xD4 JUMP JUMPDEST DUP1 PUSH4 0x5463109E EQ PUSH3 0x20F JUMPI DUP1 PUSH4 0x5758F4B7 EQ PUSH3 0x253 JUMPI DUP1 PUSH4 0x65D0DFC4 EQ PUSH3 0x297 JUMPI PUSH3 0xD4 JUMP JUMPDEST DUP1 PUSH4 0x3A853B5D EQ PUSH3 0xD9 JUMPI DUP1 PUSH4 0x3CCFD60B EQ PUSH3 0x11D JUMPI DUP1 PUSH4 0x3CDB9762 EQ PUSH3 0x129 JUMPI DUP1 PUSH4 0x403C9FA8 EQ PUSH3 0x16D JUMPI DUP1 PUSH4 0x4A432A46 EQ PUSH3 0x19D JUMPI DUP1 PUSH4 0x524F3889 EQ PUSH3 0x1CB JUMPI JUMPDEST PUSH1 0x0 DUP1 REVERT JUMPDEST CALLVALUE DUP1 ISZERO PUSH3 0xE6 JUMPI PUSH1 0x0 DUP1 REVERT JUMPDEST POP PUSH3 0x105 PUSH1 0x4 DUP1 CALLDATASIZE SUB DUP2 ADD SWAP1 PUSH3 0xFF SWAP2 SWAP1 PUSH3 0x1263 JUMP JUMPDEST PUSH3 0x381 JUMP JUMPDEST PUSH1 0x40 MLOAD PUSH3 0x114 SWAP2 SWAP1 PUSH3 0x16A3 JUMP JUMPDEST PUSH1 0x40 MLOAD DUP1 SWAP2 SUB SWAP1 RETURN JUMPDEST PUSH3 0x127 PUSH3 0x41E JUMP JUMPDEST STOP JUMPDEST CALLVALUE DUP1 ISZERO PUSH3 0x136 JUMPI PUSH1 0x0 DUP1 REVERT JUMPDEST POP PUSH3 0x155 PUSH1 0x4 DUP1 CALLDATASIZE SUB DUP2 ADD SWAP1 PUSH3 0x14F SWAP2 SWAP1 PUSH3 0x12AC JUMP JUMPDEST PUSH3 0x48D JUMP JUMPDEST PUSH1 0x40 MLOAD PUSH3 0x164 SWAP2 SWAP1 PUSH3 0x16A3 JUMP JUMPDEST PUSH1 0x40 MLOAD DUP1 SWAP2 SUB SWAP1 RETURN JUMPDEST CALLVALUE DUP1 ISZERO PUSH3 0x17A JUMPI PUSH1 0x0 DUP1 REVERT JUMPDEST POP PUSH3 0x185 PUSH3 0x5A9 JUMP JUMPDEST PUSH1 0x40 MLOAD PUSH3 0x194 SWAP2 SWAP1 PUSH3 0x16A3 JUMP JUMPDEST PUSH1 0x40 MLOAD DUP1 SWAP2 SUB SWAP1 RETURN JUMPDEST CALLVALUE DUP1 ISZERO PUSH3 0x1AA JUMPI PUSH1 0x0 DUP1 REVERT JUMPDEST POP PUSH3 0x1C9 PUSH1 0x4 DUP1 CALLDATASIZE SUB DUP2 ADD SWAP1 PUSH3 0x1C3 SWAP2 SWAP1 PUSH3 0x13CF JUMP JUMPDEST PUSH3 0x5B3 JUMP JUMPDEST STOP JUMPDEST CALLVALUE DUP1 ISZERO PUSH3 0x1D8 JUMPI PUSH1 0x0 DUP1 REVERT JUMPDEST POP PUSH3 0x1F7 PUSH1 0x4 DUP1 CALLDATASIZE SUB DUP2 ADD SWAP1 PUSH3 0x1F1 SWAP2 SWAP1 PUSH3 0x1263 JUMP JUMPDEST PUSH3 0x672 JUMP JUMPDEST PUSH1 0x40 MLOAD PUSH3 0x206 SWAP2 SWAP1 PUSH3 0x16A3 JUMP JUMPDEST PUSH1 0x40 MLOAD DUP1 SWAP2 SUB SWAP1 RETURN JUMPDEST CALLVALUE DUP1 ISZERO PUSH3 0x21C JUMPI PUSH1 0x0 DUP1 REVERT JUMPDEST POP PUSH3 0x23B PUSH1 0x4 DUP1 CALLDATASIZE SUB DUP2 ADD SWAP1 PUSH3 0x235 SWAP2 SWAP1 PUSH3 0x1263 JUMP JUMPDEST PUSH3 0x6D9 JUMP JUMPDEST PUSH1 0x40 MLOAD PUSH3 0x24A SWAP2 SWAP1 PUSH3 0x16A3 JUMP JUMPDEST PUSH1 0x40 MLOAD DUP1 SWAP2 SUB SWAP1 RETURN JUMPDEST CALLVALUE DUP1 ISZERO PUSH3 0x260 JUMPI PUSH1 0x0 DUP1 REVERT JUMPDEST POP PUSH3 0x27F PUSH1 0x4 DUP1 CALLDATASIZE SUB DUP2 ADD SWAP1 PUSH3 0x279 SWAP2 SWAP1 PUSH3 0x1263 JUMP JUMPDEST PUSH3 0x7E7 JUMP JUMPDEST PUSH1 0x40 MLOAD PUSH3 0x28E SWAP2 SWAP1 PUSH3 0x16A3 JUMP JUMPDEST PUSH1 0x40 MLOAD DUP1 SWAP2 SUB SWAP1 RETURN JUMPDEST PUSH3 0x2B5 PUSH1 0x4 DUP1 CALLDATASIZE SUB DUP2 ADD SWAP1 PUSH3 0x2AF SWAP2 SWAP1 PUSH3 0x1263 JUMP JUMPDEST PUSH3 0x884 JUMP JUMPDEST PUSH1 0x40 MLOAD PUSH3 0x2C4 SWAP2 SWAP1 PUSH3 0x15F1 JUMP JUMPDEST PUSH1 0x40 MLOAD DUP1 SWAP2 SUB SWAP1 RETURN JUMPDEST CALLVALUE DUP1 ISZERO PUSH3 0x2DA JUMPI PUSH1 0x0 DUP1 REVERT JUMPDEST POP PUSH3 0x2F9 PUSH1 0x4 DUP1 CALLDATASIZE SUB DUP2 ADD SWAP1 PUSH3 0x2F3 SWAP2 SWAP1 PUSH3 0x12AC JUMP JUMPDEST PUSH3 0xB0A JUMP JUMPDEST PUSH1 0x40 MLOAD PUSH3 0x308 SWAP2 SWAP1 PUSH3 0x16A3 JUMP JUMPDEST PUSH1 0x40 MLOAD DUP1 SWAP2 SUB SWAP1 RETURN JUMPDEST PUSH3 0x32F PUSH1 0x4 DUP1 CALLDATASIZE SUB DUP2 ADD SWAP1 PUSH3 0x329 SWAP2 SWAP1 PUSH3 0x13CF JUMP JUMPDEST PUSH3 0xC53 JUMP JUMPDEST STOP JUMPDEST CALLVALUE DUP1 ISZERO PUSH3 0x33E JUMPI PUSH1 0x0 DUP1 REVERT JUMPDEST POP PUSH3 0x35D PUSH1 0x4 DUP1 CALLDATASIZE SUB DUP2 ADD SWAP1 PUSH3 0x357 SWAP2 SWAP1 PUSH3 0x130A JUMP JUMPDEST PUSH3 0xF0D JUMP JUMPDEST PUSH1 0x40 MLOAD PUSH3 0x36C SWAP2 SWAP1 PUSH3 0x15F1 JUMP JUMPDEST PUSH1 0x40 MLOAD DUP1 SWAP2 SUB SWAP1 RETURN JUMPDEST PUSH3 0x37F PUSH3 0x10C9 JUMP JUMPDEST STOP JUMPDEST PUSH1 0x0 ADDRESS PUSH20 0xFFFFFFFFFFFFFFFFFFFFFFFFFFFFFFFFFFFFFFFF AND PUSH4 0x84465B3E DUP5 DUP5 CALLER PUSH1 0x40 MLOAD DUP5 PUSH4 0xFFFFFFFF AND PUSH1 0xE0 SHL DUP2 MSTORE PUSH1 0x4 ADD PUSH3 0x3C2 SWAP4 SWAP3 SWAP2 SWAP1 PUSH3 0x160E JUMP JUMPDEST PUSH1 0x20 PUSH1 0x40 MLOAD DUP1 DUP4 SUB DUP2 DUP7 DUP1 EXTCODESIZE ISZERO DUP1 ISZERO PUSH3 0x3DB JUMPI PUSH1 0x0 DUP1 REVERT JUMPDEST POP GAS STATICCALL ISZERO DUP1 ISZERO PUSH3 0x3F0 JUMPI RETURNDATASIZE PUSH1 0x0 DUP1 RETURNDATACOPY RETURNDATASIZE PUSH1 0x0 REVERT JUMPDEST POP POP POP POP PUSH1 0x40 MLOAD RETURNDATASIZE PUSH1 0x1F NOT PUSH1 0x1F DUP3 ADD AND DUP3 ADD DUP1 PUSH1 0x40 MSTORE POP DUP2 ADD SWAP1 PUSH3 0x416 SWAP2 SWAP1 PUSH3 0x142D JUMP JUMPDEST SWAP1 POP SWAP3 SWAP2 POP POP JUMP JUMPDEST PUSH1 0x0 DUP1 SLOAD SWAP1 PUSH2 0x100 EXP SWAP1 DIV PUSH20 0xFFFFFFFFFFFFFFFFFFFFFFFFFFFFFFFFFFFFFFFF AND PUSH20 0xFFFFFFFFFFFFFFFFFFFFFFFFFFFFFFFFFFFFFFFF AND CALLER PUSH20 0xFFFFFFFFFFFFFFFFFFFFFFFFFFFFFFFFFFFFFFFF AND EQ PUSH3 0x477 JUMPI PUSH1 0x0 DUP1 REVERT JUMPDEST PUSH3 0x485 PUSH1 0x1 SLOAD CALLVALUE PUSH3 0x1138 JUMP JUMPDEST PUSH1 0x1 DUP2 SWAP1 SSTORE POP JUMP JUMPDEST PUSH1 0x0 PUSH1 0x3 DUP5 DUP5 PUSH1 0x40 MLOAD PUSH3 0x4A3 SWAP3 SWAP2 SWAP1 PUSH3 0x14F9 JUMP JUMPDEST SWAP1 DUP2 MSTORE PUSH1 0x20 ADD PUSH1 0x40 MLOAD DUP1 SWAP2 SUB SWAP1 KECCAK256 PUSH1 0x0 SWAP1 SLOAD SWAP1 PUSH2 0x100 EXP SWAP1 DIV PUSH1 0xFF AND PUSH3 0x4C9 JUMPI PUSH1 0x0 DUP1 REVERT JUMPDEST PUSH1 0x0 PUSH1 0x4 DUP6 DUP6 PUSH1 0x40 MLOAD PUSH3 0x4DF SWAP3 SWAP2 SWAP1 PUSH3 0x14F9 JUMP JUMPDEST SWAP1 DUP2 MSTORE PUSH1 0x20 ADD PUSH1 0x40 MLOAD DUP1 SWAP2 SUB SWAP1 KECCAK256 PUSH1 0x0 SWAP1 SLOAD SWAP1 PUSH2 0x100 EXP SWAP1 DIV PUSH20 0xFFFFFFFFFFFFFFFFFFFFFFFFFFFFFFFFFFFFFFFF AND SWAP1 POP DUP1 PUSH20 0xFFFFFFFFFFFFFFFFFFFFFFFFFFFFFFFFFFFFFFFF AND PUSH4 0x70A08231 DUP5 PUSH1 0x40 MLOAD DUP3 PUSH4 0xFFFFFFFF AND PUSH1 0xE0 SHL DUP2 MSTORE PUSH1 0x4 ADD PUSH3 0x54B SWAP2 SWAP1 PUSH3 0x1514 JUMP JUMPDEST PUSH1 0x20 PUSH1 0x40 MLOAD DUP1 DUP4 SUB DUP2 DUP7 DUP1 EXTCODESIZE ISZERO DUP1 ISZERO PUSH3 0x564 JUMPI PUSH1 0x0 DUP1 REVERT JUMPDEST POP GAS STATICCALL ISZERO DUP1 ISZERO PUSH3 0x579 JUMPI RETURNDATASIZE PUSH1 0x0 DUP1 RETURNDATACOPY RETURNDATASIZE PUSH1 0x0 REVERT JUMPDEST POP POP POP POP PUSH1 0x40 MLOAD RETURNDATASIZE PUSH1 0x1F NOT PUSH1 0x1F DUP3 ADD AND DUP3 ADD DUP1 PUSH1 0x40 MSTORE POP DUP2 ADD SWAP1 PUSH3 0x59F SWAP2 SWAP1 PUSH3 0x142D JUMP JUMPDEST SWAP2 POP POP SWAP4 SWAP3 POP POP POP JUMP JUMPDEST PUSH1 0x0 PUSH1 0x1 SLOAD SWAP1 POP SWAP1 JUMP JUMPDEST PUSH1 0x0 DUP1 SLOAD SWAP1 PUSH2 0x100 EXP SWAP1 DIV PUSH20 0xFFFFFFFFFFFFFFFFFFFFFFFFFFFFFFFFFFFFFFFF AND PUSH20 0xFFFFFFFFFFFFFFFFFFFFFFFFFFFFFFFFFFFFFFFF AND CALLER PUSH20 0xFFFFFFFFFFFFFFFFFFFFFFFFFFFFFFFFFFFFFFFF AND EQ PUSH3 0x60C JUMPI PUSH1 0x0 DUP1 REVERT JUMPDEST PUSH1 0x3 DUP4 DUP4 PUSH1 0x40 MLOAD PUSH3 0x620 SWAP3 SWAP2 SWAP1 PUSH3 0x14F9 JUMP JUMPDEST SWAP1 DUP2 MSTORE PUSH1 0x20 ADD PUSH1 0x40 MLOAD DUP1 SWAP2 SUB SWAP1 KECCAK256 PUSH1 0x0 SWAP1 SLOAD SWAP1 PUSH2 0x100 EXP SWAP1 DIV PUSH1 0xFF AND PUSH3 0x646 JUMPI PUSH1 0x0 DUP1 REVERT JUMPDEST DUP1 PUSH1 0x2 DUP5 DUP5 PUSH1 0x40 MLOAD PUSH3 0x65B SWAP3 SWAP2 SWAP1 PUSH3 0x14F9 JUMP JUMPDEST SWAP1 DUP2 MSTORE PUSH1 0x20 ADD PUSH1 0x40 MLOAD DUP1 SWAP2 SUB SWAP1 KECCAK256 DUP2 SWAP1 SSTORE POP POP POP POP JUMP JUMPDEST PUSH1 0x0 PUSH1 0x3 DUP4 DUP4 PUSH1 0x40 MLOAD PUSH3 0x688 SWAP3 SWAP2 SWAP1 PUSH3 0x14F9 JUMP JUMPDEST SWAP1 DUP2 MSTORE PUSH1 0x20 ADD PUSH1 0x40 MLOAD DUP1 SWAP2 SUB SWAP1 KECCAK256 PUSH1 0x0 SWAP1 SLOAD SWAP1 PUSH2 0x100 EXP SWAP1 DIV PUSH1 0xFF AND PUSH3 0x6AE JUMPI PUSH1 0x0 DUP1 REVERT JUMPDEST PUSH1 0x2 DUP4 DUP4 PUSH1 0x40 MLOAD PUSH3 0x6C2 SWAP3 SWAP2 SWAP1 PUSH3 0x14F9 JUMP JUMPDEST SWAP1 DUP2 MSTORE PUSH1 0x20 ADD PUSH1 0x40 MLOAD DUP1 SWAP2 SUB SWAP1 KECCAK256 SLOAD SWAP1 POP SWAP3 SWAP2 POP POP JUMP JUMPDEST PUSH1 0x0 PUSH1 0x3 DUP4 DUP4 PUSH1 0x40 MLOAD PUSH3 0x6EF SWAP3 SWAP2 SWAP1 PUSH3 0x14F9 JUMP JUMPDEST SWAP1 DUP2 MSTORE PUSH1 0x20 ADD PUSH1 0x40 MLOAD DUP1 SWAP2 SUB SWAP1 KECCAK256 PUSH1 0x0 SWAP1 SLOAD SWAP1 PUSH2 0x100 EXP SWAP1 DIV PUSH1 0xFF AND PUSH3 0x715 JUMPI PUSH1 0x0 DUP1 REVERT JUMPDEST PUSH1 0x0 PUSH1 0x4 DUP5 DUP5 PUSH1 0x40 MLOAD PUSH3 0x72B SWAP3 SWAP2 SWAP1 PUSH3 0x14F9 JUMP JUMPDEST SWAP1 DUP2 MSTORE PUSH1 0x20 ADD PUSH1 0x40 MLOAD DUP1 SWAP2 SUB SWAP1 KECCAK256 PUSH1 0x0 SWAP1 SLOAD SWAP1 PUSH2 0x100 EXP SWAP1 DIV PUSH20 0xFFFFFFFFFFFFFFFFFFFFFFFFFFFFFFFFFFFFFFFF AND SWAP1 POP DUP1 PUSH20 0xFFFFFFFFFFFFFFFFFFFFFFFFFFFFFFFFFFFFFFFF AND PUSH4 0x18160DDD PUSH1 0x40 MLOAD DUP2 PUSH4 0xFFFFFFFF AND PUSH1 0xE0 SHL DUP2 MSTORE PUSH1 0x4 ADD PUSH1 0x20 PUSH1 0x40 MLOAD DUP1 DUP4 SUB DUP2 DUP7 DUP1 EXTCODESIZE ISZERO DUP1 ISZERO PUSH3 0x7A3 JUMPI PUSH1 0x0 DUP1 REVERT JUMPDEST POP GAS STATICCALL ISZERO DUP1 ISZERO PUSH3 0x7B8 JUMPI RETURNDATASIZE PUSH1 0x0 DUP1 RETURNDATACOPY RETURNDATASIZE PUSH1 0x0 REVERT JUMPDEST POP POP POP POP PUSH1 0x40 MLOAD RETURNDATASIZE PUSH1 0x1F NOT PUSH1 0x1F DUP3 ADD AND DUP3 ADD DUP1 PUSH1 0x40 MSTORE POP DUP2 ADD SWAP1 PUSH3 0x7DE SWAP2 SWAP1 PUSH3 0x142D JUMP JUMPDEST SWAP2 POP POP SWAP3 SWAP2 POP POP JUMP JUMPDEST PUSH1 0x0 ADDRESS PUSH20 0xFFFFFFFFFFFFFFFFFFFFFFFFFFFFFFFFFFFFFFFF AND PUSH4 0x3CDB9762 DUP5 DUP5 CALLER PUSH1 0x40 MLOAD DUP5 PUSH4 0xFFFFFFFF AND PUSH1 0xE0 SHL DUP2 MSTORE PUSH1 0x4 ADD PUSH3 0x828 SWAP4 SWAP3 SWAP2 SWAP1 PUSH3 0x160E JUMP JUMPDEST PUSH1 0x20 PUSH1 0x40 MLOAD DUP1 DUP4 SUB DUP2 DUP7 DUP1 EXTCODESIZE ISZERO DUP1 ISZERO PUSH3 0x841 JUMPI PUSH1 0x0 DUP1 REVERT JUMPDEST POP GAS STATICCALL ISZERO DUP1 ISZERO PUSH3 0x856 JUMPI RETURNDATASIZE PUSH1 0x0 DUP1 RETURNDATACOPY RETURNDATASIZE PUSH1 0x0 REVERT JUMPDEST POP POP POP POP PUSH1 0x40 MLOAD RETURNDATASIZE PUSH1 0x1F NOT PUSH1 0x1F DUP3 ADD AND DUP3 ADD DUP1 PUSH1 0x40 MSTORE POP DUP2 ADD SWAP1 PUSH3 0x87C SWAP2 SWAP1 PUSH3 0x142D JUMP JUMPDEST SWAP1 POP SWAP3 SWAP2 POP POP JUMP JUMPDEST PUSH1 0x0 DUP1 PUSH1 0x4 DUP5 DUP5 PUSH1 0x40 MLOAD PUSH3 0x89B SWAP3 SWAP2 SWAP1 PUSH3 0x14F9 JUMP JUMPDEST SWAP1 DUP2 MSTORE PUSH1 0x20 ADD PUSH1 0x40 MLOAD DUP1 SWAP2 SUB SWAP1 KECCAK256 PUSH1 0x0 SWAP1 SLOAD SWAP1 PUSH2 0x100 EXP SWAP1 DIV PUSH20 0xFFFFFFFFFFFFFFFFFFFFFFFFFFFFFFFFFFFFFFFF AND SWAP1 POP PUSH1 0x0 PUSH1 0x2 DUP6 DUP6 PUSH1 0x40 MLOAD PUSH3 0x8E2 SWAP3 SWAP2 SWAP1 PUSH3 0x14F9 JUMP JUMPDEST SWAP1 DUP2 MSTORE PUSH1 0x20 ADD PUSH1 0x40 MLOAD DUP1 SWAP2 SUB SWAP1 KECCAK256 SLOAD SWAP1 POP PUSH1 0x0 PUSH1 0x64 PUSH3 0x913 PUSH1 0x7 SLOAD PUSH1 0x64 PUSH3 0x90C SWAP2 SWAP1 PUSH3 0x16DC JUMP JUMPDEST DUP5 PUSH3 0x1150 JUMP JUMPDEST PUSH3 0x91F SWAP2 SWAP1 PUSH3 0x1739 JUMP JUMPDEST SWAP1 POP PUSH1 0x0 DUP2 CALLVALUE PUSH3 0x931 SWAP2 SWAP1 PUSH3 0x1739 JUMP JUMPDEST SWAP1 POP DUP2 CALLVALUE LT ISZERO PUSH3 0x941 JUMPI PUSH1 0x0 DUP1 REVERT JUMPDEST PUSH1 0x0 PUSH1 0x1 SWAP1 POP DUP1 DUP1 ISZERO PUSH3 0x9E4 JUMPI POP DUP5 PUSH20 0xFFFFFFFFFFFFFFFFFFFFFFFFFFFFFFFFFFFFFFFF AND PUSH4 0x95EA7B3 CALLER DUP5 PUSH1 0x40 MLOAD DUP4 PUSH4 0xFFFFFFFF AND PUSH1 0xE0 SHL DUP2 MSTORE PUSH1 0x4 ADD PUSH3 0x98D SWAP3 SWAP2 SWAP1 PUSH3 0x15C4 JUMP JUMPDEST PUSH1 0x20 PUSH1 0x40 MLOAD DUP1 DUP4 SUB DUP2 PUSH1 0x0 DUP8 DUP1 EXTCODESIZE ISZERO DUP1 ISZERO PUSH3 0x9A8 JUMPI PUSH1 0x0 DUP1 REVERT JUMPDEST POP GAS CALL ISZERO DUP1 ISZERO PUSH3 0x9BD JUMPI RETURNDATASIZE PUSH1 0x0 DUP1 RETURNDATACOPY RETURNDATASIZE PUSH1 0x0 REVERT JUMPDEST POP POP POP POP PUSH1 0x40 MLOAD RETURNDATASIZE PUSH1 0x1F NOT PUSH1 0x1F DUP3 ADD AND DUP3 ADD DUP1 PUSH1 0x40 MSTORE POP DUP2 ADD SWAP1 PUSH3 0x9E3 SWAP2 SWAP1 PUSH3 0x1237 JUMP JUMPDEST JUMPDEST SWAP1 POP DUP1 DUP1 ISZERO PUSH3 0xAA5 JUMPI POP DUP5 PUSH20 0xFFFFFFFFFFFFFFFFFFFFFFFFFFFFFFFFFFFFFFFF AND PUSH4 0x23B872DD PUSH1 0x0 DUP1 SLOAD SWAP1 PUSH2 0x100 EXP SWAP1 DIV PUSH20 0xFFFFFFFFFFFFFFFFFFFFFFFFFFFFFFFFFFFFFFFF AND CALLER DUP6 PUSH1 0x40 MLOAD DUP5 PUSH4 0xFFFFFFFF AND PUSH1 0xE0 SHL DUP2 MSTORE PUSH1 0x4 ADD PUSH3 0xA4E SWAP4 SWAP3 SWAP2 SWAP1 PUSH3 0x1531 JUMP JUMPDEST PUSH1 0x20 PUSH1 0x40 MLOAD DUP1 DUP4 SUB DUP2 PUSH1 0x0 DUP8 DUP1 EXTCODESIZE ISZERO DUP1 ISZERO PUSH3 0xA69 JUMPI PUSH1 0x0 DUP1 REVERT JUMPDEST POP GAS CALL ISZERO DUP1 ISZERO PUSH3 0xA7E JUMPI RETURNDATASIZE PUSH1 0x0 DUP1 RETURNDATACOPY RETURNDATASIZE PUSH1 0x0 REVERT JUMPDEST POP POP POP POP PUSH1 0x40 MLOAD RETURNDATASIZE PUSH1 0x1F NOT PUSH1 0x1F DUP3 ADD AND DUP3 ADD DUP1 PUSH1 0x40 MSTORE POP DUP2 ADD SWAP1 PUSH3 0xAA4 SWAP2 SWAP1 PUSH3 0x1237 JUMP JUMPDEST JUMPDEST SWAP1 POP PUSH32 0x40F5583AE6965366E0ACFA8DC48C165ED2FCE35C84DE4966619B6E42E4D5F4C8 CALLER DUP10 DUP10 DUP8 DUP7 PUSH1 0x40 MLOAD PUSH3 0xAE0 SWAP6 SWAP5 SWAP4 SWAP3 SWAP2 SWAP1 PUSH3 0x156E JUMP JUMPDEST PUSH1 0x40 MLOAD DUP1 SWAP2 SUB SWAP1 LOG1 PUSH3 0xAF6 PUSH1 0x1 SLOAD CALLVALUE PUSH3 0x1168 JUMP JUMPDEST PUSH1 0x1 DUP2 SWAP1 SSTORE POP DUP1 SWAP6 POP POP POP POP POP POP SWAP3 SWAP2 POP POP JUMP JUMPDEST PUSH1 0x0 PUSH1 0x3 DUP5 DUP5 PUSH1 0x40 MLOAD PUSH3 0xB20 SWAP3 SWAP2 SWAP1 PUSH3 0x14F9 JUMP JUMPDEST SWAP1 DUP2 MSTORE PUSH1 0x20 ADD PUSH1 0x40 MLOAD DUP1 SWAP2 SUB SWAP1 KECCAK256 PUSH1 0x0 SWAP1 SLOAD SWAP1 PUSH2 0x100 EXP SWAP1 DIV PUSH1 0xFF AND PUSH3 0xB46 JUMPI PUSH1 0x0 DUP1 REVERT JUMPDEST PUSH1 0x0 PUSH1 0x4 DUP6 DUP6 PUSH1 0x40 MLOAD PUSH3 0xB5C SWAP3 SWAP2 SWAP1 PUSH3 0x14F9 JUMP JUMPDEST SWAP1 DUP2 MSTORE PUSH1 0x20 ADD PUSH1 0x40 MLOAD DUP1 SWAP2 SUB SWAP1 KECCAK256 PUSH1 0x0 SWAP1 SLOAD SWAP1 PUSH2 0x100 EXP SWAP1 DIV PUSH20 0xFFFFFFFFFFFFFFFFFFFFFFFFFFFFFFFFFFFFFFFF AND SWAP1 POP PUSH3 0xC49 DUP2 PUSH20 0xFFFFFFFFFFFFFFFFFFFFFFFFFFFFFFFFFFFFFFFF AND PUSH4 0x70A08231 DUP6 PUSH1 0x40 MLOAD DUP3 PUSH4 0xFFFFFFFF AND PUSH1 0xE0 SHL DUP2 MSTORE PUSH1 0x4 ADD PUSH3 0xBCC SWAP2 SWAP1 PUSH3 0x1514 JUMP JUMPDEST PUSH1 0x20 PUSH1 0x40 MLOAD DUP1 DUP4 SUB DUP2 DUP7 DUP1 EXTCODESIZE ISZERO DUP1 ISZERO PUSH3 0xBE5 JUMPI PUSH1 0x0 DUP1 REVERT JUMPDEST POP GAS STATICCALL ISZERO DUP1 ISZERO PUSH3 0xBFA JUMPI RETURNDATASIZE PUSH1 0x0 DUP1 RETURNDATACOPY RETURNDATASIZE PUSH1 0x0 REVERT JUMPDEST POP POP POP POP PUSH1 0x40 MLOAD RETURNDATASIZE PUSH1 0x1F NOT PUSH1 0x1F DUP3 ADD AND DUP3 ADD DUP1 PUSH1 0x40 MSTORE POP DUP2 ADD SWAP1 PUSH3 0xC20 SWAP2 SWAP1 PUSH3 0x142D JUMP JUMPDEST PUSH1 0x2 DUP8 DUP8 PUSH1 0x40 MLOAD PUSH3 0xC34 SWAP3 SWAP2 SWAP1 PUSH3 0x14F9 JUMP JUMPDEST SWAP1 DUP2 MSTORE PUSH1 0x20 ADD PUSH1 0x40 MLOAD DUP1 SWAP2 SUB SWAP1 KECCAK256 SLOAD PUSH3 0x1150 JUMP JUMPDEST SWAP2 POP POP SWAP4 SWAP3 POP POP POP JUMP JUMPDEST PUSH1 0x0 PUSH1 0x4 DUP5 DUP5 PUSH1 0x40 MLOAD PUSH3 0xC69 SWAP3 SWAP2 SWAP1 PUSH3 0x14F9 JUMP JUMPDEST SWAP1 DUP2 MSTORE PUSH1 0x20 ADD PUSH1 0x40 MLOAD DUP1 SWAP2 SUB SWAP1 KECCAK256 PUSH1 0x0 SWAP1 SLOAD SWAP1 PUSH2 0x100 EXP SWAP1 DIV PUSH20 0xFFFFFFFFFFFFFFFFFFFFFFFFFFFFFFFFFFFFFFFF AND SWAP1 POP PUSH1 0x0 PUSH1 0x2 DUP6 DUP6 PUSH1 0x40 MLOAD PUSH3 0xCB0 SWAP3 SWAP2 SWAP1 PUSH3 0x14F9 JUMP JUMPDEST SWAP1 DUP2 MSTORE PUSH1 0x20 ADD PUSH1 0x40 MLOAD DUP1 SWAP2 SUB SWAP1 KECCAK256 SLOAD SWAP1 POP PUSH1 0x0 PUSH1 0x64 PUSH3 0xCE1 PUSH1 0x7 SLOAD PUSH1 0x64 PUSH3 0xCDA SWAP2 SWAP1 PUSH3 0x16DC JUMP JUMPDEST DUP5 PUSH3 0x1150 JUMP JUMPDEST PUSH3 0xCED SWAP2 SWAP1 PUSH3 0x1739 JUMP JUMPDEST SWAP1 POP PUSH1 0x0 DUP4 PUSH20 0xFFFFFFFFFFFFFFFFFFFFFFFFFFFFFFFFFFFFFFFF AND PUSH4 0x70A08231 CALLER PUSH1 0x40 MLOAD DUP3 PUSH4 0xFFFFFFFF AND PUSH1 0xE0 SHL DUP2 MSTORE PUSH1 0x4 ADD PUSH3 0xD2C SWAP2 SWAP1 PUSH3 0x1514 JUMP JUMPDEST PUSH1 0x20 PUSH1 0x40 MLOAD DUP1 DUP4 SUB DUP2 DUP7 DUP1 EXTCODESIZE ISZERO DUP1 ISZERO PUSH3 0xD45 JUMPI PUSH1 0x0 DUP1 REVERT JUMPDEST POP GAS STATICCALL ISZERO DUP1 ISZERO PUSH3 0xD5A JUMPI RETURNDATASIZE PUSH1 0x0 DUP1 RETURNDATACOPY RETURNDATASIZE PUSH1 0x0 REVERT JUMPDEST POP POP POP POP PUSH1 0x40 MLOAD RETURNDATASIZE PUSH1 0x1F NOT PUSH1 0x1F DUP3 ADD AND DUP3 ADD DUP1 PUSH1 0x40 MSTORE POP DUP2 ADD SWAP1 PUSH3 0xD80 SWAP2 SWAP1 PUSH3 0x142D JUMP JUMPDEST SWAP1 POP DUP5 DUP2 LT ISZERO PUSH3 0xD90 JUMPI PUSH1 0x0 DUP1 REVERT JUMPDEST PUSH1 0x0 PUSH3 0xD9E DUP4 DUP8 PUSH3 0x1150 JUMP JUMPDEST SWAP1 POP DUP1 PUSH1 0x1 SLOAD LT ISZERO PUSH3 0xDB0 JUMPI PUSH1 0x0 DUP1 REVERT JUMPDEST DUP5 PUSH20 0xFFFFFFFFFFFFFFFFFFFFFFFFFFFFFFFFFFFFFFFF AND PUSH4 0x23B872DD CALLER PUSH1 0x0 DUP1 SLOAD SWAP1 PUSH2 0x100 EXP SWAP1 DIV PUSH20 0xFFFFFFFFFFFFFFFFFFFFFFFFFFFFFFFFFFFFFFFF AND DUP10 PUSH1 0x40 MLOAD DUP5 PUSH4 0xFFFFFFFF AND PUSH1 0xE0 SHL DUP2 MSTORE PUSH1 0x4 ADD PUSH3 0xE0F SWAP4 SWAP3 SWAP2 SWAP1 PUSH3 0x1531 JUMP JUMPDEST PUSH1 0x20 PUSH1 0x40 MLOAD DUP1 DUP4 SUB DUP2 PUSH1 0x0 DUP8 DUP1 EXTCODESIZE ISZERO DUP1 ISZERO PUSH3 0xE2A JUMPI PUSH1 0x0 DUP1 REVERT JUMPDEST POP GAS CALL ISZERO DUP1 ISZERO PUSH3 0xE3F JUMPI RETURNDATASIZE PUSH1 0x0 DUP1 RETURNDATACOPY RETURNDATASIZE PUSH1 0x0 REVERT JUMPDEST POP POP POP POP PUSH1 0x40 MLOAD RETURNDATASIZE PUSH1 0x1F NOT PUSH1 0x1F DUP3 ADD AND DUP3 ADD DUP1 PUSH1 0x40 MSTORE POP DUP2 ADD SWAP1 PUSH3 0xE65 SWAP2 SWAP1 PUSH3 0x1237 JUMP JUMPDEST POP CALLER PUSH20 0xFFFFFFFFFFFFFFFFFFFFFFFFFFFFFFFFFFFFFFFF AND PUSH2 0x8FC DUP3 SWAP1 DUP2 ISZERO MUL SWAP1 PUSH1 0x40 MLOAD PUSH1 0x0 PUSH1 0x40 MLOAD DUP1 DUP4 SUB DUP2 DUP6 DUP9 DUP9 CALL SWAP4 POP POP POP POP ISZERO DUP1 ISZERO PUSH3 0xEAD JUMPI RETURNDATASIZE PUSH1 0x0 DUP1 RETURNDATACOPY RETURNDATASIZE PUSH1 0x0 REVERT JUMPDEST POP PUSH32 0x49F57F92FE331C8352BC57011DD480B77F5DADAF815D7D9A33FAE03E4ACC349 CALLER DUP10 DUP10 DUP8 DUP11 PUSH1 0x40 MLOAD PUSH3 0xEE7 SWAP6 SWAP5 SWAP4 SWAP3 SWAP2 SWAP1 PUSH3 0x156E JUMP JUMPDEST PUSH1 0x40 MLOAD DUP1 SWAP2 SUB SWAP1 LOG1 PUSH3 0xEFD PUSH1 0x1 SLOAD CALLVALUE PUSH3 0x1138 JUMP JUMPDEST PUSH1 0x1 DUP2 SWAP1 SSTORE POP POP POP POP POP POP POP POP POP JUMP JUMPDEST PUSH1 0x0 DUP1 PUSH1 0x0 SWAP1 SLOAD SWAP1 PUSH2 0x100 EXP SWAP1 DIV PUSH20 0xFFFFFFFFFFFFFFFFFFFFFFFFFFFFFFFFFFFFFFFF AND PUSH20 0xFFFFFFFFFFFFFFFFFFFFFFFFFFFFFFFFFFFFFFFF AND CALLER PUSH20 0xFFFFFFFFFFFFFFFFFFFFFFFFFFFFFFFFFFFFFFFF AND EQ PUSH3 0xF69 JUMPI PUSH1 0x0 DUP1 REVERT JUMPDEST PUSH1 0x3 DUP9 DUP9 PUSH1 0x40 MLOAD PUSH3 0xF7D SWAP3 SWAP2 SWAP1 PUSH3 0x14F9 JUMP JUMPDEST SWAP1 DUP2 MSTORE PUSH1 0x20 ADD PUSH1 0x40 MLOAD DUP1 SWAP2 SUB SWAP1 KECCAK256 PUSH1 0x0 SWAP1 SLOAD SWAP1 PUSH2 0x100 EXP SWAP1 DIV PUSH1 0xFF AND ISZERO PUSH3 0xFA4 JUMPI PUSH1 0x0 DUP1 REVERT JUMPDEST DUP6 DUP6 DUP6 DUP6 PUSH1 0x5 SLOAD PUSH1 0x6 PUSH1 0x0 SWAP1 SLOAD SWAP1 PUSH2 0x100 EXP SWAP1 DIV PUSH1 0xFF AND PUSH1 0x40 MLOAD PUSH3 0xFC9 SWAP1 PUSH3 0x1180 JUMP JUMPDEST PUSH3 0xFDA SWAP7 SWAP6 SWAP5 SWAP4 SWAP3 SWAP2 SWAP1 PUSH3 0x1644 JUMP JUMPDEST PUSH1 0x40 MLOAD DUP1 SWAP2 SUB SWAP1 PUSH1 0x0 CREATE DUP1 ISZERO DUP1 ISZERO PUSH3 0xFF7 JUMPI RETURNDATASIZE PUSH1 0x0 DUP1 RETURNDATACOPY RETURNDATASIZE PUSH1 0x0 REVERT JUMPDEST POP PUSH1 0x4 DUP10 DUP10 PUSH1 0x40 MLOAD PUSH3 0x100C SWAP3 SWAP2 SWAP1 PUSH3 0x14F9 JUMP JUMPDEST SWAP1 DUP2 MSTORE PUSH1 0x20 ADD PUSH1 0x40 MLOAD DUP1 SWAP2 SUB SWAP1 KECCAK256 PUSH1 0x0 PUSH2 0x100 EXP DUP2 SLOAD DUP2 PUSH20 0xFFFFFFFFFFFFFFFFFFFFFFFFFFFFFFFFFFFFFFFF MUL NOT AND SWAP1 DUP4 PUSH20 0xFFFFFFFFFFFFFFFFFFFFFFFFFFFFFFFFFFFFFFFF AND MUL OR SWAP1 SSTORE POP PUSH1 0x1 PUSH1 0x3 DUP10 DUP10 PUSH1 0x40 MLOAD PUSH3 0x106E SWAP3 SWAP2 SWAP1 PUSH3 0x14F9 JUMP JUMPDEST SWAP1 DUP2 MSTORE PUSH1 0x20 ADD PUSH1 0x40 MLOAD DUP1 SWAP2 SUB SWAP1 KECCAK256 PUSH1 0x0 PUSH2 0x100 EXP DUP2 SLOAD DUP2 PUSH1 0xFF MUL NOT AND SWAP1 DUP4 ISZERO ISZERO MUL OR SWAP1 SSTORE POP DUP2 PUSH1 0x2 DUP10 DUP10 PUSH1 0x40 MLOAD PUSH3 0x10A8 SWAP3 SWAP2 SWAP1 PUSH3 0x14F9 JUMP JUMPDEST SWAP1 DUP2 MSTORE PUSH1 0x20 ADD PUSH1 0x40 MLOAD DUP1 SWAP2 SUB SWAP1 KECCAK256 DUP2 SWAP1 SSTORE POP PUSH1 0x1 SWAP1 POP SWAP8 SWAP7 POP POP POP POP POP POP POP JUMP JUMPDEST PUSH1 0x0 DUP1 SLOAD SWAP1 PUSH2 0x100 EXP SWAP1 DIV PUSH20 0xFFFFFFFFFFFFFFFFFFFFFFFFFFFFFFFFFFFFFFFF AND PUSH20 0xFFFFFFFFFFFFFFFFFFFFFFFFFFFFFFFFFFFFFFFF AND CALLER PUSH20 0xFFFFFFFFFFFFFFFFFFFFFFFFFFFFFFFFFFFFFFFF AND EQ PUSH3 0x1122 JUMPI PUSH1 0x0 DUP1 REVERT JUMPDEST PUSH3 0x1130 PUSH1 0x1 SLOAD CALLVALUE PUSH3 0x1168 JUMP JUMPDEST PUSH1 0x1 DUP2 SWAP1 SSTORE POP JUMP JUMPDEST PUSH1 0x0 DUP2 DUP4 PUSH3 0x1148 SWAP2 SWAP1 PUSH3 0x17D2 JUMP JUMPDEST SWAP1 POP SWAP3 SWAP2 POP POP JUMP JUMPDEST PUSH1 0x0 DUP2 DUP4 PUSH3 0x1160 SWAP2 SWAP1 PUSH3 0x1771 JUMP JUMPDEST SWAP1 POP SWAP3 SWAP2 POP POP JUMP JUMPDEST PUSH1 0x0 DUP2 DUP4 PUSH3 0x1178 SWAP2 SWAP1 PUSH3 0x16DC JUMP JUMPDEST SWAP1 POP SWAP3 SWAP2 POP POP JUMP JUMPDEST PUSH2 0x11B8 DUP1 PUSH3 0x1931 DUP4 CODECOPY ADD SWAP1 JUMP JUMPDEST PUSH1 0x0 DUP2 CALLDATALOAD SWAP1 POP PUSH3 0x119F DUP2 PUSH3 0x18E2 JUMP JUMPDEST SWAP3 SWAP2 POP POP JUMP JUMPDEST PUSH1 0x0 DUP2 MLOAD SWAP1 POP PUSH3 0x11B6 DUP2 PUSH3 0x18FC JUMP JUMPDEST SWAP3 SWAP2 POP POP JUMP JUMPDEST PUSH1 0x0 DUP1 DUP4 PUSH1 0x1F DUP5 ADD SLT PUSH3 0x11CF JUMPI PUSH1 0x0 DUP1 REVERT JUMPDEST DUP3 CALLDATALOAD SWAP1 POP PUSH8 0xFFFFFFFFFFFFFFFF DUP2 GT ISZERO PUSH3 0x11E9 JUMPI PUSH1 0x0 DUP1 REVERT JUMPDEST PUSH1 0x20 DUP4 ADD SWAP2 POP DUP4 PUSH1 0x1 DUP3 MUL DUP4 ADD GT ISZERO PUSH3 0x1202 JUMPI PUSH1 0x0 DUP1 REVERT JUMPDEST SWAP3 POP SWAP3 SWAP1 POP JUMP JUMPDEST PUSH1 0x0 DUP2 CALLDATALOAD SWAP1 POP PUSH3 0x121A DUP2 PUSH3 0x1916 JUMP JUMPDEST SWAP3 SWAP2 POP POP JUMP JUMPDEST PUSH1 0x0 DUP2 MLOAD SWAP1 POP PUSH3 0x1231 DUP2 PUSH3 0x1916 JUMP JUMPDEST SWAP3 SWAP2 POP POP JUMP JUMPDEST PUSH1 0x0 PUSH1 0x20 DUP3 DUP5 SUB SLT ISZERO PUSH3 0x124A JUMPI PUSH1 0x0 DUP1 REVERT JUMPDEST PUSH1 0x0 PUSH3 0x125A DUP5 DUP3 DUP6 ADD PUSH3 0x11A5 JUMP JUMPDEST SWAP2 POP POP SWAP3 SWAP2 POP POP JUMP JUMPDEST PUSH1 0x0 DUP1 PUSH1 0x20 DUP4 DUP6 SUB SLT ISZERO PUSH3 0x1277 JUMPI PUSH1 0x0 DUP1 REVERT JUMPDEST PUSH1 0x0 DUP4 ADD CALLDATALOAD PUSH8 0xFFFFFFFFFFFFFFFF DUP2 GT ISZERO PUSH3 0x1292 JUMPI PUSH1 0x0 DUP1 REVERT JUMPDEST PUSH3 0x12A0 DUP6 DUP3 DUP7 ADD PUSH3 0x11BC JUMP JUMPDEST SWAP3 POP SWAP3 POP POP SWAP3 POP SWAP3 SWAP1 POP JUMP JUMPDEST PUSH1 0x0 DUP1 PUSH1 0x0 PUSH1 0x40 DUP5 DUP7 SUB SLT ISZERO PUSH3 0x12C2 JUMPI PUSH1 0x0 DUP1 REVERT JUMPDEST PUSH1 0x0 DUP5 ADD CALLDATALOAD PUSH8 0xFFFFFFFFFFFFFFFF DUP2 GT ISZERO PUSH3 0x12DD JUMPI PUSH1 0x0 DUP1 REVERT JUMPDEST PUSH3 0x12EB DUP7 DUP3 DUP8 ADD PUSH3 0x11BC JUMP JUMPDEST SWAP4 POP SWAP4 POP POP PUSH1 0x20 PUSH3 0x1300 DUP7 DUP3 DUP8 ADD PUSH3 0x118E JUMP JUMPDEST SWAP2 POP POP SWAP3 POP SWAP3 POP SWAP3 JUMP JUMPDEST PUSH1 0x0 DUP1 PUSH1 0x0 DUP1 PUSH1 0x0 DUP1 PUSH1 0x0 PUSH1 0x80 DUP9 DUP11 SUB SLT ISZERO PUSH3 0x1326 JUMPI PUSH1 0x0 DUP1 REVERT JUMPDEST PUSH1 0x0 DUP9 ADD CALLDATALOAD PUSH8 0xFFFFFFFFFFFFFFFF DUP2 GT ISZERO PUSH3 0x1341 JUMPI PUSH1 0x0 DUP1 REVERT JUMPDEST PUSH3 0x134F DUP11 DUP3 DUP12 ADD PUSH3 0x11BC JUMP JUMPDEST SWAP8 POP SWAP8 POP POP PUSH1 0x20 DUP9 ADD CALLDATALOAD PUSH8 0xFFFFFFFFFFFFFFFF DUP2 GT ISZERO PUSH3 0x136F JUMPI PUSH1 0x0 DUP1 REVERT JUMPDEST PUSH3 0x137D DUP11 DUP3 DUP12 ADD PUSH3 0x11BC JUMP JUMPDEST SWAP6 POP SWAP6 POP POP PUSH1 0x40 DUP9 ADD CALLDATALOAD PUSH8 0xFFFFFFFFFFFFFFFF DUP2 GT ISZERO PUSH3 0x139D JUMPI PUSH1 0x0 DUP1 REVERT JUMPDEST PUSH3 0x13AB DUP11 DUP3 DUP12 ADD PUSH3 0x11BC JUMP JUMPDEST SWAP4 POP SWAP4 POP POP PUSH1 0x60 PUSH3 0x13C0 DUP11 DUP3 DUP12 ADD PUSH3 0x1209 JUMP JUMPDEST SWAP2 POP POP SWAP3 SWAP6 SWAP9 SWAP2 SWAP5 SWAP8 POP SWAP3 SWAP6 POP JUMP JUMPDEST PUSH1 0x0 DUP1 PUSH1 0x0 PUSH1 0x40 DUP5 DUP7 SUB SLT ISZERO PUSH3 0x13E5 JUMPI PUSH1 0x0 DUP1 REVERT JUMPDEST PUSH1 0x0 DUP5 ADD CALLDATALOAD PUSH8 0xFFFFFFFFFFFFFFFF DUP2 GT ISZERO PUSH3 0x1400 JUMPI PUSH1 0x0 DUP1 REVERT JUMPDEST PUSH3 0x140E DUP7 DUP3 DUP8 ADD PUSH3 0x11BC JUMP JUMPDEST SWAP4 POP SWAP4 POP POP PUSH1 0x20 PUSH3 0x1423 DUP7 DUP3 DUP8 ADD PUSH3 0x1209 JUMP JUMPDEST SWAP2 POP POP SWAP3 POP SWAP3 POP SWAP3 JUMP JUMPDEST PUSH1 0x0 PUSH1 0x20 DUP3 DUP5 SUB SLT ISZERO PUSH3 0x1440 JUMPI PUSH1 0x0 DUP1 REVERT JUMPDEST PUSH1 0x0 PUSH3 0x1450 DUP5 DUP3 DUP6 ADD PUSH3 0x1220 JUMP JUMPDEST SWAP2 POP POP SWAP3 SWAP2 POP POP JUMP JUMPDEST PUSH3 0x1464 DUP2 PUSH3 0x180D JUMP JUMPDEST DUP3 MSTORE POP POP JUMP JUMPDEST PUSH3 0x1475 DUP2 PUSH3 0x1821 JUMP JUMPDEST DUP3 MSTORE POP POP JUMP JUMPDEST PUSH1 0x0 PUSH3 0x1489 DUP4 DUP6 PUSH3 0x16C0 JUMP JUMPDEST SWAP4 POP PUSH3 0x1498 DUP4 DUP6 DUP5 PUSH3 0x1864 JUMP JUMPDEST PUSH3 0x14A3 DUP4 PUSH3 0x18D1 JUMP JUMPDEST DUP5 ADD SWAP1 POP SWAP4 SWAP3 POP POP POP JUMP JUMPDEST PUSH1 0x0 PUSH3 0x14BC DUP4 DUP6 PUSH3 0x16D1 JUMP JUMPDEST SWAP4 POP PUSH3 0x14CB DUP4 DUP6 DUP5 PUSH3 0x1864 JUMP JUMPDEST DUP3 DUP5 ADD SWAP1 POP SWAP4 SWAP3 POP POP POP JUMP JUMPDEST PUSH3 0x14E2 DUP2 PUSH3 0x184D JUMP JUMPDEST DUP3 MSTORE POP POP JUMP JUMPDEST PUSH3 0x14F3 DUP2 PUSH3 0x1857 JUMP JUMPDEST DUP3 MSTORE POP POP JUMP JUMPDEST PUSH1 0x0 PUSH3 0x1508 DUP3 DUP5 DUP7 PUSH3 0x14AE JUMP JUMPDEST SWAP2 POP DUP2 SWAP1 POP SWAP4 SWAP3 POP POP POP JUMP JUMPDEST PUSH1 0x0 PUSH1 0x20 DUP3 ADD SWAP1 POP PUSH3 0x152B PUSH1 0x0 DUP4 ADD DUP5 PUSH3 0x1459 JUMP JUMPDEST SWAP3 SWAP2 POP POP JUMP JUMPDEST PUSH1 0x0 PUSH1 0x60 DUP3 ADD SWAP1 POP PUSH3 0x1548 PUSH1 0x0 DUP4 ADD DUP7 PUSH3 0x1459 JUMP JUMPDEST PUSH3 0x1557 PUSH1 0x20 DUP4 ADD DUP6 PUSH3 0x1459 JUMP JUMPDEST PUSH3 0x1566 PUSH1 0x40 DUP4 ADD DUP5 PUSH3 0x14D7 JUMP JUMPDEST SWAP5 SWAP4 POP POP POP POP JUMP JUMPDEST PUSH1 0x0 PUSH1 0x80 DUP3 ADD SWAP1 POP PUSH3 0x1585 PUSH1 0x0 DUP4 ADD DUP9 PUSH3 0x1459 JUMP JUMPDEST DUP2 DUP2 SUB PUSH1 0x20 DUP4 ADD MSTORE PUSH3 0x159A DUP2 DUP7 DUP9 PUSH3 0x147B JUMP JUMPDEST SWAP1 POP PUSH3 0x15AB PUSH1 0x40 DUP4 ADD DUP6 PUSH3 0x14D7 JUMP JUMPDEST PUSH3 0x15BA PUSH1 0x60 DUP4 ADD DUP5 PUSH3 0x14D7 JUMP JUMPDEST SWAP7 SWAP6 POP POP POP POP POP POP JUMP JUMPDEST PUSH1 0x0 PUSH1 0x40 DUP3 ADD SWAP1 POP PUSH3 0x15DB PUSH1 0x0 DUP4 ADD DUP6 PUSH3 0x1459 JUMP JUMPDEST PUSH3 0x15EA PUSH1 0x20 DUP4 ADD DUP5 PUSH3 0x14D7 JUMP JUMPDEST SWAP4 SWAP3 POP POP POP JUMP JUMPDEST PUSH1 0x0 PUSH1 0x20 DUP3 ADD SWAP1 POP PUSH3 0x1608 PUSH1 0x0 DUP4 ADD DUP5 PUSH3 0x146A JUMP JUMPDEST SWAP3 SWAP2 POP POP JUMP JUMPDEST PUSH1 0x0 PUSH1 0x40 DUP3 ADD SWAP1 POP DUP2 DUP2 SUB PUSH1 0x0 DUP4 ADD MSTORE PUSH3 0x162B DUP2 DUP6 DUP8 PUSH3 0x147B JUMP JUMPDEST SWAP1 POP PUSH3 0x163C PUSH1 0x20 DUP4 ADD DUP5 PUSH3 0x1459 JUMP JUMPDEST SWAP5 SWAP4 POP POP POP POP JUMP JUMPDEST PUSH1 0x0 PUSH1 0x80 DUP3 ADD SWAP1 POP DUP2 DUP2 SUB PUSH1 0x0 DUP4 ADD MSTORE PUSH3 0x1661 DUP2 DUP9 DUP11 PUSH3 0x147B JUMP JUMPDEST SWAP1 POP DUP2 DUP2 SUB PUSH1 0x20 DUP4 ADD MSTORE PUSH3 0x1678 DUP2 DUP7 DUP9 PUSH3 0x147B JUMP JUMPDEST SWAP1 POP PUSH3 0x1689 PUSH1 0x40 DUP4 ADD DUP6 PUSH3 0x14D7 JUMP JUMPDEST PUSH3 0x1698 PUSH1 0x60 DUP4 ADD DUP5 PUSH3 0x14E8 JUMP JUMPDEST SWAP8 SWAP7 POP POP POP POP POP POP POP JUMP JUMPDEST PUSH1 0x0 PUSH1 0x20 DUP3 ADD SWAP1 POP PUSH3 0x16BA PUSH1 0x0 DUP4 ADD DUP5 PUSH3 0x14D7 JUMP JUMPDEST SWAP3 SWAP2 POP POP JUMP JUMPDEST PUSH1 0x0 DUP3 DUP3 MSTORE PUSH1 0x20 DUP3 ADD SWAP1 POP SWAP3 SWAP2 POP POP JUMP JUMPDEST PUSH1 0x0 DUP2 SWAP1 POP SWAP3 SWAP2 POP POP JUMP JUMPDEST PUSH1 0x0 PUSH3 0x16E9 DUP3 PUSH3 0x184D JUMP JUMPDEST SWAP2 POP PUSH3 0x16F6 DUP4 PUSH3 0x184D JUMP JUMPDEST SWAP3 POP DUP3 PUSH32 0xFFFFFFFFFFFFFFFFFFFFFFFFFFFFFFFFFFFFFFFFFFFFFFFFFFFFFFFFFFFFFFFF SUB DUP3 GT ISZERO PUSH3 0x172E JUMPI PUSH3 0x172D PUSH3 0x1873 JUMP JUMPDEST JUMPDEST DUP3 DUP3 ADD SWAP1 POP SWAP3 SWAP2 POP POP JUMP JUMPDEST PUSH1 0x0 PUSH3 0x1746 DUP3 PUSH3 0x184D JUMP JUMPDEST SWAP2 POP PUSH3 0x1753 DUP4 PUSH3 0x184D JUMP JUMPDEST SWAP3 POP DUP3 PUSH3 0x1766 JUMPI PUSH3 0x1765 PUSH3 0x18A2 JUMP JUMPDEST JUMPDEST DUP3 DUP3 DIV SWAP1 POP SWAP3 SWAP2 POP POP JUMP JUMPDEST PUSH1 0x0 PUSH3 0x177E DUP3 PUSH3 0x184D JUMP JUMPDEST SWAP2 POP PUSH3 0x178B DUP4 PUSH3 0x184D JUMP JUMPDEST SWAP3 POP DUP2 PUSH32 0xFFFFFFFFFFFFFFFFFFFFFFFFFFFFFFFFFFFFFFFFFFFFFFFFFFFFFFFFFFFFFFFF DIV DUP4 GT DUP3 ISZERO ISZERO AND ISZERO PUSH3 0x17C7 JUMPI PUSH3 0x17C6 PUSH3 0x1873 JUMP JUMPDEST JUMPDEST DUP3 DUP3 MUL SWAP1 POP SWAP3 SWAP2 POP POP JUMP JUMPDEST PUSH1 0x0 PUSH3 0x17DF DUP3 PUSH3 0x184D JUMP JUMPDEST SWAP2 POP PUSH3 0x17EC DUP4 PUSH3 0x184D JUMP JUMPDEST SWAP3 POP DUP3 DUP3 LT ISZERO PUSH3 0x1802 JUMPI PUSH3 0x1801 PUSH3 0x1873 JUMP JUMPDEST JUMPDEST DUP3 DUP3 SUB SWAP1 POP SWAP3 SWAP2 POP POP JUMP JUMPDEST PUSH1 0x0 PUSH3 0x181A DUP3 PUSH3 0x182D JUMP JUMPDEST SWAP1 POP SWAP2 SWAP1 POP JUMP JUMPDEST PUSH1 0x0 DUP2 ISZERO ISZERO SWAP1 POP SWAP2 SWAP1 POP JUMP JUMPDEST PUSH1 0x0 PUSH20 0xFFFFFFFFFFFFFFFFFFFFFFFFFFFFFFFFFFFFFFFF DUP3 AND SWAP1 POP SWAP2 SWAP1 POP JUMP JUMPDEST PUSH1 0x0 DUP2 SWAP1 POP SWAP2 SWAP1 POP JUMP JUMPDEST PUSH1 0x0 PUSH1 0xFF DUP3 AND SWAP1 POP SWAP2 SWAP1 POP JUMP JUMPDEST DUP3 DUP2 DUP4 CALLDATACOPY PUSH1 0x0 DUP4 DUP4 ADD MSTORE POP POP POP JUMP JUMPDEST PUSH32 0x4E487B7100000000000000000000000000000000000000000000000000000000 PUSH1 0x0 MSTORE PUSH1 0x11 PUSH1 0x4 MSTORE PUSH1 0x24 PUSH1 0x0 REVERT JUMPDEST PUSH32 0x4E487B7100000000000000000000000000000000000000000000000000000000 PUSH1 0x0 MSTORE PUSH1 0x12 PUSH1 0x4 MSTORE PUSH1 0x24 PUSH1 0x0 REVERT JUMPDEST PUSH1 0x0 PUSH1 0x1F NOT PUSH1 0x1F DUP4 ADD AND SWAP1 POP SWAP2 SWAP1 POP JUMP JUMPDEST PUSH3 0x18ED DUP2 PUSH3 0x180D JUMP JUMPDEST DUP2 EQ PUSH3 0x18F9 JUMPI PUSH1 0x0 DUP1 REVERT JUMPDEST POP JUMP JUMPDEST PUSH3 0x1907 DUP2 PUSH3 0x1821 JUMP JUMPDEST DUP2 EQ PUSH3 0x1913 JUMPI PUSH1 0x0 DUP1 REVERT JUMPDEST POP JUMP JUMPDEST PUSH3 0x1921 DUP2 PUSH3 0x184D JUMP JUMPDEST DUP2 EQ PUSH3 0x192D JUMPI PUSH1 0x0 DUP1 REVERT JUMPDEST POP JUMP INVALID PUSH1 0x80 PUSH1 0x40 MSTORE PUSH1 0x40 MLOAD PUSH3 0x11B8 CODESIZE SUB DUP1 PUSH3 0x11B8 DUP4 CODECOPY DUP2 DUP2 ADD PUSH1 0x40 MSTORE DUP2 ADD SWAP1 PUSH3 0x29 SWAP2 SWAP1 PUSH3 0x27C JUMP JUMPDEST CALLER PUSH1 0x0 DUP1 PUSH2 0x100 EXP DUP2 SLOAD DUP2 PUSH20 0xFFFFFFFFFFFFFFFFFFFFFFFFFFFFFFFFFFFFFFFF MUL NOT AND SWAP1 DUP4 PUSH20 0xFFFFFFFFFFFFFFFFFFFFFFFFFFFFFFFFFFFFFFFF AND MUL OR SWAP1 SSTORE POP DUP4 PUSH1 0x1 SWAP1 DUP1 MLOAD SWAP1 PUSH1 0x20 ADD SWAP1 PUSH3 0x81 SWAP3 SWAP2 SWAP1 PUSH3 0x12C JUMP JUMPDEST POP DUP3 PUSH1 0x2 SWAP1 DUP1 MLOAD SWAP1 PUSH1 0x20 ADD SWAP1 PUSH3 0x9A SWAP3 SWAP2 SWAP1 PUSH3 0x12C JUMP JUMPDEST POP DUP2 PUSH1 0x3 DUP2 SWAP1 SSTORE POP DUP1 PUSH1 0x4 PUSH1 0x0 PUSH2 0x100 EXP DUP2 SLOAD DUP2 PUSH1 0xFF MUL NOT AND SWAP1 DUP4 PUSH1 0xFF AND MUL OR SWAP1 SSTORE POP DUP2 PUSH1 0x5 PUSH1 0x0 DUP1 PUSH1 0x0 SWAP1 SLOAD SWAP1 PUSH2 0x100 EXP SWAP1 DIV PUSH20 0xFFFFFFFFFFFFFFFFFFFFFFFFFFFFFFFFFFFFFFFF AND PUSH20 0xFFFFFFFFFFFFFFFFFFFFFFFFFFFFFFFFFFFFFFFF AND PUSH20 0xFFFFFFFFFFFFFFFFFFFFFFFFFFFFFFFFFFFFFFFF AND DUP2 MSTORE PUSH1 0x20 ADD SWAP1 DUP2 MSTORE PUSH1 0x20 ADD PUSH1 0x0 KECCAK256 DUP2 SWAP1 SSTORE POP POP POP POP POP PUSH3 0x4D5 JUMP JUMPDEST DUP3 DUP1 SLOAD PUSH3 0x13A SWAP1 PUSH3 0x3C6 JUMP JUMPDEST SWAP1 PUSH1 0x0 MSTORE PUSH1 0x20 PUSH1 0x0 KECCAK256 SWAP1 PUSH1 0x1F ADD PUSH1 0x20 SWAP1 DIV DUP2 ADD SWAP3 DUP3 PUSH3 0x15E JUMPI PUSH1 0x0 DUP6 SSTORE PUSH3 0x1AA JUMP JUMPDEST DUP3 PUSH1 0x1F LT PUSH3 0x179 JUMPI DUP1 MLOAD PUSH1 0xFF NOT AND DUP4 DUP1 ADD OR DUP6 SSTORE PUSH3 0x1AA JUMP JUMPDEST DUP3 DUP1 ADD PUSH1 0x1 ADD DUP6 SSTORE DUP3 ISZERO PUSH3 0x1AA JUMPI SWAP2 DUP3 ADD JUMPDEST DUP3 DUP2 GT ISZERO PUSH3 0x1A9 JUMPI DUP3 MLOAD DUP3 SSTORE SWAP2 PUSH1 0x20 ADD SWAP2 SWAP1 PUSH1 0x1 ADD SWAP1 PUSH3 0x18C JUMP JUMPDEST JUMPDEST POP SWAP1 POP PUSH3 0x1B9 SWAP2 SWAP1 PUSH3 0x1BD JUMP JUMPDEST POP SWAP1 JUMP JUMPDEST JUMPDEST DUP1 DUP3 GT ISZERO PUSH3 0x1D8 JUMPI PUSH1 0x0 DUP2 PUSH1 0x0 SWAP1 SSTORE POP PUSH1 0x1 ADD PUSH3 0x1BE JUMP JUMPDEST POP SWAP1 JUMP JUMPDEST PUSH1 0x0 PUSH3 0x1F3 PUSH3 0x1ED DUP5 PUSH3 0x343 JUMP JUMPDEST PUSH3 0x31A JUMP JUMPDEST SWAP1 POP DUP3 DUP2 MSTORE PUSH1 0x20 DUP2 ADD DUP5 DUP5 DUP5 ADD GT ISZERO PUSH3 0x20C JUMPI PUSH1 0x0 DUP1 REVERT JUMPDEST PUSH3 0x219 DUP5 DUP3 DUP6 PUSH3 0x390 JUMP JUMPDEST POP SWAP4 SWAP3 POP POP POP JUMP JUMPDEST PUSH1 0x0 DUP3 PUSH1 0x1F DUP4 ADD SLT PUSH3 0x233 JUMPI PUSH1 0x0 DUP1 REVERT JUMPDEST DUP2 MLOAD PUSH3 0x245 DUP5 DUP3 PUSH1 0x20 DUP7 ADD PUSH3 0x1DC JUMP JUMPDEST SWAP2 POP POP SWAP3 SWAP2 POP POP JUMP JUMPDEST PUSH1 0x0 DUP2 MLOAD SWAP1 POP PUSH3 0x25F DUP2 PUSH3 0x4A1 JUMP JUMPDEST SWAP3 SWAP2 POP POP JUMP JUMPDEST PUSH1 0x0 DUP2 MLOAD SWAP1 POP PUSH3 0x276 DUP2 PUSH3 0x4BB JUMP JUMPDEST SWAP3 SWAP2 POP POP JUMP JUMPDEST PUSH1 0x0 DUP1 PUSH1 0x0 DUP1 PUSH1 0x80 DUP6 DUP8 SUB SLT ISZERO PUSH3 0x293 JUMPI PUSH1 0x0 DUP1 REVERT JUMPDEST PUSH1 0x0 DUP6 ADD MLOAD PUSH8 0xFFFFFFFFFFFFFFFF DUP2 GT ISZERO PUSH3 0x2AE JUMPI PUSH1 0x0 DUP1 REVERT JUMPDEST PUSH3 0x2BC DUP8 DUP3 DUP9 ADD PUSH3 0x221 JUMP JUMPDEST SWAP5 POP POP PUSH1 0x20 DUP6 ADD MLOAD PUSH8 0xFFFFFFFFFFFFFFFF DUP2 GT ISZERO PUSH3 0x2DA JUMPI PUSH1 0x0 DUP1 REVERT JUMPDEST PUSH3 0x2E8 DUP8 DUP3 DUP9 ADD PUSH3 0x221 JUMP JUMPDEST SWAP4 POP POP PUSH1 0x40 PUSH3 0x2FB DUP8 DUP3 DUP9 ADD PUSH3 0x24E JUMP JUMPDEST SWAP3 POP POP PUSH1 0x60 PUSH3 0x30E DUP8 DUP3 DUP9 ADD PUSH3 0x265 JUMP JUMPDEST SWAP2 POP POP SWAP3 SWAP6 SWAP2 SWAP5 POP SWAP3 POP JUMP JUMPDEST PUSH1 0x0 PUSH3 0x326 PUSH3 0x339 JUMP JUMPDEST SWAP1 POP PUSH3 0x334 DUP3 DUP3 PUSH3 0x3FC JUMP JUMPDEST SWAP2 SWAP1 POP JUMP JUMPDEST PUSH1 0x0 PUSH1 0x40 MLOAD SWAP1 POP SWAP1 JUMP JUMPDEST PUSH1 0x0 PUSH8 0xFFFFFFFFFFFFFFFF DUP3 GT ISZERO PUSH3 0x361 JUMPI PUSH3 0x360 PUSH3 0x461 JUMP JUMPDEST JUMPDEST PUSH3 0x36C DUP3 PUSH3 0x490 JUMP JUMPDEST SWAP1 POP PUSH1 0x20 DUP2 ADD SWAP1 POP SWAP2 SWAP1 POP JUMP JUMPDEST PUSH1 0x0 DUP2 SWAP1 POP SWAP2 SWAP1 POP JUMP JUMPDEST PUSH1 0x0 PUSH1 0xFF DUP3 AND SWAP1 POP SWAP2 SWAP1 POP JUMP JUMPDEST PUSH1 0x0 JUMPDEST DUP4 DUP2 LT ISZERO PUSH3 0x3B0 JUMPI DUP1 DUP3 ADD MLOAD DUP2 DUP5 ADD MSTORE PUSH1 0x20 DUP2 ADD SWAP1 POP PUSH3 0x393 JUMP JUMPDEST DUP4 DUP2 GT ISZERO PUSH3 0x3C0 JUMPI PUSH1 0x0 DUP5 DUP5 ADD MSTORE JUMPDEST POP POP POP POP JUMP JUMPDEST PUSH1 0x0 PUSH1 0x2 DUP3 DIV SWAP1 POP PUSH1 0x1 DUP3 AND DUP1 PUSH3 0x3DF JUMPI PUSH1 0x7F DUP3 AND SWAP2 POP JUMPDEST PUSH1 0x20 DUP3 LT DUP2 EQ ISZERO PUSH3 0x3F6 JUMPI PUSH3 0x3F5 PUSH3 0x432 JUMP JUMPDEST JUMPDEST POP SWAP2 SWAP1 POP JUMP JUMPDEST PUSH3 0x407 DUP3 PUSH3 0x490 JUMP JUMPDEST DUP2 ADD DUP2 DUP2 LT PUSH8 0xFFFFFFFFFFFFFFFF DUP3 GT OR ISZERO PUSH3 0x429 JUMPI PUSH3 0x428 PUSH3 0x461 JUMP JUMPDEST JUMPDEST DUP1 PUSH1 0x40 MSTORE POP POP POP JUMP JUMPDEST PUSH32 0x4E487B7100000000000000000000000000000000000000000000000000000000 PUSH1 0x0 MSTORE PUSH1 0x22 PUSH1 0x4 MSTORE PUSH1 0x24 PUSH1 0x0 REVERT JUMPDEST PUSH32 0x4E487B7100000000000000000000000000000000000000000000000000000000 PUSH1 0x0 MSTORE PUSH1 0x41 PUSH1 0x4 MSTORE PUSH1 0x24 PUSH1 0x0 REVERT JUMPDEST PUSH1 0x0 PUSH1 0x1F NOT PUSH1 0x1F DUP4 ADD AND SWAP1 POP SWAP2 SWAP1 POP JUMP JUMPDEST PUSH3 0x4AC DUP2 PUSH3 0x379 JUMP JUMPDEST DUP2 EQ PUSH3 0x4B8 JUMPI PUSH1 0x0 DUP1 REVERT JUMPDEST POP JUMP JUMPDEST PUSH3 0x4C6 DUP2 PUSH3 0x383 JUMP JUMPDEST DUP2 EQ PUSH3 0x4D2 JUMPI PUSH1 0x0 DUP1 REVERT JUMPDEST POP JUMP JUMPDEST PUSH2 0xCD3 DUP1 PUSH3 0x4E5 PUSH1 0x0 CODECOPY PUSH1 0x0 RETURN INVALID PUSH1 0x80 PUSH1 0x40 MSTORE CALLVALUE DUP1 ISZERO PUSH2 0x10 JUMPI PUSH1 0x0 DUP1 REVERT JUMPDEST POP PUSH1 0x4 CALLDATASIZE LT PUSH2 0x93 JUMPI PUSH1 0x0 CALLDATALOAD PUSH1 0xE0 SHR DUP1 PUSH4 0x313CE567 GT PUSH2 0x66 JUMPI DUP1 PUSH4 0x313CE567 EQ PUSH2 0x134 JUMPI DUP1 PUSH4 0x70A08231 EQ PUSH2 0x152 JUMPI DUP1 PUSH4 0x95D89B41 EQ PUSH2 0x182 JUMPI DUP1 PUSH4 0xA9059CBB EQ PUSH2 0x1A0 JUMPI DUP1 PUSH4 0xDD62ED3E EQ PUSH2 0x1D0 JUMPI PUSH2 0x93 JUMP JUMPDEST DUP1 PUSH4 0x6FDDE03 EQ PUSH2 0x98 JUMPI DUP1 PUSH4 0x95EA7B3 EQ PUSH2 0xB6 JUMPI DUP1 PUSH4 0x18160DDD EQ PUSH2 0xE6 JUMPI DUP1 PUSH4 0x23B872DD EQ PUSH2 0x104 JUMPI JUMPDEST PUSH1 0x0 DUP1 REVERT JUMPDEST PUSH2 0xA0 PUSH2 0x200 JUMP JUMPDEST PUSH1 0x40 MLOAD PUSH2 0xAD SWAP2 SWAP1 PUSH2 0xA48 JUMP JUMPDEST PUSH1 0x40 MLOAD DUP1 SWAP2 SUB SWAP1 RETURN JUMPDEST PUSH2 0xD0 PUSH1 0x4 DUP1 CALLDATASIZE SUB DUP2 ADD SWAP1 PUSH2 0xCB SWAP2 SWAP1 PUSH2 0x98B JUMP JUMPDEST PUSH2 0x292 JUMP JUMPDEST PUSH1 0x40 MLOAD PUSH2 0xDD SWAP2 SWAP1 PUSH2 0xA2D JUMP JUMPDEST PUSH1 0x40 MLOAD DUP1 SWAP2 SUB SWAP1 RETURN JUMPDEST PUSH2 0xEE PUSH2 0x384 JUMP JUMPDEST PUSH1 0x40 MLOAD PUSH2 0xFB SWAP2 SWAP1 PUSH2 0xA6A JUMP JUMPDEST PUSH1 0x40 MLOAD DUP1 SWAP2 SUB SWAP1 RETURN JUMPDEST PUSH2 0x11E PUSH1 0x4 DUP1 CALLDATASIZE SUB DUP2 ADD SWAP1 PUSH2 0x119 SWAP2 SWAP1 PUSH2 0x93C JUMP JUMPDEST PUSH2 0x38E JUMP JUMPDEST PUSH1 0x40 MLOAD PUSH2 0x12B SWAP2 SWAP1 PUSH2 0xA2D JUMP JUMPDEST PUSH1 0x40 MLOAD DUP1 SWAP2 SUB SWAP1 RETURN JUMPDEST PUSH2 0x13C PUSH2 0x6F3 JUMP JUMPDEST PUSH1 0x40 MLOAD PUSH2 0x149 SWAP2 SWAP1 PUSH2 0xA85 JUMP JUMPDEST PUSH1 0x40 MLOAD DUP1 SWAP2 SUB SWAP1 RETURN JUMPDEST PUSH2 0x16C PUSH1 0x4 DUP1 CALLDATASIZE SUB DUP2 ADD SWAP1 PUSH2 0x167 SWAP2 SWAP1 PUSH2 0x8D7 JUMP JUMPDEST PUSH2 0x70A JUMP JUMPDEST PUSH1 0x40 MLOAD PUSH2 0x179 SWAP2 SWAP1 PUSH2 0xA6A JUMP JUMPDEST PUSH1 0x40 MLOAD DUP1 SWAP2 SUB SWAP1 RETURN JUMPDEST PUSH2 0x18A PUSH2 0x753 JUMP JUMPDEST PUSH1 0x40 MLOAD PUSH2 0x197 SWAP2 SWAP1 PUSH2 0xA48 JUMP JUMPDEST PUSH1 0x40 MLOAD DUP1 SWAP2 SUB SWAP1 RETURN JUMPDEST PUSH2 0x1BA PUSH1 0x4 DUP1 CALLDATASIZE SUB DUP2 ADD SWAP1 PUSH2 0x1B5 SWAP2 SWAP1 PUSH2 0x98B JUMP JUMPDEST PUSH2 0x7E5 JUMP JUMPDEST PUSH1 0x40 MLOAD PUSH2 0x1C7 SWAP2 SWAP1 PUSH2 0xA2D JUMP JUMPDEST PUSH1 0x40 MLOAD DUP1 SWAP2 SUB SWAP1 RETURN JUMPDEST PUSH2 0x1EA PUSH1 0x4 DUP1 CALLDATASIZE SUB DUP2 ADD SWAP1 PUSH2 0x1E5 SWAP2 SWAP1 PUSH2 0x900 JUMP JUMPDEST PUSH2 0x7FA JUMP JUMPDEST PUSH1 0x40 MLOAD PUSH2 0x1F7 SWAP2 SWAP1 PUSH2 0xA6A JUMP JUMPDEST PUSH1 0x40 MLOAD DUP1 SWAP2 SUB SWAP1 RETURN JUMPDEST PUSH1 0x60 PUSH1 0x1 DUP1 SLOAD PUSH2 0x20F SWAP1 PUSH2 0xBCE JUMP JUMPDEST DUP1 PUSH1 0x1F ADD PUSH1 0x20 DUP1 SWAP2 DIV MUL PUSH1 0x20 ADD PUSH1 0x40 MLOAD SWAP1 DUP2 ADD PUSH1 0x40 MSTORE DUP1 SWAP3 SWAP2 SWAP1 DUP2 DUP2 MSTORE PUSH1 0x20 ADD DUP3 DUP1 SLOAD PUSH2 0x23B SWAP1 PUSH2 0xBCE JUMP JUMPDEST DUP1 ISZERO PUSH2 0x288 JUMPI DUP1 PUSH1 0x1F LT PUSH2 0x25D JUMPI PUSH2 0x100 DUP1 DUP4 SLOAD DIV MUL DUP4 MSTORE SWAP2 PUSH1 0x20 ADD SWAP2 PUSH2 0x288 JUMP JUMPDEST DUP3 ADD SWAP2 SWAP1 PUSH1 0x0 MSTORE PUSH1 0x20 PUSH1 0x0 KECCAK256 SWAP1 JUMPDEST DUP2 SLOAD DUP2 MSTORE SWAP1 PUSH1 0x1 ADD SWAP1 PUSH1 0x20 ADD DUP1 DUP4 GT PUSH2 0x26B JUMPI DUP3 SWAP1 SUB PUSH1 0x1F AND DUP3 ADD SWAP2 JUMPDEST POP POP POP POP POP SWAP1 POP SWAP1 JUMP JUMPDEST PUSH1 0x0 DUP2 PUSH1 0x6 PUSH1 0x0 CALLER PUSH20 0xFFFFFFFFFFFFFFFFFFFFFFFFFFFFFFFFFFFFFFFF AND PUSH20 0xFFFFFFFFFFFFFFFFFFFFFFFFFFFFFFFFFFFFFFFF AND DUP2 MSTORE PUSH1 0x20 ADD SWAP1 DUP2 MSTORE PUSH1 0x20 ADD PUSH1 0x0 KECCAK256 PUSH1 0x0 DUP6 PUSH20 0xFFFFFFFFFFFFFFFFFFFFFFFFFFFFFFFFFFFFFFFF AND PUSH20 0xFFFFFFFFFFFFFFFFFFFFFFFFFFFFFFFFFFFFFFFF AND DUP2 MSTORE PUSH1 0x20 ADD SWAP1 DUP2 MSTORE PUSH1 0x20 ADD PUSH1 0x0 KECCAK256 DUP2 SWAP1 SSTORE POP DUP3 PUSH20 0xFFFFFFFFFFFFFFFFFFFFFFFFFFFFFFFFFFFFFFFF AND CALLER PUSH20 0xFFFFFFFFFFFFFFFFFFFFFFFFFFFFFFFFFFFFFFFF AND PUSH32 0x8C5BE1E5EBEC7D5BD14F71427D1E84F3DD0314C0F7B2291E5B200AC8C7C3B925 DUP5 PUSH1 0x40 MLOAD PUSH2 0x372 SWAP2 SWAP1 PUSH2 0xA6A JUMP JUMPDEST PUSH1 0x40 MLOAD DUP1 SWAP2 SUB SWAP1 LOG3 PUSH1 0x1 SWAP1 POP SWAP3 SWAP2 POP POP JUMP JUMPDEST PUSH1 0x0 PUSH1 0x3 SLOAD SWAP1 POP SWAP1 JUMP JUMPDEST PUSH1 0x0 DUP2 PUSH1 0x5 PUSH1 0x0 DUP7 PUSH20 0xFFFFFFFFFFFFFFFFFFFFFFFFFFFFFFFFFFFFFFFF AND PUSH20 0xFFFFFFFFFFFFFFFFFFFFFFFFFFFFFFFFFFFFFFFF AND DUP2 MSTORE PUSH1 0x20 ADD SWAP1 DUP2 MSTORE PUSH1 0x20 ADD PUSH1 0x0 KECCAK256 SLOAD LT ISZERO PUSH2 0x3DC JUMPI PUSH1 0x0 DUP1 REVERT JUMPDEST DUP2 PUSH1 0x6 PUSH1 0x0 DUP7 PUSH20 0xFFFFFFFFFFFFFFFFFFFFFFFFFFFFFFFFFFFFFFFF AND PUSH20 0xFFFFFFFFFFFFFFFFFFFFFFFFFFFFFFFFFFFFFFFF AND DUP2 MSTORE PUSH1 0x20 ADD SWAP1 DUP2 MSTORE PUSH1 0x20 ADD PUSH1 0x0 KECCAK256 PUSH1 0x0 DUP6 PUSH20 0xFFFFFFFFFFFFFFFFFFFFFFFFFFFFFFFFFFFFFFFF AND PUSH20 0xFFFFFFFFFFFFFFFFFFFFFFFFFFFFFFFFFFFFFFFF AND DUP2 MSTORE PUSH1 0x20 ADD SWAP1 DUP2 MSTORE PUSH1 0x20 ADD PUSH1 0x0 KECCAK256 SLOAD LT ISZERO PUSH2 0x465 JUMPI PUSH1 0x0 DUP1 REVERT JUMPDEST PUSH2 0x4AE PUSH1 0x5 PUSH1 0x0 DUP7 PUSH20 0xFFFFFFFFFFFFFFFFFFFFFFFFFFFFFFFFFFFFFFFF AND PUSH20 0xFFFFFFFFFFFFFFFFFFFFFFFFFFFFFFFFFFFFFFFF AND DUP2 MSTORE PUSH1 0x20 ADD SWAP1 DUP2 MSTORE PUSH1 0x20 ADD PUSH1 0x0 KECCAK256 SLOAD DUP4 PUSH2 0x881 JUMP JUMPDEST PUSH1 0x5 PUSH1 0x0 DUP7 PUSH20 0xFFFFFFFFFFFFFFFFFFFFFFFFFFFFFFFFFFFFFFFF AND PUSH20 0xFFFFFFFFFFFFFFFFFFFFFFFFFFFFFFFFFFFFFFFF AND DUP2 MSTORE PUSH1 0x20 ADD SWAP1 DUP2 MSTORE PUSH1 0x20 ADD PUSH1 0x0 KECCAK256 DUP2 SWAP1 SSTORE POP PUSH2 0x53A PUSH1 0x5 PUSH1 0x0 DUP6 PUSH20 0xFFFFFFFFFFFFFFFFFFFFFFFFFFFFFFFFFFFFFFFF AND PUSH20 0xFFFFFFFFFFFFFFFFFFFFFFFFFFFFFFFFFFFFFFFF AND DUP2 MSTORE PUSH1 0x20 ADD SWAP1 DUP2 MSTORE PUSH1 0x20 ADD PUSH1 0x0 KECCAK256 SLOAD DUP4 PUSH2 0x897 JUMP JUMPDEST PUSH1 0x5 PUSH1 0x0 DUP6 PUSH20 0xFFFFFFFFFFFFFFFFFFFFFFFFFFFFFFFFFFFFFFFF AND PUSH20 0xFFFFFFFFFFFFFFFFFFFFFFFFFFFFFFFFFFFFFFFF AND DUP2 MSTORE PUSH1 0x20 ADD SWAP1 DUP2 MSTORE PUSH1 0x20 ADD PUSH1 0x0 KECCAK256 DUP2 SWAP1 SSTORE POP PUSH2 0x603 PUSH1 0x6 PUSH1 0x0 DUP7 PUSH20 0xFFFFFFFFFFFFFFFFFFFFFFFFFFFFFFFFFFFFFFFF AND PUSH20 0xFFFFFFFFFFFFFFFFFFFFFFFFFFFFFFFFFFFFFFFF AND DUP2 MSTORE PUSH1 0x20 ADD SWAP1 DUP2 MSTORE PUSH1 0x20 ADD PUSH1 0x0 KECCAK256 PUSH1 0x0 DUP6 PUSH20 0xFFFFFFFFFFFFFFFFFFFFFFFFFFFFFFFFFFFFFFFF AND PUSH20 0xFFFFFFFFFFFFFFFFFFFFFFFFFFFFFFFFFFFFFFFF AND DUP2 MSTORE PUSH1 0x20 ADD SWAP1 DUP2 MSTORE PUSH1 0x20 ADD PUSH1 0x0 KECCAK256 SLOAD DUP4 PUSH2 0x881 JUMP JUMPDEST PUSH1 0x6 PUSH1 0x0 DUP7 PUSH20 0xFFFFFFFFFFFFFFFFFFFFFFFFFFFFFFFFFFFFFFFF AND PUSH20 0xFFFFFFFFFFFFFFFFFFFFFFFFFFFFFFFFFFFFFFFF AND DUP2 MSTORE PUSH1 0x20 ADD SWAP1 DUP2 MSTORE PUSH1 0x20 ADD PUSH1 0x0 KECCAK256 PUSH1 0x0 DUP6 PUSH20 0xFFFFFFFFFFFFFFFFFFFFFFFFFFFFFFFFFFFFFFFF AND PUSH20 0xFFFFFFFFFFFFFFFFFFFFFFFFFFFFFFFFFFFFFFFF AND DUP2 MSTORE PUSH1 0x20 ADD SWAP1 DUP2 MSTORE PUSH1 0x20 ADD PUSH1 0x0 KECCAK256 DUP2 SWAP1 SSTORE POP DUP3 PUSH20 0xFFFFFFFFFFFFFFFFFFFFFFFFFFFFFFFFFFFFFFFF AND DUP5 PUSH20 0xFFFFFFFFFFFFFFFFFFFFFFFFFFFFFFFFFFFFFFFF AND PUSH32 0xDDF252AD1BE2C89B69C2B068FC378DAA952BA7F163C4A11628F55A4DF523B3EF DUP5 PUSH1 0x40 MLOAD PUSH2 0x6E0 SWAP2 SWAP1 PUSH2 0xA6A JUMP JUMPDEST PUSH1 0x40 MLOAD DUP1 SWAP2 SUB SWAP1 LOG3 PUSH1 0x1 SWAP1 POP SWAP4 SWAP3 POP POP POP JUMP JUMPDEST PUSH1 0x0 PUSH1 0x4 PUSH1 0x0 SWAP1 SLOAD SWAP1 PUSH2 0x100 EXP SWAP1 DIV PUSH1 0xFF AND SWAP1 POP SWAP1 JUMP JUMPDEST PUSH1 0x0 PUSH1 0x5 PUSH1 0x0 DUP4 PUSH20 0xFFFFFFFFFFFFFFFFFFFFFFFFFFFFFFFFFFFFFFFF AND PUSH20 0xFFFFFFFFFFFFFFFFFFFFFFFFFFFFFFFFFFFFFFFF AND DUP2 MSTORE PUSH1 0x20 ADD SWAP1 DUP2 MSTORE PUSH1 0x20 ADD PUSH1 0x0 KECCAK256 SLOAD SWAP1 POP SWAP2 SWAP1 POP JUMP JUMPDEST PUSH1 0x60 PUSH1 0x2 DUP1 SLOAD PUSH2 0x762 SWAP1 PUSH2 0xBCE JUMP JUMPDEST DUP1 PUSH1 0x1F ADD PUSH1 0x20 DUP1 SWAP2 DIV MUL PUSH1 0x20 ADD PUSH1 0x40 MLOAD SWAP1 DUP2 ADD PUSH1 0x40 MSTORE DUP1 SWAP3 SWAP2 SWAP1 DUP2 DUP2 MSTORE PUSH1 0x20 ADD DUP3 DUP1 SLOAD PUSH2 0x78E SWAP1 PUSH2 0xBCE JUMP JUMPDEST DUP1 ISZERO PUSH2 0x7DB JUMPI DUP1 PUSH1 0x1F LT PUSH2 0x7B0 JUMPI PUSH2 0x100 DUP1 DUP4 SLOAD DIV MUL DUP4 MSTORE SWAP2 PUSH1 0x20 ADD SWAP2 PUSH2 0x7DB JUMP JUMPDEST DUP3 ADD SWAP2 SWAP1 PUSH1 0x0 MSTORE PUSH1 0x20 PUSH1 0x0 KECCAK256 SWAP1 JUMPDEST DUP2 SLOAD DUP2 MSTORE SWAP1 PUSH1 0x1 ADD SWAP1 PUSH1 0x20 ADD DUP1 DUP4 GT PUSH2 0x7BE JUMPI DUP3 SWAP1 SUB PUSH1 0x1F AND DUP3 ADD SWAP2 JUMPDEST POP POP POP POP POP SWAP1 POP SWAP1 JUMP JUMPDEST PUSH1 0x0 PUSH2 0x7F2 CALLER DUP5 DUP5 PUSH2 0x38E JUMP JUMPDEST SWAP1 POP SWAP3 SWAP2 POP POP JUMP JUMPDEST PUSH1 0x0 PUSH1 0x6 PUSH1 0x0 DUP5 PUSH20 0xFFFFFFFFFFFFFFFFFFFFFFFFFFFFFFFFFFFFFFFF AND PUSH20 0xFFFFFFFFFFFFFFFFFFFFFFFFFFFFFFFFFFFFFFFF AND DUP2 MSTORE PUSH1 0x20 ADD SWAP1 DUP2 MSTORE PUSH1 0x20 ADD PUSH1 0x0 KECCAK256 PUSH1 0x0 DUP4 PUSH20 0xFFFFFFFFFFFFFFFFFFFFFFFFFFFFFFFFFFFFFFFF AND PUSH20 0xFFFFFFFFFFFFFFFFFFFFFFFFFFFFFFFFFFFFFFFF AND DUP2 MSTORE PUSH1 0x20 ADD SWAP1 DUP2 MSTORE PUSH1 0x20 ADD PUSH1 0x0 KECCAK256 SLOAD SWAP1 POP SWAP3 SWAP2 POP POP JUMP JUMPDEST PUSH1 0x0 DUP2 DUP4 PUSH2 0x88F SWAP2 SWAP1 PUSH2 0xB12 JUMP JUMPDEST SWAP1 POP SWAP3 SWAP2 POP POP JUMP JUMPDEST PUSH1 0x0 DUP2 DUP4 PUSH2 0x8A5 SWAP2 SWAP1 PUSH2 0xABC JUMP JUMPDEST SWAP1 POP SWAP3 SWAP2 POP POP JUMP JUMPDEST PUSH1 0x0 DUP2 CALLDATALOAD SWAP1 POP PUSH2 0x8BC DUP2 PUSH2 0xC6F JUMP JUMPDEST SWAP3 SWAP2 POP POP JUMP JUMPDEST PUSH1 0x0 DUP2 CALLDATALOAD SWAP1 POP PUSH2 0x8D1 DUP2 PUSH2 0xC86 JUMP JUMPDEST SWAP3 SWAP2 POP POP JUMP JUMPDEST PUSH1 0x0 PUSH1 0x20 DUP3 DUP5 SUB SLT ISZERO PUSH2 0x8E9 JUMPI PUSH1 0x0 DUP1 REVERT JUMPDEST PUSH1 0x0 PUSH2 0x8F7 DUP5 DUP3 DUP6 ADD PUSH2 0x8AD JUMP JUMPDEST SWAP2 POP POP SWAP3 SWAP2 POP POP JUMP JUMPDEST PUSH1 0x0 DUP1 PUSH1 0x40 DUP4 DUP6 SUB SLT ISZERO PUSH2 0x913 JUMPI PUSH1 0x0 DUP1 REVERT JUMPDEST PUSH1 0x0 PUSH2 0x921 DUP6 DUP3 DUP7 ADD PUSH2 0x8AD JUMP JUMPDEST SWAP3 POP POP PUSH1 0x20 PUSH2 0x932 DUP6 DUP3 DUP7 ADD PUSH2 0x8AD JUMP JUMPDEST SWAP2 POP POP SWAP3 POP SWAP3 SWAP1 POP JUMP JUMPDEST PUSH1 0x0 DUP1 PUSH1 0x0 PUSH1 0x60 DUP5 DUP7 SUB SLT ISZERO PUSH2 0x951 JUMPI PUSH1 0x0 DUP1 REVERT JUMPDEST PUSH1 0x0 PUSH2 0x95F DUP7 DUP3 DUP8 ADD PUSH2 0x8AD JUMP JUMPDEST SWAP4 POP POP PUSH1 0x20 PUSH2 0x970 DUP7 DUP3 DUP8 ADD PUSH2 0x8AD JUMP JUMPDEST SWAP3 POP POP PUSH1 0x40 PUSH2 0x981 DUP7 DUP3 DUP8 ADD PUSH2 0x8C2 JUMP JUMPDEST SWAP2 POP POP SWAP3 POP SWAP3 POP SWAP3 JUMP JUMPDEST PUSH1 0x0 DUP1 PUSH1 0x40 DUP4 DUP6 SUB SLT ISZERO PUSH2 0x99E JUMPI PUSH1 0x0 DUP1 REVERT JUMPDEST PUSH1 0x0 PUSH2 0x9AC DUP6 DUP3 DUP7 ADD PUSH2 0x8AD JUMP JUMPDEST SWAP3 POP POP PUSH1 0x20 PUSH2 0x9BD DUP6 DUP3 DUP7 ADD PUSH2 0x8C2 JUMP JUMPDEST SWAP2 POP POP SWAP3 POP SWAP3 SWAP1 POP JUMP JUMPDEST PUSH2 0x9D0 DUP2 PUSH2 0xB58 JUMP JUMPDEST DUP3 MSTORE POP POP JUMP JUMPDEST PUSH1 0x0 PUSH2 0x9E1 DUP3 PUSH2 0xAA0 JUMP JUMPDEST PUSH2 0x9EB DUP2 DUP6 PUSH2 0xAAB JUMP JUMPDEST SWAP4 POP PUSH2 0x9FB DUP2 DUP6 PUSH1 0x20 DUP7 ADD PUSH2 0xB9B JUMP JUMPDEST PUSH2 0xA04 DUP2 PUSH2 0xC5E JUMP JUMPDEST DUP5 ADD SWAP2 POP POP SWAP3 SWAP2 POP POP JUMP JUMPDEST PUSH2 0xA18 DUP2 PUSH2 0xB84 JUMP JUMPDEST DUP3 MSTORE POP POP JUMP JUMPDEST PUSH2 0xA27 DUP2 PUSH2 0xB8E JUMP JUMPDEST DUP3 MSTORE POP POP JUMP JUMPDEST PUSH1 0x0 PUSH1 0x20 DUP3 ADD SWAP1 POP PUSH2 0xA42 PUSH1 0x0 DUP4 ADD DUP5 PUSH2 0x9C7 JUMP JUMPDEST SWAP3 SWAP2 POP POP JUMP JUMPDEST PUSH1 0x0 PUSH1 0x20 DUP3 ADD SWAP1 POP DUP2 DUP2 SUB PUSH1 0x0 DUP4 ADD MSTORE PUSH2 0xA62 DUP2 DUP5 PUSH2 0x9D6 JUMP JUMPDEST SWAP1 POP SWAP3 SWAP2 POP POP JUMP JUMPDEST PUSH1 0x0 PUSH1 0x20 DUP3 ADD SWAP1 POP PUSH2 0xA7F PUSH1 0x0 DUP4 ADD DUP5 PUSH2 0xA0F JUMP JUMPDEST SWAP3 SWAP2 POP POP JUMP JUMPDEST PUSH1 0x0 PUSH1 0x20 DUP3 ADD SWAP1 POP PUSH2 0xA9A PUSH1 0x0 DUP4 ADD DUP5 PUSH2 0xA1E JUMP JUMPDEST SWAP3 SWAP2 POP POP JUMP JUMPDEST PUSH1 0x0 DUP2 MLOAD SWAP1 POP SWAP2 SWAP1 POP JUMP JUMPDEST PUSH1 0x0 DUP3 DUP3 MSTORE PUSH1 0x20 DUP3 ADD SWAP1 POP SWAP3 SWAP2 POP POP JUMP JUMPDEST PUSH1 0x0 PUSH2 0xAC7 DUP3 PUSH2 0xB84 JUMP JUMPDEST SWAP2 POP PUSH2 0xAD2 DUP4 PUSH2 0xB84 JUMP JUMPDEST SWAP3 POP DUP3 PUSH32 0xFFFFFFFFFFFFFFFFFFFFFFFFFFFFFFFFFFFFFFFFFFFFFFFFFFFFFFFFFFFFFFFF SUB DUP3 GT ISZERO PUSH2 0xB07 JUMPI PUSH2 0xB06 PUSH2 0xC00 JUMP JUMPDEST JUMPDEST DUP3 DUP3 ADD SWAP1 POP SWAP3 SWAP2 POP POP JUMP JUMPDEST PUSH1 0x0 PUSH2 0xB1D DUP3 PUSH2 0xB84 JUMP JUMPDEST SWAP2 POP PUSH2 0xB28 DUP4 PUSH2 0xB84 JUMP JUMPDEST SWAP3 POP DUP3 DUP3 LT ISZERO PUSH2 0xB3B JUMPI PUSH2 0xB3A PUSH2 0xC00 JUMP JUMPDEST JUMPDEST DUP3 DUP3 SUB SWAP1 POP SWAP3 SWAP2 POP POP JUMP JUMPDEST PUSH1 0x0 PUSH2 0xB51 DUP3 PUSH2 0xB64 JUMP JUMPDEST SWAP1 POP SWAP2 SWAP1 POP JUMP JUMPDEST PUSH1 0x0 DUP2 ISZERO ISZERO SWAP1 POP SWAP2 SWAP1 POP JUMP JUMPDEST PUSH1 0x0 PUSH20 0xFFFFFFFFFFFFFFFFFFFFFFFFFFFFFFFFFFFFFFFF DUP3 AND SWAP1 POP SWAP2 SWAP1 POP JUMP JUMPDEST PUSH1 0x0 DUP2 SWAP1 POP SWAP2 SWAP1 POP JUMP JUMPDEST PUSH1 0x0 PUSH1 0xFF DUP3 AND SWAP1 POP SWAP2 SWAP1 POP JUMP JUMPDEST PUSH1 0x0 JUMPDEST DUP4 DUP2 LT ISZERO PUSH2 0xBB9 JUMPI DUP1 DUP3 ADD MLOAD DUP2 DUP5 ADD MSTORE PUSH1 0x20 DUP2 ADD SWAP1 POP PUSH2 0xB9E JUMP JUMPDEST DUP4 DUP2 GT ISZERO PUSH2 0xBC8 JUMPI PUSH1 0x0 DUP5 DUP5 ADD MSTORE JUMPDEST POP POP POP POP JUMP JUMPDEST PUSH1 0x0 PUSH1 0x2 DUP3 DIV SWAP1 POP PUSH1 0x1 DUP3 AND DUP1 PUSH2 0xBE6 JUMPI PUSH1 0x7F DUP3 AND SWAP2 POP JUMPDEST PUSH1 0x20 DUP3 LT DUP2 EQ ISZERO PUSH2 0xBFA JUMPI PUSH2 0xBF9 PUSH2 0xC2F JUMP JUMPDEST JUMPDEST POP SWAP2 SWAP1 POP JUMP JUMPDEST PUSH32 0x4E487B7100000000000000000000000000000000000000000000000000000000 PUSH1 0x0 MSTORE PUSH1 0x11 PUSH1 0x4 MSTORE PUSH1 0x24 PUSH1 0x0 REVERT JUMPDEST PUSH32 0x4E487B7100000000000000000000000000000000000000000000000000000000 PUSH1 0x0 MSTORE PUSH1 0x22 PUSH1 0x4 MSTORE PUSH1 0x24 PUSH1 0x0 REVERT JUMPDEST PUSH1 0x0 PUSH1 0x1F NOT PUSH1 0x1F DUP4 ADD AND SWAP1 POP SWAP2 SWAP1 POP JUMP JUMPDEST PUSH2 0xC78 DUP2 PUSH2 0xB46 JUMP JUMPDEST DUP2 EQ PUSH2 0xC83 JUMPI PUSH1 0x0 DUP1 REVERT JUMPDEST POP JUMP JUMPDEST PUSH2 0xC8F DUP2 PUSH2 0xB84 JUMP JUMPDEST DUP2 EQ PUSH2 0xC9A JUMPI PUSH1 0x0 DUP1 REVERT JUMPDEST POP JUMP INVALID LOG2 PUSH5 0x6970667358 0x22 SLT KECCAK256 0x2E 0xA8 0xF8 EQ 0x29 0xC5 0x2D PUSH23 0x7B1AA6D1D1BFFA7EA585B1C208989AB0EB1F991E523B2C 0x2B PUSH5 0x736F6C6343 STOP ADDMOD DIV STOP CALLER LOG2 PUSH5 0x6970667358 0x22 SLT KECCAK256 PUSH29 0x46B5226D4D6470E26ED4073299E4232EB22C5763B6F8E90BC9BC0C19B6 0xFC 0x2A PUSH5 0x736F6C6343 STOP ADDMOD DIV STOP CALLER "
		},
		"gasEstimates": {
			"creation": {
				"codeDepositCost": "2207600",
				"executionCost": "104087",
				"totalCost": "2311687"
			},
			"external": {
				"buyToken(string)": "infinite",
				"deposit()": "infinite",
				"getMyTokenBalance(string)": "infinite",
				"getMyTokenValue(string)": "infinite",
				"getPot()": "1204",
				"getPrice(string)": "infinite",
				"getTokenBalance(string,address)": "infinite",
				"getTokenValue(string,address)": "infinite",
				"getTotalSupply(string)": "infinite",
				"mintToken(string,string,string,uint256)": "infinite",
				"sellToken(string,uint256)": "infinite",
				"updatePrice(string,uint256)": "infinite",
				"withdraw()": "infinite"
			}
		},
		"methodIdentifiers": {
			"buyToken(string)": "65d0dfc4",
			"deposit()": "d0e30db0",
			"getMyTokenBalance(string)": "5758f4b7",
			"getMyTokenValue(string)": "3a853b5d",
			"getPot()": "403c9fa8",
			"getPrice(string)": "524f3889",
			"getTokenBalance(string,address)": "3cdb9762",
			"getTokenValue(string,address)": "84465b3e",
			"getTotalSupply(string)": "5463109e",
			"mintToken(string,string,string,uint256)": "b4a8e0a9",
			"sellToken(string,uint256)": "93990aa6",
			"updatePrice(string,uint256)": "4a432a46",
			"withdraw()": "3ccfd60b"
		}
	},
	"abi": [
		{
			"inputs": [],
			"stateMutability": "payable",
			"type": "constructor"
		},
		{
			"anonymous": false,
			"inputs": [
				{
					"indexed": false,
					"internalType": "address",
					"name": "buyer",
					"type": "address"
				},
				{
					"indexed": false,
					"internalType": "string",
					"name": "playerID",
					"type": "string"
				},
				{
					"indexed": false,
					"internalType": "uint256",
					"name": "price",
					"type": "uint256"
				},
				{
					"indexed": false,
					"internalType": "uint256",
					"name": "num_tokens",
					"type": "uint256"
				}
			],
			"name": "Buy",
			"type": "event"
		},
		{
			"anonymous": false,
			"inputs": [
				{
					"indexed": false,
					"internalType": "address",
					"name": "seller",
					"type": "address"
				},
				{
					"indexed": false,
					"internalType": "string",
					"name": "playerID",
					"type": "string"
				},
				{
					"indexed": false,
					"internalType": "uint256",
					"name": "price",
					"type": "uint256"
				},
				{
					"indexed": false,
					"internalType": "uint256",
					"name": "num_tokens",
					"type": "uint256"
				}
			],
			"name": "Sell",
			"type": "event"
		},
		{
			"inputs": [
				{
					"internalType": "string",
					"name": "playerID",
					"type": "string"
				}
			],
			"name": "buyToken",
			"outputs": [
				{
					"internalType": "bool",
					"name": "",
					"type": "bool"
				}
			],
			"stateMutability": "payable",
			"type": "function"
		},
		{
			"inputs": [],
			"name": "deposit",
			"outputs": [],
			"stateMutability": "payable",
			"type": "function"
		},
		{
			"inputs": [
				{
					"internalType": "string",
					"name": "playerID",
					"type": "string"
				}
			],
			"name": "getMyTokenBalance",
			"outputs": [
				{
					"internalType": "uint256",
					"name": "",
					"type": "uint256"
				}
			],
			"stateMutability": "view",
			"type": "function"
		},
		{
			"inputs": [
				{
					"internalType": "string",
					"name": "playerID",
					"type": "string"
				}
			],
			"name": "getMyTokenValue",
			"outputs": [
				{
					"internalType": "uint256",
					"name": "value",
					"type": "uint256"
				}
			],
			"stateMutability": "view",
			"type": "function"
		},
		{
			"inputs": [],
			"name": "getPot",
			"outputs": [
				{
					"internalType": "uint256",
					"name": "",
					"type": "uint256"
				}
			],
			"stateMutability": "view",
			"type": "function"
		},
		{
			"inputs": [
				{
					"internalType": "string",
					"name": "playerID",
					"type": "string"
				}
			],
			"name": "getPrice",
			"outputs": [
				{
					"internalType": "uint256",
					"name": "",
					"type": "uint256"
				}
			],
			"stateMutability": "view",
			"type": "function"
		},
		{
			"inputs": [
				{
					"internalType": "string",
					"name": "playerID",
					"type": "string"
				},
				{
					"internalType": "address",
					"name": "user",
					"type": "address"
				}
			],
			"name": "getTokenBalance",
			"outputs": [
				{
					"internalType": "uint256",
					"name": "",
					"type": "uint256"
				}
			],
			"stateMutability": "view",
			"type": "function"
		},
		{
			"inputs": [
				{
					"internalType": "string",
					"name": "playerID",
					"type": "string"
				},
				{
					"internalType": "address",
					"name": "user",
					"type": "address"
				}
			],
			"name": "getTokenValue",
			"outputs": [
				{
					"internalType": "uint256",
					"name": "value",
					"type": "uint256"
				}
			],
			"stateMutability": "view",
			"type": "function"
		},
		{
			"inputs": [
				{
					"internalType": "string",
					"name": "playerID",
					"type": "string"
				}
			],
			"name": "getTotalSupply",
			"outputs": [
				{
					"internalType": "uint256",
					"name": "",
					"type": "uint256"
				}
			],
			"stateMutability": "view",
			"type": "function"
		},
		{
			"inputs": [
				{
					"internalType": "string",
					"name": "playerID",
					"type": "string"
				},
				{
					"internalType": "string",
					"name": "tokenName",
					"type": "string"
				},
				{
					"internalType": "string",
					"name": "tokenSymbol",
					"type": "string"
				},
				{
					"internalType": "uint256",
					"name": "tokenPrice",
					"type": "uint256"
				}
			],
			"name": "mintToken",
			"outputs": [
				{
					"internalType": "bool",
					"name": "",
					"type": "bool"
				}
			],
			"stateMutability": "nonpayable",
			"type": "function"
		},
		{
			"inputs": [
				{
					"internalType": "string",
					"name": "playerID",
					"type": "string"
				},
				{
					"internalType": "uint256",
					"name": "count",
					"type": "uint256"
				}
			],
			"name": "sellToken",
			"outputs": [],
			"stateMutability": "payable",
			"type": "function"
		},
		{
			"inputs": [
				{
					"internalType": "string",
					"name": "playerID",
					"type": "string"
				},
				{
					"internalType": "uint256",
					"name": "price",
					"type": "uint256"
				}
			],
			"name": "updatePrice",
			"outputs": [],
			"stateMutability": "nonpayable",
			"type": "function"
		},
		{
			"inputs": [],
			"name": "withdraw",
			"outputs": [],
			"stateMutability": "payable",
			"type": "function"
		}
	]
}