{
	"data": {
		"bytecode": {
			"linkReferences": {},
			"object": "6080604052620186a06008556000600960006101000a81548160ff021916908360ff1602179055506005600a556040516200367738038062003677833981810160405281019062000051919062000178565b336000806101000a81548173ffffffffffffffffffffffffffffffffffffffff021916908373ffffffffffffffffffffffffffffffffffffffff16021790555080600160006101000a81548173ffffffffffffffffffffffffffffffffffffffff021916908373ffffffffffffffffffffffffffffffffffffffff160217905550346002819055507f25ddec0e2928c71e6f378441517dd92f99efc260c557e570d4d03a6d8a51dc3a60008054906101000a900473ffffffffffffffffffffffffffffffffffffffff16600160009054906101000a900473ffffffffffffffffffffffffffffffffffffffff166002546040516200015293929190620001c6565b60405180910390a1506200025b565b600081519050620001728162000241565b92915050565b6000602082840312156200018b57600080fd5b60006200019b8482850162000161565b91505092915050565b620001af8162000203565b82525050565b620001c08162000237565b82525050565b6000606082019050620001dd6000830186620001a4565b620001ec6020830185620001a4565b620001fb6040830184620001b5565b949350505050565b6000620002108262000217565b9050919050565b600073ffffffffffffffffffffffffffffffffffffffff82169050919050565b6000819050919050565b6200024c8162000203565b81146200025857600080fd5b50565b61340c806200026b6000396000f3fe608060405260043610620000f25760003560e01c806365d0dfc4116200008b57806393990aa6116200006157806393990aa614620003315780639ca3c29c1462000367578063b4a8e0a914620003ab578063d0e30db014620003ef57620000f2565b806365d0dfc4146200027357806366836b7c14620002a957806384465b3e14620002ed57620000f2565b8063403c9fa811620000cd578063403c9fa814620001775780634a432a4614620001a7578063524f388914620001eb5780635463109e146200022f57620000f2565b80632a5c792a14620000f75780633ccfd60b14620001275780633cdb97621462000133575b600080fd5b3480156200010457600080fd5b506200010f620003fb565b6040516200011e919062002100565b60405180910390f35b62000131620004de565b005b3480156200014057600080fd5b506200015f600480360381019062000159919062001cc0565b620005a6565b6040516200016e919062002208565b60405180910390f35b3480156200018457600080fd5b506200018f620006c2565b6040516200019e919062002208565b60405180910390f35b348015620001b457600080fd5b50620001d36004803603810190620001cd919062001de3565b620006cc565b604051620001e2919062002124565b60405180910390f35b348015620001f857600080fd5b5062000217600480360381019062000211919062001c77565b620007ed565b60405162000226919062002208565b60405180910390f35b3480156200023c57600080fd5b506200025b600480360381019062000255919062001c77565b62000854565b6040516200026a919062002208565b60405180910390f35b6200029160048036038101906200028b919062001c77565b62000962565b604051620002a0919062002124565b60405180910390f35b348015620002b657600080fd5b50620002d56004803603810190620002cf919062001c1f565b62000be7565b604051620002e4919062002100565b60405180910390f35b348015620002fa57600080fd5b5062000319600480360381019062000313919062001cc0565b62000d09565b60405162000328919062002208565b60405180910390f35b6200034f600480360381019062000349919062001de3565b62000e52565b6040516200035e919062002124565b60405180910390f35b3480156200037457600080fd5b506200039360048036038101906200038d919062001c77565b62001161565b604051620003a2919062002208565b60405180910390f35b348015620003b857600080fd5b50620003d76004803603810190620003d1919062001d1e565b620011c8565b604051620003e6919062002124565b60405180910390f35b620003f9620014df565b005b60606007805480602002602001604051908101604052809291908181526020016000905b82821015620004d5578382906000526020600020018054620004419062002463565b80601f01602080910402602001604051908101604052809291908181526020018280546200046f9062002463565b8015620004c05780601f106200049457610100808354040283529160200191620004c0565b820191906000526020600020905b815481529060010190602001808311620004a257829003601f168201915b5050505050815260200190600101906200041f565b50505050905090565b60008054906101000a900473ffffffffffffffffffffffffffffffffffffffff1673ffffffffffffffffffffffffffffffffffffffff163373ffffffffffffffffffffffffffffffffffffffff161480620005865750600160009054906101000a900473ffffffffffffffffffffffffffffffffffffffff1673ffffffffffffffffffffffffffffffffffffffff163373ffffffffffffffffffffffffffffffffffffffff16145b6200059057600080fd5b6200059e60025434620015a7565b600281905550565b600060048484604051620005bc9291906200201c565b908152602001604051809103902060009054906101000a900460ff16620005e257600080fd5b600060058585604051620005f89291906200201c565b908152602001604051809103902060009054906101000a900473ffffffffffffffffffffffffffffffffffffffff1690508073ffffffffffffffffffffffffffffffffffffffff166370a08231846040518263ffffffff1660e01b815260040162000664919062002050565b60206040518083038186803b1580156200067d57600080fd5b505afa15801562000692573d6000803e3d6000fd5b505050506040513d601f19601f82011682018060405250810190620006b8919062001e41565b9150509392505050565b6000600254905090565b60008060009054906101000a900473ffffffffffffffffffffffffffffffffffffffff1673ffffffffffffffffffffffffffffffffffffffff163373ffffffffffffffffffffffffffffffffffffffff161480620007775750600160009054906101000a900473ffffffffffffffffffffffffffffffffffffffff1673ffffffffffffffffffffffffffffffffffffffff163373ffffffffffffffffffffffffffffffffffffffff16145b6200078157600080fd5b60048484604051620007959291906200201c565b908152602001604051809103902060009054906101000a900460ff16620007bb57600080fd5b8160038585604051620007d09291906200201c565b908152602001604051809103902081905550600190509392505050565b600060048383604051620008039291906200201c565b908152602001604051809103902060009054906101000a900460ff166200082957600080fd5b600383836040516200083d9291906200201c565b908152602001604051809103902054905092915050565b6000600483836040516200086a9291906200201c565b908152602001604051809103902060009054906101000a900460ff166200089057600080fd5b600060058484604051620008a69291906200201c565b908152602001604051809103902060009054906101000a900473ffffffffffffffffffffffffffffffffffffffff1690508073ffffffffffffffffffffffffffffffffffffffff166318160ddd6040518163ffffffff1660e01b815260040160206040518083038186803b1580156200091e57600080fd5b505afa15801562000933573d6000803e3d6000fd5b505050506040513d601f19601f8201168201806040525081019062000959919062001e41565b91505092915050565b600060048383604051620009789291906200201c565b908152602001604051809103902060009054906101000a900460ff166200099e57600080fd5b600060058484604051620009b49291906200201c565b908152602001604051809103902060009054906101000a900473ffffffffffffffffffffffffffffffffffffffff169050600060038585604051620009fb9291906200201c565b908152602001604051809103902054905060006064600a54606462000a21919062002296565b62000a2d9190620022f3565b9050600062000a3d8284620015bf565b90506000813462000a4f9190620022f3565b90508134101562000a5f57600080fd5b60006001905080801562000b0457508573ffffffffffffffffffffffffffffffffffffffff166323b872dd3033856040518463ffffffff1660e01b815260040162000aad939291906200206d565b602060405180830381600087803b15801562000ac857600080fd5b505af115801562000add573d6000803e3d6000fd5b505050506040513d601f19601f8201168201806040525081019062000b03919062001c4b565b5b90507f40f5583ae6965366e0acfa8dc48c165ed2fce35c84de4966619b6e42e4d5f4c8338a8a888660405162000b3f959493929190620020aa565b60405180910390a1600660003373ffffffffffffffffffffffffffffffffffffffff1673ffffffffffffffffffffffffffffffffffffffff16815260200190815260200160002089899091806001815401808255809150506001900390600052602060002001600090919290919290919290919250919062000bc392919062001952565b5062000bd260025434620015d7565b60028190555080965050505050505092915050565b6060600660008373ffffffffffffffffffffffffffffffffffffffff1673ffffffffffffffffffffffffffffffffffffffff168152602001908152602001600020805480602002602001604051908101604052809291908181526020016000905b8282101562000cfe57838290600052602060002001805462000c6a9062002463565b80601f016020809104026020016040519081016040528092919081815260200182805462000c989062002463565b801562000ce95780601f1062000cbd5761010080835404028352916020019162000ce9565b820191906000526020600020905b81548152906001019060200180831162000ccb57829003601f168201915b50505050508152602001906001019062000c48565b505050509050919050565b60006004848460405162000d1f9291906200201c565b908152602001604051809103902060009054906101000a900460ff1662000d4557600080fd5b60006005858560405162000d5b9291906200201c565b908152602001604051809103902060009054906101000a900473ffffffffffffffffffffffffffffffffffffffff16905062000e488173ffffffffffffffffffffffffffffffffffffffff166370a08231856040518263ffffffff1660e01b815260040162000dcb919062002050565b60206040518083038186803b15801562000de457600080fd5b505afa15801562000df9573d6000803e3d6000fd5b505050506040513d601f19601f8201168201806040525081019062000e1f919062001e41565b6003878760405162000e339291906200201c565b908152602001604051809103902054620015bf565b9150509392505050565b6000806005858560405162000e699291906200201c565b908152602001604051809103902060009054906101000a900473ffffffffffffffffffffffffffffffffffffffff16905060006003868660405162000eb09291906200201c565b90815260200160405180910390205490506000600a54606462000ed4919062002296565b606462000ee29190620022f3565b9050600062000ef28284620015bf565b905060008473ffffffffffffffffffffffffffffffffffffffff166370a08231336040518263ffffffff1660e01b815260040162000f31919062002050565b60206040518083038186803b15801562000f4a57600080fd5b505afa15801562000f5f573d6000803e3d6000fd5b505050506040513d601f19601f8201168201806040525081019062000f85919062001e41565b90508681101562000f9557600080fd5b600062000fa38389620015bf565b905080600254101562000fb557600080fd5b8573ffffffffffffffffffffffffffffffffffffffff166323b872dd33308b6040518463ffffffff1660e01b815260040162000ff4939291906200206d565b602060405180830381600087803b1580156200100f57600080fd5b505af115801562001024573d6000803e3d6000fd5b505050506040513d601f19601f820116820180604052508101906200104a919062001c4b565b503373ffffffffffffffffffffffffffffffffffffffff166108fc829081150290604051600060405180830381858888f1935050505015801562001092573d6000803e3d6000fd5b5060008883620010a391906200238c565b1415620010fb57620010fa338b8b8080601f016020809104026020016040519081016040528093929190818152602001838380828437600081840152601f19601f82011690508083019250505050505050620015ef565b5b7f049f57f92fe331c8352bc57011dd480b77f5dadaf815d7d9a33fae03e4acc349338b8b888c60405162001134959493929190620020aa565b60405180910390a16200114a60025434620015a7565b600281905550600196505050505050509392505050565b60008060038484604051620011789291906200201c565b908152602001604051809103902054905060006064600a5460646200119e919062002296565b620011aa9190620022f3565b90506000620011ba8284620015bf565b905080935050505092915050565b60008060009054906101000a900473ffffffffffffffffffffffffffffffffffffffff1673ffffffffffffffffffffffffffffffffffffffff163373ffffffffffffffffffffffffffffffffffffffff161480620012735750600160009054906101000a900473ffffffffffffffffffffffffffffffffffffffff1673ffffffffffffffffffffffffffffffffffffffff163373ffffffffffffffffffffffffffffffffffffffff16145b6200127d57600080fd5b60048888604051620012919291906200201c565b908152602001604051809103902060009054906101000a900460ff1615620012b857600080fd5b85858585600854600960009054906101000a900460ff16604051620012dd90620019e3565b620012ee96959493929190620021a9565b604051809103906000f0801580156200130b573d6000803e3d6000fd5b5060058989604051620013209291906200201c565b908152602001604051809103902060006101000a81548173ffffffffffffffffffffffffffffffffffffffff021916908373ffffffffffffffffffffffffffffffffffffffff1602179055506007888890918060018154018082558091505060019003906000526020600020016000909192909192909192909192509190620013ab92919062001952565b50600160048989604051620013c29291906200201c565b908152602001604051809103902060006101000a81548160ff0219169083151502179055508160038989604051620013fc9291906200201c565b908152602001604051809103902081905550600660003373ffffffffffffffffffffffffffffffffffffffff1673ffffffffffffffffffffffffffffffffffffffff1681526020019081526020016000208888909180600181540180825580915050600190039060005260206000200160009091929091929091929091925091906200148a92919062001952565b507f0fcf04ff5a22c65b961750682425ef5a539c0788e5a0cde8d1d431a5da63713488888888888888604051620014c8979695949392919062002141565b60405180910390a160019050979650505050505050565b60008054906101000a900473ffffffffffffffffffffffffffffffffffffffff1673ffffffffffffffffffffffffffffffffffffffff163373ffffffffffffffffffffffffffffffffffffffff161480620015875750600160009054906101000a900473ffffffffffffffffffffffffffffffffffffffff1673ffffffffffffffffffffffffffffffffffffffff163373ffffffffffffffffffffffffffffffffffffffff16145b6200159157600080fd5b6200159f60025434620015d7565b600281905550565b60008183620015b791906200238c565b905092915050565b60008183620015cf91906200232b565b905092915050565b60008183620015e7919062002296565b905092915050565b6000600660008473ffffffffffffffffffffffffffffffffffffffff1673ffffffffffffffffffffffffffffffffffffffff168152602001908152602001600020805480602002602001604051908101604052809291908181526020016000905b8282101562001706578382906000526020600020018054620016729062002463565b80601f0160208091040260200160405190810160405280929190818152602001828054620016a09062002463565b8015620016f15780601f10620016c557610100808354040283529160200191620016f1565b820191906000526020600020905b815481529060010190602001808311620016d357829003601f168201915b50505050508152602001906001019062001650565b505050509050600080600083519050600092505b80831015620018975760008484815181106200175f577f4e487b7100000000000000000000000000000000000000000000000000000000600052603260045260246000fd5b60200260200101519050620017758682620018f5565b156200178057600192505b821562001880576001826200179691906200238c565b8414620018385784600185620017ad919062002296565b81518110620017e5577f4e487b7100000000000000000000000000000000000000000000000000000000600052603260045260246000fd5b602002602001015185858151811062001827577f4e487b7100000000000000000000000000000000000000000000000000000000600052603260045260246000fd5b60200260200101819052506200187f565b84848151811062001872577f4e487b7100000000000000000000000000000000000000000000000000000000600052603260045260246000fd5b6020026020010160608152505b5b5082806200188e9062002499565b9350506200171a565b83600660008873ffffffffffffffffffffffffffffffffffffffff1673ffffffffffffffffffffffffffffffffffffffff1681526020019081526020016000209080519060200190620018ec929190620019f1565b50505050505050565b6000816040516020016200190a919062002037565b604051602081830303815290604052805190602001208360405160200162001933919062002037565b6040516020818303038152906040528051906020012014905092915050565b828054620019609062002463565b90600052602060002090601f016020900481019282620019845760008555620019d0565b82601f106200199f57803560ff1916838001178555620019d0565b82800160010185558215620019d0579182015b82811115620019cf578235825591602001919060010190620019b2565b5b509050620019df919062001a58565b5090565b610e0380620025d483390190565b82805482825590600052602060002090810192821562001a45579160200282015b8281111562001a4457825182908051906020019062001a3392919062001a77565b509160200191906001019062001a12565b5b50905062001a54919062001b08565b5090565b5b8082111562001a7357600081600090555060010162001a59565b5090565b82805462001a859062002463565b90600052602060002090601f01602090048101928262001aa9576000855562001af5565b82601f1062001ac457805160ff191683800117855562001af5565b8280016001018555821562001af5579182015b8281111562001af457825182559160200191906001019062001ad7565b5b50905062001b04919062001a58565b5090565b5b8082111562001b2c576000818162001b22919062001b30565b5060010162001b09565b5090565b50805462001b3e9062002463565b6000825580601f1062001b52575062001b73565b601f01602090049060005260206000209081019062001b72919062001a58565b5b50565b60008135905062001b878162002585565b92915050565b60008151905062001b9e816200259f565b92915050565b60008083601f84011262001bb757600080fd5b8235905067ffffffffffffffff81111562001bd157600080fd5b60208301915083600182028301111562001bea57600080fd5b9250929050565b60008135905062001c0281620025b9565b92915050565b60008151905062001c1981620025b9565b92915050565b60006020828403121562001c3257600080fd5b600062001c428482850162001b76565b91505092915050565b60006020828403121562001c5e57600080fd5b600062001c6e8482850162001b8d565b91505092915050565b6000806020838503121562001c8b57600080fd5b600083013567ffffffffffffffff81111562001ca657600080fd5b62001cb48582860162001ba4565b92509250509250929050565b60008060006040848603121562001cd657600080fd5b600084013567ffffffffffffffff81111562001cf157600080fd5b62001cff8682870162001ba4565b9350935050602062001d148682870162001b76565b9150509250925092565b60008060008060008060006080888a03121562001d3a57600080fd5b600088013567ffffffffffffffff81111562001d5557600080fd5b62001d638a828b0162001ba4565b9750975050602088013567ffffffffffffffff81111562001d8357600080fd5b62001d918a828b0162001ba4565b9550955050604088013567ffffffffffffffff81111562001db157600080fd5b62001dbf8a828b0162001ba4565b9350935050606062001dd48a828b0162001bf1565b91505092959891949750929550565b60008060006040848603121562001df957600080fd5b600084013567ffffffffffffffff81111562001e1457600080fd5b62001e228682870162001ba4565b9350935050602062001e378682870162001bf1565b9150509250925092565b60006020828403121562001e5457600080fd5b600062001e648482850162001c08565b91505092915050565b600062001e7b838362001f82565b905092915050565b62001e8e81620023c7565b82525050565b600062001ea18262002235565b62001ead818562002258565b93508360208202850162001ec18562002225565b8060005b8581101562001f03578484038952815162001ee1858262001e6d565b945062001eee836200224b565b925060208a0199505060018101905062001ec5565b50829750879550505050505092915050565b62001f2081620023db565b82525050565b600062001f3483856200227a565b935062001f438385846200241e565b62001f4e8362002574565b840190509392505050565b600062001f6783856200228b565b935062001f768385846200241e565b82840190509392505050565b600062001f8f8262002240565b62001f9b818562002269565b935062001fad8185602086016200242d565b62001fb88162002574565b840191505092915050565b600062001fd08262002240565b62001fdc81856200228b565b935062001fee8185602086016200242d565b80840191505092915050565b620020058162002407565b82525050565b620020168162002411565b82525050565b60006200202b82848662001f59565b91508190509392505050565b600062002045828462001fc3565b915081905092915050565b600060208201905062002067600083018462001e83565b92915050565b600060608201905062002084600083018662001e83565b62002093602083018562001e83565b620020a2604083018462001ffa565b949350505050565b6000608082019050620020c1600083018862001e83565b8181036020830152620020d681868862001f26565b9050620020e7604083018562001ffa565b620020f6606083018462001ffa565b9695505050505050565b600060208201905081810360008301526200211c818462001e94565b905092915050565b60006020820190506200213b600083018462001f15565b92915050565b600060808201905081810360008301526200215e81898b62001f26565b905081810360208301526200217581878962001f26565b905081810360408301526200218c81858762001f26565b90506200219d606083018462001ffa565b98975050505050505050565b60006080820190508181036000830152620021c681888a62001f26565b90508181036020830152620021dd81868862001f26565b9050620021ee604083018562001ffa565b620021fd60608301846200200b565b979650505050505050565b60006020820190506200221f600083018462001ffa565b92915050565b6000819050602082019050919050565b600081519050919050565b600081519050919050565b6000602082019050919050565b600082825260208201905092915050565b600082825260208201905092915050565b600082825260208201905092915050565b600081905092915050565b6000620022a38262002407565b9150620022b08362002407565b9250827fffffffffffffffffffffffffffffffffffffffffffffffffffffffffffffffff03821115620022e857620022e7620024e7565b5b828201905092915050565b6000620023008262002407565b91506200230d8362002407565b92508262002320576200231f62002516565b5b828204905092915050565b6000620023388262002407565b9150620023458362002407565b9250817fffffffffffffffffffffffffffffffffffffffffffffffffffffffffffffffff0483118215151615620023815762002380620024e7565b5b828202905092915050565b6000620023998262002407565b9150620023a68362002407565b925082821015620023bc57620023bb620024e7565b5b828203905092915050565b6000620023d482620023e7565b9050919050565b60008115159050919050565b600073ffffffffffffffffffffffffffffffffffffffff82169050919050565b6000819050919050565b600060ff82169050919050565b82818337600083830152505050565b60005b838110156200244d57808201518184015260208101905062002430565b838111156200245d576000848401525b50505050565b600060028204905060018216806200247c57607f821691505b6020821081141562002493576200249262002545565b5b50919050565b6000620024a68262002407565b91507fffffffffffffffffffffffffffffffffffffffffffffffffffffffffffffffff821415620024dc57620024db620024e7565b5b600182019050919050565b7f4e487b7100000000000000000000000000000000000000000000000000000000600052601160045260246000fd5b7f4e487b7100000000000000000000000000000000000000000000000000000000600052601260045260246000fd5b7f4e487b7100000000000000000000000000000000000000000000000000000000600052602260045260246000fd5b6000601f19601f8301169050919050565b6200259081620023c7565b81146200259c57600080fd5b50565b620025aa81620023db565b8114620025b657600080fd5b50565b620025c48162002407565b8114620025d057600080fd5b5056fe608060405260405162000e0338038062000e0383398181016040528101906200002991906200027c565b336000806101000a81548173ffffffffffffffffffffffffffffffffffffffff021916908373ffffffffffffffffffffffffffffffffffffffff1602179055508360019080519060200190620000819291906200012c565b5082600290805190602001906200009a9291906200012c565b508160038190555080600460006101000a81548160ff021916908360ff16021790555081600560008060009054906101000a900473ffffffffffffffffffffffffffffffffffffffff1673ffffffffffffffffffffffffffffffffffffffff1673ffffffffffffffffffffffffffffffffffffffff1681526020019081526020016000208190555050505050620004d5565b8280546200013a90620003c6565b90600052602060002090601f0160209004810192826200015e5760008555620001aa565b82601f106200017957805160ff1916838001178555620001aa565b82800160010185558215620001aa579182015b82811115620001a95782518255916020019190600101906200018c565b5b509050620001b99190620001bd565b5090565b5b80821115620001d8576000816000905550600101620001be565b5090565b6000620001f3620001ed8462000343565b6200031a565b9050828152602081018484840111156200020c57600080fd5b6200021984828562000390565b509392505050565b600082601f8301126200023357600080fd5b815162000245848260208601620001dc565b91505092915050565b6000815190506200025f81620004a1565b92915050565b6000815190506200027681620004bb565b92915050565b600080600080608085870312156200029357600080fd5b600085015167ffffffffffffffff811115620002ae57600080fd5b620002bc8782880162000221565b945050602085015167ffffffffffffffff811115620002da57600080fd5b620002e88782880162000221565b9350506040620002fb878288016200024e565b92505060606200030e8782880162000265565b91505092959194509250565b60006200032662000339565b9050620003348282620003fc565b919050565b6000604051905090565b600067ffffffffffffffff82111562000361576200036062000461565b5b6200036c8262000490565b9050602081019050919050565b6000819050919050565b600060ff82169050919050565b60005b83811015620003b057808201518184015260208101905062000393565b83811115620003c0576000848401525b50505050565b60006002820490506001821680620003df57607f821691505b60208210811415620003f657620003f562000432565b5b50919050565b620004078262000490565b810181811067ffffffffffffffff8211171562000429576200042862000461565b5b80604052505050565b7f4e487b7100000000000000000000000000000000000000000000000000000000600052602260045260246000fd5b7f4e487b7100000000000000000000000000000000000000000000000000000000600052604160045260246000fd5b6000601f19601f8301169050919050565b620004ac8162000379565b8114620004b857600080fd5b50565b620004c68162000383565b8114620004d257600080fd5b50565b61091e80620004e56000396000f3fe608060405234801561001057600080fd5b506004361061007d5760003560e01c8063313ce5671161005b578063313ce567146100ee57806370a082311461010c57806395d89b411461013c578063a9059cbb1461015a5761007d565b806306fdde031461008257806318160ddd146100a057806323b872dd146100be575b600080fd5b61008a61018a565b6040516100979190610693565b60405180910390f35b6100a861021c565b6040516100b591906106b5565b60405180910390f35b6100d860048036038101906100d39190610587565b610226565b6040516100e59190610678565b60405180910390f35b6100f6610401565b60405161010391906106d0565b60405180910390f35b6101266004803603810190610121919061055e565b610418565b60405161013391906106b5565b60405180910390f35b610144610461565b6040516101519190610693565b60405180910390f35b610174600480360381019061016f91906105d6565b6104f3565b6040516101819190610678565b60405180910390f35b60606001805461019990610819565b80601f01602080910402602001604051908101604052809291908181526020018280546101c590610819565b80156102125780601f106101e757610100808354040283529160200191610212565b820191906000526020600020905b8154815290600101906020018083116101f557829003601f168201915b5050505050905090565b6000600354905090565b600080600560008673ffffffffffffffffffffffffffffffffffffffff1673ffffffffffffffffffffffffffffffffffffffff1681526020019081526020016000205490508281101561027857600080fd5b6102c1600560008773ffffffffffffffffffffffffffffffffffffffff1673ffffffffffffffffffffffffffffffffffffffff1681526020019081526020016000205484610508565b600560008773ffffffffffffffffffffffffffffffffffffffff1673ffffffffffffffffffffffffffffffffffffffff1681526020019081526020016000208190555061034d600560008673ffffffffffffffffffffffffffffffffffffffff1673ffffffffffffffffffffffffffffffffffffffff168152602001908152602001600020548461051e565b600560008673ffffffffffffffffffffffffffffffffffffffff1673ffffffffffffffffffffffffffffffffffffffff168152602001908152602001600020819055508373ffffffffffffffffffffffffffffffffffffffff168573ffffffffffffffffffffffffffffffffffffffff167fddf252ad1be2c89b69c2b068fc378daa952ba7f163c4a11628f55a4df523b3ef856040516103ed91906106b5565b60405180910390a360019150509392505050565b6000600460009054906101000a900460ff16905090565b6000600560008373ffffffffffffffffffffffffffffffffffffffff1673ffffffffffffffffffffffffffffffffffffffff168152602001908152602001600020549050919050565b60606002805461047090610819565b80601f016020809104026020016040519081016040528092919081815260200182805461049c90610819565b80156104e95780601f106104be576101008083540402835291602001916104e9565b820191906000526020600020905b8154815290600101906020018083116104cc57829003601f168201915b5050505050905090565b6000610500338484610226565b905092915050565b60008183610516919061075d565b905092915050565b6000818361052c9190610707565b905092915050565b600081359050610543816108ba565b92915050565b600081359050610558816108d1565b92915050565b60006020828403121561057057600080fd5b600061057e84828501610534565b91505092915050565b60008060006060848603121561059c57600080fd5b60006105aa86828701610534565b93505060206105bb86828701610534565b92505060406105cc86828701610549565b9150509250925092565b600080604083850312156105e957600080fd5b60006105f785828601610534565b925050602061060885828601610549565b9150509250929050565b61061b816107a3565b82525050565b600061062c826106eb565b61063681856106f6565b93506106468185602086016107e6565b61064f816108a9565b840191505092915050565b610663816107cf565b82525050565b610672816107d9565b82525050565b600060208201905061068d6000830184610612565b92915050565b600060208201905081810360008301526106ad8184610621565b905092915050565b60006020820190506106ca600083018461065a565b92915050565b60006020820190506106e56000830184610669565b92915050565b600081519050919050565b600082825260208201905092915050565b6000610712826107cf565b915061071d836107cf565b9250827fffffffffffffffffffffffffffffffffffffffffffffffffffffffffffffffff038211156107525761075161084b565b5b828201905092915050565b6000610768826107cf565b9150610773836107cf565b9250828210156107865761078561084b565b5b828203905092915050565b600061079c826107af565b9050919050565b60008115159050919050565b600073ffffffffffffffffffffffffffffffffffffffff82169050919050565b6000819050919050565b600060ff82169050919050565b60005b838110156108045780820151818401526020810190506107e9565b83811115610813576000848401525b50505050565b6000600282049050600182168061083157607f821691505b602082108114156108455761084461087a565b5b50919050565b7f4e487b7100000000000000000000000000000000000000000000000000000000600052601160045260246000fd5b7f4e487b7100000000000000000000000000000000000000000000000000000000600052602260045260246000fd5b6000601f19601f8301169050919050565b6108c381610791565b81146108ce57600080fd5b50565b6108da816107cf565b81146108e557600080fd5b5056fea2646970667358221220a7617035ec5178691262649a930480f65b83489f63f1374642987528dacd53fe64736f6c63430008040033a2646970667358221220dce32d2573c0061cb3a900d5f0dbc7761fa25cb863136d4ffc700057a69ca9ef64736f6c63430008040033",
			"opcodes": "PUSH1 0x80 PUSH1 0x40 MSTORE PUSH3 0x186A0 PUSH1 0x8 SSTORE PUSH1 0x0 PUSH1 0x9 PUSH1 0x0 PUSH2 0x100 EXP DUP2 SLOAD DUP2 PUSH1 0xFF MUL NOT AND SWAP1 DUP4 PUSH1 0xFF AND MUL OR SWAP1 SSTORE POP PUSH1 0x5 PUSH1 0xA SSTORE PUSH1 0x40 MLOAD PUSH3 0x3677 CODESIZE SUB DUP1 PUSH3 0x3677 DUP4 CODECOPY DUP2 DUP2 ADD PUSH1 0x40 MSTORE DUP2 ADD SWAP1 PUSH3 0x51 SWAP2 SWAP1 PUSH3 0x178 JUMP JUMPDEST CALLER PUSH1 0x0 DUP1 PUSH2 0x100 EXP DUP2 SLOAD DUP2 PUSH20 0xFFFFFFFFFFFFFFFFFFFFFFFFFFFFFFFFFFFFFFFF MUL NOT AND SWAP1 DUP4 PUSH20 0xFFFFFFFFFFFFFFFFFFFFFFFFFFFFFFFFFFFFFFFF AND MUL OR SWAP1 SSTORE POP DUP1 PUSH1 0x1 PUSH1 0x0 PUSH2 0x100 EXP DUP2 SLOAD DUP2 PUSH20 0xFFFFFFFFFFFFFFFFFFFFFFFFFFFFFFFFFFFFFFFF MUL NOT AND SWAP1 DUP4 PUSH20 0xFFFFFFFFFFFFFFFFFFFFFFFFFFFFFFFFFFFFFFFF AND MUL OR SWAP1 SSTORE POP CALLVALUE PUSH1 0x2 DUP2 SWAP1 SSTORE POP PUSH32 0x25DDEC0E2928C71E6F378441517DD92F99EFC260C557E570D4D03A6D8A51DC3A PUSH1 0x0 DUP1 SLOAD SWAP1 PUSH2 0x100 EXP SWAP1 DIV PUSH20 0xFFFFFFFFFFFFFFFFFFFFFFFFFFFFFFFFFFFFFFFF AND PUSH1 0x1 PUSH1 0x0 SWAP1 SLOAD SWAP1 PUSH2 0x100 EXP SWAP1 DIV PUSH20 0xFFFFFFFFFFFFFFFFFFFFFFFFFFFFFFFFFFFFFFFF AND PUSH1 0x2 SLOAD PUSH1 0x40 MLOAD PUSH3 0x152 SWAP4 SWAP3 SWAP2 SWAP1 PUSH3 0x1C6 JUMP JUMPDEST PUSH1 0x40 MLOAD DUP1 SWAP2 SUB SWAP1 LOG1 POP PUSH3 0x25B JUMP JUMPDEST PUSH1 0x0 DUP2 MLOAD SWAP1 POP PUSH3 0x172 DUP2 PUSH3 0x241 JUMP JUMPDEST SWAP3 SWAP2 POP POP JUMP JUMPDEST PUSH1 0x0 PUSH1 0x20 DUP3 DUP5 SUB SLT ISZERO PUSH3 0x18B JUMPI PUSH1 0x0 DUP1 REVERT JUMPDEST PUSH1 0x0 PUSH3 0x19B DUP5 DUP3 DUP6 ADD PUSH3 0x161 JUMP JUMPDEST SWAP2 POP POP SWAP3 SWAP2 POP POP JUMP JUMPDEST PUSH3 0x1AF DUP2 PUSH3 0x203 JUMP JUMPDEST DUP3 MSTORE POP POP JUMP JUMPDEST PUSH3 0x1C0 DUP2 PUSH3 0x237 JUMP JUMPDEST DUP3 MSTORE POP POP JUMP JUMPDEST PUSH1 0x0 PUSH1 0x60 DUP3 ADD SWAP1 POP PUSH3 0x1DD PUSH1 0x0 DUP4 ADD DUP7 PUSH3 0x1A4 JUMP JUMPDEST PUSH3 0x1EC PUSH1 0x20 DUP4 ADD DUP6 PUSH3 0x1A4 JUMP JUMPDEST PUSH3 0x1FB PUSH1 0x40 DUP4 ADD DUP5 PUSH3 0x1B5 JUMP JUMPDEST SWAP5 SWAP4 POP POP POP POP JUMP JUMPDEST PUSH1 0x0 PUSH3 0x210 DUP3 PUSH3 0x217 JUMP JUMPDEST SWAP1 POP SWAP2 SWAP1 POP JUMP JUMPDEST PUSH1 0x0 PUSH20 0xFFFFFFFFFFFFFFFFFFFFFFFFFFFFFFFFFFFFFFFF DUP3 AND SWAP1 POP SWAP2 SWAP1 POP JUMP JUMPDEST PUSH1 0x0 DUP2 SWAP1 POP SWAP2 SWAP1 POP JUMP JUMPDEST PUSH3 0x24C DUP2 PUSH3 0x203 JUMP JUMPDEST DUP2 EQ PUSH3 0x258 JUMPI PUSH1 0x0 DUP1 REVERT JUMPDEST POP JUMP JUMPDEST PUSH2 0x340C DUP1 PUSH3 0x26B PUSH1 0x0 CODECOPY PUSH1 0x0 RETURN INVALID PUSH1 0x80 PUSH1 0x40 MSTORE PUSH1 0x4 CALLDATASIZE LT PUSH3 0xF2 JUMPI PUSH1 0x0 CALLDATALOAD PUSH1 0xE0 SHR DUP1 PUSH4 0x65D0DFC4 GT PUSH3 0x8B JUMPI DUP1 PUSH4 0x93990AA6 GT PUSH3 0x61 JUMPI DUP1 PUSH4 0x93990AA6 EQ PUSH3 0x331 JUMPI DUP1 PUSH4 0x9CA3C29C EQ PUSH3 0x367 JUMPI DUP1 PUSH4 0xB4A8E0A9 EQ PUSH3 0x3AB JUMPI DUP1 PUSH4 0xD0E30DB0 EQ PUSH3 0x3EF JUMPI PUSH3 0xF2 JUMP JUMPDEST DUP1 PUSH4 0x65D0DFC4 EQ PUSH3 0x273 JUMPI DUP1 PUSH4 0x66836B7C EQ PUSH3 0x2A9 JUMPI DUP1 PUSH4 0x84465B3E EQ PUSH3 0x2ED JUMPI PUSH3 0xF2 JUMP JUMPDEST DUP1 PUSH4 0x403C9FA8 GT PUSH3 0xCD JUMPI DUP1 PUSH4 0x403C9FA8 EQ PUSH3 0x177 JUMPI DUP1 PUSH4 0x4A432A46 EQ PUSH3 0x1A7 JUMPI DUP1 PUSH4 0x524F3889 EQ PUSH3 0x1EB JUMPI DUP1 PUSH4 0x5463109E EQ PUSH3 0x22F JUMPI PUSH3 0xF2 JUMP JUMPDEST DUP1 PUSH4 0x2A5C792A EQ PUSH3 0xF7 JUMPI DUP1 PUSH4 0x3CCFD60B EQ PUSH3 0x127 JUMPI DUP1 PUSH4 0x3CDB9762 EQ PUSH3 0x133 JUMPI JUMPDEST PUSH1 0x0 DUP1 REVERT JUMPDEST CALLVALUE DUP1 ISZERO PUSH3 0x104 JUMPI PUSH1 0x0 DUP1 REVERT JUMPDEST POP PUSH3 0x10F PUSH3 0x3FB JUMP JUMPDEST PUSH1 0x40 MLOAD PUSH3 0x11E SWAP2 SWAP1 PUSH3 0x2100 JUMP JUMPDEST PUSH1 0x40 MLOAD DUP1 SWAP2 SUB SWAP1 RETURN JUMPDEST PUSH3 0x131 PUSH3 0x4DE JUMP JUMPDEST STOP JUMPDEST CALLVALUE DUP1 ISZERO PUSH3 0x140 JUMPI PUSH1 0x0 DUP1 REVERT JUMPDEST POP PUSH3 0x15F PUSH1 0x4 DUP1 CALLDATASIZE SUB DUP2 ADD SWAP1 PUSH3 0x159 SWAP2 SWAP1 PUSH3 0x1CC0 JUMP JUMPDEST PUSH3 0x5A6 JUMP JUMPDEST PUSH1 0x40 MLOAD PUSH3 0x16E SWAP2 SWAP1 PUSH3 0x2208 JUMP JUMPDEST PUSH1 0x40 MLOAD DUP1 SWAP2 SUB SWAP1 RETURN JUMPDEST CALLVALUE DUP1 ISZERO PUSH3 0x184 JUMPI PUSH1 0x0 DUP1 REVERT JUMPDEST POP PUSH3 0x18F PUSH3 0x6C2 JUMP JUMPDEST PUSH1 0x40 MLOAD PUSH3 0x19E SWAP2 SWAP1 PUSH3 0x2208 JUMP JUMPDEST PUSH1 0x40 MLOAD DUP1 SWAP2 SUB SWAP1 RETURN JUMPDEST CALLVALUE DUP1 ISZERO PUSH3 0x1B4 JUMPI PUSH1 0x0 DUP1 REVERT JUMPDEST POP PUSH3 0x1D3 PUSH1 0x4 DUP1 CALLDATASIZE SUB DUP2 ADD SWAP1 PUSH3 0x1CD SWAP2 SWAP1 PUSH3 0x1DE3 JUMP JUMPDEST PUSH3 0x6CC JUMP JUMPDEST PUSH1 0x40 MLOAD PUSH3 0x1E2 SWAP2 SWAP1 PUSH3 0x2124 JUMP JUMPDEST PUSH1 0x40 MLOAD DUP1 SWAP2 SUB SWAP1 RETURN JUMPDEST CALLVALUE DUP1 ISZERO PUSH3 0x1F8 JUMPI PUSH1 0x0 DUP1 REVERT JUMPDEST POP PUSH3 0x217 PUSH1 0x4 DUP1 CALLDATASIZE SUB DUP2 ADD SWAP1 PUSH3 0x211 SWAP2 SWAP1 PUSH3 0x1C77 JUMP JUMPDEST PUSH3 0x7ED JUMP JUMPDEST PUSH1 0x40 MLOAD PUSH3 0x226 SWAP2 SWAP1 PUSH3 0x2208 JUMP JUMPDEST PUSH1 0x40 MLOAD DUP1 SWAP2 SUB SWAP1 RETURN JUMPDEST CALLVALUE DUP1 ISZERO PUSH3 0x23C JUMPI PUSH1 0x0 DUP1 REVERT JUMPDEST POP PUSH3 0x25B PUSH1 0x4 DUP1 CALLDATASIZE SUB DUP2 ADD SWAP1 PUSH3 0x255 SWAP2 SWAP1 PUSH3 0x1C77 JUMP JUMPDEST PUSH3 0x854 JUMP JUMPDEST PUSH1 0x40 MLOAD PUSH3 0x26A SWAP2 SWAP1 PUSH3 0x2208 JUMP JUMPDEST PUSH1 0x40 MLOAD DUP1 SWAP2 SUB SWAP1 RETURN JUMPDEST PUSH3 0x291 PUSH1 0x4 DUP1 CALLDATASIZE SUB DUP2 ADD SWAP1 PUSH3 0x28B SWAP2 SWAP1 PUSH3 0x1C77 JUMP JUMPDEST PUSH3 0x962 JUMP JUMPDEST PUSH1 0x40 MLOAD PUSH3 0x2A0 SWAP2 SWAP1 PUSH3 0x2124 JUMP JUMPDEST PUSH1 0x40 MLOAD DUP1 SWAP2 SUB SWAP1 RETURN JUMPDEST CALLVALUE DUP1 ISZERO PUSH3 0x2B6 JUMPI PUSH1 0x0 DUP1 REVERT JUMPDEST POP PUSH3 0x2D5 PUSH1 0x4 DUP1 CALLDATASIZE SUB DUP2 ADD SWAP1 PUSH3 0x2CF SWAP2 SWAP1 PUSH3 0x1C1F JUMP JUMPDEST PUSH3 0xBE7 JUMP JUMPDEST PUSH1 0x40 MLOAD PUSH3 0x2E4 SWAP2 SWAP1 PUSH3 0x2100 JUMP JUMPDEST PUSH1 0x40 MLOAD DUP1 SWAP2 SUB SWAP1 RETURN JUMPDEST CALLVALUE DUP1 ISZERO PUSH3 0x2FA JUMPI PUSH1 0x0 DUP1 REVERT JUMPDEST POP PUSH3 0x319 PUSH1 0x4 DUP1 CALLDATASIZE SUB DUP2 ADD SWAP1 PUSH3 0x313 SWAP2 SWAP1 PUSH3 0x1CC0 JUMP JUMPDEST PUSH3 0xD09 JUMP JUMPDEST PUSH1 0x40 MLOAD PUSH3 0x328 SWAP2 SWAP1 PUSH3 0x2208 JUMP JUMPDEST PUSH1 0x40 MLOAD DUP1 SWAP2 SUB SWAP1 RETURN JUMPDEST PUSH3 0x34F PUSH1 0x4 DUP1 CALLDATASIZE SUB DUP2 ADD SWAP1 PUSH3 0x349 SWAP2 SWAP1 PUSH3 0x1DE3 JUMP JUMPDEST PUSH3 0xE52 JUMP JUMPDEST PUSH1 0x40 MLOAD PUSH3 0x35E SWAP2 SWAP1 PUSH3 0x2124 JUMP JUMPDEST PUSH1 0x40 MLOAD DUP1 SWAP2 SUB SWAP1 RETURN JUMPDEST CALLVALUE DUP1 ISZERO PUSH3 0x374 JUMPI PUSH1 0x0 DUP1 REVERT JUMPDEST POP PUSH3 0x393 PUSH1 0x4 DUP1 CALLDATASIZE SUB DUP2 ADD SWAP1 PUSH3 0x38D SWAP2 SWAP1 PUSH3 0x1C77 JUMP JUMPDEST PUSH3 0x1161 JUMP JUMPDEST PUSH1 0x40 MLOAD PUSH3 0x3A2 SWAP2 SWAP1 PUSH3 0x2208 JUMP JUMPDEST PUSH1 0x40 MLOAD DUP1 SWAP2 SUB SWAP1 RETURN JUMPDEST CALLVALUE DUP1 ISZERO PUSH3 0x3B8 JUMPI PUSH1 0x0 DUP1 REVERT JUMPDEST POP PUSH3 0x3D7 PUSH1 0x4 DUP1 CALLDATASIZE SUB DUP2 ADD SWAP1 PUSH3 0x3D1 SWAP2 SWAP1 PUSH3 0x1D1E JUMP JUMPDEST PUSH3 0x11C8 JUMP JUMPDEST PUSH1 0x40 MLOAD PUSH3 0x3E6 SWAP2 SWAP1 PUSH3 0x2124 JUMP JUMPDEST PUSH1 0x40 MLOAD DUP1 SWAP2 SUB SWAP1 RETURN JUMPDEST PUSH3 0x3F9 PUSH3 0x14DF JUMP JUMPDEST STOP JUMPDEST PUSH1 0x60 PUSH1 0x7 DUP1 SLOAD DUP1 PUSH1 0x20 MUL PUSH1 0x20 ADD PUSH1 0x40 MLOAD SWAP1 DUP2 ADD PUSH1 0x40 MSTORE DUP1 SWAP3 SWAP2 SWAP1 DUP2 DUP2 MSTORE PUSH1 0x20 ADD PUSH1 0x0 SWAP1 JUMPDEST DUP3 DUP3 LT ISZERO PUSH3 0x4D5 JUMPI DUP4 DUP3 SWAP1 PUSH1 0x0 MSTORE PUSH1 0x20 PUSH1 0x0 KECCAK256 ADD DUP1 SLOAD PUSH3 0x441 SWAP1 PUSH3 0x2463 JUMP JUMPDEST DUP1 PUSH1 0x1F ADD PUSH1 0x20 DUP1 SWAP2 DIV MUL PUSH1 0x20 ADD PUSH1 0x40 MLOAD SWAP1 DUP2 ADD PUSH1 0x40 MSTORE DUP1 SWAP3 SWAP2 SWAP1 DUP2 DUP2 MSTORE PUSH1 0x20 ADD DUP3 DUP1 SLOAD PUSH3 0x46F SWAP1 PUSH3 0x2463 JUMP JUMPDEST DUP1 ISZERO PUSH3 0x4C0 JUMPI DUP1 PUSH1 0x1F LT PUSH3 0x494 JUMPI PUSH2 0x100 DUP1 DUP4 SLOAD DIV MUL DUP4 MSTORE SWAP2 PUSH1 0x20 ADD SWAP2 PUSH3 0x4C0 JUMP JUMPDEST DUP3 ADD SWAP2 SWAP1 PUSH1 0x0 MSTORE PUSH1 0x20 PUSH1 0x0 KECCAK256 SWAP1 JUMPDEST DUP2 SLOAD DUP2 MSTORE SWAP1 PUSH1 0x1 ADD SWAP1 PUSH1 0x20 ADD DUP1 DUP4 GT PUSH3 0x4A2 JUMPI DUP3 SWAP1 SUB PUSH1 0x1F AND DUP3 ADD SWAP2 JUMPDEST POP POP POP POP POP DUP2 MSTORE PUSH1 0x20 ADD SWAP1 PUSH1 0x1 ADD SWAP1 PUSH3 0x41F JUMP JUMPDEST POP POP POP POP SWAP1 POP SWAP1 JUMP JUMPDEST PUSH1 0x0 DUP1 SLOAD SWAP1 PUSH2 0x100 EXP SWAP1 DIV PUSH20 0xFFFFFFFFFFFFFFFFFFFFFFFFFFFFFFFFFFFFFFFF AND PUSH20 0xFFFFFFFFFFFFFFFFFFFFFFFFFFFFFFFFFFFFFFFF AND CALLER PUSH20 0xFFFFFFFFFFFFFFFFFFFFFFFFFFFFFFFFFFFFFFFF AND EQ DUP1 PUSH3 0x586 JUMPI POP PUSH1 0x1 PUSH1 0x0 SWAP1 SLOAD SWAP1 PUSH2 0x100 EXP SWAP1 DIV PUSH20 0xFFFFFFFFFFFFFFFFFFFFFFFFFFFFFFFFFFFFFFFF AND PUSH20 0xFFFFFFFFFFFFFFFFFFFFFFFFFFFFFFFFFFFFFFFF AND CALLER PUSH20 0xFFFFFFFFFFFFFFFFFFFFFFFFFFFFFFFFFFFFFFFF AND EQ JUMPDEST PUSH3 0x590 JUMPI PUSH1 0x0 DUP1 REVERT JUMPDEST PUSH3 0x59E PUSH1 0x2 SLOAD CALLVALUE PUSH3 0x15A7 JUMP JUMPDEST PUSH1 0x2 DUP2 SWAP1 SSTORE POP JUMP JUMPDEST PUSH1 0x0 PUSH1 0x4 DUP5 DUP5 PUSH1 0x40 MLOAD PUSH3 0x5BC SWAP3 SWAP2 SWAP1 PUSH3 0x201C JUMP JUMPDEST SWAP1 DUP2 MSTORE PUSH1 0x20 ADD PUSH1 0x40 MLOAD DUP1 SWAP2 SUB SWAP1 KECCAK256 PUSH1 0x0 SWAP1 SLOAD SWAP1 PUSH2 0x100 EXP SWAP1 DIV PUSH1 0xFF AND PUSH3 0x5E2 JUMPI PUSH1 0x0 DUP1 REVERT JUMPDEST PUSH1 0x0 PUSH1 0x5 DUP6 DUP6 PUSH1 0x40 MLOAD PUSH3 0x5F8 SWAP3 SWAP2 SWAP1 PUSH3 0x201C JUMP JUMPDEST SWAP1 DUP2 MSTORE PUSH1 0x20 ADD PUSH1 0x40 MLOAD DUP1 SWAP2 SUB SWAP1 KECCAK256 PUSH1 0x0 SWAP1 SLOAD SWAP1 PUSH2 0x100 EXP SWAP1 DIV PUSH20 0xFFFFFFFFFFFFFFFFFFFFFFFFFFFFFFFFFFFFFFFF AND SWAP1 POP DUP1 PUSH20 0xFFFFFFFFFFFFFFFFFFFFFFFFFFFFFFFFFFFFFFFF AND PUSH4 0x70A08231 DUP5 PUSH1 0x40 MLOAD DUP3 PUSH4 0xFFFFFFFF AND PUSH1 0xE0 SHL DUP2 MSTORE PUSH1 0x4 ADD PUSH3 0x664 SWAP2 SWAP1 PUSH3 0x2050 JUMP JUMPDEST PUSH1 0x20 PUSH1 0x40 MLOAD DUP1 DUP4 SUB DUP2 DUP7 DUP1 EXTCODESIZE ISZERO DUP1 ISZERO PUSH3 0x67D JUMPI PUSH1 0x0 DUP1 REVERT JUMPDEST POP GAS STATICCALL ISZERO DUP1 ISZERO PUSH3 0x692 JUMPI RETURNDATASIZE PUSH1 0x0 DUP1 RETURNDATACOPY RETURNDATASIZE PUSH1 0x0 REVERT JUMPDEST POP POP POP POP PUSH1 0x40 MLOAD RETURNDATASIZE PUSH1 0x1F NOT PUSH1 0x1F DUP3 ADD AND DUP3 ADD DUP1 PUSH1 0x40 MSTORE POP DUP2 ADD SWAP1 PUSH3 0x6B8 SWAP2 SWAP1 PUSH3 0x1E41 JUMP JUMPDEST SWAP2 POP POP SWAP4 SWAP3 POP POP POP JUMP JUMPDEST PUSH1 0x0 PUSH1 0x2 SLOAD SWAP1 POP SWAP1 JUMP JUMPDEST PUSH1 0x0 DUP1 PUSH1 0x0 SWAP1 SLOAD SWAP1 PUSH2 0x100 EXP SWAP1 DIV PUSH20 0xFFFFFFFFFFFFFFFFFFFFFFFFFFFFFFFFFFFFFFFF AND PUSH20 0xFFFFFFFFFFFFFFFFFFFFFFFFFFFFFFFFFFFFFFFF AND CALLER PUSH20 0xFFFFFFFFFFFFFFFFFFFFFFFFFFFFFFFFFFFFFFFF AND EQ DUP1 PUSH3 0x777 JUMPI POP PUSH1 0x1 PUSH1 0x0 SWAP1 SLOAD SWAP1 PUSH2 0x100 EXP SWAP1 DIV PUSH20 0xFFFFFFFFFFFFFFFFFFFFFFFFFFFFFFFFFFFFFFFF AND PUSH20 0xFFFFFFFFFFFFFFFFFFFFFFFFFFFFFFFFFFFFFFFF AND CALLER PUSH20 0xFFFFFFFFFFFFFFFFFFFFFFFFFFFFFFFFFFFFFFFF AND EQ JUMPDEST PUSH3 0x781 JUMPI PUSH1 0x0 DUP1 REVERT JUMPDEST PUSH1 0x4 DUP5 DUP5 PUSH1 0x40 MLOAD PUSH3 0x795 SWAP3 SWAP2 SWAP1 PUSH3 0x201C JUMP JUMPDEST SWAP1 DUP2 MSTORE PUSH1 0x20 ADD PUSH1 0x40 MLOAD DUP1 SWAP2 SUB SWAP1 KECCAK256 PUSH1 0x0 SWAP1 SLOAD SWAP1 PUSH2 0x100 EXP SWAP1 DIV PUSH1 0xFF AND PUSH3 0x7BB JUMPI PUSH1 0x0 DUP1 REVERT JUMPDEST DUP2 PUSH1 0x3 DUP6 DUP6 PUSH1 0x40 MLOAD PUSH3 0x7D0 SWAP3 SWAP2 SWAP1 PUSH3 0x201C JUMP JUMPDEST SWAP1 DUP2 MSTORE PUSH1 0x20 ADD PUSH1 0x40 MLOAD DUP1 SWAP2 SUB SWAP1 KECCAK256 DUP2 SWAP1 SSTORE POP PUSH1 0x1 SWAP1 POP SWAP4 SWAP3 POP POP POP JUMP JUMPDEST PUSH1 0x0 PUSH1 0x4 DUP4 DUP4 PUSH1 0x40 MLOAD PUSH3 0x803 SWAP3 SWAP2 SWAP1 PUSH3 0x201C JUMP JUMPDEST SWAP1 DUP2 MSTORE PUSH1 0x20 ADD PUSH1 0x40 MLOAD DUP1 SWAP2 SUB SWAP1 KECCAK256 PUSH1 0x0 SWAP1 SLOAD SWAP1 PUSH2 0x100 EXP SWAP1 DIV PUSH1 0xFF AND PUSH3 0x829 JUMPI PUSH1 0x0 DUP1 REVERT JUMPDEST PUSH1 0x3 DUP4 DUP4 PUSH1 0x40 MLOAD PUSH3 0x83D SWAP3 SWAP2 SWAP1 PUSH3 0x201C JUMP JUMPDEST SWAP1 DUP2 MSTORE PUSH1 0x20 ADD PUSH1 0x40 MLOAD DUP1 SWAP2 SUB SWAP1 KECCAK256 SLOAD SWAP1 POP SWAP3 SWAP2 POP POP JUMP JUMPDEST PUSH1 0x0 PUSH1 0x4 DUP4 DUP4 PUSH1 0x40 MLOAD PUSH3 0x86A SWAP3 SWAP2 SWAP1 PUSH3 0x201C JUMP JUMPDEST SWAP1 DUP2 MSTORE PUSH1 0x20 ADD PUSH1 0x40 MLOAD DUP1 SWAP2 SUB SWAP1 KECCAK256 PUSH1 0x0 SWAP1 SLOAD SWAP1 PUSH2 0x100 EXP SWAP1 DIV PUSH1 0xFF AND PUSH3 0x890 JUMPI PUSH1 0x0 DUP1 REVERT JUMPDEST PUSH1 0x0 PUSH1 0x5 DUP5 DUP5 PUSH1 0x40 MLOAD PUSH3 0x8A6 SWAP3 SWAP2 SWAP1 PUSH3 0x201C JUMP JUMPDEST SWAP1 DUP2 MSTORE PUSH1 0x20 ADD PUSH1 0x40 MLOAD DUP1 SWAP2 SUB SWAP1 KECCAK256 PUSH1 0x0 SWAP1 SLOAD SWAP1 PUSH2 0x100 EXP SWAP1 DIV PUSH20 0xFFFFFFFFFFFFFFFFFFFFFFFFFFFFFFFFFFFFFFFF AND SWAP1 POP DUP1 PUSH20 0xFFFFFFFFFFFFFFFFFFFFFFFFFFFFFFFFFFFFFFFF AND PUSH4 0x18160DDD PUSH1 0x40 MLOAD DUP2 PUSH4 0xFFFFFFFF AND PUSH1 0xE0 SHL DUP2 MSTORE PUSH1 0x4 ADD PUSH1 0x20 PUSH1 0x40 MLOAD DUP1 DUP4 SUB DUP2 DUP7 DUP1 EXTCODESIZE ISZERO DUP1 ISZERO PUSH3 0x91E JUMPI PUSH1 0x0 DUP1 REVERT JUMPDEST POP GAS STATICCALL ISZERO DUP1 ISZERO PUSH3 0x933 JUMPI RETURNDATASIZE PUSH1 0x0 DUP1 RETURNDATACOPY RETURNDATASIZE PUSH1 0x0 REVERT JUMPDEST POP POP POP POP PUSH1 0x40 MLOAD RETURNDATASIZE PUSH1 0x1F NOT PUSH1 0x1F DUP3 ADD AND DUP3 ADD DUP1 PUSH1 0x40 MSTORE POP DUP2 ADD SWAP1 PUSH3 0x959 SWAP2 SWAP1 PUSH3 0x1E41 JUMP JUMPDEST SWAP2 POP POP SWAP3 SWAP2 POP POP JUMP JUMPDEST PUSH1 0x0 PUSH1 0x4 DUP4 DUP4 PUSH1 0x40 MLOAD PUSH3 0x978 SWAP3 SWAP2 SWAP1 PUSH3 0x201C JUMP JUMPDEST SWAP1 DUP2 MSTORE PUSH1 0x20 ADD PUSH1 0x40 MLOAD DUP1 SWAP2 SUB SWAP1 KECCAK256 PUSH1 0x0 SWAP1 SLOAD SWAP1 PUSH2 0x100 EXP SWAP1 DIV PUSH1 0xFF AND PUSH3 0x99E JUMPI PUSH1 0x0 DUP1 REVERT JUMPDEST PUSH1 0x0 PUSH1 0x5 DUP5 DUP5 PUSH1 0x40 MLOAD PUSH3 0x9B4 SWAP3 SWAP2 SWAP1 PUSH3 0x201C JUMP JUMPDEST SWAP1 DUP2 MSTORE PUSH1 0x20 ADD PUSH1 0x40 MLOAD DUP1 SWAP2 SUB SWAP1 KECCAK256 PUSH1 0x0 SWAP1 SLOAD SWAP1 PUSH2 0x100 EXP SWAP1 DIV PUSH20 0xFFFFFFFFFFFFFFFFFFFFFFFFFFFFFFFFFFFFFFFF AND SWAP1 POP PUSH1 0x0 PUSH1 0x3 DUP6 DUP6 PUSH1 0x40 MLOAD PUSH3 0x9FB SWAP3 SWAP2 SWAP1 PUSH3 0x201C JUMP JUMPDEST SWAP1 DUP2 MSTORE PUSH1 0x20 ADD PUSH1 0x40 MLOAD DUP1 SWAP2 SUB SWAP1 KECCAK256 SLOAD SWAP1 POP PUSH1 0x0 PUSH1 0x64 PUSH1 0xA SLOAD PUSH1 0x64 PUSH3 0xA21 SWAP2 SWAP1 PUSH3 0x2296 JUMP JUMPDEST PUSH3 0xA2D SWAP2 SWAP1 PUSH3 0x22F3 JUMP JUMPDEST SWAP1 POP PUSH1 0x0 PUSH3 0xA3D DUP3 DUP5 PUSH3 0x15BF JUMP JUMPDEST SWAP1 POP PUSH1 0x0 DUP2 CALLVALUE PUSH3 0xA4F SWAP2 SWAP1 PUSH3 0x22F3 JUMP JUMPDEST SWAP1 POP DUP2 CALLVALUE LT ISZERO PUSH3 0xA5F JUMPI PUSH1 0x0 DUP1 REVERT JUMPDEST PUSH1 0x0 PUSH1 0x1 SWAP1 POP DUP1 DUP1 ISZERO PUSH3 0xB04 JUMPI POP DUP6 PUSH20 0xFFFFFFFFFFFFFFFFFFFFFFFFFFFFFFFFFFFFFFFF AND PUSH4 0x23B872DD ADDRESS CALLER DUP6 PUSH1 0x40 MLOAD DUP5 PUSH4 0xFFFFFFFF AND PUSH1 0xE0 SHL DUP2 MSTORE PUSH1 0x4 ADD PUSH3 0xAAD SWAP4 SWAP3 SWAP2 SWAP1 PUSH3 0x206D JUMP JUMPDEST PUSH1 0x20 PUSH1 0x40 MLOAD DUP1 DUP4 SUB DUP2 PUSH1 0x0 DUP8 DUP1 EXTCODESIZE ISZERO DUP1 ISZERO PUSH3 0xAC8 JUMPI PUSH1 0x0 DUP1 REVERT JUMPDEST POP GAS CALL ISZERO DUP1 ISZERO PUSH3 0xADD JUMPI RETURNDATASIZE PUSH1 0x0 DUP1 RETURNDATACOPY RETURNDATASIZE PUSH1 0x0 REVERT JUMPDEST POP POP POP POP PUSH1 0x40 MLOAD RETURNDATASIZE PUSH1 0x1F NOT PUSH1 0x1F DUP3 ADD AND DUP3 ADD DUP1 PUSH1 0x40 MSTORE POP DUP2 ADD SWAP1 PUSH3 0xB03 SWAP2 SWAP1 PUSH3 0x1C4B JUMP JUMPDEST JUMPDEST SWAP1 POP PUSH32 0x40F5583AE6965366E0ACFA8DC48C165ED2FCE35C84DE4966619B6E42E4D5F4C8 CALLER DUP11 DUP11 DUP9 DUP7 PUSH1 0x40 MLOAD PUSH3 0xB3F SWAP6 SWAP5 SWAP4 SWAP3 SWAP2 SWAP1 PUSH3 0x20AA JUMP JUMPDEST PUSH1 0x40 MLOAD DUP1 SWAP2 SUB SWAP1 LOG1 PUSH1 0x6 PUSH1 0x0 CALLER PUSH20 0xFFFFFFFFFFFFFFFFFFFFFFFFFFFFFFFFFFFFFFFF AND PUSH20 0xFFFFFFFFFFFFFFFFFFFFFFFFFFFFFFFFFFFFFFFF AND DUP2 MSTORE PUSH1 0x20 ADD SWAP1 DUP2 MSTORE PUSH1 0x20 ADD PUSH1 0x0 KECCAK256 DUP10 DUP10 SWAP1 SWAP2 DUP1 PUSH1 0x1 DUP2 SLOAD ADD DUP1 DUP3 SSTORE DUP1 SWAP2 POP POP PUSH1 0x1 SWAP1 SUB SWAP1 PUSH1 0x0 MSTORE PUSH1 0x20 PUSH1 0x0 KECCAK256 ADD PUSH1 0x0 SWAP1 SWAP2 SWAP3 SWAP1 SWAP2 SWAP3 SWAP1 SWAP2 SWAP3 SWAP1 SWAP2 SWAP3 POP SWAP2 SWAP1 PUSH3 0xBC3 SWAP3 SWAP2 SWAP1 PUSH3 0x1952 JUMP JUMPDEST POP PUSH3 0xBD2 PUSH1 0x2 SLOAD CALLVALUE PUSH3 0x15D7 JUMP JUMPDEST PUSH1 0x2 DUP2 SWAP1 SSTORE POP DUP1 SWAP7 POP POP POP POP POP POP POP SWAP3 SWAP2 POP POP JUMP JUMPDEST PUSH1 0x60 PUSH1 0x6 PUSH1 0x0 DUP4 PUSH20 0xFFFFFFFFFFFFFFFFFFFFFFFFFFFFFFFFFFFFFFFF AND PUSH20 0xFFFFFFFFFFFFFFFFFFFFFFFFFFFFFFFFFFFFFFFF AND DUP2 MSTORE PUSH1 0x20 ADD SWAP1 DUP2 MSTORE PUSH1 0x20 ADD PUSH1 0x0 KECCAK256 DUP1 SLOAD DUP1 PUSH1 0x20 MUL PUSH1 0x20 ADD PUSH1 0x40 MLOAD SWAP1 DUP2 ADD PUSH1 0x40 MSTORE DUP1 SWAP3 SWAP2 SWAP1 DUP2 DUP2 MSTORE PUSH1 0x20 ADD PUSH1 0x0 SWAP1 JUMPDEST DUP3 DUP3 LT ISZERO PUSH3 0xCFE JUMPI DUP4 DUP3 SWAP1 PUSH1 0x0 MSTORE PUSH1 0x20 PUSH1 0x0 KECCAK256 ADD DUP1 SLOAD PUSH3 0xC6A SWAP1 PUSH3 0x2463 JUMP JUMPDEST DUP1 PUSH1 0x1F ADD PUSH1 0x20 DUP1 SWAP2 DIV MUL PUSH1 0x20 ADD PUSH1 0x40 MLOAD SWAP1 DUP2 ADD PUSH1 0x40 MSTORE DUP1 SWAP3 SWAP2 SWAP1 DUP2 DUP2 MSTORE PUSH1 0x20 ADD DUP3 DUP1 SLOAD PUSH3 0xC98 SWAP1 PUSH3 0x2463 JUMP JUMPDEST DUP1 ISZERO PUSH3 0xCE9 JUMPI DUP1 PUSH1 0x1F LT PUSH3 0xCBD JUMPI PUSH2 0x100 DUP1 DUP4 SLOAD DIV MUL DUP4 MSTORE SWAP2 PUSH1 0x20 ADD SWAP2 PUSH3 0xCE9 JUMP JUMPDEST DUP3 ADD SWAP2 SWAP1 PUSH1 0x0 MSTORE PUSH1 0x20 PUSH1 0x0 KECCAK256 SWAP1 JUMPDEST DUP2 SLOAD DUP2 MSTORE SWAP1 PUSH1 0x1 ADD SWAP1 PUSH1 0x20 ADD DUP1 DUP4 GT PUSH3 0xCCB JUMPI DUP3 SWAP1 SUB PUSH1 0x1F AND DUP3 ADD SWAP2 JUMPDEST POP POP POP POP POP DUP2 MSTORE PUSH1 0x20 ADD SWAP1 PUSH1 0x1 ADD SWAP1 PUSH3 0xC48 JUMP JUMPDEST POP POP POP POP SWAP1 POP SWAP2 SWAP1 POP JUMP JUMPDEST PUSH1 0x0 PUSH1 0x4 DUP5 DUP5 PUSH1 0x40 MLOAD PUSH3 0xD1F SWAP3 SWAP2 SWAP1 PUSH3 0x201C JUMP JUMPDEST SWAP1 DUP2 MSTORE PUSH1 0x20 ADD PUSH1 0x40 MLOAD DUP1 SWAP2 SUB SWAP1 KECCAK256 PUSH1 0x0 SWAP1 SLOAD SWAP1 PUSH2 0x100 EXP SWAP1 DIV PUSH1 0xFF AND PUSH3 0xD45 JUMPI PUSH1 0x0 DUP1 REVERT JUMPDEST PUSH1 0x0 PUSH1 0x5 DUP6 DUP6 PUSH1 0x40 MLOAD PUSH3 0xD5B SWAP3 SWAP2 SWAP1 PUSH3 0x201C JUMP JUMPDEST SWAP1 DUP2 MSTORE PUSH1 0x20 ADD PUSH1 0x40 MLOAD DUP1 SWAP2 SUB SWAP1 KECCAK256 PUSH1 0x0 SWAP1 SLOAD SWAP1 PUSH2 0x100 EXP SWAP1 DIV PUSH20 0xFFFFFFFFFFFFFFFFFFFFFFFFFFFFFFFFFFFFFFFF AND SWAP1 POP PUSH3 0xE48 DUP2 PUSH20 0xFFFFFFFFFFFFFFFFFFFFFFFFFFFFFFFFFFFFFFFF AND PUSH4 0x70A08231 DUP6 PUSH1 0x40 MLOAD DUP3 PUSH4 0xFFFFFFFF AND PUSH1 0xE0 SHL DUP2 MSTORE PUSH1 0x4 ADD PUSH3 0xDCB SWAP2 SWAP1 PUSH3 0x2050 JUMP JUMPDEST PUSH1 0x20 PUSH1 0x40 MLOAD DUP1 DUP4 SUB DUP2 DUP7 DUP1 EXTCODESIZE ISZERO DUP1 ISZERO PUSH3 0xDE4 JUMPI PUSH1 0x0 DUP1 REVERT JUMPDEST POP GAS STATICCALL ISZERO DUP1 ISZERO PUSH3 0xDF9 JUMPI RETURNDATASIZE PUSH1 0x0 DUP1 RETURNDATACOPY RETURNDATASIZE PUSH1 0x0 REVERT JUMPDEST POP POP POP POP PUSH1 0x40 MLOAD RETURNDATASIZE PUSH1 0x1F NOT PUSH1 0x1F DUP3 ADD AND DUP3 ADD DUP1 PUSH1 0x40 MSTORE POP DUP2 ADD SWAP1 PUSH3 0xE1F SWAP2 SWAP1 PUSH3 0x1E41 JUMP JUMPDEST PUSH1 0x3 DUP8 DUP8 PUSH1 0x40 MLOAD PUSH3 0xE33 SWAP3 SWAP2 SWAP1 PUSH3 0x201C JUMP JUMPDEST SWAP1 DUP2 MSTORE PUSH1 0x20 ADD PUSH1 0x40 MLOAD DUP1 SWAP2 SUB SWAP1 KECCAK256 SLOAD PUSH3 0x15BF JUMP JUMPDEST SWAP2 POP POP SWAP4 SWAP3 POP POP POP JUMP JUMPDEST PUSH1 0x0 DUP1 PUSH1 0x5 DUP6 DUP6 PUSH1 0x40 MLOAD PUSH3 0xE69 SWAP3 SWAP2 SWAP1 PUSH3 0x201C JUMP JUMPDEST SWAP1 DUP2 MSTORE PUSH1 0x20 ADD PUSH1 0x40 MLOAD DUP1 SWAP2 SUB SWAP1 KECCAK256 PUSH1 0x0 SWAP1 SLOAD SWAP1 PUSH2 0x100 EXP SWAP1 DIV PUSH20 0xFFFFFFFFFFFFFFFFFFFFFFFFFFFFFFFFFFFFFFFF AND SWAP1 POP PUSH1 0x0 PUSH1 0x3 DUP7 DUP7 PUSH1 0x40 MLOAD PUSH3 0xEB0 SWAP3 SWAP2 SWAP1 PUSH3 0x201C JUMP JUMPDEST SWAP1 DUP2 MSTORE PUSH1 0x20 ADD PUSH1 0x40 MLOAD DUP1 SWAP2 SUB SWAP1 KECCAK256 SLOAD SWAP1 POP PUSH1 0x0 PUSH1 0xA SLOAD PUSH1 0x64 PUSH3 0xED4 SWAP2 SWAP1 PUSH3 0x2296 JUMP JUMPDEST PUSH1 0x64 PUSH3 0xEE2 SWAP2 SWAP1 PUSH3 0x22F3 JUMP JUMPDEST SWAP1 POP PUSH1 0x0 PUSH3 0xEF2 DUP3 DUP5 PUSH3 0x15BF JUMP JUMPDEST SWAP1 POP PUSH1 0x0 DUP5 PUSH20 0xFFFFFFFFFFFFFFFFFFFFFFFFFFFFFFFFFFFFFFFF AND PUSH4 0x70A08231 CALLER PUSH1 0x40 MLOAD DUP3 PUSH4 0xFFFFFFFF AND PUSH1 0xE0 SHL DUP2 MSTORE PUSH1 0x4 ADD PUSH3 0xF31 SWAP2 SWAP1 PUSH3 0x2050 JUMP JUMPDEST PUSH1 0x20 PUSH1 0x40 MLOAD DUP1 DUP4 SUB DUP2 DUP7 DUP1 EXTCODESIZE ISZERO DUP1 ISZERO PUSH3 0xF4A JUMPI PUSH1 0x0 DUP1 REVERT JUMPDEST POP GAS STATICCALL ISZERO DUP1 ISZERO PUSH3 0xF5F JUMPI RETURNDATASIZE PUSH1 0x0 DUP1 RETURNDATACOPY RETURNDATASIZE PUSH1 0x0 REVERT JUMPDEST POP POP POP POP PUSH1 0x40 MLOAD RETURNDATASIZE PUSH1 0x1F NOT PUSH1 0x1F DUP3 ADD AND DUP3 ADD DUP1 PUSH1 0x40 MSTORE POP DUP2 ADD SWAP1 PUSH3 0xF85 SWAP2 SWAP1 PUSH3 0x1E41 JUMP JUMPDEST SWAP1 POP DUP7 DUP2 LT ISZERO PUSH3 0xF95 JUMPI PUSH1 0x0 DUP1 REVERT JUMPDEST PUSH1 0x0 PUSH3 0xFA3 DUP4 DUP10 PUSH3 0x15BF JUMP JUMPDEST SWAP1 POP DUP1 PUSH1 0x2 SLOAD LT ISZERO PUSH3 0xFB5 JUMPI PUSH1 0x0 DUP1 REVERT JUMPDEST DUP6 PUSH20 0xFFFFFFFFFFFFFFFFFFFFFFFFFFFFFFFFFFFFFFFF AND PUSH4 0x23B872DD CALLER ADDRESS DUP12 PUSH1 0x40 MLOAD DUP5 PUSH4 0xFFFFFFFF AND PUSH1 0xE0 SHL DUP2 MSTORE PUSH1 0x4 ADD PUSH3 0xFF4 SWAP4 SWAP3 SWAP2 SWAP1 PUSH3 0x206D JUMP JUMPDEST PUSH1 0x20 PUSH1 0x40 MLOAD DUP1 DUP4 SUB DUP2 PUSH1 0x0 DUP8 DUP1 EXTCODESIZE ISZERO DUP1 ISZERO PUSH3 0x100F JUMPI PUSH1 0x0 DUP1 REVERT JUMPDEST POP GAS CALL ISZERO DUP1 ISZERO PUSH3 0x1024 JUMPI RETURNDATASIZE PUSH1 0x0 DUP1 RETURNDATACOPY RETURNDATASIZE PUSH1 0x0 REVERT JUMPDEST POP POP POP POP PUSH1 0x40 MLOAD RETURNDATASIZE PUSH1 0x1F NOT PUSH1 0x1F DUP3 ADD AND DUP3 ADD DUP1 PUSH1 0x40 MSTORE POP DUP2 ADD SWAP1 PUSH3 0x104A SWAP2 SWAP1 PUSH3 0x1C4B JUMP JUMPDEST POP CALLER PUSH20 0xFFFFFFFFFFFFFFFFFFFFFFFFFFFFFFFFFFFFFFFF AND PUSH2 0x8FC DUP3 SWAP1 DUP2 ISZERO MUL SWAP1 PUSH1 0x40 MLOAD PUSH1 0x0 PUSH1 0x40 MLOAD DUP1 DUP4 SUB DUP2 DUP6 DUP9 DUP9 CALL SWAP4 POP POP POP POP ISZERO DUP1 ISZERO PUSH3 0x1092 JUMPI RETURNDATASIZE PUSH1 0x0 DUP1 RETURNDATACOPY RETURNDATASIZE PUSH1 0x0 REVERT JUMPDEST POP PUSH1 0x0 DUP9 DUP4 PUSH3 0x10A3 SWAP2 SWAP1 PUSH3 0x238C JUMP JUMPDEST EQ ISZERO PUSH3 0x10FB JUMPI PUSH3 0x10FA CALLER DUP12 DUP12 DUP1 DUP1 PUSH1 0x1F ADD PUSH1 0x20 DUP1 SWAP2 DIV MUL PUSH1 0x20 ADD PUSH1 0x40 MLOAD SWAP1 DUP2 ADD PUSH1 0x40 MSTORE DUP1 SWAP4 SWAP3 SWAP2 SWAP1 DUP2 DUP2 MSTORE PUSH1 0x20 ADD DUP4 DUP4 DUP1 DUP3 DUP5 CALLDATACOPY PUSH1 0x0 DUP2 DUP5 ADD MSTORE PUSH1 0x1F NOT PUSH1 0x1F DUP3 ADD AND SWAP1 POP DUP1 DUP4 ADD SWAP3 POP POP POP POP POP POP POP PUSH3 0x15EF JUMP JUMPDEST JUMPDEST PUSH32 0x49F57F92FE331C8352BC57011DD480B77F5DADAF815D7D9A33FAE03E4ACC349 CALLER DUP12 DUP12 DUP9 DUP13 PUSH1 0x40 MLOAD PUSH3 0x1134 SWAP6 SWAP5 SWAP4 SWAP3 SWAP2 SWAP1 PUSH3 0x20AA JUMP JUMPDEST PUSH1 0x40 MLOAD DUP1 SWAP2 SUB SWAP1 LOG1 PUSH3 0x114A PUSH1 0x2 SLOAD CALLVALUE PUSH3 0x15A7 JUMP JUMPDEST PUSH1 0x2 DUP2 SWAP1 SSTORE POP PUSH1 0x1 SWAP7 POP POP POP POP POP POP POP SWAP4 SWAP3 POP POP POP JUMP JUMPDEST PUSH1 0x0 DUP1 PUSH1 0x3 DUP5 DUP5 PUSH1 0x40 MLOAD PUSH3 0x1178 SWAP3 SWAP2 SWAP1 PUSH3 0x201C JUMP JUMPDEST SWAP1 DUP2 MSTORE PUSH1 0x20 ADD PUSH1 0x40 MLOAD DUP1 SWAP2 SUB SWAP1 KECCAK256 SLOAD SWAP1 POP PUSH1 0x0 PUSH1 0x64 PUSH1 0xA SLOAD PUSH1 0x64 PUSH3 0x119E SWAP2 SWAP1 PUSH3 0x2296 JUMP JUMPDEST PUSH3 0x11AA SWAP2 SWAP1 PUSH3 0x22F3 JUMP JUMPDEST SWAP1 POP PUSH1 0x0 PUSH3 0x11BA DUP3 DUP5 PUSH3 0x15BF JUMP JUMPDEST SWAP1 POP DUP1 SWAP4 POP POP POP POP SWAP3 SWAP2 POP POP JUMP JUMPDEST PUSH1 0x0 DUP1 PUSH1 0x0 SWAP1 SLOAD SWAP1 PUSH2 0x100 EXP SWAP1 DIV PUSH20 0xFFFFFFFFFFFFFFFFFFFFFFFFFFFFFFFFFFFFFFFF AND PUSH20 0xFFFFFFFFFFFFFFFFFFFFFFFFFFFFFFFFFFFFFFFF AND CALLER PUSH20 0xFFFFFFFFFFFFFFFFFFFFFFFFFFFFFFFFFFFFFFFF AND EQ DUP1 PUSH3 0x1273 JUMPI POP PUSH1 0x1 PUSH1 0x0 SWAP1 SLOAD SWAP1 PUSH2 0x100 EXP SWAP1 DIV PUSH20 0xFFFFFFFFFFFFFFFFFFFFFFFFFFFFFFFFFFFFFFFF AND PUSH20 0xFFFFFFFFFFFFFFFFFFFFFFFFFFFFFFFFFFFFFFFF AND CALLER PUSH20 0xFFFFFFFFFFFFFFFFFFFFFFFFFFFFFFFFFFFFFFFF AND EQ JUMPDEST PUSH3 0x127D JUMPI PUSH1 0x0 DUP1 REVERT JUMPDEST PUSH1 0x4 DUP9 DUP9 PUSH1 0x40 MLOAD PUSH3 0x1291 SWAP3 SWAP2 SWAP1 PUSH3 0x201C JUMP JUMPDEST SWAP1 DUP2 MSTORE PUSH1 0x20 ADD PUSH1 0x40 MLOAD DUP1 SWAP2 SUB SWAP1 KECCAK256 PUSH1 0x0 SWAP1 SLOAD SWAP1 PUSH2 0x100 EXP SWAP1 DIV PUSH1 0xFF AND ISZERO PUSH3 0x12B8 JUMPI PUSH1 0x0 DUP1 REVERT JUMPDEST DUP6 DUP6 DUP6 DUP6 PUSH1 0x8 SLOAD PUSH1 0x9 PUSH1 0x0 SWAP1 SLOAD SWAP1 PUSH2 0x100 EXP SWAP1 DIV PUSH1 0xFF AND PUSH1 0x40 MLOAD PUSH3 0x12DD SWAP1 PUSH3 0x19E3 JUMP JUMPDEST PUSH3 0x12EE SWAP7 SWAP6 SWAP5 SWAP4 SWAP3 SWAP2 SWAP1 PUSH3 0x21A9 JUMP JUMPDEST PUSH1 0x40 MLOAD DUP1 SWAP2 SUB SWAP1 PUSH1 0x0 CREATE DUP1 ISZERO DUP1 ISZERO PUSH3 0x130B JUMPI RETURNDATASIZE PUSH1 0x0 DUP1 RETURNDATACOPY RETURNDATASIZE PUSH1 0x0 REVERT JUMPDEST POP PUSH1 0x5 DUP10 DUP10 PUSH1 0x40 MLOAD PUSH3 0x1320 SWAP3 SWAP2 SWAP1 PUSH3 0x201C JUMP JUMPDEST SWAP1 DUP2 MSTORE PUSH1 0x20 ADD PUSH1 0x40 MLOAD DUP1 SWAP2 SUB SWAP1 KECCAK256 PUSH1 0x0 PUSH2 0x100 EXP DUP2 SLOAD DUP2 PUSH20 0xFFFFFFFFFFFFFFFFFFFFFFFFFFFFFFFFFFFFFFFF MUL NOT AND SWAP1 DUP4 PUSH20 0xFFFFFFFFFFFFFFFFFFFFFFFFFFFFFFFFFFFFFFFF AND MUL OR SWAP1 SSTORE POP PUSH1 0x7 DUP9 DUP9 SWAP1 SWAP2 DUP1 PUSH1 0x1 DUP2 SLOAD ADD DUP1 DUP3 SSTORE DUP1 SWAP2 POP POP PUSH1 0x1 SWAP1 SUB SWAP1 PUSH1 0x0 MSTORE PUSH1 0x20 PUSH1 0x0 KECCAK256 ADD PUSH1 0x0 SWAP1 SWAP2 SWAP3 SWAP1 SWAP2 SWAP3 SWAP1 SWAP2 SWAP3 SWAP1 SWAP2 SWAP3 POP SWAP2 SWAP1 PUSH3 0x13AB SWAP3 SWAP2 SWAP1 PUSH3 0x1952 JUMP JUMPDEST POP PUSH1 0x1 PUSH1 0x4 DUP10 DUP10 PUSH1 0x40 MLOAD PUSH3 0x13C2 SWAP3 SWAP2 SWAP1 PUSH3 0x201C JUMP JUMPDEST SWAP1 DUP2 MSTORE PUSH1 0x20 ADD PUSH1 0x40 MLOAD DUP1 SWAP2 SUB SWAP1 KECCAK256 PUSH1 0x0 PUSH2 0x100 EXP DUP2 SLOAD DUP2 PUSH1 0xFF MUL NOT AND SWAP1 DUP4 ISZERO ISZERO MUL OR SWAP1 SSTORE POP DUP2 PUSH1 0x3 DUP10 DUP10 PUSH1 0x40 MLOAD PUSH3 0x13FC SWAP3 SWAP2 SWAP1 PUSH3 0x201C JUMP JUMPDEST SWAP1 DUP2 MSTORE PUSH1 0x20 ADD PUSH1 0x40 MLOAD DUP1 SWAP2 SUB SWAP1 KECCAK256 DUP2 SWAP1 SSTORE POP PUSH1 0x6 PUSH1 0x0 CALLER PUSH20 0xFFFFFFFFFFFFFFFFFFFFFFFFFFFFFFFFFFFFFFFF AND PUSH20 0xFFFFFFFFFFFFFFFFFFFFFFFFFFFFFFFFFFFFFFFF AND DUP2 MSTORE PUSH1 0x20 ADD SWAP1 DUP2 MSTORE PUSH1 0x20 ADD PUSH1 0x0 KECCAK256 DUP9 DUP9 SWAP1 SWAP2 DUP1 PUSH1 0x1 DUP2 SLOAD ADD DUP1 DUP3 SSTORE DUP1 SWAP2 POP POP PUSH1 0x1 SWAP1 SUB SWAP1 PUSH1 0x0 MSTORE PUSH1 0x20 PUSH1 0x0 KECCAK256 ADD PUSH1 0x0 SWAP1 SWAP2 SWAP3 SWAP1 SWAP2 SWAP3 SWAP1 SWAP2 SWAP3 SWAP1 SWAP2 SWAP3 POP SWAP2 SWAP1 PUSH3 0x148A SWAP3 SWAP2 SWAP1 PUSH3 0x1952 JUMP JUMPDEST POP PUSH32 0xFCF04FF5A22C65B961750682425EF5A539C0788E5A0CDE8D1D431A5DA637134 DUP9 DUP9 DUP9 DUP9 DUP9 DUP9 DUP9 PUSH1 0x40 MLOAD PUSH3 0x14C8 SWAP8 SWAP7 SWAP6 SWAP5 SWAP4 SWAP3 SWAP2 SWAP1 PUSH3 0x2141 JUMP JUMPDEST PUSH1 0x40 MLOAD DUP1 SWAP2 SUB SWAP1 LOG1 PUSH1 0x1 SWAP1 POP SWAP8 SWAP7 POP POP POP POP POP POP POP JUMP JUMPDEST PUSH1 0x0 DUP1 SLOAD SWAP1 PUSH2 0x100 EXP SWAP1 DIV PUSH20 0xFFFFFFFFFFFFFFFFFFFFFFFFFFFFFFFFFFFFFFFF AND PUSH20 0xFFFFFFFFFFFFFFFFFFFFFFFFFFFFFFFFFFFFFFFF AND CALLER PUSH20 0xFFFFFFFFFFFFFFFFFFFFFFFFFFFFFFFFFFFFFFFF AND EQ DUP1 PUSH3 0x1587 JUMPI POP PUSH1 0x1 PUSH1 0x0 SWAP1 SLOAD SWAP1 PUSH2 0x100 EXP SWAP1 DIV PUSH20 0xFFFFFFFFFFFFFFFFFFFFFFFFFFFFFFFFFFFFFFFF AND PUSH20 0xFFFFFFFFFFFFFFFFFFFFFFFFFFFFFFFFFFFFFFFF AND CALLER PUSH20 0xFFFFFFFFFFFFFFFFFFFFFFFFFFFFFFFFFFFFFFFF AND EQ JUMPDEST PUSH3 0x1591 JUMPI PUSH1 0x0 DUP1 REVERT JUMPDEST PUSH3 0x159F PUSH1 0x2 SLOAD CALLVALUE PUSH3 0x15D7 JUMP JUMPDEST PUSH1 0x2 DUP2 SWAP1 SSTORE POP JUMP JUMPDEST PUSH1 0x0 DUP2 DUP4 PUSH3 0x15B7 SWAP2 SWAP1 PUSH3 0x238C JUMP JUMPDEST SWAP1 POP SWAP3 SWAP2 POP POP JUMP JUMPDEST PUSH1 0x0 DUP2 DUP4 PUSH3 0x15CF SWAP2 SWAP1 PUSH3 0x232B JUMP JUMPDEST SWAP1 POP SWAP3 SWAP2 POP POP JUMP JUMPDEST PUSH1 0x0 DUP2 DUP4 PUSH3 0x15E7 SWAP2 SWAP1 PUSH3 0x2296 JUMP JUMPDEST SWAP1 POP SWAP3 SWAP2 POP POP JUMP JUMPDEST PUSH1 0x0 PUSH1 0x6 PUSH1 0x0 DUP5 PUSH20 0xFFFFFFFFFFFFFFFFFFFFFFFFFFFFFFFFFFFFFFFF AND PUSH20 0xFFFFFFFFFFFFFFFFFFFFFFFFFFFFFFFFFFFFFFFF AND DUP2 MSTORE PUSH1 0x20 ADD SWAP1 DUP2 MSTORE PUSH1 0x20 ADD PUSH1 0x0 KECCAK256 DUP1 SLOAD DUP1 PUSH1 0x20 MUL PUSH1 0x20 ADD PUSH1 0x40 MLOAD SWAP1 DUP2 ADD PUSH1 0x40 MSTORE DUP1 SWAP3 SWAP2 SWAP1 DUP2 DUP2 MSTORE PUSH1 0x20 ADD PUSH1 0x0 SWAP1 JUMPDEST DUP3 DUP3 LT ISZERO PUSH3 0x1706 JUMPI DUP4 DUP3 SWAP1 PUSH1 0x0 MSTORE PUSH1 0x20 PUSH1 0x0 KECCAK256 ADD DUP1 SLOAD PUSH3 0x1672 SWAP1 PUSH3 0x2463 JUMP JUMPDEST DUP1 PUSH1 0x1F ADD PUSH1 0x20 DUP1 SWAP2 DIV MUL PUSH1 0x20 ADD PUSH1 0x40 MLOAD SWAP1 DUP2 ADD PUSH1 0x40 MSTORE DUP1 SWAP3 SWAP2 SWAP1 DUP2 DUP2 MSTORE PUSH1 0x20 ADD DUP3 DUP1 SLOAD PUSH3 0x16A0 SWAP1 PUSH3 0x2463 JUMP JUMPDEST DUP1 ISZERO PUSH3 0x16F1 JUMPI DUP1 PUSH1 0x1F LT PUSH3 0x16C5 JUMPI PUSH2 0x100 DUP1 DUP4 SLOAD DIV MUL DUP4 MSTORE SWAP2 PUSH1 0x20 ADD SWAP2 PUSH3 0x16F1 JUMP JUMPDEST DUP3 ADD SWAP2 SWAP1 PUSH1 0x0 MSTORE PUSH1 0x20 PUSH1 0x0 KECCAK256 SWAP1 JUMPDEST DUP2 SLOAD DUP2 MSTORE SWAP1 PUSH1 0x1 ADD SWAP1 PUSH1 0x20 ADD DUP1 DUP4 GT PUSH3 0x16D3 JUMPI DUP3 SWAP1 SUB PUSH1 0x1F AND DUP3 ADD SWAP2 JUMPDEST POP POP POP POP POP DUP2 MSTORE PUSH1 0x20 ADD SWAP1 PUSH1 0x1 ADD SWAP1 PUSH3 0x1650 JUMP JUMPDEST POP POP POP POP SWAP1 POP PUSH1 0x0 DUP1 PUSH1 0x0 DUP4 MLOAD SWAP1 POP PUSH1 0x0 SWAP3 POP JUMPDEST DUP1 DUP4 LT ISZERO PUSH3 0x1897 JUMPI PUSH1 0x0 DUP5 DUP5 DUP2 MLOAD DUP2 LT PUSH3 0x175F JUMPI PUSH32 0x4E487B7100000000000000000000000000000000000000000000000000000000 PUSH1 0x0 MSTORE PUSH1 0x32 PUSH1 0x4 MSTORE PUSH1 0x24 PUSH1 0x0 REVERT JUMPDEST PUSH1 0x20 MUL PUSH1 0x20 ADD ADD MLOAD SWAP1 POP PUSH3 0x1775 DUP7 DUP3 PUSH3 0x18F5 JUMP JUMPDEST ISZERO PUSH3 0x1780 JUMPI PUSH1 0x1 SWAP3 POP JUMPDEST DUP3 ISZERO PUSH3 0x1880 JUMPI PUSH1 0x1 DUP3 PUSH3 0x1796 SWAP2 SWAP1 PUSH3 0x238C JUMP JUMPDEST DUP5 EQ PUSH3 0x1838 JUMPI DUP5 PUSH1 0x1 DUP6 PUSH3 0x17AD SWAP2 SWAP1 PUSH3 0x2296 JUMP JUMPDEST DUP2 MLOAD DUP2 LT PUSH3 0x17E5 JUMPI PUSH32 0x4E487B7100000000000000000000000000000000000000000000000000000000 PUSH1 0x0 MSTORE PUSH1 0x32 PUSH1 0x4 MSTORE PUSH1 0x24 PUSH1 0x0 REVERT JUMPDEST PUSH1 0x20 MUL PUSH1 0x20 ADD ADD MLOAD DUP6 DUP6 DUP2 MLOAD DUP2 LT PUSH3 0x1827 JUMPI PUSH32 0x4E487B7100000000000000000000000000000000000000000000000000000000 PUSH1 0x0 MSTORE PUSH1 0x32 PUSH1 0x4 MSTORE PUSH1 0x24 PUSH1 0x0 REVERT JUMPDEST PUSH1 0x20 MUL PUSH1 0x20 ADD ADD DUP2 SWAP1 MSTORE POP PUSH3 0x187F JUMP JUMPDEST DUP5 DUP5 DUP2 MLOAD DUP2 LT PUSH3 0x1872 JUMPI PUSH32 0x4E487B7100000000000000000000000000000000000000000000000000000000 PUSH1 0x0 MSTORE PUSH1 0x32 PUSH1 0x4 MSTORE PUSH1 0x24 PUSH1 0x0 REVERT JUMPDEST PUSH1 0x20 MUL PUSH1 0x20 ADD ADD PUSH1 0x60 DUP2 MSTORE POP JUMPDEST JUMPDEST POP DUP3 DUP1 PUSH3 0x188E SWAP1 PUSH3 0x2499 JUMP JUMPDEST SWAP4 POP POP PUSH3 0x171A JUMP JUMPDEST DUP4 PUSH1 0x6 PUSH1 0x0 DUP9 PUSH20 0xFFFFFFFFFFFFFFFFFFFFFFFFFFFFFFFFFFFFFFFF AND PUSH20 0xFFFFFFFFFFFFFFFFFFFFFFFFFFFFFFFFFFFFFFFF AND DUP2 MSTORE PUSH1 0x20 ADD SWAP1 DUP2 MSTORE PUSH1 0x20 ADD PUSH1 0x0 KECCAK256 SWAP1 DUP1 MLOAD SWAP1 PUSH1 0x20 ADD SWAP1 PUSH3 0x18EC SWAP3 SWAP2 SWAP1 PUSH3 0x19F1 JUMP JUMPDEST POP POP POP POP POP POP POP JUMP JUMPDEST PUSH1 0x0 DUP2 PUSH1 0x40 MLOAD PUSH1 0x20 ADD PUSH3 0x190A SWAP2 SWAP1 PUSH3 0x2037 JUMP JUMPDEST PUSH1 0x40 MLOAD PUSH1 0x20 DUP2 DUP4 SUB SUB DUP2 MSTORE SWAP1 PUSH1 0x40 MSTORE DUP1 MLOAD SWAP1 PUSH1 0x20 ADD KECCAK256 DUP4 PUSH1 0x40 MLOAD PUSH1 0x20 ADD PUSH3 0x1933 SWAP2 SWAP1 PUSH3 0x2037 JUMP JUMPDEST PUSH1 0x40 MLOAD PUSH1 0x20 DUP2 DUP4 SUB SUB DUP2 MSTORE SWAP1 PUSH1 0x40 MSTORE DUP1 MLOAD SWAP1 PUSH1 0x20 ADD KECCAK256 EQ SWAP1 POP SWAP3 SWAP2 POP POP JUMP JUMPDEST DUP3 DUP1 SLOAD PUSH3 0x1960 SWAP1 PUSH3 0x2463 JUMP JUMPDEST SWAP1 PUSH1 0x0 MSTORE PUSH1 0x20 PUSH1 0x0 KECCAK256 SWAP1 PUSH1 0x1F ADD PUSH1 0x20 SWAP1 DIV DUP2 ADD SWAP3 DUP3 PUSH3 0x1984 JUMPI PUSH1 0x0 DUP6 SSTORE PUSH3 0x19D0 JUMP JUMPDEST DUP3 PUSH1 0x1F LT PUSH3 0x199F JUMPI DUP1 CALLDATALOAD PUSH1 0xFF NOT AND DUP4 DUP1 ADD OR DUP6 SSTORE PUSH3 0x19D0 JUMP JUMPDEST DUP3 DUP1 ADD PUSH1 0x1 ADD DUP6 SSTORE DUP3 ISZERO PUSH3 0x19D0 JUMPI SWAP2 DUP3 ADD JUMPDEST DUP3 DUP2 GT ISZERO PUSH3 0x19CF JUMPI DUP3 CALLDATALOAD DUP3 SSTORE SWAP2 PUSH1 0x20 ADD SWAP2 SWAP1 PUSH1 0x1 ADD SWAP1 PUSH3 0x19B2 JUMP JUMPDEST JUMPDEST POP SWAP1 POP PUSH3 0x19DF SWAP2 SWAP1 PUSH3 0x1A58 JUMP JUMPDEST POP SWAP1 JUMP JUMPDEST PUSH2 0xE03 DUP1 PUSH3 0x25D4 DUP4 CODECOPY ADD SWAP1 JUMP JUMPDEST DUP3 DUP1 SLOAD DUP3 DUP3 SSTORE SWAP1 PUSH1 0x0 MSTORE PUSH1 0x20 PUSH1 0x0 KECCAK256 SWAP1 DUP2 ADD SWAP3 DUP3 ISZERO PUSH3 0x1A45 JUMPI SWAP2 PUSH1 0x20 MUL DUP3 ADD JUMPDEST DUP3 DUP2 GT ISZERO PUSH3 0x1A44 JUMPI DUP3 MLOAD DUP3 SWAP1 DUP1 MLOAD SWAP1 PUSH1 0x20 ADD SWAP1 PUSH3 0x1A33 SWAP3 SWAP2 SWAP1 PUSH3 0x1A77 JUMP JUMPDEST POP SWAP2 PUSH1 0x20 ADD SWAP2 SWAP1 PUSH1 0x1 ADD SWAP1 PUSH3 0x1A12 JUMP JUMPDEST JUMPDEST POP SWAP1 POP PUSH3 0x1A54 SWAP2 SWAP1 PUSH3 0x1B08 JUMP JUMPDEST POP SWAP1 JUMP JUMPDEST JUMPDEST DUP1 DUP3 GT ISZERO PUSH3 0x1A73 JUMPI PUSH1 0x0 DUP2 PUSH1 0x0 SWAP1 SSTORE POP PUSH1 0x1 ADD PUSH3 0x1A59 JUMP JUMPDEST POP SWAP1 JUMP JUMPDEST DUP3 DUP1 SLOAD PUSH3 0x1A85 SWAP1 PUSH3 0x2463 JUMP JUMPDEST SWAP1 PUSH1 0x0 MSTORE PUSH1 0x20 PUSH1 0x0 KECCAK256 SWAP1 PUSH1 0x1F ADD PUSH1 0x20 SWAP1 DIV DUP2 ADD SWAP3 DUP3 PUSH3 0x1AA9 JUMPI PUSH1 0x0 DUP6 SSTORE PUSH3 0x1AF5 JUMP JUMPDEST DUP3 PUSH1 0x1F LT PUSH3 0x1AC4 JUMPI DUP1 MLOAD PUSH1 0xFF NOT AND DUP4 DUP1 ADD OR DUP6 SSTORE PUSH3 0x1AF5 JUMP JUMPDEST DUP3 DUP1 ADD PUSH1 0x1 ADD DUP6 SSTORE DUP3 ISZERO PUSH3 0x1AF5 JUMPI SWAP2 DUP3 ADD JUMPDEST DUP3 DUP2 GT ISZERO PUSH3 0x1AF4 JUMPI DUP3 MLOAD DUP3 SSTORE SWAP2 PUSH1 0x20 ADD SWAP2 SWAP1 PUSH1 0x1 ADD SWAP1 PUSH3 0x1AD7 JUMP JUMPDEST JUMPDEST POP SWAP1 POP PUSH3 0x1B04 SWAP2 SWAP1 PUSH3 0x1A58 JUMP JUMPDEST POP SWAP1 JUMP JUMPDEST JUMPDEST DUP1 DUP3 GT ISZERO PUSH3 0x1B2C JUMPI PUSH1 0x0 DUP2 DUP2 PUSH3 0x1B22 SWAP2 SWAP1 PUSH3 0x1B30 JUMP JUMPDEST POP PUSH1 0x1 ADD PUSH3 0x1B09 JUMP JUMPDEST POP SWAP1 JUMP JUMPDEST POP DUP1 SLOAD PUSH3 0x1B3E SWAP1 PUSH3 0x2463 JUMP JUMPDEST PUSH1 0x0 DUP3 SSTORE DUP1 PUSH1 0x1F LT PUSH3 0x1B52 JUMPI POP PUSH3 0x1B73 JUMP JUMPDEST PUSH1 0x1F ADD PUSH1 0x20 SWAP1 DIV SWAP1 PUSH1 0x0 MSTORE PUSH1 0x20 PUSH1 0x0 KECCAK256 SWAP1 DUP2 ADD SWAP1 PUSH3 0x1B72 SWAP2 SWAP1 PUSH3 0x1A58 JUMP JUMPDEST JUMPDEST POP JUMP JUMPDEST PUSH1 0x0 DUP2 CALLDATALOAD SWAP1 POP PUSH3 0x1B87 DUP2 PUSH3 0x2585 JUMP JUMPDEST SWAP3 SWAP2 POP POP JUMP JUMPDEST PUSH1 0x0 DUP2 MLOAD SWAP1 POP PUSH3 0x1B9E DUP2 PUSH3 0x259F JUMP JUMPDEST SWAP3 SWAP2 POP POP JUMP JUMPDEST PUSH1 0x0 DUP1 DUP4 PUSH1 0x1F DUP5 ADD SLT PUSH3 0x1BB7 JUMPI PUSH1 0x0 DUP1 REVERT JUMPDEST DUP3 CALLDATALOAD SWAP1 POP PUSH8 0xFFFFFFFFFFFFFFFF DUP2 GT ISZERO PUSH3 0x1BD1 JUMPI PUSH1 0x0 DUP1 REVERT JUMPDEST PUSH1 0x20 DUP4 ADD SWAP2 POP DUP4 PUSH1 0x1 DUP3 MUL DUP4 ADD GT ISZERO PUSH3 0x1BEA JUMPI PUSH1 0x0 DUP1 REVERT JUMPDEST SWAP3 POP SWAP3 SWAP1 POP JUMP JUMPDEST PUSH1 0x0 DUP2 CALLDATALOAD SWAP1 POP PUSH3 0x1C02 DUP2 PUSH3 0x25B9 JUMP JUMPDEST SWAP3 SWAP2 POP POP JUMP JUMPDEST PUSH1 0x0 DUP2 MLOAD SWAP1 POP PUSH3 0x1C19 DUP2 PUSH3 0x25B9 JUMP JUMPDEST SWAP3 SWAP2 POP POP JUMP JUMPDEST PUSH1 0x0 PUSH1 0x20 DUP3 DUP5 SUB SLT ISZERO PUSH3 0x1C32 JUMPI PUSH1 0x0 DUP1 REVERT JUMPDEST PUSH1 0x0 PUSH3 0x1C42 DUP5 DUP3 DUP6 ADD PUSH3 0x1B76 JUMP JUMPDEST SWAP2 POP POP SWAP3 SWAP2 POP POP JUMP JUMPDEST PUSH1 0x0 PUSH1 0x20 DUP3 DUP5 SUB SLT ISZERO PUSH3 0x1C5E JUMPI PUSH1 0x0 DUP1 REVERT JUMPDEST PUSH1 0x0 PUSH3 0x1C6E DUP5 DUP3 DUP6 ADD PUSH3 0x1B8D JUMP JUMPDEST SWAP2 POP POP SWAP3 SWAP2 POP POP JUMP JUMPDEST PUSH1 0x0 DUP1 PUSH1 0x20 DUP4 DUP6 SUB SLT ISZERO PUSH3 0x1C8B JUMPI PUSH1 0x0 DUP1 REVERT JUMPDEST PUSH1 0x0 DUP4 ADD CALLDATALOAD PUSH8 0xFFFFFFFFFFFFFFFF DUP2 GT ISZERO PUSH3 0x1CA6 JUMPI PUSH1 0x0 DUP1 REVERT JUMPDEST PUSH3 0x1CB4 DUP6 DUP3 DUP7 ADD PUSH3 0x1BA4 JUMP JUMPDEST SWAP3 POP SWAP3 POP POP SWAP3 POP SWAP3 SWAP1 POP JUMP JUMPDEST PUSH1 0x0 DUP1 PUSH1 0x0 PUSH1 0x40 DUP5 DUP7 SUB SLT ISZERO PUSH3 0x1CD6 JUMPI PUSH1 0x0 DUP1 REVERT JUMPDEST PUSH1 0x0 DUP5 ADD CALLDATALOAD PUSH8 0xFFFFFFFFFFFFFFFF DUP2 GT ISZERO PUSH3 0x1CF1 JUMPI PUSH1 0x0 DUP1 REVERT JUMPDEST PUSH3 0x1CFF DUP7 DUP3 DUP8 ADD PUSH3 0x1BA4 JUMP JUMPDEST SWAP4 POP SWAP4 POP POP PUSH1 0x20 PUSH3 0x1D14 DUP7 DUP3 DUP8 ADD PUSH3 0x1B76 JUMP JUMPDEST SWAP2 POP POP SWAP3 POP SWAP3 POP SWAP3 JUMP JUMPDEST PUSH1 0x0 DUP1 PUSH1 0x0 DUP1 PUSH1 0x0 DUP1 PUSH1 0x0 PUSH1 0x80 DUP9 DUP11 SUB SLT ISZERO PUSH3 0x1D3A JUMPI PUSH1 0x0 DUP1 REVERT JUMPDEST PUSH1 0x0 DUP9 ADD CALLDATALOAD PUSH8 0xFFFFFFFFFFFFFFFF DUP2 GT ISZERO PUSH3 0x1D55 JUMPI PUSH1 0x0 DUP1 REVERT JUMPDEST PUSH3 0x1D63 DUP11 DUP3 DUP12 ADD PUSH3 0x1BA4 JUMP JUMPDEST SWAP8 POP SWAP8 POP POP PUSH1 0x20 DUP9 ADD CALLDATALOAD PUSH8 0xFFFFFFFFFFFFFFFF DUP2 GT ISZERO PUSH3 0x1D83 JUMPI PUSH1 0x0 DUP1 REVERT JUMPDEST PUSH3 0x1D91 DUP11 DUP3 DUP12 ADD PUSH3 0x1BA4 JUMP JUMPDEST SWAP6 POP SWAP6 POP POP PUSH1 0x40 DUP9 ADD CALLDATALOAD PUSH8 0xFFFFFFFFFFFFFFFF DUP2 GT ISZERO PUSH3 0x1DB1 JUMPI PUSH1 0x0 DUP1 REVERT JUMPDEST PUSH3 0x1DBF DUP11 DUP3 DUP12 ADD PUSH3 0x1BA4 JUMP JUMPDEST SWAP4 POP SWAP4 POP POP PUSH1 0x60 PUSH3 0x1DD4 DUP11 DUP3 DUP12 ADD PUSH3 0x1BF1 JUMP JUMPDEST SWAP2 POP POP SWAP3 SWAP6 SWAP9 SWAP2 SWAP5 SWAP8 POP SWAP3 SWAP6 POP JUMP JUMPDEST PUSH1 0x0 DUP1 PUSH1 0x0 PUSH1 0x40 DUP5 DUP7 SUB SLT ISZERO PUSH3 0x1DF9 JUMPI PUSH1 0x0 DUP1 REVERT JUMPDEST PUSH1 0x0 DUP5 ADD CALLDATALOAD PUSH8 0xFFFFFFFFFFFFFFFF DUP2 GT ISZERO PUSH3 0x1E14 JUMPI PUSH1 0x0 DUP1 REVERT JUMPDEST PUSH3 0x1E22 DUP7 DUP3 DUP8 ADD PUSH3 0x1BA4 JUMP JUMPDEST SWAP4 POP SWAP4 POP POP PUSH1 0x20 PUSH3 0x1E37 DUP7 DUP3 DUP8 ADD PUSH3 0x1BF1 JUMP JUMPDEST SWAP2 POP POP SWAP3 POP SWAP3 POP SWAP3 JUMP JUMPDEST PUSH1 0x0 PUSH1 0x20 DUP3 DUP5 SUB SLT ISZERO PUSH3 0x1E54 JUMPI PUSH1 0x0 DUP1 REVERT JUMPDEST PUSH1 0x0 PUSH3 0x1E64 DUP5 DUP3 DUP6 ADD PUSH3 0x1C08 JUMP JUMPDEST SWAP2 POP POP SWAP3 SWAP2 POP POP JUMP JUMPDEST PUSH1 0x0 PUSH3 0x1E7B DUP4 DUP4 PUSH3 0x1F82 JUMP JUMPDEST SWAP1 POP SWAP3 SWAP2 POP POP JUMP JUMPDEST PUSH3 0x1E8E DUP2 PUSH3 0x23C7 JUMP JUMPDEST DUP3 MSTORE POP POP JUMP JUMPDEST PUSH1 0x0 PUSH3 0x1EA1 DUP3 PUSH3 0x2235 JUMP JUMPDEST PUSH3 0x1EAD DUP2 DUP6 PUSH3 0x2258 JUMP JUMPDEST SWAP4 POP DUP4 PUSH1 0x20 DUP3 MUL DUP6 ADD PUSH3 0x1EC1 DUP6 PUSH3 0x2225 JUMP JUMPDEST DUP1 PUSH1 0x0 JUMPDEST DUP6 DUP2 LT ISZERO PUSH3 0x1F03 JUMPI DUP5 DUP5 SUB DUP10 MSTORE DUP2 MLOAD PUSH3 0x1EE1 DUP6 DUP3 PUSH3 0x1E6D JUMP JUMPDEST SWAP5 POP PUSH3 0x1EEE DUP4 PUSH3 0x224B JUMP JUMPDEST SWAP3 POP PUSH1 0x20 DUP11 ADD SWAP10 POP POP PUSH1 0x1 DUP2 ADD SWAP1 POP PUSH3 0x1EC5 JUMP JUMPDEST POP DUP3 SWAP8 POP DUP8 SWAP6 POP POP POP POP POP POP SWAP3 SWAP2 POP POP JUMP JUMPDEST PUSH3 0x1F20 DUP2 PUSH3 0x23DB JUMP JUMPDEST DUP3 MSTORE POP POP JUMP JUMPDEST PUSH1 0x0 PUSH3 0x1F34 DUP4 DUP6 PUSH3 0x227A JUMP JUMPDEST SWAP4 POP PUSH3 0x1F43 DUP4 DUP6 DUP5 PUSH3 0x241E JUMP JUMPDEST PUSH3 0x1F4E DUP4 PUSH3 0x2574 JUMP JUMPDEST DUP5 ADD SWAP1 POP SWAP4 SWAP3 POP POP POP JUMP JUMPDEST PUSH1 0x0 PUSH3 0x1F67 DUP4 DUP6 PUSH3 0x228B JUMP JUMPDEST SWAP4 POP PUSH3 0x1F76 DUP4 DUP6 DUP5 PUSH3 0x241E JUMP JUMPDEST DUP3 DUP5 ADD SWAP1 POP SWAP4 SWAP3 POP POP POP JUMP JUMPDEST PUSH1 0x0 PUSH3 0x1F8F DUP3 PUSH3 0x2240 JUMP JUMPDEST PUSH3 0x1F9B DUP2 DUP6 PUSH3 0x2269 JUMP JUMPDEST SWAP4 POP PUSH3 0x1FAD DUP2 DUP6 PUSH1 0x20 DUP7 ADD PUSH3 0x242D JUMP JUMPDEST PUSH3 0x1FB8 DUP2 PUSH3 0x2574 JUMP JUMPDEST DUP5 ADD SWAP2 POP POP SWAP3 SWAP2 POP POP JUMP JUMPDEST PUSH1 0x0 PUSH3 0x1FD0 DUP3 PUSH3 0x2240 JUMP JUMPDEST PUSH3 0x1FDC DUP2 DUP6 PUSH3 0x228B JUMP JUMPDEST SWAP4 POP PUSH3 0x1FEE DUP2 DUP6 PUSH1 0x20 DUP7 ADD PUSH3 0x242D JUMP JUMPDEST DUP1 DUP5 ADD SWAP2 POP POP SWAP3 SWAP2 POP POP JUMP JUMPDEST PUSH3 0x2005 DUP2 PUSH3 0x2407 JUMP JUMPDEST DUP3 MSTORE POP POP JUMP JUMPDEST PUSH3 0x2016 DUP2 PUSH3 0x2411 JUMP JUMPDEST DUP3 MSTORE POP POP JUMP JUMPDEST PUSH1 0x0 PUSH3 0x202B DUP3 DUP5 DUP7 PUSH3 0x1F59 JUMP JUMPDEST SWAP2 POP DUP2 SWAP1 POP SWAP4 SWAP3 POP POP POP JUMP JUMPDEST PUSH1 0x0 PUSH3 0x2045 DUP3 DUP5 PUSH3 0x1FC3 JUMP JUMPDEST SWAP2 POP DUP2 SWAP1 POP SWAP3 SWAP2 POP POP JUMP JUMPDEST PUSH1 0x0 PUSH1 0x20 DUP3 ADD SWAP1 POP PUSH3 0x2067 PUSH1 0x0 DUP4 ADD DUP5 PUSH3 0x1E83 JUMP JUMPDEST SWAP3 SWAP2 POP POP JUMP JUMPDEST PUSH1 0x0 PUSH1 0x60 DUP3 ADD SWAP1 POP PUSH3 0x2084 PUSH1 0x0 DUP4 ADD DUP7 PUSH3 0x1E83 JUMP JUMPDEST PUSH3 0x2093 PUSH1 0x20 DUP4 ADD DUP6 PUSH3 0x1E83 JUMP JUMPDEST PUSH3 0x20A2 PUSH1 0x40 DUP4 ADD DUP5 PUSH3 0x1FFA JUMP JUMPDEST SWAP5 SWAP4 POP POP POP POP JUMP JUMPDEST PUSH1 0x0 PUSH1 0x80 DUP3 ADD SWAP1 POP PUSH3 0x20C1 PUSH1 0x0 DUP4 ADD DUP9 PUSH3 0x1E83 JUMP JUMPDEST DUP2 DUP2 SUB PUSH1 0x20 DUP4 ADD MSTORE PUSH3 0x20D6 DUP2 DUP7 DUP9 PUSH3 0x1F26 JUMP JUMPDEST SWAP1 POP PUSH3 0x20E7 PUSH1 0x40 DUP4 ADD DUP6 PUSH3 0x1FFA JUMP JUMPDEST PUSH3 0x20F6 PUSH1 0x60 DUP4 ADD DUP5 PUSH3 0x1FFA JUMP JUMPDEST SWAP7 SWAP6 POP POP POP POP POP POP JUMP JUMPDEST PUSH1 0x0 PUSH1 0x20 DUP3 ADD SWAP1 POP DUP2 DUP2 SUB PUSH1 0x0 DUP4 ADD MSTORE PUSH3 0x211C DUP2 DUP5 PUSH3 0x1E94 JUMP JUMPDEST SWAP1 POP SWAP3 SWAP2 POP POP JUMP JUMPDEST PUSH1 0x0 PUSH1 0x20 DUP3 ADD SWAP1 POP PUSH3 0x213B PUSH1 0x0 DUP4 ADD DUP5 PUSH3 0x1F15 JUMP JUMPDEST SWAP3 SWAP2 POP POP JUMP JUMPDEST PUSH1 0x0 PUSH1 0x80 DUP3 ADD SWAP1 POP DUP2 DUP2 SUB PUSH1 0x0 DUP4 ADD MSTORE PUSH3 0x215E DUP2 DUP10 DUP12 PUSH3 0x1F26 JUMP JUMPDEST SWAP1 POP DUP2 DUP2 SUB PUSH1 0x20 DUP4 ADD MSTORE PUSH3 0x2175 DUP2 DUP8 DUP10 PUSH3 0x1F26 JUMP JUMPDEST SWAP1 POP DUP2 DUP2 SUB PUSH1 0x40 DUP4 ADD MSTORE PUSH3 0x218C DUP2 DUP6 DUP8 PUSH3 0x1F26 JUMP JUMPDEST SWAP1 POP PUSH3 0x219D PUSH1 0x60 DUP4 ADD DUP5 PUSH3 0x1FFA JUMP JUMPDEST SWAP9 SWAP8 POP POP POP POP POP POP POP POP JUMP JUMPDEST PUSH1 0x0 PUSH1 0x80 DUP3 ADD SWAP1 POP DUP2 DUP2 SUB PUSH1 0x0 DUP4 ADD MSTORE PUSH3 0x21C6 DUP2 DUP9 DUP11 PUSH3 0x1F26 JUMP JUMPDEST SWAP1 POP DUP2 DUP2 SUB PUSH1 0x20 DUP4 ADD MSTORE PUSH3 0x21DD DUP2 DUP7 DUP9 PUSH3 0x1F26 JUMP JUMPDEST SWAP1 POP PUSH3 0x21EE PUSH1 0x40 DUP4 ADD DUP6 PUSH3 0x1FFA JUMP JUMPDEST PUSH3 0x21FD PUSH1 0x60 DUP4 ADD DUP5 PUSH3 0x200B JUMP JUMPDEST SWAP8 SWAP7 POP POP POP POP POP POP POP JUMP JUMPDEST PUSH1 0x0 PUSH1 0x20 DUP3 ADD SWAP1 POP PUSH3 0x221F PUSH1 0x0 DUP4 ADD DUP5 PUSH3 0x1FFA JUMP JUMPDEST SWAP3 SWAP2 POP POP JUMP JUMPDEST PUSH1 0x0 DUP2 SWAP1 POP PUSH1 0x20 DUP3 ADD SWAP1 POP SWAP2 SWAP1 POP JUMP JUMPDEST PUSH1 0x0 DUP2 MLOAD SWAP1 POP SWAP2 SWAP1 POP JUMP JUMPDEST PUSH1 0x0 DUP2 MLOAD SWAP1 POP SWAP2 SWAP1 POP JUMP JUMPDEST PUSH1 0x0 PUSH1 0x20 DUP3 ADD SWAP1 POP SWAP2 SWAP1 POP JUMP JUMPDEST PUSH1 0x0 DUP3 DUP3 MSTORE PUSH1 0x20 DUP3 ADD SWAP1 POP SWAP3 SWAP2 POP POP JUMP JUMPDEST PUSH1 0x0 DUP3 DUP3 MSTORE PUSH1 0x20 DUP3 ADD SWAP1 POP SWAP3 SWAP2 POP POP JUMP JUMPDEST PUSH1 0x0 DUP3 DUP3 MSTORE PUSH1 0x20 DUP3 ADD SWAP1 POP SWAP3 SWAP2 POP POP JUMP JUMPDEST PUSH1 0x0 DUP2 SWAP1 POP SWAP3 SWAP2 POP POP JUMP JUMPDEST PUSH1 0x0 PUSH3 0x22A3 DUP3 PUSH3 0x2407 JUMP JUMPDEST SWAP2 POP PUSH3 0x22B0 DUP4 PUSH3 0x2407 JUMP JUMPDEST SWAP3 POP DUP3 PUSH32 0xFFFFFFFFFFFFFFFFFFFFFFFFFFFFFFFFFFFFFFFFFFFFFFFFFFFFFFFFFFFFFFFF SUB DUP3 GT ISZERO PUSH3 0x22E8 JUMPI PUSH3 0x22E7 PUSH3 0x24E7 JUMP JUMPDEST JUMPDEST DUP3 DUP3 ADD SWAP1 POP SWAP3 SWAP2 POP POP JUMP JUMPDEST PUSH1 0x0 PUSH3 0x2300 DUP3 PUSH3 0x2407 JUMP JUMPDEST SWAP2 POP PUSH3 0x230D DUP4 PUSH3 0x2407 JUMP JUMPDEST SWAP3 POP DUP3 PUSH3 0x2320 JUMPI PUSH3 0x231F PUSH3 0x2516 JUMP JUMPDEST JUMPDEST DUP3 DUP3 DIV SWAP1 POP SWAP3 SWAP2 POP POP JUMP JUMPDEST PUSH1 0x0 PUSH3 0x2338 DUP3 PUSH3 0x2407 JUMP JUMPDEST SWAP2 POP PUSH3 0x2345 DUP4 PUSH3 0x2407 JUMP JUMPDEST SWAP3 POP DUP2 PUSH32 0xFFFFFFFFFFFFFFFFFFFFFFFFFFFFFFFFFFFFFFFFFFFFFFFFFFFFFFFFFFFFFFFF DIV DUP4 GT DUP3 ISZERO ISZERO AND ISZERO PUSH3 0x2381 JUMPI PUSH3 0x2380 PUSH3 0x24E7 JUMP JUMPDEST JUMPDEST DUP3 DUP3 MUL SWAP1 POP SWAP3 SWAP2 POP POP JUMP JUMPDEST PUSH1 0x0 PUSH3 0x2399 DUP3 PUSH3 0x2407 JUMP JUMPDEST SWAP2 POP PUSH3 0x23A6 DUP4 PUSH3 0x2407 JUMP JUMPDEST SWAP3 POP DUP3 DUP3 LT ISZERO PUSH3 0x23BC JUMPI PUSH3 0x23BB PUSH3 0x24E7 JUMP JUMPDEST JUMPDEST DUP3 DUP3 SUB SWAP1 POP SWAP3 SWAP2 POP POP JUMP JUMPDEST PUSH1 0x0 PUSH3 0x23D4 DUP3 PUSH3 0x23E7 JUMP JUMPDEST SWAP1 POP SWAP2 SWAP1 POP JUMP JUMPDEST PUSH1 0x0 DUP2 ISZERO ISZERO SWAP1 POP SWAP2 SWAP1 POP JUMP JUMPDEST PUSH1 0x0 PUSH20 0xFFFFFFFFFFFFFFFFFFFFFFFFFFFFFFFFFFFFFFFF DUP3 AND SWAP1 POP SWAP2 SWAP1 POP JUMP JUMPDEST PUSH1 0x0 DUP2 SWAP1 POP SWAP2 SWAP1 POP JUMP JUMPDEST PUSH1 0x0 PUSH1 0xFF DUP3 AND SWAP1 POP SWAP2 SWAP1 POP JUMP JUMPDEST DUP3 DUP2 DUP4 CALLDATACOPY PUSH1 0x0 DUP4 DUP4 ADD MSTORE POP POP POP JUMP JUMPDEST PUSH1 0x0 JUMPDEST DUP4 DUP2 LT ISZERO PUSH3 0x244D JUMPI DUP1 DUP3 ADD MLOAD DUP2 DUP5 ADD MSTORE PUSH1 0x20 DUP2 ADD SWAP1 POP PUSH3 0x2430 JUMP JUMPDEST DUP4 DUP2 GT ISZERO PUSH3 0x245D JUMPI PUSH1 0x0 DUP5 DUP5 ADD MSTORE JUMPDEST POP POP POP POP JUMP JUMPDEST PUSH1 0x0 PUSH1 0x2 DUP3 DIV SWAP1 POP PUSH1 0x1 DUP3 AND DUP1 PUSH3 0x247C JUMPI PUSH1 0x7F DUP3 AND SWAP2 POP JUMPDEST PUSH1 0x20 DUP3 LT DUP2 EQ ISZERO PUSH3 0x2493 JUMPI PUSH3 0x2492 PUSH3 0x2545 JUMP JUMPDEST JUMPDEST POP SWAP2 SWAP1 POP JUMP JUMPDEST PUSH1 0x0 PUSH3 0x24A6 DUP3 PUSH3 0x2407 JUMP JUMPDEST SWAP2 POP PUSH32 0xFFFFFFFFFFFFFFFFFFFFFFFFFFFFFFFFFFFFFFFFFFFFFFFFFFFFFFFFFFFFFFFF DUP3 EQ ISZERO PUSH3 0x24DC JUMPI PUSH3 0x24DB PUSH3 0x24E7 JUMP JUMPDEST JUMPDEST PUSH1 0x1 DUP3 ADD SWAP1 POP SWAP2 SWAP1 POP JUMP JUMPDEST PUSH32 0x4E487B7100000000000000000000000000000000000000000000000000000000 PUSH1 0x0 MSTORE PUSH1 0x11 PUSH1 0x4 MSTORE PUSH1 0x24 PUSH1 0x0 REVERT JUMPDEST PUSH32 0x4E487B7100000000000000000000000000000000000000000000000000000000 PUSH1 0x0 MSTORE PUSH1 0x12 PUSH1 0x4 MSTORE PUSH1 0x24 PUSH1 0x0 REVERT JUMPDEST PUSH32 0x4E487B7100000000000000000000000000000000000000000000000000000000 PUSH1 0x0 MSTORE PUSH1 0x22 PUSH1 0x4 MSTORE PUSH1 0x24 PUSH1 0x0 REVERT JUMPDEST PUSH1 0x0 PUSH1 0x1F NOT PUSH1 0x1F DUP4 ADD AND SWAP1 POP SWAP2 SWAP1 POP JUMP JUMPDEST PUSH3 0x2590 DUP2 PUSH3 0x23C7 JUMP JUMPDEST DUP2 EQ PUSH3 0x259C JUMPI PUSH1 0x0 DUP1 REVERT JUMPDEST POP JUMP JUMPDEST PUSH3 0x25AA DUP2 PUSH3 0x23DB JUMP JUMPDEST DUP2 EQ PUSH3 0x25B6 JUMPI PUSH1 0x0 DUP1 REVERT JUMPDEST POP JUMP JUMPDEST PUSH3 0x25C4 DUP2 PUSH3 0x2407 JUMP JUMPDEST DUP2 EQ PUSH3 0x25D0 JUMPI PUSH1 0x0 DUP1 REVERT JUMPDEST POP JUMP INVALID PUSH1 0x80 PUSH1 0x40 MSTORE PUSH1 0x40 MLOAD PUSH3 0xE03 CODESIZE SUB DUP1 PUSH3 0xE03 DUP4 CODECOPY DUP2 DUP2 ADD PUSH1 0x40 MSTORE DUP2 ADD SWAP1 PUSH3 0x29 SWAP2 SWAP1 PUSH3 0x27C JUMP JUMPDEST CALLER PUSH1 0x0 DUP1 PUSH2 0x100 EXP DUP2 SLOAD DUP2 PUSH20 0xFFFFFFFFFFFFFFFFFFFFFFFFFFFFFFFFFFFFFFFF MUL NOT AND SWAP1 DUP4 PUSH20 0xFFFFFFFFFFFFFFFFFFFFFFFFFFFFFFFFFFFFFFFF AND MUL OR SWAP1 SSTORE POP DUP4 PUSH1 0x1 SWAP1 DUP1 MLOAD SWAP1 PUSH1 0x20 ADD SWAP1 PUSH3 0x81 SWAP3 SWAP2 SWAP1 PUSH3 0x12C JUMP JUMPDEST POP DUP3 PUSH1 0x2 SWAP1 DUP1 MLOAD SWAP1 PUSH1 0x20 ADD SWAP1 PUSH3 0x9A SWAP3 SWAP2 SWAP1 PUSH3 0x12C JUMP JUMPDEST POP DUP2 PUSH1 0x3 DUP2 SWAP1 SSTORE POP DUP1 PUSH1 0x4 PUSH1 0x0 PUSH2 0x100 EXP DUP2 SLOAD DUP2 PUSH1 0xFF MUL NOT AND SWAP1 DUP4 PUSH1 0xFF AND MUL OR SWAP1 SSTORE POP DUP2 PUSH1 0x5 PUSH1 0x0 DUP1 PUSH1 0x0 SWAP1 SLOAD SWAP1 PUSH2 0x100 EXP SWAP1 DIV PUSH20 0xFFFFFFFFFFFFFFFFFFFFFFFFFFFFFFFFFFFFFFFF AND PUSH20 0xFFFFFFFFFFFFFFFFFFFFFFFFFFFFFFFFFFFFFFFF AND PUSH20 0xFFFFFFFFFFFFFFFFFFFFFFFFFFFFFFFFFFFFFFFF AND DUP2 MSTORE PUSH1 0x20 ADD SWAP1 DUP2 MSTORE PUSH1 0x20 ADD PUSH1 0x0 KECCAK256 DUP2 SWAP1 SSTORE POP POP POP POP POP PUSH3 0x4D5 JUMP JUMPDEST DUP3 DUP1 SLOAD PUSH3 0x13A SWAP1 PUSH3 0x3C6 JUMP JUMPDEST SWAP1 PUSH1 0x0 MSTORE PUSH1 0x20 PUSH1 0x0 KECCAK256 SWAP1 PUSH1 0x1F ADD PUSH1 0x20 SWAP1 DIV DUP2 ADD SWAP3 DUP3 PUSH3 0x15E JUMPI PUSH1 0x0 DUP6 SSTORE PUSH3 0x1AA JUMP JUMPDEST DUP3 PUSH1 0x1F LT PUSH3 0x179 JUMPI DUP1 MLOAD PUSH1 0xFF NOT AND DUP4 DUP1 ADD OR DUP6 SSTORE PUSH3 0x1AA JUMP JUMPDEST DUP3 DUP1 ADD PUSH1 0x1 ADD DUP6 SSTORE DUP3 ISZERO PUSH3 0x1AA JUMPI SWAP2 DUP3 ADD JUMPDEST DUP3 DUP2 GT ISZERO PUSH3 0x1A9 JUMPI DUP3 MLOAD DUP3 SSTORE SWAP2 PUSH1 0x20 ADD SWAP2 SWAP1 PUSH1 0x1 ADD SWAP1 PUSH3 0x18C JUMP JUMPDEST JUMPDEST POP SWAP1 POP PUSH3 0x1B9 SWAP2 SWAP1 PUSH3 0x1BD JUMP JUMPDEST POP SWAP1 JUMP JUMPDEST JUMPDEST DUP1 DUP3 GT ISZERO PUSH3 0x1D8 JUMPI PUSH1 0x0 DUP2 PUSH1 0x0 SWAP1 SSTORE POP PUSH1 0x1 ADD PUSH3 0x1BE JUMP JUMPDEST POP SWAP1 JUMP JUMPDEST PUSH1 0x0 PUSH3 0x1F3 PUSH3 0x1ED DUP5 PUSH3 0x343 JUMP JUMPDEST PUSH3 0x31A JUMP JUMPDEST SWAP1 POP DUP3 DUP2 MSTORE PUSH1 0x20 DUP2 ADD DUP5 DUP5 DUP5 ADD GT ISZERO PUSH3 0x20C JUMPI PUSH1 0x0 DUP1 REVERT JUMPDEST PUSH3 0x219 DUP5 DUP3 DUP6 PUSH3 0x390 JUMP JUMPDEST POP SWAP4 SWAP3 POP POP POP JUMP JUMPDEST PUSH1 0x0 DUP3 PUSH1 0x1F DUP4 ADD SLT PUSH3 0x233 JUMPI PUSH1 0x0 DUP1 REVERT JUMPDEST DUP2 MLOAD PUSH3 0x245 DUP5 DUP3 PUSH1 0x20 DUP7 ADD PUSH3 0x1DC JUMP JUMPDEST SWAP2 POP POP SWAP3 SWAP2 POP POP JUMP JUMPDEST PUSH1 0x0 DUP2 MLOAD SWAP1 POP PUSH3 0x25F DUP2 PUSH3 0x4A1 JUMP JUMPDEST SWAP3 SWAP2 POP POP JUMP JUMPDEST PUSH1 0x0 DUP2 MLOAD SWAP1 POP PUSH3 0x276 DUP2 PUSH3 0x4BB JUMP JUMPDEST SWAP3 SWAP2 POP POP JUMP JUMPDEST PUSH1 0x0 DUP1 PUSH1 0x0 DUP1 PUSH1 0x80 DUP6 DUP8 SUB SLT ISZERO PUSH3 0x293 JUMPI PUSH1 0x0 DUP1 REVERT JUMPDEST PUSH1 0x0 DUP6 ADD MLOAD PUSH8 0xFFFFFFFFFFFFFFFF DUP2 GT ISZERO PUSH3 0x2AE JUMPI PUSH1 0x0 DUP1 REVERT JUMPDEST PUSH3 0x2BC DUP8 DUP3 DUP9 ADD PUSH3 0x221 JUMP JUMPDEST SWAP5 POP POP PUSH1 0x20 DUP6 ADD MLOAD PUSH8 0xFFFFFFFFFFFFFFFF DUP2 GT ISZERO PUSH3 0x2DA JUMPI PUSH1 0x0 DUP1 REVERT JUMPDEST PUSH3 0x2E8 DUP8 DUP3 DUP9 ADD PUSH3 0x221 JUMP JUMPDEST SWAP4 POP POP PUSH1 0x40 PUSH3 0x2FB DUP8 DUP3 DUP9 ADD PUSH3 0x24E JUMP JUMPDEST SWAP3 POP POP PUSH1 0x60 PUSH3 0x30E DUP8 DUP3 DUP9 ADD PUSH3 0x265 JUMP JUMPDEST SWAP2 POP POP SWAP3 SWAP6 SWAP2 SWAP5 POP SWAP3 POP JUMP JUMPDEST PUSH1 0x0 PUSH3 0x326 PUSH3 0x339 JUMP JUMPDEST SWAP1 POP PUSH3 0x334 DUP3 DUP3 PUSH3 0x3FC JUMP JUMPDEST SWAP2 SWAP1 POP JUMP JUMPDEST PUSH1 0x0 PUSH1 0x40 MLOAD SWAP1 POP SWAP1 JUMP JUMPDEST PUSH1 0x0 PUSH8 0xFFFFFFFFFFFFFFFF DUP3 GT ISZERO PUSH3 0x361 JUMPI PUSH3 0x360 PUSH3 0x461 JUMP JUMPDEST JUMPDEST PUSH3 0x36C DUP3 PUSH3 0x490 JUMP JUMPDEST SWAP1 POP PUSH1 0x20 DUP2 ADD SWAP1 POP SWAP2 SWAP1 POP JUMP JUMPDEST PUSH1 0x0 DUP2 SWAP1 POP SWAP2 SWAP1 POP JUMP JUMPDEST PUSH1 0x0 PUSH1 0xFF DUP3 AND SWAP1 POP SWAP2 SWAP1 POP JUMP JUMPDEST PUSH1 0x0 JUMPDEST DUP4 DUP2 LT ISZERO PUSH3 0x3B0 JUMPI DUP1 DUP3 ADD MLOAD DUP2 DUP5 ADD MSTORE PUSH1 0x20 DUP2 ADD SWAP1 POP PUSH3 0x393 JUMP JUMPDEST DUP4 DUP2 GT ISZERO PUSH3 0x3C0 JUMPI PUSH1 0x0 DUP5 DUP5 ADD MSTORE JUMPDEST POP POP POP POP JUMP JUMPDEST PUSH1 0x0 PUSH1 0x2 DUP3 DIV SWAP1 POP PUSH1 0x1 DUP3 AND DUP1 PUSH3 0x3DF JUMPI PUSH1 0x7F DUP3 AND SWAP2 POP JUMPDEST PUSH1 0x20 DUP3 LT DUP2 EQ ISZERO PUSH3 0x3F6 JUMPI PUSH3 0x3F5 PUSH3 0x432 JUMP JUMPDEST JUMPDEST POP SWAP2 SWAP1 POP JUMP JUMPDEST PUSH3 0x407 DUP3 PUSH3 0x490 JUMP JUMPDEST DUP2 ADD DUP2 DUP2 LT PUSH8 0xFFFFFFFFFFFFFFFF DUP3 GT OR ISZERO PUSH3 0x429 JUMPI PUSH3 0x428 PUSH3 0x461 JUMP JUMPDEST JUMPDEST DUP1 PUSH1 0x40 MSTORE POP POP POP JUMP JUMPDEST PUSH32 0x4E487B7100000000000000000000000000000000000000000000000000000000 PUSH1 0x0 MSTORE PUSH1 0x22 PUSH1 0x4 MSTORE PUSH1 0x24 PUSH1 0x0 REVERT JUMPDEST PUSH32 0x4E487B7100000000000000000000000000000000000000000000000000000000 PUSH1 0x0 MSTORE PUSH1 0x41 PUSH1 0x4 MSTORE PUSH1 0x24 PUSH1 0x0 REVERT JUMPDEST PUSH1 0x0 PUSH1 0x1F NOT PUSH1 0x1F DUP4 ADD AND SWAP1 POP SWAP2 SWAP1 POP JUMP JUMPDEST PUSH3 0x4AC DUP2 PUSH3 0x379 JUMP JUMPDEST DUP2 EQ PUSH3 0x4B8 JUMPI PUSH1 0x0 DUP1 REVERT JUMPDEST POP JUMP JUMPDEST PUSH3 0x4C6 DUP2 PUSH3 0x383 JUMP JUMPDEST DUP2 EQ PUSH3 0x4D2 JUMPI PUSH1 0x0 DUP1 REVERT JUMPDEST POP JUMP JUMPDEST PUSH2 0x91E DUP1 PUSH3 0x4E5 PUSH1 0x0 CODECOPY PUSH1 0x0 RETURN INVALID PUSH1 0x80 PUSH1 0x40 MSTORE CALLVALUE DUP1 ISZERO PUSH2 0x10 JUMPI PUSH1 0x0 DUP1 REVERT JUMPDEST POP PUSH1 0x4 CALLDATASIZE LT PUSH2 0x7D JUMPI PUSH1 0x0 CALLDATALOAD PUSH1 0xE0 SHR DUP1 PUSH4 0x313CE567 GT PUSH2 0x5B JUMPI DUP1 PUSH4 0x313CE567 EQ PUSH2 0xEE JUMPI DUP1 PUSH4 0x70A08231 EQ PUSH2 0x10C JUMPI DUP1 PUSH4 0x95D89B41 EQ PUSH2 0x13C JUMPI DUP1 PUSH4 0xA9059CBB EQ PUSH2 0x15A JUMPI PUSH2 0x7D JUMP JUMPDEST DUP1 PUSH4 0x6FDDE03 EQ PUSH2 0x82 JUMPI DUP1 PUSH4 0x18160DDD EQ PUSH2 0xA0 JUMPI DUP1 PUSH4 0x23B872DD EQ PUSH2 0xBE JUMPI JUMPDEST PUSH1 0x0 DUP1 REVERT JUMPDEST PUSH2 0x8A PUSH2 0x18A JUMP JUMPDEST PUSH1 0x40 MLOAD PUSH2 0x97 SWAP2 SWAP1 PUSH2 0x693 JUMP JUMPDEST PUSH1 0x40 MLOAD DUP1 SWAP2 SUB SWAP1 RETURN JUMPDEST PUSH2 0xA8 PUSH2 0x21C JUMP JUMPDEST PUSH1 0x40 MLOAD PUSH2 0xB5 SWAP2 SWAP1 PUSH2 0x6B5 JUMP JUMPDEST PUSH1 0x40 MLOAD DUP1 SWAP2 SUB SWAP1 RETURN JUMPDEST PUSH2 0xD8 PUSH1 0x4 DUP1 CALLDATASIZE SUB DUP2 ADD SWAP1 PUSH2 0xD3 SWAP2 SWAP1 PUSH2 0x587 JUMP JUMPDEST PUSH2 0x226 JUMP JUMPDEST PUSH1 0x40 MLOAD PUSH2 0xE5 SWAP2 SWAP1 PUSH2 0x678 JUMP JUMPDEST PUSH1 0x40 MLOAD DUP1 SWAP2 SUB SWAP1 RETURN JUMPDEST PUSH2 0xF6 PUSH2 0x401 JUMP JUMPDEST PUSH1 0x40 MLOAD PUSH2 0x103 SWAP2 SWAP1 PUSH2 0x6D0 JUMP JUMPDEST PUSH1 0x40 MLOAD DUP1 SWAP2 SUB SWAP1 RETURN JUMPDEST PUSH2 0x126 PUSH1 0x4 DUP1 CALLDATASIZE SUB DUP2 ADD SWAP1 PUSH2 0x121 SWAP2 SWAP1 PUSH2 0x55E JUMP JUMPDEST PUSH2 0x418 JUMP JUMPDEST PUSH1 0x40 MLOAD PUSH2 0x133 SWAP2 SWAP1 PUSH2 0x6B5 JUMP JUMPDEST PUSH1 0x40 MLOAD DUP1 SWAP2 SUB SWAP1 RETURN JUMPDEST PUSH2 0x144 PUSH2 0x461 JUMP JUMPDEST PUSH1 0x40 MLOAD PUSH2 0x151 SWAP2 SWAP1 PUSH2 0x693 JUMP JUMPDEST PUSH1 0x40 MLOAD DUP1 SWAP2 SUB SWAP1 RETURN JUMPDEST PUSH2 0x174 PUSH1 0x4 DUP1 CALLDATASIZE SUB DUP2 ADD SWAP1 PUSH2 0x16F SWAP2 SWAP1 PUSH2 0x5D6 JUMP JUMPDEST PUSH2 0x4F3 JUMP JUMPDEST PUSH1 0x40 MLOAD PUSH2 0x181 SWAP2 SWAP1 PUSH2 0x678 JUMP JUMPDEST PUSH1 0x40 MLOAD DUP1 SWAP2 SUB SWAP1 RETURN JUMPDEST PUSH1 0x60 PUSH1 0x1 DUP1 SLOAD PUSH2 0x199 SWAP1 PUSH2 0x819 JUMP JUMPDEST DUP1 PUSH1 0x1F ADD PUSH1 0x20 DUP1 SWAP2 DIV MUL PUSH1 0x20 ADD PUSH1 0x40 MLOAD SWAP1 DUP2 ADD PUSH1 0x40 MSTORE DUP1 SWAP3 SWAP2 SWAP1 DUP2 DUP2 MSTORE PUSH1 0x20 ADD DUP3 DUP1 SLOAD PUSH2 0x1C5 SWAP1 PUSH2 0x819 JUMP JUMPDEST DUP1 ISZERO PUSH2 0x212 JUMPI DUP1 PUSH1 0x1F LT PUSH2 0x1E7 JUMPI PUSH2 0x100 DUP1 DUP4 SLOAD DIV MUL DUP4 MSTORE SWAP2 PUSH1 0x20 ADD SWAP2 PUSH2 0x212 JUMP JUMPDEST DUP3 ADD SWAP2 SWAP1 PUSH1 0x0 MSTORE PUSH1 0x20 PUSH1 0x0 KECCAK256 SWAP1 JUMPDEST DUP2 SLOAD DUP2 MSTORE SWAP1 PUSH1 0x1 ADD SWAP1 PUSH1 0x20 ADD DUP1 DUP4 GT PUSH2 0x1F5 JUMPI DUP3 SWAP1 SUB PUSH1 0x1F AND DUP3 ADD SWAP2 JUMPDEST POP POP POP POP POP SWAP1 POP SWAP1 JUMP JUMPDEST PUSH1 0x0 PUSH1 0x3 SLOAD SWAP1 POP SWAP1 JUMP JUMPDEST PUSH1 0x0 DUP1 PUSH1 0x5 PUSH1 0x0 DUP7 PUSH20 0xFFFFFFFFFFFFFFFFFFFFFFFFFFFFFFFFFFFFFFFF AND PUSH20 0xFFFFFFFFFFFFFFFFFFFFFFFFFFFFFFFFFFFFFFFF AND DUP2 MSTORE PUSH1 0x20 ADD SWAP1 DUP2 MSTORE PUSH1 0x20 ADD PUSH1 0x0 KECCAK256 SLOAD SWAP1 POP DUP3 DUP2 LT ISZERO PUSH2 0x278 JUMPI PUSH1 0x0 DUP1 REVERT JUMPDEST PUSH2 0x2C1 PUSH1 0x5 PUSH1 0x0 DUP8 PUSH20 0xFFFFFFFFFFFFFFFFFFFFFFFFFFFFFFFFFFFFFFFF AND PUSH20 0xFFFFFFFFFFFFFFFFFFFFFFFFFFFFFFFFFFFFFFFF AND DUP2 MSTORE PUSH1 0x20 ADD SWAP1 DUP2 MSTORE PUSH1 0x20 ADD PUSH1 0x0 KECCAK256 SLOAD DUP5 PUSH2 0x508 JUMP JUMPDEST PUSH1 0x5 PUSH1 0x0 DUP8 PUSH20 0xFFFFFFFFFFFFFFFFFFFFFFFFFFFFFFFFFFFFFFFF AND PUSH20 0xFFFFFFFFFFFFFFFFFFFFFFFFFFFFFFFFFFFFFFFF AND DUP2 MSTORE PUSH1 0x20 ADD SWAP1 DUP2 MSTORE PUSH1 0x20 ADD PUSH1 0x0 KECCAK256 DUP2 SWAP1 SSTORE POP PUSH2 0x34D PUSH1 0x5 PUSH1 0x0 DUP7 PUSH20 0xFFFFFFFFFFFFFFFFFFFFFFFFFFFFFFFFFFFFFFFF AND PUSH20 0xFFFFFFFFFFFFFFFFFFFFFFFFFFFFFFFFFFFFFFFF AND DUP2 MSTORE PUSH1 0x20 ADD SWAP1 DUP2 MSTORE PUSH1 0x20 ADD PUSH1 0x0 KECCAK256 SLOAD DUP5 PUSH2 0x51E JUMP JUMPDEST PUSH1 0x5 PUSH1 0x0 DUP7 PUSH20 0xFFFFFFFFFFFFFFFFFFFFFFFFFFFFFFFFFFFFFFFF AND PUSH20 0xFFFFFFFFFFFFFFFFFFFFFFFFFFFFFFFFFFFFFFFF AND DUP2 MSTORE PUSH1 0x20 ADD SWAP1 DUP2 MSTORE PUSH1 0x20 ADD PUSH1 0x0 KECCAK256 DUP2 SWAP1 SSTORE POP DUP4 PUSH20 0xFFFFFFFFFFFFFFFFFFFFFFFFFFFFFFFFFFFFFFFF AND DUP6 PUSH20 0xFFFFFFFFFFFFFFFFFFFFFFFFFFFFFFFFFFFFFFFF AND PUSH32 0xDDF252AD1BE2C89B69C2B068FC378DAA952BA7F163C4A11628F55A4DF523B3EF DUP6 PUSH1 0x40 MLOAD PUSH2 0x3ED SWAP2 SWAP1 PUSH2 0x6B5 JUMP JUMPDEST PUSH1 0x40 MLOAD DUP1 SWAP2 SUB SWAP1 LOG3 PUSH1 0x1 SWAP2 POP POP SWAP4 SWAP3 POP POP POP JUMP JUMPDEST PUSH1 0x0 PUSH1 0x4 PUSH1 0x0 SWAP1 SLOAD SWAP1 PUSH2 0x100 EXP SWAP1 DIV PUSH1 0xFF AND SWAP1 POP SWAP1 JUMP JUMPDEST PUSH1 0x0 PUSH1 0x5 PUSH1 0x0 DUP4 PUSH20 0xFFFFFFFFFFFFFFFFFFFFFFFFFFFFFFFFFFFFFFFF AND PUSH20 0xFFFFFFFFFFFFFFFFFFFFFFFFFFFFFFFFFFFFFFFF AND DUP2 MSTORE PUSH1 0x20 ADD SWAP1 DUP2 MSTORE PUSH1 0x20 ADD PUSH1 0x0 KECCAK256 SLOAD SWAP1 POP SWAP2 SWAP1 POP JUMP JUMPDEST PUSH1 0x60 PUSH1 0x2 DUP1 SLOAD PUSH2 0x470 SWAP1 PUSH2 0x819 JUMP JUMPDEST DUP1 PUSH1 0x1F ADD PUSH1 0x20 DUP1 SWAP2 DIV MUL PUSH1 0x20 ADD PUSH1 0x40 MLOAD SWAP1 DUP2 ADD PUSH1 0x40 MSTORE DUP1 SWAP3 SWAP2 SWAP1 DUP2 DUP2 MSTORE PUSH1 0x20 ADD DUP3 DUP1 SLOAD PUSH2 0x49C SWAP1 PUSH2 0x819 JUMP JUMPDEST DUP1 ISZERO PUSH2 0x4E9 JUMPI DUP1 PUSH1 0x1F LT PUSH2 0x4BE JUMPI PUSH2 0x100 DUP1 DUP4 SLOAD DIV MUL DUP4 MSTORE SWAP2 PUSH1 0x20 ADD SWAP2 PUSH2 0x4E9 JUMP JUMPDEST DUP3 ADD SWAP2 SWAP1 PUSH1 0x0 MSTORE PUSH1 0x20 PUSH1 0x0 KECCAK256 SWAP1 JUMPDEST DUP2 SLOAD DUP2 MSTORE SWAP1 PUSH1 0x1 ADD SWAP1 PUSH1 0x20 ADD DUP1 DUP4 GT PUSH2 0x4CC JUMPI DUP3 SWAP1 SUB PUSH1 0x1F AND DUP3 ADD SWAP2 JUMPDEST POP POP POP POP POP SWAP1 POP SWAP1 JUMP JUMPDEST PUSH1 0x0 PUSH2 0x500 CALLER DUP5 DUP5 PUSH2 0x226 JUMP JUMPDEST SWAP1 POP SWAP3 SWAP2 POP POP JUMP JUMPDEST PUSH1 0x0 DUP2 DUP4 PUSH2 0x516 SWAP2 SWAP1 PUSH2 0x75D JUMP JUMPDEST SWAP1 POP SWAP3 SWAP2 POP POP JUMP JUMPDEST PUSH1 0x0 DUP2 DUP4 PUSH2 0x52C SWAP2 SWAP1 PUSH2 0x707 JUMP JUMPDEST SWAP1 POP SWAP3 SWAP2 POP POP JUMP JUMPDEST PUSH1 0x0 DUP2 CALLDATALOAD SWAP1 POP PUSH2 0x543 DUP2 PUSH2 0x8BA JUMP JUMPDEST SWAP3 SWAP2 POP POP JUMP JUMPDEST PUSH1 0x0 DUP2 CALLDATALOAD SWAP1 POP PUSH2 0x558 DUP2 PUSH2 0x8D1 JUMP JUMPDEST SWAP3 SWAP2 POP POP JUMP JUMPDEST PUSH1 0x0 PUSH1 0x20 DUP3 DUP5 SUB SLT ISZERO PUSH2 0x570 JUMPI PUSH1 0x0 DUP1 REVERT JUMPDEST PUSH1 0x0 PUSH2 0x57E DUP5 DUP3 DUP6 ADD PUSH2 0x534 JUMP JUMPDEST SWAP2 POP POP SWAP3 SWAP2 POP POP JUMP JUMPDEST PUSH1 0x0 DUP1 PUSH1 0x0 PUSH1 0x60 DUP5 DUP7 SUB SLT ISZERO PUSH2 0x59C JUMPI PUSH1 0x0 DUP1 REVERT JUMPDEST PUSH1 0x0 PUSH2 0x5AA DUP7 DUP3 DUP8 ADD PUSH2 0x534 JUMP JUMPDEST SWAP4 POP POP PUSH1 0x20 PUSH2 0x5BB DUP7 DUP3 DUP8 ADD PUSH2 0x534 JUMP JUMPDEST SWAP3 POP POP PUSH1 0x40 PUSH2 0x5CC DUP7 DUP3 DUP8 ADD PUSH2 0x549 JUMP JUMPDEST SWAP2 POP POP SWAP3 POP SWAP3 POP SWAP3 JUMP JUMPDEST PUSH1 0x0 DUP1 PUSH1 0x40 DUP4 DUP6 SUB SLT ISZERO PUSH2 0x5E9 JUMPI PUSH1 0x0 DUP1 REVERT JUMPDEST PUSH1 0x0 PUSH2 0x5F7 DUP6 DUP3 DUP7 ADD PUSH2 0x534 JUMP JUMPDEST SWAP3 POP POP PUSH1 0x20 PUSH2 0x608 DUP6 DUP3 DUP7 ADD PUSH2 0x549 JUMP JUMPDEST SWAP2 POP POP SWAP3 POP SWAP3 SWAP1 POP JUMP JUMPDEST PUSH2 0x61B DUP2 PUSH2 0x7A3 JUMP JUMPDEST DUP3 MSTORE POP POP JUMP JUMPDEST PUSH1 0x0 PUSH2 0x62C DUP3 PUSH2 0x6EB JUMP JUMPDEST PUSH2 0x636 DUP2 DUP6 PUSH2 0x6F6 JUMP JUMPDEST SWAP4 POP PUSH2 0x646 DUP2 DUP6 PUSH1 0x20 DUP7 ADD PUSH2 0x7E6 JUMP JUMPDEST PUSH2 0x64F DUP2 PUSH2 0x8A9 JUMP JUMPDEST DUP5 ADD SWAP2 POP POP SWAP3 SWAP2 POP POP JUMP JUMPDEST PUSH2 0x663 DUP2 PUSH2 0x7CF JUMP JUMPDEST DUP3 MSTORE POP POP JUMP JUMPDEST PUSH2 0x672 DUP2 PUSH2 0x7D9 JUMP JUMPDEST DUP3 MSTORE POP POP JUMP JUMPDEST PUSH1 0x0 PUSH1 0x20 DUP3 ADD SWAP1 POP PUSH2 0x68D PUSH1 0x0 DUP4 ADD DUP5 PUSH2 0x612 JUMP JUMPDEST SWAP3 SWAP2 POP POP JUMP JUMPDEST PUSH1 0x0 PUSH1 0x20 DUP3 ADD SWAP1 POP DUP2 DUP2 SUB PUSH1 0x0 DUP4 ADD MSTORE PUSH2 0x6AD DUP2 DUP5 PUSH2 0x621 JUMP JUMPDEST SWAP1 POP SWAP3 SWAP2 POP POP JUMP JUMPDEST PUSH1 0x0 PUSH1 0x20 DUP3 ADD SWAP1 POP PUSH2 0x6CA PUSH1 0x0 DUP4 ADD DUP5 PUSH2 0x65A JUMP JUMPDEST SWAP3 SWAP2 POP POP JUMP JUMPDEST PUSH1 0x0 PUSH1 0x20 DUP3 ADD SWAP1 POP PUSH2 0x6E5 PUSH1 0x0 DUP4 ADD DUP5 PUSH2 0x669 JUMP JUMPDEST SWAP3 SWAP2 POP POP JUMP JUMPDEST PUSH1 0x0 DUP2 MLOAD SWAP1 POP SWAP2 SWAP1 POP JUMP JUMPDEST PUSH1 0x0 DUP3 DUP3 MSTORE PUSH1 0x20 DUP3 ADD SWAP1 POP SWAP3 SWAP2 POP POP JUMP JUMPDEST PUSH1 0x0 PUSH2 0x712 DUP3 PUSH2 0x7CF JUMP JUMPDEST SWAP2 POP PUSH2 0x71D DUP4 PUSH2 0x7CF JUMP JUMPDEST SWAP3 POP DUP3 PUSH32 0xFFFFFFFFFFFFFFFFFFFFFFFFFFFFFFFFFFFFFFFFFFFFFFFFFFFFFFFFFFFFFFFF SUB DUP3 GT ISZERO PUSH2 0x752 JUMPI PUSH2 0x751 PUSH2 0x84B JUMP JUMPDEST JUMPDEST DUP3 DUP3 ADD SWAP1 POP SWAP3 SWAP2 POP POP JUMP JUMPDEST PUSH1 0x0 PUSH2 0x768 DUP3 PUSH2 0x7CF JUMP JUMPDEST SWAP2 POP PUSH2 0x773 DUP4 PUSH2 0x7CF JUMP JUMPDEST SWAP3 POP DUP3 DUP3 LT ISZERO PUSH2 0x786 JUMPI PUSH2 0x785 PUSH2 0x84B JUMP JUMPDEST JUMPDEST DUP3 DUP3 SUB SWAP1 POP SWAP3 SWAP2 POP POP JUMP JUMPDEST PUSH1 0x0 PUSH2 0x79C DUP3 PUSH2 0x7AF JUMP JUMPDEST SWAP1 POP SWAP2 SWAP1 POP JUMP JUMPDEST PUSH1 0x0 DUP2 ISZERO ISZERO SWAP1 POP SWAP2 SWAP1 POP JUMP JUMPDEST PUSH1 0x0 PUSH20 0xFFFFFFFFFFFFFFFFFFFFFFFFFFFFFFFFFFFFFFFF DUP3 AND SWAP1 POP SWAP2 SWAP1 POP JUMP JUMPDEST PUSH1 0x0 DUP2 SWAP1 POP SWAP2 SWAP1 POP JUMP JUMPDEST PUSH1 0x0 PUSH1 0xFF DUP3 AND SWAP1 POP SWAP2 SWAP1 POP JUMP JUMPDEST PUSH1 0x0 JUMPDEST DUP4 DUP2 LT ISZERO PUSH2 0x804 JUMPI DUP1 DUP3 ADD MLOAD DUP2 DUP5 ADD MSTORE PUSH1 0x20 DUP2 ADD SWAP1 POP PUSH2 0x7E9 JUMP JUMPDEST DUP4 DUP2 GT ISZERO PUSH2 0x813 JUMPI PUSH1 0x0 DUP5 DUP5 ADD MSTORE JUMPDEST POP POP POP POP JUMP JUMPDEST PUSH1 0x0 PUSH1 0x2 DUP3 DIV SWAP1 POP PUSH1 0x1 DUP3 AND DUP1 PUSH2 0x831 JUMPI PUSH1 0x7F DUP3 AND SWAP2 POP JUMPDEST PUSH1 0x20 DUP3 LT DUP2 EQ ISZERO PUSH2 0x845 JUMPI PUSH2 0x844 PUSH2 0x87A JUMP JUMPDEST JUMPDEST POP SWAP2 SWAP1 POP JUMP JUMPDEST PUSH32 0x4E487B7100000000000000000000000000000000000000000000000000000000 PUSH1 0x0 MSTORE PUSH1 0x11 PUSH1 0x4 MSTORE PUSH1 0x24 PUSH1 0x0 REVERT JUMPDEST PUSH32 0x4E487B7100000000000000000000000000000000000000000000000000000000 PUSH1 0x0 MSTORE PUSH1 0x22 PUSH1 0x4 MSTORE PUSH1 0x24 PUSH1 0x0 REVERT JUMPDEST PUSH1 0x0 PUSH1 0x1F NOT PUSH1 0x1F DUP4 ADD AND SWAP1 POP SWAP2 SWAP1 POP JUMP JUMPDEST PUSH2 0x8C3 DUP2 PUSH2 0x791 JUMP JUMPDEST DUP2 EQ PUSH2 0x8CE JUMPI PUSH1 0x0 DUP1 REVERT JUMPDEST POP JUMP JUMPDEST PUSH2 0x8DA DUP2 PUSH2 0x7CF JUMP JUMPDEST DUP2 EQ PUSH2 0x8E5 JUMPI PUSH1 0x0 DUP1 REVERT JUMPDEST POP JUMP INVALID LOG2 PUSH5 0x6970667358 0x22 SLT KECCAK256 0xA7 PUSH2 0x7035 0xEC MLOAD PUSH25 0x691262649A930480F65B83489F63F1374642987528DACD53FE PUSH5 0x736F6C6343 STOP ADDMOD DIV STOP CALLER LOG2 PUSH5 0x6970667358 0x22 SLT KECCAK256 0xDC 0xE3 0x2D 0x25 PUSH20 0xC0061CB3A900D5F0DBC7761FA25CB863136D4FFC PUSH17 0x57A69CA9EF64736F6C63430008040033 "
		},
		"gasEstimates": {
			"creation": {
				"codeDepositCost": "2664800",
				"executionCost": "infinite",
				"totalCost": "infinite"
			},
			"external": {
				"buyToken(string)": "infinite",
				"deposit()": "infinite",
				"getAllTokens()": "infinite",
				"getCost(string)": "infinite",
				"getHeldTokens(address)": "infinite",
				"getPot()": "1160",
				"getPrice(string)": "infinite",
				"getTokenBalance(string,address)": "infinite",
				"getTokenValue(string,address)": "infinite",
				"getTotalSupply(string)": "infinite",
				"mintToken(string,string,string,uint256)": "infinite",
				"sellToken(string,uint256)": "infinite",
				"updatePrice(string,uint256)": "infinite",
				"withdraw()": "infinite"
			},
			"internal": {
				"compare_strings(string memory,string memory)": "infinite",
				"remove_from_holdings(address,string memory)": "infinite"
			}
		},
		"methodIdentifiers": {
			"buyToken(string)": "65d0dfc4",
			"deposit()": "d0e30db0",
			"getAllTokens()": "2a5c792a",
			"getCost(string)": "9ca3c29c",
			"getHeldTokens(address)": "66836b7c",
			"getPot()": "403c9fa8",
			"getPrice(string)": "524f3889",
			"getTokenBalance(string,address)": "3cdb9762",
			"getTokenValue(string,address)": "84465b3e",
			"getTotalSupply(string)": "5463109e",
			"mintToken(string,string,string,uint256)": "b4a8e0a9",
			"sellToken(string,uint256)": "93990aa6",
			"updatePrice(string,uint256)": "4a432a46",
			"withdraw()": "3ccfd60b"
		}
	},
	"abi": [
		{
			"inputs": [
				{
					"internalType": "address",
					"name": "second_owner",
					"type": "address"
				}
			],
			"stateMutability": "payable",
			"type": "constructor"
		},
		{
			"anonymous": false,
			"inputs": [
				{
					"indexed": false,
					"internalType": "address",
					"name": "buyer",
					"type": "address"
				},
				{
					"indexed": false,
					"internalType": "string",
					"name": "playerID",
					"type": "string"
				},
				{
					"indexed": false,
					"internalType": "uint256",
					"name": "price",
					"type": "uint256"
				},
				{
					"indexed": false,
					"internalType": "uint256",
					"name": "num_tokens",
					"type": "uint256"
				}
			],
			"name": "Buy",
			"type": "event"
		},
		{
			"anonymous": false,
			"inputs": [
				{
					"indexed": false,
					"internalType": "address",
					"name": "owner1",
					"type": "address"
				},
				{
					"indexed": false,
					"internalType": "address",
					"name": "owner2",
					"type": "address"
				},
				{
					"indexed": false,
					"internalType": "uint256",
					"name": "pot",
					"type": "uint256"
				}
			],
			"name": "Creation",
			"type": "event"
		},
		{
			"anonymous": false,
			"inputs": [
				{
					"indexed": false,
					"internalType": "string",
					"name": "playerID",
					"type": "string"
				},
				{
					"indexed": false,
					"internalType": "string",
					"name": "tokenName",
					"type": "string"
				},
				{
					"indexed": false,
					"internalType": "string",
					"name": "tokenSymbol",
					"type": "string"
				},
				{
					"indexed": false,
					"internalType": "uint256",
					"name": "tokenPrice",
					"type": "uint256"
				}
			],
			"name": "Mint",
			"type": "event"
		},
		{
			"anonymous": false,
			"inputs": [
				{
					"indexed": false,
					"internalType": "address",
					"name": "seller",
					"type": "address"
				},
				{
					"indexed": false,
					"internalType": "string",
					"name": "playerID",
					"type": "string"
				},
				{
					"indexed": false,
					"internalType": "uint256",
					"name": "price",
					"type": "uint256"
				},
				{
					"indexed": false,
					"internalType": "uint256",
					"name": "num_tokens",
					"type": "uint256"
				}
			],
			"name": "Sell",
			"type": "event"
		},
		{
			"inputs": [
				{
					"internalType": "string",
					"name": "playerID",
					"type": "string"
				}
			],
			"name": "buyToken",
			"outputs": [
				{
					"internalType": "bool",
					"name": "",
					"type": "bool"
				}
			],
			"stateMutability": "payable",
			"type": "function"
		},
		{
			"inputs": [],
			"name": "deposit",
			"outputs": [],
			"stateMutability": "payable",
			"type": "function"
		},
		{
			"inputs": [],
			"name": "getAllTokens",
			"outputs": [
				{
					"internalType": "string[]",
					"name": "",
					"type": "string[]"
				}
			],
			"stateMutability": "view",
			"type": "function"
		},
		{
			"inputs": [
				{
					"internalType": "string",
					"name": "playerID",
					"type": "string"
				}
			],
			"name": "getCost",
			"outputs": [
				{
					"internalType": "uint256",
					"name": "",
					"type": "uint256"
				}
			],
			"stateMutability": "view",
			"type": "function"
		},
		{
			"inputs": [
				{
					"internalType": "address",
					"name": "user",
					"type": "address"
				}
			],
			"name": "getHeldTokens",
			"outputs": [
				{
					"internalType": "string[]",
					"name": "",
					"type": "string[]"
				}
			],
			"stateMutability": "view",
			"type": "function"
		},
		{
			"inputs": [],
			"name": "getPot",
			"outputs": [
				{
					"internalType": "uint256",
					"name": "",
					"type": "uint256"
				}
			],
			"stateMutability": "view",
			"type": "function"
		},
		{
			"inputs": [
				{
					"internalType": "string",
					"name": "playerID",
					"type": "string"
				}
			],
			"name": "getPrice",
			"outputs": [
				{
					"internalType": "uint256",
					"name": "",
					"type": "uint256"
				}
			],
			"stateMutability": "view",
			"type": "function"
		},
		{
			"inputs": [
				{
					"internalType": "string",
					"name": "playerID",
					"type": "string"
				},
				{
					"internalType": "address",
					"name": "user",
					"type": "address"
				}
			],
			"name": "getTokenBalance",
			"outputs": [
				{
					"internalType": "uint256",
					"name": "",
					"type": "uint256"
				}
			],
			"stateMutability": "view",
			"type": "function"
		},
		{
			"inputs": [
				{
					"internalType": "string",
					"name": "playerID",
					"type": "string"
				},
				{
					"internalType": "address",
					"name": "user",
					"type": "address"
				}
			],
			"name": "getTokenValue",
			"outputs": [
				{
					"internalType": "uint256",
					"name": "value",
					"type": "uint256"
				}
			],
			"stateMutability": "view",
			"type": "function"
		},
		{
			"inputs": [
				{
					"internalType": "string",
					"name": "playerID",
					"type": "string"
				}
			],
			"name": "getTotalSupply",
			"outputs": [
				{
					"internalType": "uint256",
					"name": "",
					"type": "uint256"
				}
			],
			"stateMutability": "view",
			"type": "function"
		},
		{
			"inputs": [
				{
					"internalType": "string",
					"name": "playerID",
					"type": "string"
				},
				{
					"internalType": "string",
					"name": "tokenName",
					"type": "string"
				},
				{
					"internalType": "string",
					"name": "tokenSymbol",
					"type": "string"
				},
				{
					"internalType": "uint256",
					"name": "tokenPrice",
					"type": "uint256"
				}
			],
			"name": "mintToken",
			"outputs": [
				{
					"internalType": "bool",
					"name": "",
					"type": "bool"
				}
			],
			"stateMutability": "nonpayable",
			"type": "function"
		},
		{
			"inputs": [
				{
					"internalType": "string",
					"name": "playerID",
					"type": "string"
				},
				{
					"internalType": "uint256",
					"name": "count",
					"type": "uint256"
				}
			],
			"name": "sellToken",
			"outputs": [
				{
					"internalType": "bool",
					"name": "",
					"type": "bool"
				}
			],
			"stateMutability": "payable",
			"type": "function"
		},
		{
			"inputs": [
				{
					"internalType": "string",
					"name": "playerID",
					"type": "string"
				},
				{
					"internalType": "uint256",
					"name": "price",
					"type": "uint256"
				}
			],
			"name": "updatePrice",
			"outputs": [
				{
					"internalType": "bool",
					"name": "",
					"type": "bool"
				}
			],
			"stateMutability": "nonpayable",
			"type": "function"
		},
		{
			"inputs": [],
			"name": "withdraw",
			"outputs": [],
			"stateMutability": "payable",
			"type": "function"
		}
	]
}