{
	"data": {
		"bytecode": {
			"linkReferences": {},
			"object": "6080604052620186a06008556000600960006101000a81548160ff021916908360ff1602179055506005600a5560405162003dd438038062003dd4833981810160405281019062000051919062000178565b336000806101000a81548173ffffffffffffffffffffffffffffffffffffffff021916908373ffffffffffffffffffffffffffffffffffffffff16021790555080600160006101000a81548173ffffffffffffffffffffffffffffffffffffffff021916908373ffffffffffffffffffffffffffffffffffffffff160217905550346002819055507f25ddec0e2928c71e6f378441517dd92f99efc260c557e570d4d03a6d8a51dc3a60008054906101000a900473ffffffffffffffffffffffffffffffffffffffff16600160009054906101000a900473ffffffffffffffffffffffffffffffffffffffff166002546040516200015293929190620001c6565b60405180910390a1506200025b565b600081519050620001728162000241565b92915050565b6000602082840312156200018b57600080fd5b60006200019b8482850162000161565b91505092915050565b620001af8162000203565b82525050565b620001c08162000237565b82525050565b6000606082019050620001dd6000830186620001a4565b620001ec6020830185620001a4565b620001fb6040830184620001b5565b949350505050565b6000620002108262000217565b9050919050565b600073ffffffffffffffffffffffffffffffffffffffff82169050919050565b6000819050919050565b6200024c8162000203565b81146200025857600080fd5b50565b613b69806200026b6000396000f3fe608060405260043610620000fe5760003560e01c806365d0dfc4116200009757806393990aa6116200006157806393990aa614620003815780639ca3c29c14620003b7578063b4a8e0a914620003fb578063d0e30db0146200043f57620000fe565b806365d0dfc4146200027f57806366836b7c14620002b55780636d7dfea714620002f957806384465b3e146200033d57620000fe565b8063403c9fa811620000d9578063403c9fa814620001835780634a432a4614620001b3578063524f388914620001f75780635463109e146200023b57620000fe565b80632a5c792a14620001035780633ccfd60b14620001335780633cdb9762146200013f575b600080fd5b3480156200011057600080fd5b506200011b6200044b565b6040516200012a91906200276a565b60405180910390f35b6200013d6200052e565b005b3480156200014c57600080fd5b506200016b6004803603810190620001659190620022f4565b620005f6565b6040516200017a919062002872565b60405180910390f35b3480156200019057600080fd5b506200019b62000712565b604051620001aa919062002872565b60405180910390f35b348015620001c057600080fd5b50620001df6004803603810190620001d9919062002417565b6200071c565b604051620001ee91906200278e565b60405180910390f35b3480156200020457600080fd5b506200022360048036038101906200021d9190620022ab565b6200083d565b60405162000232919062002872565b60405180910390f35b3480156200024857600080fd5b50620002676004803603810190620002619190620022ab565b620008a4565b60405162000276919062002872565b60405180910390f35b6200029d6004803603810190620002979190620022ab565b620009b2565b604051620002ac91906200278e565b60405180910390f35b348015620002c257600080fd5b50620002e16004803603810190620002db9190620021b0565b62000ca9565b604051620002f091906200276a565b60405180910390f35b3480156200030657600080fd5b506200032560048036038101906200031f9190620021dc565b62000dcb565b6040516200033491906200276a565b60405180910390f35b3480156200034a57600080fd5b50620003696004803603810190620003639190620022f4565b6200116b565b60405162000378919062002872565b60405180910390f35b6200039f600480360381019062000399919062002417565b620012b4565b604051620003ae91906200278e565b60405180910390f35b348015620003c457600080fd5b50620003e36004803603810190620003dd9190620022ab565b620015c3565b604051620003f2919062002872565b60405180910390f35b3480156200040857600080fd5b5062000427600480360381019062000421919062002352565b6200162a565b6040516200043691906200278e565b60405180910390f35b6200044962001941565b005b60606007805480602002602001604051908101604052809291908181526020016000905b8282101562000525578382906000526020600020018054620004919062002b5b565b80601f0160208091040260200160405190810160405280929190818152602001828054620004bf9062002b5b565b8015620005105780601f10620004e45761010080835404028352916020019162000510565b820191906000526020600020905b815481529060010190602001808311620004f257829003601f168201915b5050505050815260200190600101906200046f565b50505050905090565b60008054906101000a900473ffffffffffffffffffffffffffffffffffffffff1673ffffffffffffffffffffffffffffffffffffffff163373ffffffffffffffffffffffffffffffffffffffff161480620005d65750600160009054906101000a900473ffffffffffffffffffffffffffffffffffffffff1673ffffffffffffffffffffffffffffffffffffffff163373ffffffffffffffffffffffffffffffffffffffff16145b620005e057600080fd5b620005ee6002543462001a09565b600281905550565b6000600484846040516200060c92919062002650565b908152602001604051809103902060009054906101000a900460ff166200063257600080fd5b6000600585856040516200064892919062002650565b908152602001604051809103902060009054906101000a900473ffffffffffffffffffffffffffffffffffffffff1690508073ffffffffffffffffffffffffffffffffffffffff166370a08231846040518263ffffffff1660e01b8152600401620006b4919062002684565b60206040518083038186803b158015620006cd57600080fd5b505afa158015620006e2573d6000803e3d6000fd5b505050506040513d601f19601f8201168201806040525081019062000708919062002475565b9150509392505050565b6000600254905090565b60008060009054906101000a900473ffffffffffffffffffffffffffffffffffffffff1673ffffffffffffffffffffffffffffffffffffffff163373ffffffffffffffffffffffffffffffffffffffff161480620007c75750600160009054906101000a900473ffffffffffffffffffffffffffffffffffffffff1673ffffffffffffffffffffffffffffffffffffffff163373ffffffffffffffffffffffffffffffffffffffff16145b620007d157600080fd5b60048484604051620007e592919062002650565b908152602001604051809103902060009054906101000a900460ff166200080b57600080fd5b81600385856040516200082092919062002650565b908152602001604051809103902081905550600190509392505050565b6000600483836040516200085392919062002650565b908152602001604051809103902060009054906101000a900460ff166200087957600080fd5b600383836040516200088d92919062002650565b908152602001604051809103902054905092915050565b600060048383604051620008ba92919062002650565b908152602001604051809103902060009054906101000a900460ff16620008e057600080fd5b600060058484604051620008f692919062002650565b908152602001604051809103902060009054906101000a900473ffffffffffffffffffffffffffffffffffffffff1690508073ffffffffffffffffffffffffffffffffffffffff166318160ddd6040518163ffffffff1660e01b815260040160206040518083038186803b1580156200096e57600080fd5b505afa15801562000983573d6000803e3d6000fd5b505050506040513d601f19601f82011682018060405250810190620009a9919062002475565b91505092915050565b600060048383604051620009c892919062002650565b908152602001604051809103902060009054906101000a900460ff16620009ee57600080fd5b60006005848460405162000a0492919062002650565b908152602001604051809103902060009054906101000a900473ffffffffffffffffffffffffffffffffffffffff16905060006003858560405162000a4b92919062002650565b90815260200160405180910390205490506000600a54606462000a6f91906200298e565b90506000606462000a81838562001a21565b62000a8d9190620029eb565b90506000813462000a9f9190620029eb565b90508134101562000aaf57600080fd5b60006001905080801562000b5457508573ffffffffffffffffffffffffffffffffffffffff166323b872dd3033856040518463ffffffff1660e01b815260040162000afd93929190620026a1565b602060405180830381600087803b15801562000b1857600080fd5b505af115801562000b2d573d6000803e3d6000fd5b505050506040513d601f19601f8201168201806040525081019062000b5391906200227f565b5b90507f40f5583ae6965366e0acfa8dc48c165ed2fce35c84de4966619b6e42e4d5f4c8338a8a888660405162000b8f95949392919062002714565b60405180910390a13073ffffffffffffffffffffffffffffffffffffffff16636d7dfea7338b8b6040518463ffffffff1660e01b815260040162000bd693929190620026de565b600060405180830381600087803b15801562000bf157600080fd5b505af115801562000c06573d6000803e3d6000fd5b505050506040513d6000823e3d601f19601f8201168201806040525081019062000c3191906200223a565b600660003373ffffffffffffffffffffffffffffffffffffffff1673ffffffffffffffffffffffffffffffffffffffff168152602001908152602001600020908051906020019062000c8592919062001db4565b5062000c946002543462001a39565b60028190555080965050505050505092915050565b6060600660008373ffffffffffffffffffffffffffffffffffffffff1673ffffffffffffffffffffffffffffffffffffffff168152602001908152602001600020805480602002602001604051908101604052809291908181526020016000905b8282101562000dc057838290600052602060002001805462000d2c9062002b5b565b80601f016020809104026020016040519081016040528092919081815260200182805462000d5a9062002b5b565b801562000dab5780601f1062000d7f5761010080835404028352916020019162000dab565b820191906000526020600020905b81548152906001019060200180831162000d8d57829003601f168201915b50505050508152602001906001019062000d0a565b505050509050919050565b60606000600660008673ffffffffffffffffffffffffffffffffffffffff1673ffffffffffffffffffffffffffffffffffffffff168152602001908152602001600020905060005b8180549050811015620010455762000f4482828154811062000e5e577f4e487b7100000000000000000000000000000000000000000000000000000000600052603260045260246000fd5b90600052602060002001805462000e759062002b5b565b80601f016020809104026020016040519081016040528092919081815260200182805462000ea39062002b5b565b801562000ef45780601f1062000ec85761010080835404028352916020019162000ef4565b820191906000526020600020905b81548152906001019060200180831162000ed657829003601f168201915b505050505086868080601f016020809104026020016040519081016040528093929190818152602001838380828437600081840152601f19601f8201169050808301925050505050505062001a51565b156200102f5781805480602002602001604051908101604052809291908181526020016000905b828210156200102157838290600052602060002001805462000f8d9062002b5b565b80601f016020809104026020016040519081016040528092919081815260200182805462000fbb9062002b5b565b80156200100c5780601f1062000fe0576101008083540402835291602001916200100c565b820191906000526020600020905b81548152906001019060200180831162000fee57829003601f168201915b50505050508152602001906001019062000f6b565b505050509250505062001164565b80806200103c9062002bc7565b91505062000e13565b50808484909180600181540180825580915050600190039060005260206000200160009091929091929091929091925091906200108492919062001e1b565b5080805480602002602001604051908101604052809291908181526020016000905b828210156200115c578382906000526020600020018054620010c89062002b5b565b80601f0160208091040260200160405190810160405280929190818152602001828054620010f69062002b5b565b8015620011475780601f106200111b5761010080835404028352916020019162001147565b820191906000526020600020905b8154815290600101906020018083116200112957829003601f168201915b505050505081526020019060010190620010a6565b505050509150505b9392505050565b6000600484846040516200118192919062002650565b908152602001604051809103902060009054906101000a900460ff16620011a757600080fd5b600060058585604051620011bd92919062002650565b908152602001604051809103902060009054906101000a900473ffffffffffffffffffffffffffffffffffffffff169050620012aa8173ffffffffffffffffffffffffffffffffffffffff166370a08231856040518263ffffffff1660e01b81526004016200122d919062002684565b60206040518083038186803b1580156200124657600080fd5b505afa1580156200125b573d6000803e3d6000fd5b505050506040513d601f19601f8201168201806040525081019062001281919062002475565b600387876040516200129592919062002650565b90815260200160405180910390205462001a21565b9150509392505050565b60008060058585604051620012cb92919062002650565b908152602001604051809103902060009054906101000a900473ffffffffffffffffffffffffffffffffffffffff1690506000600386866040516200131292919062002650565b90815260200160405180910390205490506000606490506000600a5460646200133c91906200298e565b62001348838562001a21565b620013549190620029eb565b905060008473ffffffffffffffffffffffffffffffffffffffff166370a08231336040518263ffffffff1660e01b815260040162001393919062002684565b60206040518083038186803b158015620013ac57600080fd5b505afa158015620013c1573d6000803e3d6000fd5b505050506040513d601f19601f82011682018060405250810190620013e7919062002475565b905086811015620013f757600080fd5b600062001405838962001a21565b90508060025410156200141757600080fd5b8573ffffffffffffffffffffffffffffffffffffffff166323b872dd33308b6040518463ffffffff1660e01b81526004016200145693929190620026a1565b602060405180830381600087803b1580156200147157600080fd5b505af115801562001486573d6000803e3d6000fd5b505050506040513d601f19601f82011682018060405250810190620014ac91906200227f565b503373ffffffffffffffffffffffffffffffffffffffff166108fc829081150290604051600060405180830381858888f19350505050158015620014f4573d6000803e3d6000fd5b506000888362001505919062002a84565b14156200155d576200155c338b8b8080601f016020809104026020016040519081016040528093929190818152602001838380828437600081840152601f19601f8201169050808301925050505050505062001aae565b5b7f049f57f92fe331c8352bc57011dd480b77f5dadaf815d7d9a33fae03e4acc349338b8b888c6040516200159695949392919062002714565b60405180910390a1620015ac6002543462001a09565b600281905550600196505050505050509392505050565b60008060038484604051620015da92919062002650565b908152602001604051809103902054905060006064600a5460646200160091906200298e565b6200160c9190620029eb565b905060006200161c828462001a21565b905080935050505092915050565b60008060009054906101000a900473ffffffffffffffffffffffffffffffffffffffff1673ffffffffffffffffffffffffffffffffffffffff163373ffffffffffffffffffffffffffffffffffffffff161480620016d55750600160009054906101000a900473ffffffffffffffffffffffffffffffffffffffff1673ffffffffffffffffffffffffffffffffffffffff163373ffffffffffffffffffffffffffffffffffffffff16145b620016df57600080fd5b60048888604051620016f392919062002650565b908152602001604051809103902060009054906101000a900460ff16156200171a57600080fd5b85858585600854600960009054906101000a900460ff166040516200173f9062001eac565b620017509695949392919062002813565b604051809103906000f0801580156200176d573d6000803e3d6000fd5b50600589896040516200178292919062002650565b908152602001604051809103902060006101000a81548173ffffffffffffffffffffffffffffffffffffffff021916908373ffffffffffffffffffffffffffffffffffffffff16021790555060078888909180600181540180825580915050600190039060005260206000200160009091929091929091929091925091906200180d92919062001e1b565b506001600489896040516200182492919062002650565b908152602001604051809103902060006101000a81548160ff02191690831515021790555081600389896040516200185e92919062002650565b908152602001604051809103902081905550600660003373ffffffffffffffffffffffffffffffffffffffff1673ffffffffffffffffffffffffffffffffffffffff168152602001908152602001600020888890918060018154018082558091505060019003906000526020600020016000909192909192909192909192509190620018ec92919062001e1b565b507f0fcf04ff5a22c65b961750682425ef5a539c0788e5a0cde8d1d431a5da637134888888888888886040516200192a9796959493929190620027ab565b60405180910390a160019050979650505050505050565b60008054906101000a900473ffffffffffffffffffffffffffffffffffffffff1673ffffffffffffffffffffffffffffffffffffffff163373ffffffffffffffffffffffffffffffffffffffff161480620019e95750600160009054906101000a900473ffffffffffffffffffffffffffffffffffffffff1673ffffffffffffffffffffffffffffffffffffffff163373ffffffffffffffffffffffffffffffffffffffff16145b620019f357600080fd5b62001a016002543462001a39565b600281905550565b6000818362001a19919062002a84565b905092915050565b6000818362001a31919062002a23565b905092915050565b6000818362001a4991906200298e565b905092915050565b60008160405160200162001a6691906200266b565b604051602081830303815290604052805190602001208360405160200162001a8f91906200266b565b6040516020818303038152906040528051906020012014905092915050565b6000600660008473ffffffffffffffffffffffffffffffffffffffff1673ffffffffffffffffffffffffffffffffffffffff168152602001908152602001600020805480602002602001604051908101604052809291908181526020016000905b8282101562001bc557838290600052602060002001805462001b319062002b5b565b80601f016020809104026020016040519081016040528092919081815260200182805462001b5f9062002b5b565b801562001bb05780601f1062001b845761010080835404028352916020019162001bb0565b820191906000526020600020905b81548152906001019060200180831162001b9257829003601f168201915b50505050508152602001906001019062001b0f565b505050509050600080600083519050600092505b8083101562001d5657600084848151811062001c1e577f4e487b7100000000000000000000000000000000000000000000000000000000600052603260045260246000fd5b6020026020010151905062001c34868262001a51565b1562001c3f57600192505b821562001d3f5760018262001c55919062002a84565b841462001cf7578460018562001c6c91906200298e565b8151811062001ca4577f4e487b7100000000000000000000000000000000000000000000000000000000600052603260045260246000fd5b602002602001015185858151811062001ce6577f4e487b7100000000000000000000000000000000000000000000000000000000600052603260045260246000fd5b602002602001018190525062001d3e565b84848151811062001d31577f4e487b7100000000000000000000000000000000000000000000000000000000600052603260045260246000fd5b6020026020010160608152505b5b50828062001d4d9062002bc7565b93505062001bd9565b83600660008873ffffffffffffffffffffffffffffffffffffffff1673ffffffffffffffffffffffffffffffffffffffff168152602001908152602001600020908051906020019062001dab92919062001db4565b50505050505050565b82805482825590600052602060002090810192821562001e08579160200282015b8281111562001e0757825182908051906020019062001df692919062001eba565b509160200191906001019062001dd5565b5b50905062001e17919062001f4b565b5090565b82805462001e299062002b5b565b90600052602060002090601f01602090048101928262001e4d576000855562001e99565b82601f1062001e6857803560ff191683800117855562001e99565b8280016001018555821562001e99579182015b8281111562001e9857823582559160200191906001019062001e7b565b5b50905062001ea8919062001f73565b5090565b610e038062002d3183390190565b82805462001ec89062002b5b565b90600052602060002090601f01602090048101928262001eec576000855562001f38565b82601f1062001f0757805160ff191683800117855562001f38565b8280016001018555821562001f38579182015b8281111562001f3757825182559160200191906001019062001f1a565b5b50905062001f47919062001f73565b5090565b5b8082111562001f6f576000818162001f65919062001f92565b5060010162001f4c565b5090565b5b8082111562001f8e57600081600090555060010162001f74565b5090565b50805462001fa09062002b5b565b6000825580601f1062001fb4575062001fd5565b601f01602090049060005260206000209081019062001fd4919062001f73565b5b50565b600062001fef62001fe984620028b8565b6200288f565b905080838252602082019050828560208602820111156200200f57600080fd5b60005b858110156200205e57815167ffffffffffffffff8111156200203357600080fd5b80860162002042898262002155565b8552602085019450602084019350505060018101905062002012565b5050509392505050565b60006200207f6200207984620028e7565b6200288f565b9050828152602081018484840111156200209857600080fd5b620020a584828562002b25565b509392505050565b600081359050620020be8162002ce2565b92915050565b600082601f830112620020d657600080fd5b8151620020e884826020860162001fd8565b91505092915050565b600081519050620021028162002cfc565b92915050565b60008083601f8401126200211b57600080fd5b8235905067ffffffffffffffff8111156200213557600080fd5b6020830191508360018202830111156200214e57600080fd5b9250929050565b600082601f8301126200216757600080fd5b81516200217984826020860162002068565b91505092915050565b600081359050620021938162002d16565b92915050565b600081519050620021aa8162002d16565b92915050565b600060208284031215620021c357600080fd5b6000620021d384828501620020ad565b91505092915050565b600080600060408486031215620021f257600080fd5b60006200220286828701620020ad565b935050602084013567ffffffffffffffff8111156200222057600080fd5b6200222e8682870162002108565b92509250509250925092565b6000602082840312156200224d57600080fd5b600082015167ffffffffffffffff8111156200226857600080fd5b6200227684828501620020c4565b91505092915050565b6000602082840312156200229257600080fd5b6000620022a284828501620020f1565b91505092915050565b60008060208385031215620022bf57600080fd5b600083013567ffffffffffffffff811115620022da57600080fd5b620022e88582860162002108565b92509250509250929050565b6000806000604084860312156200230a57600080fd5b600084013567ffffffffffffffff8111156200232557600080fd5b620023338682870162002108565b935093505060206200234886828701620020ad565b9150509250925092565b60008060008060008060006080888a0312156200236e57600080fd5b600088013567ffffffffffffffff8111156200238957600080fd5b620023978a828b0162002108565b9750975050602088013567ffffffffffffffff811115620023b757600080fd5b620023c58a828b0162002108565b9550955050604088013567ffffffffffffffff811115620023e557600080fd5b620023f38a828b0162002108565b93509350506060620024088a828b0162002182565b91505092959891949750929550565b6000806000604084860312156200242d57600080fd5b600084013567ffffffffffffffff8111156200244857600080fd5b620024568682870162002108565b935093505060206200246b8682870162002182565b9150509250925092565b6000602082840312156200248857600080fd5b6000620024988482850162002199565b91505092915050565b6000620024af8383620025b6565b905092915050565b620024c28162002abf565b82525050565b6000620024d5826200292d565b620024e1818562002950565b935083602082028501620024f5856200291d565b8060005b85811015620025375784840389528151620025158582620024a1565b9450620025228362002943565b925060208a01995050600181019050620024f9565b50829750879550505050505092915050565b620025548162002ad3565b82525050565b600062002568838562002972565b93506200257783858462002b16565b620025828362002cd1565b840190509392505050565b60006200259b838562002983565b9350620025aa83858462002b16565b82840190509392505050565b6000620025c38262002938565b620025cf818562002961565b9350620025e181856020860162002b25565b620025ec8162002cd1565b840191505092915050565b6000620026048262002938565b62002610818562002983565b93506200262281856020860162002b25565b80840191505092915050565b620026398162002aff565b82525050565b6200264a8162002b09565b82525050565b60006200265f8284866200258d565b91508190509392505050565b6000620026798284620025f7565b915081905092915050565b60006020820190506200269b6000830184620024b7565b92915050565b6000606082019050620026b86000830186620024b7565b620026c76020830185620024b7565b620026d660408301846200262e565b949350505050565b6000604082019050620026f56000830186620024b7565b81810360208301526200270a8184866200255a565b9050949350505050565b60006080820190506200272b6000830188620024b7565b8181036020830152620027408186886200255a565b90506200275160408301856200262e565b6200276060608301846200262e565b9695505050505050565b60006020820190508181036000830152620027868184620024c8565b905092915050565b6000602082019050620027a5600083018462002549565b92915050565b60006080820190508181036000830152620027c881898b6200255a565b90508181036020830152620027df8187896200255a565b90508181036040830152620027f68185876200255a565b90506200280760608301846200262e565b98975050505050505050565b600060808201905081810360008301526200283081888a6200255a565b90508181036020830152620028478186886200255a565b90506200285860408301856200262e565b6200286760608301846200263f565b979650505050505050565b60006020820190506200288960008301846200262e565b92915050565b60006200289b620028ae565b9050620028a9828262002b91565b919050565b6000604051905090565b600067ffffffffffffffff821115620028d657620028d562002ca2565b5b602082029050602081019050919050565b600067ffffffffffffffff82111562002905576200290462002ca2565b5b620029108262002cd1565b9050602081019050919050565b6000819050602082019050919050565b600081519050919050565b600081519050919050565b6000602082019050919050565b600082825260208201905092915050565b600082825260208201905092915050565b600082825260208201905092915050565b600081905092915050565b60006200299b8262002aff565b9150620029a88362002aff565b9250827fffffffffffffffffffffffffffffffffffffffffffffffffffffffffffffffff03821115620029e057620029df62002c15565b5b828201905092915050565b6000620029f88262002aff565b915062002a058362002aff565b92508262002a185762002a1762002c44565b5b828204905092915050565b600062002a308262002aff565b915062002a3d8362002aff565b9250817fffffffffffffffffffffffffffffffffffffffffffffffffffffffffffffffff048311821515161562002a795762002a7862002c15565b5b828202905092915050565b600062002a918262002aff565b915062002a9e8362002aff565b92508282101562002ab45762002ab362002c15565b5b828203905092915050565b600062002acc8262002adf565b9050919050565b60008115159050919050565b600073ffffffffffffffffffffffffffffffffffffffff82169050919050565b6000819050919050565b600060ff82169050919050565b82818337600083830152505050565b60005b8381101562002b4557808201518184015260208101905062002b28565b8381111562002b55576000848401525b50505050565b6000600282049050600182168062002b7457607f821691505b6020821081141562002b8b5762002b8a62002c73565b5b50919050565b62002b9c8262002cd1565b810181811067ffffffffffffffff8211171562002bbe5762002bbd62002ca2565b5b80604052505050565b600062002bd48262002aff565b91507fffffffffffffffffffffffffffffffffffffffffffffffffffffffffffffffff82141562002c0a5762002c0962002c15565b5b600182019050919050565b7f4e487b7100000000000000000000000000000000000000000000000000000000600052601160045260246000fd5b7f4e487b7100000000000000000000000000000000000000000000000000000000600052601260045260246000fd5b7f4e487b7100000000000000000000000000000000000000000000000000000000600052602260045260246000fd5b7f4e487b7100000000000000000000000000000000000000000000000000000000600052604160045260246000fd5b6000601f19601f8301169050919050565b62002ced8162002abf565b811462002cf957600080fd5b50565b62002d078162002ad3565b811462002d1357600080fd5b50565b62002d218162002aff565b811462002d2d57600080fd5b5056fe608060405260405162000e0338038062000e0383398181016040528101906200002991906200027c565b336000806101000a81548173ffffffffffffffffffffffffffffffffffffffff021916908373ffffffffffffffffffffffffffffffffffffffff1602179055508360019080519060200190620000819291906200012c565b5082600290805190602001906200009a9291906200012c565b508160038190555080600460006101000a81548160ff021916908360ff16021790555081600560008060009054906101000a900473ffffffffffffffffffffffffffffffffffffffff1673ffffffffffffffffffffffffffffffffffffffff1673ffffffffffffffffffffffffffffffffffffffff1681526020019081526020016000208190555050505050620004d5565b8280546200013a90620003c6565b90600052602060002090601f0160209004810192826200015e5760008555620001aa565b82601f106200017957805160ff1916838001178555620001aa565b82800160010185558215620001aa579182015b82811115620001a95782518255916020019190600101906200018c565b5b509050620001b99190620001bd565b5090565b5b80821115620001d8576000816000905550600101620001be565b5090565b6000620001f3620001ed8462000343565b6200031a565b9050828152602081018484840111156200020c57600080fd5b6200021984828562000390565b509392505050565b600082601f8301126200023357600080fd5b815162000245848260208601620001dc565b91505092915050565b6000815190506200025f81620004a1565b92915050565b6000815190506200027681620004bb565b92915050565b600080600080608085870312156200029357600080fd5b600085015167ffffffffffffffff811115620002ae57600080fd5b620002bc8782880162000221565b945050602085015167ffffffffffffffff811115620002da57600080fd5b620002e88782880162000221565b9350506040620002fb878288016200024e565b92505060606200030e8782880162000265565b91505092959194509250565b60006200032662000339565b9050620003348282620003fc565b919050565b6000604051905090565b600067ffffffffffffffff82111562000361576200036062000461565b5b6200036c8262000490565b9050602081019050919050565b6000819050919050565b600060ff82169050919050565b60005b83811015620003b057808201518184015260208101905062000393565b83811115620003c0576000848401525b50505050565b60006002820490506001821680620003df57607f821691505b60208210811415620003f657620003f562000432565b5b50919050565b620004078262000490565b810181811067ffffffffffffffff8211171562000429576200042862000461565b5b80604052505050565b7f4e487b7100000000000000000000000000000000000000000000000000000000600052602260045260246000fd5b7f4e487b7100000000000000000000000000000000000000000000000000000000600052604160045260246000fd5b6000601f19601f8301169050919050565b620004ac8162000379565b8114620004b857600080fd5b50565b620004c68162000383565b8114620004d257600080fd5b50565b61091e80620004e56000396000f3fe608060405234801561001057600080fd5b506004361061007d5760003560e01c8063313ce5671161005b578063313ce567146100ee57806370a082311461010c57806395d89b411461013c578063a9059cbb1461015a5761007d565b806306fdde031461008257806318160ddd146100a057806323b872dd146100be575b600080fd5b61008a61018a565b6040516100979190610693565b60405180910390f35b6100a861021c565b6040516100b591906106b5565b60405180910390f35b6100d860048036038101906100d39190610587565b610226565b6040516100e59190610678565b60405180910390f35b6100f6610401565b60405161010391906106d0565b60405180910390f35b6101266004803603810190610121919061055e565b610418565b60405161013391906106b5565b60405180910390f35b610144610461565b6040516101519190610693565b60405180910390f35b610174600480360381019061016f91906105d6565b6104f3565b6040516101819190610678565b60405180910390f35b60606001805461019990610819565b80601f01602080910402602001604051908101604052809291908181526020018280546101c590610819565b80156102125780601f106101e757610100808354040283529160200191610212565b820191906000526020600020905b8154815290600101906020018083116101f557829003601f168201915b5050505050905090565b6000600354905090565b600080600560008673ffffffffffffffffffffffffffffffffffffffff1673ffffffffffffffffffffffffffffffffffffffff1681526020019081526020016000205490508281101561027857600080fd5b6102c1600560008773ffffffffffffffffffffffffffffffffffffffff1673ffffffffffffffffffffffffffffffffffffffff1681526020019081526020016000205484610508565b600560008773ffffffffffffffffffffffffffffffffffffffff1673ffffffffffffffffffffffffffffffffffffffff1681526020019081526020016000208190555061034d600560008673ffffffffffffffffffffffffffffffffffffffff1673ffffffffffffffffffffffffffffffffffffffff168152602001908152602001600020548461051e565b600560008673ffffffffffffffffffffffffffffffffffffffff1673ffffffffffffffffffffffffffffffffffffffff168152602001908152602001600020819055508373ffffffffffffffffffffffffffffffffffffffff168573ffffffffffffffffffffffffffffffffffffffff167fddf252ad1be2c89b69c2b068fc378daa952ba7f163c4a11628f55a4df523b3ef856040516103ed91906106b5565b60405180910390a360019150509392505050565b6000600460009054906101000a900460ff16905090565b6000600560008373ffffffffffffffffffffffffffffffffffffffff1673ffffffffffffffffffffffffffffffffffffffff168152602001908152602001600020549050919050565b60606002805461047090610819565b80601f016020809104026020016040519081016040528092919081815260200182805461049c90610819565b80156104e95780601f106104be576101008083540402835291602001916104e9565b820191906000526020600020905b8154815290600101906020018083116104cc57829003601f168201915b5050505050905090565b6000610500338484610226565b905092915050565b60008183610516919061075d565b905092915050565b6000818361052c9190610707565b905092915050565b600081359050610543816108ba565b92915050565b600081359050610558816108d1565b92915050565b60006020828403121561057057600080fd5b600061057e84828501610534565b91505092915050565b60008060006060848603121561059c57600080fd5b60006105aa86828701610534565b93505060206105bb86828701610534565b92505060406105cc86828701610549565b9150509250925092565b600080604083850312156105e957600080fd5b60006105f785828601610534565b925050602061060885828601610549565b9150509250929050565b61061b816107a3565b82525050565b600061062c826106eb565b61063681856106f6565b93506106468185602086016107e6565b61064f816108a9565b840191505092915050565b610663816107cf565b82525050565b610672816107d9565b82525050565b600060208201905061068d6000830184610612565b92915050565b600060208201905081810360008301526106ad8184610621565b905092915050565b60006020820190506106ca600083018461065a565b92915050565b60006020820190506106e56000830184610669565b92915050565b600081519050919050565b600082825260208201905092915050565b6000610712826107cf565b915061071d836107cf565b9250827fffffffffffffffffffffffffffffffffffffffffffffffffffffffffffffffff038211156107525761075161084b565b5b828201905092915050565b6000610768826107cf565b9150610773836107cf565b9250828210156107865761078561084b565b5b828203905092915050565b600061079c826107af565b9050919050565b60008115159050919050565b600073ffffffffffffffffffffffffffffffffffffffff82169050919050565b6000819050919050565b600060ff82169050919050565b60005b838110156108045780820151818401526020810190506107e9565b83811115610813576000848401525b50505050565b6000600282049050600182168061083157607f821691505b602082108114156108455761084461087a565b5b50919050565b7f4e487b7100000000000000000000000000000000000000000000000000000000600052601160045260246000fd5b7f4e487b7100000000000000000000000000000000000000000000000000000000600052602260045260246000fd5b6000601f19601f8301169050919050565b6108c381610791565b81146108ce57600080fd5b50565b6108da816107cf565b81146108e557600080fd5b5056fea2646970667358221220a7617035ec5178691262649a930480f65b83489f63f1374642987528dacd53fe64736f6c63430008040033a26469706673582212209fda09604f05de254775a1e0561fc6b67c31a49a289b68421aaa84aaf3a54b7164736f6c63430008040033",
			"opcodes": "PUSH1 0x80 PUSH1 0x40 MSTORE PUSH3 0x186A0 PUSH1 0x8 SSTORE PUSH1 0x0 PUSH1 0x9 PUSH1 0x0 PUSH2 0x100 EXP DUP2 SLOAD DUP2 PUSH1 0xFF MUL NOT AND SWAP1 DUP4 PUSH1 0xFF AND MUL OR SWAP1 SSTORE POP PUSH1 0x5 PUSH1 0xA SSTORE PUSH1 0x40 MLOAD PUSH3 0x3DD4 CODESIZE SUB DUP1 PUSH3 0x3DD4 DUP4 CODECOPY DUP2 DUP2 ADD PUSH1 0x40 MSTORE DUP2 ADD SWAP1 PUSH3 0x51 SWAP2 SWAP1 PUSH3 0x178 JUMP JUMPDEST CALLER PUSH1 0x0 DUP1 PUSH2 0x100 EXP DUP2 SLOAD DUP2 PUSH20 0xFFFFFFFFFFFFFFFFFFFFFFFFFFFFFFFFFFFFFFFF MUL NOT AND SWAP1 DUP4 PUSH20 0xFFFFFFFFFFFFFFFFFFFFFFFFFFFFFFFFFFFFFFFF AND MUL OR SWAP1 SSTORE POP DUP1 PUSH1 0x1 PUSH1 0x0 PUSH2 0x100 EXP DUP2 SLOAD DUP2 PUSH20 0xFFFFFFFFFFFFFFFFFFFFFFFFFFFFFFFFFFFFFFFF MUL NOT AND SWAP1 DUP4 PUSH20 0xFFFFFFFFFFFFFFFFFFFFFFFFFFFFFFFFFFFFFFFF AND MUL OR SWAP1 SSTORE POP CALLVALUE PUSH1 0x2 DUP2 SWAP1 SSTORE POP PUSH32 0x25DDEC0E2928C71E6F378441517DD92F99EFC260C557E570D4D03A6D8A51DC3A PUSH1 0x0 DUP1 SLOAD SWAP1 PUSH2 0x100 EXP SWAP1 DIV PUSH20 0xFFFFFFFFFFFFFFFFFFFFFFFFFFFFFFFFFFFFFFFF AND PUSH1 0x1 PUSH1 0x0 SWAP1 SLOAD SWAP1 PUSH2 0x100 EXP SWAP1 DIV PUSH20 0xFFFFFFFFFFFFFFFFFFFFFFFFFFFFFFFFFFFFFFFF AND PUSH1 0x2 SLOAD PUSH1 0x40 MLOAD PUSH3 0x152 SWAP4 SWAP3 SWAP2 SWAP1 PUSH3 0x1C6 JUMP JUMPDEST PUSH1 0x40 MLOAD DUP1 SWAP2 SUB SWAP1 LOG1 POP PUSH3 0x25B JUMP JUMPDEST PUSH1 0x0 DUP2 MLOAD SWAP1 POP PUSH3 0x172 DUP2 PUSH3 0x241 JUMP JUMPDEST SWAP3 SWAP2 POP POP JUMP JUMPDEST PUSH1 0x0 PUSH1 0x20 DUP3 DUP5 SUB SLT ISZERO PUSH3 0x18B JUMPI PUSH1 0x0 DUP1 REVERT JUMPDEST PUSH1 0x0 PUSH3 0x19B DUP5 DUP3 DUP6 ADD PUSH3 0x161 JUMP JUMPDEST SWAP2 POP POP SWAP3 SWAP2 POP POP JUMP JUMPDEST PUSH3 0x1AF DUP2 PUSH3 0x203 JUMP JUMPDEST DUP3 MSTORE POP POP JUMP JUMPDEST PUSH3 0x1C0 DUP2 PUSH3 0x237 JUMP JUMPDEST DUP3 MSTORE POP POP JUMP JUMPDEST PUSH1 0x0 PUSH1 0x60 DUP3 ADD SWAP1 POP PUSH3 0x1DD PUSH1 0x0 DUP4 ADD DUP7 PUSH3 0x1A4 JUMP JUMPDEST PUSH3 0x1EC PUSH1 0x20 DUP4 ADD DUP6 PUSH3 0x1A4 JUMP JUMPDEST PUSH3 0x1FB PUSH1 0x40 DUP4 ADD DUP5 PUSH3 0x1B5 JUMP JUMPDEST SWAP5 SWAP4 POP POP POP POP JUMP JUMPDEST PUSH1 0x0 PUSH3 0x210 DUP3 PUSH3 0x217 JUMP JUMPDEST SWAP1 POP SWAP2 SWAP1 POP JUMP JUMPDEST PUSH1 0x0 PUSH20 0xFFFFFFFFFFFFFFFFFFFFFFFFFFFFFFFFFFFFFFFF DUP3 AND SWAP1 POP SWAP2 SWAP1 POP JUMP JUMPDEST PUSH1 0x0 DUP2 SWAP1 POP SWAP2 SWAP1 POP JUMP JUMPDEST PUSH3 0x24C DUP2 PUSH3 0x203 JUMP JUMPDEST DUP2 EQ PUSH3 0x258 JUMPI PUSH1 0x0 DUP1 REVERT JUMPDEST POP JUMP JUMPDEST PUSH2 0x3B69 DUP1 PUSH3 0x26B PUSH1 0x0 CODECOPY PUSH1 0x0 RETURN INVALID PUSH1 0x80 PUSH1 0x40 MSTORE PUSH1 0x4 CALLDATASIZE LT PUSH3 0xFE JUMPI PUSH1 0x0 CALLDATALOAD PUSH1 0xE0 SHR DUP1 PUSH4 0x65D0DFC4 GT PUSH3 0x97 JUMPI DUP1 PUSH4 0x93990AA6 GT PUSH3 0x61 JUMPI DUP1 PUSH4 0x93990AA6 EQ PUSH3 0x381 JUMPI DUP1 PUSH4 0x9CA3C29C EQ PUSH3 0x3B7 JUMPI DUP1 PUSH4 0xB4A8E0A9 EQ PUSH3 0x3FB JUMPI DUP1 PUSH4 0xD0E30DB0 EQ PUSH3 0x43F JUMPI PUSH3 0xFE JUMP JUMPDEST DUP1 PUSH4 0x65D0DFC4 EQ PUSH3 0x27F JUMPI DUP1 PUSH4 0x66836B7C EQ PUSH3 0x2B5 JUMPI DUP1 PUSH4 0x6D7DFEA7 EQ PUSH3 0x2F9 JUMPI DUP1 PUSH4 0x84465B3E EQ PUSH3 0x33D JUMPI PUSH3 0xFE JUMP JUMPDEST DUP1 PUSH4 0x403C9FA8 GT PUSH3 0xD9 JUMPI DUP1 PUSH4 0x403C9FA8 EQ PUSH3 0x183 JUMPI DUP1 PUSH4 0x4A432A46 EQ PUSH3 0x1B3 JUMPI DUP1 PUSH4 0x524F3889 EQ PUSH3 0x1F7 JUMPI DUP1 PUSH4 0x5463109E EQ PUSH3 0x23B JUMPI PUSH3 0xFE JUMP JUMPDEST DUP1 PUSH4 0x2A5C792A EQ PUSH3 0x103 JUMPI DUP1 PUSH4 0x3CCFD60B EQ PUSH3 0x133 JUMPI DUP1 PUSH4 0x3CDB9762 EQ PUSH3 0x13F JUMPI JUMPDEST PUSH1 0x0 DUP1 REVERT JUMPDEST CALLVALUE DUP1 ISZERO PUSH3 0x110 JUMPI PUSH1 0x0 DUP1 REVERT JUMPDEST POP PUSH3 0x11B PUSH3 0x44B JUMP JUMPDEST PUSH1 0x40 MLOAD PUSH3 0x12A SWAP2 SWAP1 PUSH3 0x276A JUMP JUMPDEST PUSH1 0x40 MLOAD DUP1 SWAP2 SUB SWAP1 RETURN JUMPDEST PUSH3 0x13D PUSH3 0x52E JUMP JUMPDEST STOP JUMPDEST CALLVALUE DUP1 ISZERO PUSH3 0x14C JUMPI PUSH1 0x0 DUP1 REVERT JUMPDEST POP PUSH3 0x16B PUSH1 0x4 DUP1 CALLDATASIZE SUB DUP2 ADD SWAP1 PUSH3 0x165 SWAP2 SWAP1 PUSH3 0x22F4 JUMP JUMPDEST PUSH3 0x5F6 JUMP JUMPDEST PUSH1 0x40 MLOAD PUSH3 0x17A SWAP2 SWAP1 PUSH3 0x2872 JUMP JUMPDEST PUSH1 0x40 MLOAD DUP1 SWAP2 SUB SWAP1 RETURN JUMPDEST CALLVALUE DUP1 ISZERO PUSH3 0x190 JUMPI PUSH1 0x0 DUP1 REVERT JUMPDEST POP PUSH3 0x19B PUSH3 0x712 JUMP JUMPDEST PUSH1 0x40 MLOAD PUSH3 0x1AA SWAP2 SWAP1 PUSH3 0x2872 JUMP JUMPDEST PUSH1 0x40 MLOAD DUP1 SWAP2 SUB SWAP1 RETURN JUMPDEST CALLVALUE DUP1 ISZERO PUSH3 0x1C0 JUMPI PUSH1 0x0 DUP1 REVERT JUMPDEST POP PUSH3 0x1DF PUSH1 0x4 DUP1 CALLDATASIZE SUB DUP2 ADD SWAP1 PUSH3 0x1D9 SWAP2 SWAP1 PUSH3 0x2417 JUMP JUMPDEST PUSH3 0x71C JUMP JUMPDEST PUSH1 0x40 MLOAD PUSH3 0x1EE SWAP2 SWAP1 PUSH3 0x278E JUMP JUMPDEST PUSH1 0x40 MLOAD DUP1 SWAP2 SUB SWAP1 RETURN JUMPDEST CALLVALUE DUP1 ISZERO PUSH3 0x204 JUMPI PUSH1 0x0 DUP1 REVERT JUMPDEST POP PUSH3 0x223 PUSH1 0x4 DUP1 CALLDATASIZE SUB DUP2 ADD SWAP1 PUSH3 0x21D SWAP2 SWAP1 PUSH3 0x22AB JUMP JUMPDEST PUSH3 0x83D JUMP JUMPDEST PUSH1 0x40 MLOAD PUSH3 0x232 SWAP2 SWAP1 PUSH3 0x2872 JUMP JUMPDEST PUSH1 0x40 MLOAD DUP1 SWAP2 SUB SWAP1 RETURN JUMPDEST CALLVALUE DUP1 ISZERO PUSH3 0x248 JUMPI PUSH1 0x0 DUP1 REVERT JUMPDEST POP PUSH3 0x267 PUSH1 0x4 DUP1 CALLDATASIZE SUB DUP2 ADD SWAP1 PUSH3 0x261 SWAP2 SWAP1 PUSH3 0x22AB JUMP JUMPDEST PUSH3 0x8A4 JUMP JUMPDEST PUSH1 0x40 MLOAD PUSH3 0x276 SWAP2 SWAP1 PUSH3 0x2872 JUMP JUMPDEST PUSH1 0x40 MLOAD DUP1 SWAP2 SUB SWAP1 RETURN JUMPDEST PUSH3 0x29D PUSH1 0x4 DUP1 CALLDATASIZE SUB DUP2 ADD SWAP1 PUSH3 0x297 SWAP2 SWAP1 PUSH3 0x22AB JUMP JUMPDEST PUSH3 0x9B2 JUMP JUMPDEST PUSH1 0x40 MLOAD PUSH3 0x2AC SWAP2 SWAP1 PUSH3 0x278E JUMP JUMPDEST PUSH1 0x40 MLOAD DUP1 SWAP2 SUB SWAP1 RETURN JUMPDEST CALLVALUE DUP1 ISZERO PUSH3 0x2C2 JUMPI PUSH1 0x0 DUP1 REVERT JUMPDEST POP PUSH3 0x2E1 PUSH1 0x4 DUP1 CALLDATASIZE SUB DUP2 ADD SWAP1 PUSH3 0x2DB SWAP2 SWAP1 PUSH3 0x21B0 JUMP JUMPDEST PUSH3 0xCA9 JUMP JUMPDEST PUSH1 0x40 MLOAD PUSH3 0x2F0 SWAP2 SWAP1 PUSH3 0x276A JUMP JUMPDEST PUSH1 0x40 MLOAD DUP1 SWAP2 SUB SWAP1 RETURN JUMPDEST CALLVALUE DUP1 ISZERO PUSH3 0x306 JUMPI PUSH1 0x0 DUP1 REVERT JUMPDEST POP PUSH3 0x325 PUSH1 0x4 DUP1 CALLDATASIZE SUB DUP2 ADD SWAP1 PUSH3 0x31F SWAP2 SWAP1 PUSH3 0x21DC JUMP JUMPDEST PUSH3 0xDCB JUMP JUMPDEST PUSH1 0x40 MLOAD PUSH3 0x334 SWAP2 SWAP1 PUSH3 0x276A JUMP JUMPDEST PUSH1 0x40 MLOAD DUP1 SWAP2 SUB SWAP1 RETURN JUMPDEST CALLVALUE DUP1 ISZERO PUSH3 0x34A JUMPI PUSH1 0x0 DUP1 REVERT JUMPDEST POP PUSH3 0x369 PUSH1 0x4 DUP1 CALLDATASIZE SUB DUP2 ADD SWAP1 PUSH3 0x363 SWAP2 SWAP1 PUSH3 0x22F4 JUMP JUMPDEST PUSH3 0x116B JUMP JUMPDEST PUSH1 0x40 MLOAD PUSH3 0x378 SWAP2 SWAP1 PUSH3 0x2872 JUMP JUMPDEST PUSH1 0x40 MLOAD DUP1 SWAP2 SUB SWAP1 RETURN JUMPDEST PUSH3 0x39F PUSH1 0x4 DUP1 CALLDATASIZE SUB DUP2 ADD SWAP1 PUSH3 0x399 SWAP2 SWAP1 PUSH3 0x2417 JUMP JUMPDEST PUSH3 0x12B4 JUMP JUMPDEST PUSH1 0x40 MLOAD PUSH3 0x3AE SWAP2 SWAP1 PUSH3 0x278E JUMP JUMPDEST PUSH1 0x40 MLOAD DUP1 SWAP2 SUB SWAP1 RETURN JUMPDEST CALLVALUE DUP1 ISZERO PUSH3 0x3C4 JUMPI PUSH1 0x0 DUP1 REVERT JUMPDEST POP PUSH3 0x3E3 PUSH1 0x4 DUP1 CALLDATASIZE SUB DUP2 ADD SWAP1 PUSH3 0x3DD SWAP2 SWAP1 PUSH3 0x22AB JUMP JUMPDEST PUSH3 0x15C3 JUMP JUMPDEST PUSH1 0x40 MLOAD PUSH3 0x3F2 SWAP2 SWAP1 PUSH3 0x2872 JUMP JUMPDEST PUSH1 0x40 MLOAD DUP1 SWAP2 SUB SWAP1 RETURN JUMPDEST CALLVALUE DUP1 ISZERO PUSH3 0x408 JUMPI PUSH1 0x0 DUP1 REVERT JUMPDEST POP PUSH3 0x427 PUSH1 0x4 DUP1 CALLDATASIZE SUB DUP2 ADD SWAP1 PUSH3 0x421 SWAP2 SWAP1 PUSH3 0x2352 JUMP JUMPDEST PUSH3 0x162A JUMP JUMPDEST PUSH1 0x40 MLOAD PUSH3 0x436 SWAP2 SWAP1 PUSH3 0x278E JUMP JUMPDEST PUSH1 0x40 MLOAD DUP1 SWAP2 SUB SWAP1 RETURN JUMPDEST PUSH3 0x449 PUSH3 0x1941 JUMP JUMPDEST STOP JUMPDEST PUSH1 0x60 PUSH1 0x7 DUP1 SLOAD DUP1 PUSH1 0x20 MUL PUSH1 0x20 ADD PUSH1 0x40 MLOAD SWAP1 DUP2 ADD PUSH1 0x40 MSTORE DUP1 SWAP3 SWAP2 SWAP1 DUP2 DUP2 MSTORE PUSH1 0x20 ADD PUSH1 0x0 SWAP1 JUMPDEST DUP3 DUP3 LT ISZERO PUSH3 0x525 JUMPI DUP4 DUP3 SWAP1 PUSH1 0x0 MSTORE PUSH1 0x20 PUSH1 0x0 KECCAK256 ADD DUP1 SLOAD PUSH3 0x491 SWAP1 PUSH3 0x2B5B JUMP JUMPDEST DUP1 PUSH1 0x1F ADD PUSH1 0x20 DUP1 SWAP2 DIV MUL PUSH1 0x20 ADD PUSH1 0x40 MLOAD SWAP1 DUP2 ADD PUSH1 0x40 MSTORE DUP1 SWAP3 SWAP2 SWAP1 DUP2 DUP2 MSTORE PUSH1 0x20 ADD DUP3 DUP1 SLOAD PUSH3 0x4BF SWAP1 PUSH3 0x2B5B JUMP JUMPDEST DUP1 ISZERO PUSH3 0x510 JUMPI DUP1 PUSH1 0x1F LT PUSH3 0x4E4 JUMPI PUSH2 0x100 DUP1 DUP4 SLOAD DIV MUL DUP4 MSTORE SWAP2 PUSH1 0x20 ADD SWAP2 PUSH3 0x510 JUMP JUMPDEST DUP3 ADD SWAP2 SWAP1 PUSH1 0x0 MSTORE PUSH1 0x20 PUSH1 0x0 KECCAK256 SWAP1 JUMPDEST DUP2 SLOAD DUP2 MSTORE SWAP1 PUSH1 0x1 ADD SWAP1 PUSH1 0x20 ADD DUP1 DUP4 GT PUSH3 0x4F2 JUMPI DUP3 SWAP1 SUB PUSH1 0x1F AND DUP3 ADD SWAP2 JUMPDEST POP POP POP POP POP DUP2 MSTORE PUSH1 0x20 ADD SWAP1 PUSH1 0x1 ADD SWAP1 PUSH3 0x46F JUMP JUMPDEST POP POP POP POP SWAP1 POP SWAP1 JUMP JUMPDEST PUSH1 0x0 DUP1 SLOAD SWAP1 PUSH2 0x100 EXP SWAP1 DIV PUSH20 0xFFFFFFFFFFFFFFFFFFFFFFFFFFFFFFFFFFFFFFFF AND PUSH20 0xFFFFFFFFFFFFFFFFFFFFFFFFFFFFFFFFFFFFFFFF AND CALLER PUSH20 0xFFFFFFFFFFFFFFFFFFFFFFFFFFFFFFFFFFFFFFFF AND EQ DUP1 PUSH3 0x5D6 JUMPI POP PUSH1 0x1 PUSH1 0x0 SWAP1 SLOAD SWAP1 PUSH2 0x100 EXP SWAP1 DIV PUSH20 0xFFFFFFFFFFFFFFFFFFFFFFFFFFFFFFFFFFFFFFFF AND PUSH20 0xFFFFFFFFFFFFFFFFFFFFFFFFFFFFFFFFFFFFFFFF AND CALLER PUSH20 0xFFFFFFFFFFFFFFFFFFFFFFFFFFFFFFFFFFFFFFFF AND EQ JUMPDEST PUSH3 0x5E0 JUMPI PUSH1 0x0 DUP1 REVERT JUMPDEST PUSH3 0x5EE PUSH1 0x2 SLOAD CALLVALUE PUSH3 0x1A09 JUMP JUMPDEST PUSH1 0x2 DUP2 SWAP1 SSTORE POP JUMP JUMPDEST PUSH1 0x0 PUSH1 0x4 DUP5 DUP5 PUSH1 0x40 MLOAD PUSH3 0x60C SWAP3 SWAP2 SWAP1 PUSH3 0x2650 JUMP JUMPDEST SWAP1 DUP2 MSTORE PUSH1 0x20 ADD PUSH1 0x40 MLOAD DUP1 SWAP2 SUB SWAP1 KECCAK256 PUSH1 0x0 SWAP1 SLOAD SWAP1 PUSH2 0x100 EXP SWAP1 DIV PUSH1 0xFF AND PUSH3 0x632 JUMPI PUSH1 0x0 DUP1 REVERT JUMPDEST PUSH1 0x0 PUSH1 0x5 DUP6 DUP6 PUSH1 0x40 MLOAD PUSH3 0x648 SWAP3 SWAP2 SWAP1 PUSH3 0x2650 JUMP JUMPDEST SWAP1 DUP2 MSTORE PUSH1 0x20 ADD PUSH1 0x40 MLOAD DUP1 SWAP2 SUB SWAP1 KECCAK256 PUSH1 0x0 SWAP1 SLOAD SWAP1 PUSH2 0x100 EXP SWAP1 DIV PUSH20 0xFFFFFFFFFFFFFFFFFFFFFFFFFFFFFFFFFFFFFFFF AND SWAP1 POP DUP1 PUSH20 0xFFFFFFFFFFFFFFFFFFFFFFFFFFFFFFFFFFFFFFFF AND PUSH4 0x70A08231 DUP5 PUSH1 0x40 MLOAD DUP3 PUSH4 0xFFFFFFFF AND PUSH1 0xE0 SHL DUP2 MSTORE PUSH1 0x4 ADD PUSH3 0x6B4 SWAP2 SWAP1 PUSH3 0x2684 JUMP JUMPDEST PUSH1 0x20 PUSH1 0x40 MLOAD DUP1 DUP4 SUB DUP2 DUP7 DUP1 EXTCODESIZE ISZERO DUP1 ISZERO PUSH3 0x6CD JUMPI PUSH1 0x0 DUP1 REVERT JUMPDEST POP GAS STATICCALL ISZERO DUP1 ISZERO PUSH3 0x6E2 JUMPI RETURNDATASIZE PUSH1 0x0 DUP1 RETURNDATACOPY RETURNDATASIZE PUSH1 0x0 REVERT JUMPDEST POP POP POP POP PUSH1 0x40 MLOAD RETURNDATASIZE PUSH1 0x1F NOT PUSH1 0x1F DUP3 ADD AND DUP3 ADD DUP1 PUSH1 0x40 MSTORE POP DUP2 ADD SWAP1 PUSH3 0x708 SWAP2 SWAP1 PUSH3 0x2475 JUMP JUMPDEST SWAP2 POP POP SWAP4 SWAP3 POP POP POP JUMP JUMPDEST PUSH1 0x0 PUSH1 0x2 SLOAD SWAP1 POP SWAP1 JUMP JUMPDEST PUSH1 0x0 DUP1 PUSH1 0x0 SWAP1 SLOAD SWAP1 PUSH2 0x100 EXP SWAP1 DIV PUSH20 0xFFFFFFFFFFFFFFFFFFFFFFFFFFFFFFFFFFFFFFFF AND PUSH20 0xFFFFFFFFFFFFFFFFFFFFFFFFFFFFFFFFFFFFFFFF AND CALLER PUSH20 0xFFFFFFFFFFFFFFFFFFFFFFFFFFFFFFFFFFFFFFFF AND EQ DUP1 PUSH3 0x7C7 JUMPI POP PUSH1 0x1 PUSH1 0x0 SWAP1 SLOAD SWAP1 PUSH2 0x100 EXP SWAP1 DIV PUSH20 0xFFFFFFFFFFFFFFFFFFFFFFFFFFFFFFFFFFFFFFFF AND PUSH20 0xFFFFFFFFFFFFFFFFFFFFFFFFFFFFFFFFFFFFFFFF AND CALLER PUSH20 0xFFFFFFFFFFFFFFFFFFFFFFFFFFFFFFFFFFFFFFFF AND EQ JUMPDEST PUSH3 0x7D1 JUMPI PUSH1 0x0 DUP1 REVERT JUMPDEST PUSH1 0x4 DUP5 DUP5 PUSH1 0x40 MLOAD PUSH3 0x7E5 SWAP3 SWAP2 SWAP1 PUSH3 0x2650 JUMP JUMPDEST SWAP1 DUP2 MSTORE PUSH1 0x20 ADD PUSH1 0x40 MLOAD DUP1 SWAP2 SUB SWAP1 KECCAK256 PUSH1 0x0 SWAP1 SLOAD SWAP1 PUSH2 0x100 EXP SWAP1 DIV PUSH1 0xFF AND PUSH3 0x80B JUMPI PUSH1 0x0 DUP1 REVERT JUMPDEST DUP2 PUSH1 0x3 DUP6 DUP6 PUSH1 0x40 MLOAD PUSH3 0x820 SWAP3 SWAP2 SWAP1 PUSH3 0x2650 JUMP JUMPDEST SWAP1 DUP2 MSTORE PUSH1 0x20 ADD PUSH1 0x40 MLOAD DUP1 SWAP2 SUB SWAP1 KECCAK256 DUP2 SWAP1 SSTORE POP PUSH1 0x1 SWAP1 POP SWAP4 SWAP3 POP POP POP JUMP JUMPDEST PUSH1 0x0 PUSH1 0x4 DUP4 DUP4 PUSH1 0x40 MLOAD PUSH3 0x853 SWAP3 SWAP2 SWAP1 PUSH3 0x2650 JUMP JUMPDEST SWAP1 DUP2 MSTORE PUSH1 0x20 ADD PUSH1 0x40 MLOAD DUP1 SWAP2 SUB SWAP1 KECCAK256 PUSH1 0x0 SWAP1 SLOAD SWAP1 PUSH2 0x100 EXP SWAP1 DIV PUSH1 0xFF AND PUSH3 0x879 JUMPI PUSH1 0x0 DUP1 REVERT JUMPDEST PUSH1 0x3 DUP4 DUP4 PUSH1 0x40 MLOAD PUSH3 0x88D SWAP3 SWAP2 SWAP1 PUSH3 0x2650 JUMP JUMPDEST SWAP1 DUP2 MSTORE PUSH1 0x20 ADD PUSH1 0x40 MLOAD DUP1 SWAP2 SUB SWAP1 KECCAK256 SLOAD SWAP1 POP SWAP3 SWAP2 POP POP JUMP JUMPDEST PUSH1 0x0 PUSH1 0x4 DUP4 DUP4 PUSH1 0x40 MLOAD PUSH3 0x8BA SWAP3 SWAP2 SWAP1 PUSH3 0x2650 JUMP JUMPDEST SWAP1 DUP2 MSTORE PUSH1 0x20 ADD PUSH1 0x40 MLOAD DUP1 SWAP2 SUB SWAP1 KECCAK256 PUSH1 0x0 SWAP1 SLOAD SWAP1 PUSH2 0x100 EXP SWAP1 DIV PUSH1 0xFF AND PUSH3 0x8E0 JUMPI PUSH1 0x0 DUP1 REVERT JUMPDEST PUSH1 0x0 PUSH1 0x5 DUP5 DUP5 PUSH1 0x40 MLOAD PUSH3 0x8F6 SWAP3 SWAP2 SWAP1 PUSH3 0x2650 JUMP JUMPDEST SWAP1 DUP2 MSTORE PUSH1 0x20 ADD PUSH1 0x40 MLOAD DUP1 SWAP2 SUB SWAP1 KECCAK256 PUSH1 0x0 SWAP1 SLOAD SWAP1 PUSH2 0x100 EXP SWAP1 DIV PUSH20 0xFFFFFFFFFFFFFFFFFFFFFFFFFFFFFFFFFFFFFFFF AND SWAP1 POP DUP1 PUSH20 0xFFFFFFFFFFFFFFFFFFFFFFFFFFFFFFFFFFFFFFFF AND PUSH4 0x18160DDD PUSH1 0x40 MLOAD DUP2 PUSH4 0xFFFFFFFF AND PUSH1 0xE0 SHL DUP2 MSTORE PUSH1 0x4 ADD PUSH1 0x20 PUSH1 0x40 MLOAD DUP1 DUP4 SUB DUP2 DUP7 DUP1 EXTCODESIZE ISZERO DUP1 ISZERO PUSH3 0x96E JUMPI PUSH1 0x0 DUP1 REVERT JUMPDEST POP GAS STATICCALL ISZERO DUP1 ISZERO PUSH3 0x983 JUMPI RETURNDATASIZE PUSH1 0x0 DUP1 RETURNDATACOPY RETURNDATASIZE PUSH1 0x0 REVERT JUMPDEST POP POP POP POP PUSH1 0x40 MLOAD RETURNDATASIZE PUSH1 0x1F NOT PUSH1 0x1F DUP3 ADD AND DUP3 ADD DUP1 PUSH1 0x40 MSTORE POP DUP2 ADD SWAP1 PUSH3 0x9A9 SWAP2 SWAP1 PUSH3 0x2475 JUMP JUMPDEST SWAP2 POP POP SWAP3 SWAP2 POP POP JUMP JUMPDEST PUSH1 0x0 PUSH1 0x4 DUP4 DUP4 PUSH1 0x40 MLOAD PUSH3 0x9C8 SWAP3 SWAP2 SWAP1 PUSH3 0x2650 JUMP JUMPDEST SWAP1 DUP2 MSTORE PUSH1 0x20 ADD PUSH1 0x40 MLOAD DUP1 SWAP2 SUB SWAP1 KECCAK256 PUSH1 0x0 SWAP1 SLOAD SWAP1 PUSH2 0x100 EXP SWAP1 DIV PUSH1 0xFF AND PUSH3 0x9EE JUMPI PUSH1 0x0 DUP1 REVERT JUMPDEST PUSH1 0x0 PUSH1 0x5 DUP5 DUP5 PUSH1 0x40 MLOAD PUSH3 0xA04 SWAP3 SWAP2 SWAP1 PUSH3 0x2650 JUMP JUMPDEST SWAP1 DUP2 MSTORE PUSH1 0x20 ADD PUSH1 0x40 MLOAD DUP1 SWAP2 SUB SWAP1 KECCAK256 PUSH1 0x0 SWAP1 SLOAD SWAP1 PUSH2 0x100 EXP SWAP1 DIV PUSH20 0xFFFFFFFFFFFFFFFFFFFFFFFFFFFFFFFFFFFFFFFF AND SWAP1 POP PUSH1 0x0 PUSH1 0x3 DUP6 DUP6 PUSH1 0x40 MLOAD PUSH3 0xA4B SWAP3 SWAP2 SWAP1 PUSH3 0x2650 JUMP JUMPDEST SWAP1 DUP2 MSTORE PUSH1 0x20 ADD PUSH1 0x40 MLOAD DUP1 SWAP2 SUB SWAP1 KECCAK256 SLOAD SWAP1 POP PUSH1 0x0 PUSH1 0xA SLOAD PUSH1 0x64 PUSH3 0xA6F SWAP2 SWAP1 PUSH3 0x298E JUMP JUMPDEST SWAP1 POP PUSH1 0x0 PUSH1 0x64 PUSH3 0xA81 DUP4 DUP6 PUSH3 0x1A21 JUMP JUMPDEST PUSH3 0xA8D SWAP2 SWAP1 PUSH3 0x29EB JUMP JUMPDEST SWAP1 POP PUSH1 0x0 DUP2 CALLVALUE PUSH3 0xA9F SWAP2 SWAP1 PUSH3 0x29EB JUMP JUMPDEST SWAP1 POP DUP2 CALLVALUE LT ISZERO PUSH3 0xAAF JUMPI PUSH1 0x0 DUP1 REVERT JUMPDEST PUSH1 0x0 PUSH1 0x1 SWAP1 POP DUP1 DUP1 ISZERO PUSH3 0xB54 JUMPI POP DUP6 PUSH20 0xFFFFFFFFFFFFFFFFFFFFFFFFFFFFFFFFFFFFFFFF AND PUSH4 0x23B872DD ADDRESS CALLER DUP6 PUSH1 0x40 MLOAD DUP5 PUSH4 0xFFFFFFFF AND PUSH1 0xE0 SHL DUP2 MSTORE PUSH1 0x4 ADD PUSH3 0xAFD SWAP4 SWAP3 SWAP2 SWAP1 PUSH3 0x26A1 JUMP JUMPDEST PUSH1 0x20 PUSH1 0x40 MLOAD DUP1 DUP4 SUB DUP2 PUSH1 0x0 DUP8 DUP1 EXTCODESIZE ISZERO DUP1 ISZERO PUSH3 0xB18 JUMPI PUSH1 0x0 DUP1 REVERT JUMPDEST POP GAS CALL ISZERO DUP1 ISZERO PUSH3 0xB2D JUMPI RETURNDATASIZE PUSH1 0x0 DUP1 RETURNDATACOPY RETURNDATASIZE PUSH1 0x0 REVERT JUMPDEST POP POP POP POP PUSH1 0x40 MLOAD RETURNDATASIZE PUSH1 0x1F NOT PUSH1 0x1F DUP3 ADD AND DUP3 ADD DUP1 PUSH1 0x40 MSTORE POP DUP2 ADD SWAP1 PUSH3 0xB53 SWAP2 SWAP1 PUSH3 0x227F JUMP JUMPDEST JUMPDEST SWAP1 POP PUSH32 0x40F5583AE6965366E0ACFA8DC48C165ED2FCE35C84DE4966619B6E42E4D5F4C8 CALLER DUP11 DUP11 DUP9 DUP7 PUSH1 0x40 MLOAD PUSH3 0xB8F SWAP6 SWAP5 SWAP4 SWAP3 SWAP2 SWAP1 PUSH3 0x2714 JUMP JUMPDEST PUSH1 0x40 MLOAD DUP1 SWAP2 SUB SWAP1 LOG1 ADDRESS PUSH20 0xFFFFFFFFFFFFFFFFFFFFFFFFFFFFFFFFFFFFFFFF AND PUSH4 0x6D7DFEA7 CALLER DUP12 DUP12 PUSH1 0x40 MLOAD DUP5 PUSH4 0xFFFFFFFF AND PUSH1 0xE0 SHL DUP2 MSTORE PUSH1 0x4 ADD PUSH3 0xBD6 SWAP4 SWAP3 SWAP2 SWAP1 PUSH3 0x26DE JUMP JUMPDEST PUSH1 0x0 PUSH1 0x40 MLOAD DUP1 DUP4 SUB DUP2 PUSH1 0x0 DUP8 DUP1 EXTCODESIZE ISZERO DUP1 ISZERO PUSH3 0xBF1 JUMPI PUSH1 0x0 DUP1 REVERT JUMPDEST POP GAS CALL ISZERO DUP1 ISZERO PUSH3 0xC06 JUMPI RETURNDATASIZE PUSH1 0x0 DUP1 RETURNDATACOPY RETURNDATASIZE PUSH1 0x0 REVERT JUMPDEST POP POP POP POP PUSH1 0x40 MLOAD RETURNDATASIZE PUSH1 0x0 DUP3 RETURNDATACOPY RETURNDATASIZE PUSH1 0x1F NOT PUSH1 0x1F DUP3 ADD AND DUP3 ADD DUP1 PUSH1 0x40 MSTORE POP DUP2 ADD SWAP1 PUSH3 0xC31 SWAP2 SWAP1 PUSH3 0x223A JUMP JUMPDEST PUSH1 0x6 PUSH1 0x0 CALLER PUSH20 0xFFFFFFFFFFFFFFFFFFFFFFFFFFFFFFFFFFFFFFFF AND PUSH20 0xFFFFFFFFFFFFFFFFFFFFFFFFFFFFFFFFFFFFFFFF AND DUP2 MSTORE PUSH1 0x20 ADD SWAP1 DUP2 MSTORE PUSH1 0x20 ADD PUSH1 0x0 KECCAK256 SWAP1 DUP1 MLOAD SWAP1 PUSH1 0x20 ADD SWAP1 PUSH3 0xC85 SWAP3 SWAP2 SWAP1 PUSH3 0x1DB4 JUMP JUMPDEST POP PUSH3 0xC94 PUSH1 0x2 SLOAD CALLVALUE PUSH3 0x1A39 JUMP JUMPDEST PUSH1 0x2 DUP2 SWAP1 SSTORE POP DUP1 SWAP7 POP POP POP POP POP POP POP SWAP3 SWAP2 POP POP JUMP JUMPDEST PUSH1 0x60 PUSH1 0x6 PUSH1 0x0 DUP4 PUSH20 0xFFFFFFFFFFFFFFFFFFFFFFFFFFFFFFFFFFFFFFFF AND PUSH20 0xFFFFFFFFFFFFFFFFFFFFFFFFFFFFFFFFFFFFFFFF AND DUP2 MSTORE PUSH1 0x20 ADD SWAP1 DUP2 MSTORE PUSH1 0x20 ADD PUSH1 0x0 KECCAK256 DUP1 SLOAD DUP1 PUSH1 0x20 MUL PUSH1 0x20 ADD PUSH1 0x40 MLOAD SWAP1 DUP2 ADD PUSH1 0x40 MSTORE DUP1 SWAP3 SWAP2 SWAP1 DUP2 DUP2 MSTORE PUSH1 0x20 ADD PUSH1 0x0 SWAP1 JUMPDEST DUP3 DUP3 LT ISZERO PUSH3 0xDC0 JUMPI DUP4 DUP3 SWAP1 PUSH1 0x0 MSTORE PUSH1 0x20 PUSH1 0x0 KECCAK256 ADD DUP1 SLOAD PUSH3 0xD2C SWAP1 PUSH3 0x2B5B JUMP JUMPDEST DUP1 PUSH1 0x1F ADD PUSH1 0x20 DUP1 SWAP2 DIV MUL PUSH1 0x20 ADD PUSH1 0x40 MLOAD SWAP1 DUP2 ADD PUSH1 0x40 MSTORE DUP1 SWAP3 SWAP2 SWAP1 DUP2 DUP2 MSTORE PUSH1 0x20 ADD DUP3 DUP1 SLOAD PUSH3 0xD5A SWAP1 PUSH3 0x2B5B JUMP JUMPDEST DUP1 ISZERO PUSH3 0xDAB JUMPI DUP1 PUSH1 0x1F LT PUSH3 0xD7F JUMPI PUSH2 0x100 DUP1 DUP4 SLOAD DIV MUL DUP4 MSTORE SWAP2 PUSH1 0x20 ADD SWAP2 PUSH3 0xDAB JUMP JUMPDEST DUP3 ADD SWAP2 SWAP1 PUSH1 0x0 MSTORE PUSH1 0x20 PUSH1 0x0 KECCAK256 SWAP1 JUMPDEST DUP2 SLOAD DUP2 MSTORE SWAP1 PUSH1 0x1 ADD SWAP1 PUSH1 0x20 ADD DUP1 DUP4 GT PUSH3 0xD8D JUMPI DUP3 SWAP1 SUB PUSH1 0x1F AND DUP3 ADD SWAP2 JUMPDEST POP POP POP POP POP DUP2 MSTORE PUSH1 0x20 ADD SWAP1 PUSH1 0x1 ADD SWAP1 PUSH3 0xD0A JUMP JUMPDEST POP POP POP POP SWAP1 POP SWAP2 SWAP1 POP JUMP JUMPDEST PUSH1 0x60 PUSH1 0x0 PUSH1 0x6 PUSH1 0x0 DUP7 PUSH20 0xFFFFFFFFFFFFFFFFFFFFFFFFFFFFFFFFFFFFFFFF AND PUSH20 0xFFFFFFFFFFFFFFFFFFFFFFFFFFFFFFFFFFFFFFFF AND DUP2 MSTORE PUSH1 0x20 ADD SWAP1 DUP2 MSTORE PUSH1 0x20 ADD PUSH1 0x0 KECCAK256 SWAP1 POP PUSH1 0x0 JUMPDEST DUP2 DUP1 SLOAD SWAP1 POP DUP2 LT ISZERO PUSH3 0x1045 JUMPI PUSH3 0xF44 DUP3 DUP3 DUP2 SLOAD DUP2 LT PUSH3 0xE5E JUMPI PUSH32 0x4E487B7100000000000000000000000000000000000000000000000000000000 PUSH1 0x0 MSTORE PUSH1 0x32 PUSH1 0x4 MSTORE PUSH1 0x24 PUSH1 0x0 REVERT JUMPDEST SWAP1 PUSH1 0x0 MSTORE PUSH1 0x20 PUSH1 0x0 KECCAK256 ADD DUP1 SLOAD PUSH3 0xE75 SWAP1 PUSH3 0x2B5B JUMP JUMPDEST DUP1 PUSH1 0x1F ADD PUSH1 0x20 DUP1 SWAP2 DIV MUL PUSH1 0x20 ADD PUSH1 0x40 MLOAD SWAP1 DUP2 ADD PUSH1 0x40 MSTORE DUP1 SWAP3 SWAP2 SWAP1 DUP2 DUP2 MSTORE PUSH1 0x20 ADD DUP3 DUP1 SLOAD PUSH3 0xEA3 SWAP1 PUSH3 0x2B5B JUMP JUMPDEST DUP1 ISZERO PUSH3 0xEF4 JUMPI DUP1 PUSH1 0x1F LT PUSH3 0xEC8 JUMPI PUSH2 0x100 DUP1 DUP4 SLOAD DIV MUL DUP4 MSTORE SWAP2 PUSH1 0x20 ADD SWAP2 PUSH3 0xEF4 JUMP JUMPDEST DUP3 ADD SWAP2 SWAP1 PUSH1 0x0 MSTORE PUSH1 0x20 PUSH1 0x0 KECCAK256 SWAP1 JUMPDEST DUP2 SLOAD DUP2 MSTORE SWAP1 PUSH1 0x1 ADD SWAP1 PUSH1 0x20 ADD DUP1 DUP4 GT PUSH3 0xED6 JUMPI DUP3 SWAP1 SUB PUSH1 0x1F AND DUP3 ADD SWAP2 JUMPDEST POP POP POP POP POP DUP7 DUP7 DUP1 DUP1 PUSH1 0x1F ADD PUSH1 0x20 DUP1 SWAP2 DIV MUL PUSH1 0x20 ADD PUSH1 0x40 MLOAD SWAP1 DUP2 ADD PUSH1 0x40 MSTORE DUP1 SWAP4 SWAP3 SWAP2 SWAP1 DUP2 DUP2 MSTORE PUSH1 0x20 ADD DUP4 DUP4 DUP1 DUP3 DUP5 CALLDATACOPY PUSH1 0x0 DUP2 DUP5 ADD MSTORE PUSH1 0x1F NOT PUSH1 0x1F DUP3 ADD AND SWAP1 POP DUP1 DUP4 ADD SWAP3 POP POP POP POP POP POP POP PUSH3 0x1A51 JUMP JUMPDEST ISZERO PUSH3 0x102F JUMPI DUP2 DUP1 SLOAD DUP1 PUSH1 0x20 MUL PUSH1 0x20 ADD PUSH1 0x40 MLOAD SWAP1 DUP2 ADD PUSH1 0x40 MSTORE DUP1 SWAP3 SWAP2 SWAP1 DUP2 DUP2 MSTORE PUSH1 0x20 ADD PUSH1 0x0 SWAP1 JUMPDEST DUP3 DUP3 LT ISZERO PUSH3 0x1021 JUMPI DUP4 DUP3 SWAP1 PUSH1 0x0 MSTORE PUSH1 0x20 PUSH1 0x0 KECCAK256 ADD DUP1 SLOAD PUSH3 0xF8D SWAP1 PUSH3 0x2B5B JUMP JUMPDEST DUP1 PUSH1 0x1F ADD PUSH1 0x20 DUP1 SWAP2 DIV MUL PUSH1 0x20 ADD PUSH1 0x40 MLOAD SWAP1 DUP2 ADD PUSH1 0x40 MSTORE DUP1 SWAP3 SWAP2 SWAP1 DUP2 DUP2 MSTORE PUSH1 0x20 ADD DUP3 DUP1 SLOAD PUSH3 0xFBB SWAP1 PUSH3 0x2B5B JUMP JUMPDEST DUP1 ISZERO PUSH3 0x100C JUMPI DUP1 PUSH1 0x1F LT PUSH3 0xFE0 JUMPI PUSH2 0x100 DUP1 DUP4 SLOAD DIV MUL DUP4 MSTORE SWAP2 PUSH1 0x20 ADD SWAP2 PUSH3 0x100C JUMP JUMPDEST DUP3 ADD SWAP2 SWAP1 PUSH1 0x0 MSTORE PUSH1 0x20 PUSH1 0x0 KECCAK256 SWAP1 JUMPDEST DUP2 SLOAD DUP2 MSTORE SWAP1 PUSH1 0x1 ADD SWAP1 PUSH1 0x20 ADD DUP1 DUP4 GT PUSH3 0xFEE JUMPI DUP3 SWAP1 SUB PUSH1 0x1F AND DUP3 ADD SWAP2 JUMPDEST POP POP POP POP POP DUP2 MSTORE PUSH1 0x20 ADD SWAP1 PUSH1 0x1 ADD SWAP1 PUSH3 0xF6B JUMP JUMPDEST POP POP POP POP SWAP3 POP POP POP PUSH3 0x1164 JUMP JUMPDEST DUP1 DUP1 PUSH3 0x103C SWAP1 PUSH3 0x2BC7 JUMP JUMPDEST SWAP2 POP POP PUSH3 0xE13 JUMP JUMPDEST POP DUP1 DUP5 DUP5 SWAP1 SWAP2 DUP1 PUSH1 0x1 DUP2 SLOAD ADD DUP1 DUP3 SSTORE DUP1 SWAP2 POP POP PUSH1 0x1 SWAP1 SUB SWAP1 PUSH1 0x0 MSTORE PUSH1 0x20 PUSH1 0x0 KECCAK256 ADD PUSH1 0x0 SWAP1 SWAP2 SWAP3 SWAP1 SWAP2 SWAP3 SWAP1 SWAP2 SWAP3 SWAP1 SWAP2 SWAP3 POP SWAP2 SWAP1 PUSH3 0x1084 SWAP3 SWAP2 SWAP1 PUSH3 0x1E1B JUMP JUMPDEST POP DUP1 DUP1 SLOAD DUP1 PUSH1 0x20 MUL PUSH1 0x20 ADD PUSH1 0x40 MLOAD SWAP1 DUP2 ADD PUSH1 0x40 MSTORE DUP1 SWAP3 SWAP2 SWAP1 DUP2 DUP2 MSTORE PUSH1 0x20 ADD PUSH1 0x0 SWAP1 JUMPDEST DUP3 DUP3 LT ISZERO PUSH3 0x115C JUMPI DUP4 DUP3 SWAP1 PUSH1 0x0 MSTORE PUSH1 0x20 PUSH1 0x0 KECCAK256 ADD DUP1 SLOAD PUSH3 0x10C8 SWAP1 PUSH3 0x2B5B JUMP JUMPDEST DUP1 PUSH1 0x1F ADD PUSH1 0x20 DUP1 SWAP2 DIV MUL PUSH1 0x20 ADD PUSH1 0x40 MLOAD SWAP1 DUP2 ADD PUSH1 0x40 MSTORE DUP1 SWAP3 SWAP2 SWAP1 DUP2 DUP2 MSTORE PUSH1 0x20 ADD DUP3 DUP1 SLOAD PUSH3 0x10F6 SWAP1 PUSH3 0x2B5B JUMP JUMPDEST DUP1 ISZERO PUSH3 0x1147 JUMPI DUP1 PUSH1 0x1F LT PUSH3 0x111B JUMPI PUSH2 0x100 DUP1 DUP4 SLOAD DIV MUL DUP4 MSTORE SWAP2 PUSH1 0x20 ADD SWAP2 PUSH3 0x1147 JUMP JUMPDEST DUP3 ADD SWAP2 SWAP1 PUSH1 0x0 MSTORE PUSH1 0x20 PUSH1 0x0 KECCAK256 SWAP1 JUMPDEST DUP2 SLOAD DUP2 MSTORE SWAP1 PUSH1 0x1 ADD SWAP1 PUSH1 0x20 ADD DUP1 DUP4 GT PUSH3 0x1129 JUMPI DUP3 SWAP1 SUB PUSH1 0x1F AND DUP3 ADD SWAP2 JUMPDEST POP POP POP POP POP DUP2 MSTORE PUSH1 0x20 ADD SWAP1 PUSH1 0x1 ADD SWAP1 PUSH3 0x10A6 JUMP JUMPDEST POP POP POP POP SWAP2 POP POP JUMPDEST SWAP4 SWAP3 POP POP POP JUMP JUMPDEST PUSH1 0x0 PUSH1 0x4 DUP5 DUP5 PUSH1 0x40 MLOAD PUSH3 0x1181 SWAP3 SWAP2 SWAP1 PUSH3 0x2650 JUMP JUMPDEST SWAP1 DUP2 MSTORE PUSH1 0x20 ADD PUSH1 0x40 MLOAD DUP1 SWAP2 SUB SWAP1 KECCAK256 PUSH1 0x0 SWAP1 SLOAD SWAP1 PUSH2 0x100 EXP SWAP1 DIV PUSH1 0xFF AND PUSH3 0x11A7 JUMPI PUSH1 0x0 DUP1 REVERT JUMPDEST PUSH1 0x0 PUSH1 0x5 DUP6 DUP6 PUSH1 0x40 MLOAD PUSH3 0x11BD SWAP3 SWAP2 SWAP1 PUSH3 0x2650 JUMP JUMPDEST SWAP1 DUP2 MSTORE PUSH1 0x20 ADD PUSH1 0x40 MLOAD DUP1 SWAP2 SUB SWAP1 KECCAK256 PUSH1 0x0 SWAP1 SLOAD SWAP1 PUSH2 0x100 EXP SWAP1 DIV PUSH20 0xFFFFFFFFFFFFFFFFFFFFFFFFFFFFFFFFFFFFFFFF AND SWAP1 POP PUSH3 0x12AA DUP2 PUSH20 0xFFFFFFFFFFFFFFFFFFFFFFFFFFFFFFFFFFFFFFFF AND PUSH4 0x70A08231 DUP6 PUSH1 0x40 MLOAD DUP3 PUSH4 0xFFFFFFFF AND PUSH1 0xE0 SHL DUP2 MSTORE PUSH1 0x4 ADD PUSH3 0x122D SWAP2 SWAP1 PUSH3 0x2684 JUMP JUMPDEST PUSH1 0x20 PUSH1 0x40 MLOAD DUP1 DUP4 SUB DUP2 DUP7 DUP1 EXTCODESIZE ISZERO DUP1 ISZERO PUSH3 0x1246 JUMPI PUSH1 0x0 DUP1 REVERT JUMPDEST POP GAS STATICCALL ISZERO DUP1 ISZERO PUSH3 0x125B JUMPI RETURNDATASIZE PUSH1 0x0 DUP1 RETURNDATACOPY RETURNDATASIZE PUSH1 0x0 REVERT JUMPDEST POP POP POP POP PUSH1 0x40 MLOAD RETURNDATASIZE PUSH1 0x1F NOT PUSH1 0x1F DUP3 ADD AND DUP3 ADD DUP1 PUSH1 0x40 MSTORE POP DUP2 ADD SWAP1 PUSH3 0x1281 SWAP2 SWAP1 PUSH3 0x2475 JUMP JUMPDEST PUSH1 0x3 DUP8 DUP8 PUSH1 0x40 MLOAD PUSH3 0x1295 SWAP3 SWAP2 SWAP1 PUSH3 0x2650 JUMP JUMPDEST SWAP1 DUP2 MSTORE PUSH1 0x20 ADD PUSH1 0x40 MLOAD DUP1 SWAP2 SUB SWAP1 KECCAK256 SLOAD PUSH3 0x1A21 JUMP JUMPDEST SWAP2 POP POP SWAP4 SWAP3 POP POP POP JUMP JUMPDEST PUSH1 0x0 DUP1 PUSH1 0x5 DUP6 DUP6 PUSH1 0x40 MLOAD PUSH3 0x12CB SWAP3 SWAP2 SWAP1 PUSH3 0x2650 JUMP JUMPDEST SWAP1 DUP2 MSTORE PUSH1 0x20 ADD PUSH1 0x40 MLOAD DUP1 SWAP2 SUB SWAP1 KECCAK256 PUSH1 0x0 SWAP1 SLOAD SWAP1 PUSH2 0x100 EXP SWAP1 DIV PUSH20 0xFFFFFFFFFFFFFFFFFFFFFFFFFFFFFFFFFFFFFFFF AND SWAP1 POP PUSH1 0x0 PUSH1 0x3 DUP7 DUP7 PUSH1 0x40 MLOAD PUSH3 0x1312 SWAP3 SWAP2 SWAP1 PUSH3 0x2650 JUMP JUMPDEST SWAP1 DUP2 MSTORE PUSH1 0x20 ADD PUSH1 0x40 MLOAD DUP1 SWAP2 SUB SWAP1 KECCAK256 SLOAD SWAP1 POP PUSH1 0x0 PUSH1 0x64 SWAP1 POP PUSH1 0x0 PUSH1 0xA SLOAD PUSH1 0x64 PUSH3 0x133C SWAP2 SWAP1 PUSH3 0x298E JUMP JUMPDEST PUSH3 0x1348 DUP4 DUP6 PUSH3 0x1A21 JUMP JUMPDEST PUSH3 0x1354 SWAP2 SWAP1 PUSH3 0x29EB JUMP JUMPDEST SWAP1 POP PUSH1 0x0 DUP5 PUSH20 0xFFFFFFFFFFFFFFFFFFFFFFFFFFFFFFFFFFFFFFFF AND PUSH4 0x70A08231 CALLER PUSH1 0x40 MLOAD DUP3 PUSH4 0xFFFFFFFF AND PUSH1 0xE0 SHL DUP2 MSTORE PUSH1 0x4 ADD PUSH3 0x1393 SWAP2 SWAP1 PUSH3 0x2684 JUMP JUMPDEST PUSH1 0x20 PUSH1 0x40 MLOAD DUP1 DUP4 SUB DUP2 DUP7 DUP1 EXTCODESIZE ISZERO DUP1 ISZERO PUSH3 0x13AC JUMPI PUSH1 0x0 DUP1 REVERT JUMPDEST POP GAS STATICCALL ISZERO DUP1 ISZERO PUSH3 0x13C1 JUMPI RETURNDATASIZE PUSH1 0x0 DUP1 RETURNDATACOPY RETURNDATASIZE PUSH1 0x0 REVERT JUMPDEST POP POP POP POP PUSH1 0x40 MLOAD RETURNDATASIZE PUSH1 0x1F NOT PUSH1 0x1F DUP3 ADD AND DUP3 ADD DUP1 PUSH1 0x40 MSTORE POP DUP2 ADD SWAP1 PUSH3 0x13E7 SWAP2 SWAP1 PUSH3 0x2475 JUMP JUMPDEST SWAP1 POP DUP7 DUP2 LT ISZERO PUSH3 0x13F7 JUMPI PUSH1 0x0 DUP1 REVERT JUMPDEST PUSH1 0x0 PUSH3 0x1405 DUP4 DUP10 PUSH3 0x1A21 JUMP JUMPDEST SWAP1 POP DUP1 PUSH1 0x2 SLOAD LT ISZERO PUSH3 0x1417 JUMPI PUSH1 0x0 DUP1 REVERT JUMPDEST DUP6 PUSH20 0xFFFFFFFFFFFFFFFFFFFFFFFFFFFFFFFFFFFFFFFF AND PUSH4 0x23B872DD CALLER ADDRESS DUP12 PUSH1 0x40 MLOAD DUP5 PUSH4 0xFFFFFFFF AND PUSH1 0xE0 SHL DUP2 MSTORE PUSH1 0x4 ADD PUSH3 0x1456 SWAP4 SWAP3 SWAP2 SWAP1 PUSH3 0x26A1 JUMP JUMPDEST PUSH1 0x20 PUSH1 0x40 MLOAD DUP1 DUP4 SUB DUP2 PUSH1 0x0 DUP8 DUP1 EXTCODESIZE ISZERO DUP1 ISZERO PUSH3 0x1471 JUMPI PUSH1 0x0 DUP1 REVERT JUMPDEST POP GAS CALL ISZERO DUP1 ISZERO PUSH3 0x1486 JUMPI RETURNDATASIZE PUSH1 0x0 DUP1 RETURNDATACOPY RETURNDATASIZE PUSH1 0x0 REVERT JUMPDEST POP POP POP POP PUSH1 0x40 MLOAD RETURNDATASIZE PUSH1 0x1F NOT PUSH1 0x1F DUP3 ADD AND DUP3 ADD DUP1 PUSH1 0x40 MSTORE POP DUP2 ADD SWAP1 PUSH3 0x14AC SWAP2 SWAP1 PUSH3 0x227F JUMP JUMPDEST POP CALLER PUSH20 0xFFFFFFFFFFFFFFFFFFFFFFFFFFFFFFFFFFFFFFFF AND PUSH2 0x8FC DUP3 SWAP1 DUP2 ISZERO MUL SWAP1 PUSH1 0x40 MLOAD PUSH1 0x0 PUSH1 0x40 MLOAD DUP1 DUP4 SUB DUP2 DUP6 DUP9 DUP9 CALL SWAP4 POP POP POP POP ISZERO DUP1 ISZERO PUSH3 0x14F4 JUMPI RETURNDATASIZE PUSH1 0x0 DUP1 RETURNDATACOPY RETURNDATASIZE PUSH1 0x0 REVERT JUMPDEST POP PUSH1 0x0 DUP9 DUP4 PUSH3 0x1505 SWAP2 SWAP1 PUSH3 0x2A84 JUMP JUMPDEST EQ ISZERO PUSH3 0x155D JUMPI PUSH3 0x155C CALLER DUP12 DUP12 DUP1 DUP1 PUSH1 0x1F ADD PUSH1 0x20 DUP1 SWAP2 DIV MUL PUSH1 0x20 ADD PUSH1 0x40 MLOAD SWAP1 DUP2 ADD PUSH1 0x40 MSTORE DUP1 SWAP4 SWAP3 SWAP2 SWAP1 DUP2 DUP2 MSTORE PUSH1 0x20 ADD DUP4 DUP4 DUP1 DUP3 DUP5 CALLDATACOPY PUSH1 0x0 DUP2 DUP5 ADD MSTORE PUSH1 0x1F NOT PUSH1 0x1F DUP3 ADD AND SWAP1 POP DUP1 DUP4 ADD SWAP3 POP POP POP POP POP POP POP PUSH3 0x1AAE JUMP JUMPDEST JUMPDEST PUSH32 0x49F57F92FE331C8352BC57011DD480B77F5DADAF815D7D9A33FAE03E4ACC349 CALLER DUP12 DUP12 DUP9 DUP13 PUSH1 0x40 MLOAD PUSH3 0x1596 SWAP6 SWAP5 SWAP4 SWAP3 SWAP2 SWAP1 PUSH3 0x2714 JUMP JUMPDEST PUSH1 0x40 MLOAD DUP1 SWAP2 SUB SWAP1 LOG1 PUSH3 0x15AC PUSH1 0x2 SLOAD CALLVALUE PUSH3 0x1A09 JUMP JUMPDEST PUSH1 0x2 DUP2 SWAP1 SSTORE POP PUSH1 0x1 SWAP7 POP POP POP POP POP POP POP SWAP4 SWAP3 POP POP POP JUMP JUMPDEST PUSH1 0x0 DUP1 PUSH1 0x3 DUP5 DUP5 PUSH1 0x40 MLOAD PUSH3 0x15DA SWAP3 SWAP2 SWAP1 PUSH3 0x2650 JUMP JUMPDEST SWAP1 DUP2 MSTORE PUSH1 0x20 ADD PUSH1 0x40 MLOAD DUP1 SWAP2 SUB SWAP1 KECCAK256 SLOAD SWAP1 POP PUSH1 0x0 PUSH1 0x64 PUSH1 0xA SLOAD PUSH1 0x64 PUSH3 0x1600 SWAP2 SWAP1 PUSH3 0x298E JUMP JUMPDEST PUSH3 0x160C SWAP2 SWAP1 PUSH3 0x29EB JUMP JUMPDEST SWAP1 POP PUSH1 0x0 PUSH3 0x161C DUP3 DUP5 PUSH3 0x1A21 JUMP JUMPDEST SWAP1 POP DUP1 SWAP4 POP POP POP POP SWAP3 SWAP2 POP POP JUMP JUMPDEST PUSH1 0x0 DUP1 PUSH1 0x0 SWAP1 SLOAD SWAP1 PUSH2 0x100 EXP SWAP1 DIV PUSH20 0xFFFFFFFFFFFFFFFFFFFFFFFFFFFFFFFFFFFFFFFF AND PUSH20 0xFFFFFFFFFFFFFFFFFFFFFFFFFFFFFFFFFFFFFFFF AND CALLER PUSH20 0xFFFFFFFFFFFFFFFFFFFFFFFFFFFFFFFFFFFFFFFF AND EQ DUP1 PUSH3 0x16D5 JUMPI POP PUSH1 0x1 PUSH1 0x0 SWAP1 SLOAD SWAP1 PUSH2 0x100 EXP SWAP1 DIV PUSH20 0xFFFFFFFFFFFFFFFFFFFFFFFFFFFFFFFFFFFFFFFF AND PUSH20 0xFFFFFFFFFFFFFFFFFFFFFFFFFFFFFFFFFFFFFFFF AND CALLER PUSH20 0xFFFFFFFFFFFFFFFFFFFFFFFFFFFFFFFFFFFFFFFF AND EQ JUMPDEST PUSH3 0x16DF JUMPI PUSH1 0x0 DUP1 REVERT JUMPDEST PUSH1 0x4 DUP9 DUP9 PUSH1 0x40 MLOAD PUSH3 0x16F3 SWAP3 SWAP2 SWAP1 PUSH3 0x2650 JUMP JUMPDEST SWAP1 DUP2 MSTORE PUSH1 0x20 ADD PUSH1 0x40 MLOAD DUP1 SWAP2 SUB SWAP1 KECCAK256 PUSH1 0x0 SWAP1 SLOAD SWAP1 PUSH2 0x100 EXP SWAP1 DIV PUSH1 0xFF AND ISZERO PUSH3 0x171A JUMPI PUSH1 0x0 DUP1 REVERT JUMPDEST DUP6 DUP6 DUP6 DUP6 PUSH1 0x8 SLOAD PUSH1 0x9 PUSH1 0x0 SWAP1 SLOAD SWAP1 PUSH2 0x100 EXP SWAP1 DIV PUSH1 0xFF AND PUSH1 0x40 MLOAD PUSH3 0x173F SWAP1 PUSH3 0x1EAC JUMP JUMPDEST PUSH3 0x1750 SWAP7 SWAP6 SWAP5 SWAP4 SWAP3 SWAP2 SWAP1 PUSH3 0x2813 JUMP JUMPDEST PUSH1 0x40 MLOAD DUP1 SWAP2 SUB SWAP1 PUSH1 0x0 CREATE DUP1 ISZERO DUP1 ISZERO PUSH3 0x176D JUMPI RETURNDATASIZE PUSH1 0x0 DUP1 RETURNDATACOPY RETURNDATASIZE PUSH1 0x0 REVERT JUMPDEST POP PUSH1 0x5 DUP10 DUP10 PUSH1 0x40 MLOAD PUSH3 0x1782 SWAP3 SWAP2 SWAP1 PUSH3 0x2650 JUMP JUMPDEST SWAP1 DUP2 MSTORE PUSH1 0x20 ADD PUSH1 0x40 MLOAD DUP1 SWAP2 SUB SWAP1 KECCAK256 PUSH1 0x0 PUSH2 0x100 EXP DUP2 SLOAD DUP2 PUSH20 0xFFFFFFFFFFFFFFFFFFFFFFFFFFFFFFFFFFFFFFFF MUL NOT AND SWAP1 DUP4 PUSH20 0xFFFFFFFFFFFFFFFFFFFFFFFFFFFFFFFFFFFFFFFF AND MUL OR SWAP1 SSTORE POP PUSH1 0x7 DUP9 DUP9 SWAP1 SWAP2 DUP1 PUSH1 0x1 DUP2 SLOAD ADD DUP1 DUP3 SSTORE DUP1 SWAP2 POP POP PUSH1 0x1 SWAP1 SUB SWAP1 PUSH1 0x0 MSTORE PUSH1 0x20 PUSH1 0x0 KECCAK256 ADD PUSH1 0x0 SWAP1 SWAP2 SWAP3 SWAP1 SWAP2 SWAP3 SWAP1 SWAP2 SWAP3 SWAP1 SWAP2 SWAP3 POP SWAP2 SWAP1 PUSH3 0x180D SWAP3 SWAP2 SWAP1 PUSH3 0x1E1B JUMP JUMPDEST POP PUSH1 0x1 PUSH1 0x4 DUP10 DUP10 PUSH1 0x40 MLOAD PUSH3 0x1824 SWAP3 SWAP2 SWAP1 PUSH3 0x2650 JUMP JUMPDEST SWAP1 DUP2 MSTORE PUSH1 0x20 ADD PUSH1 0x40 MLOAD DUP1 SWAP2 SUB SWAP1 KECCAK256 PUSH1 0x0 PUSH2 0x100 EXP DUP2 SLOAD DUP2 PUSH1 0xFF MUL NOT AND SWAP1 DUP4 ISZERO ISZERO MUL OR SWAP1 SSTORE POP DUP2 PUSH1 0x3 DUP10 DUP10 PUSH1 0x40 MLOAD PUSH3 0x185E SWAP3 SWAP2 SWAP1 PUSH3 0x2650 JUMP JUMPDEST SWAP1 DUP2 MSTORE PUSH1 0x20 ADD PUSH1 0x40 MLOAD DUP1 SWAP2 SUB SWAP1 KECCAK256 DUP2 SWAP1 SSTORE POP PUSH1 0x6 PUSH1 0x0 CALLER PUSH20 0xFFFFFFFFFFFFFFFFFFFFFFFFFFFFFFFFFFFFFFFF AND PUSH20 0xFFFFFFFFFFFFFFFFFFFFFFFFFFFFFFFFFFFFFFFF AND DUP2 MSTORE PUSH1 0x20 ADD SWAP1 DUP2 MSTORE PUSH1 0x20 ADD PUSH1 0x0 KECCAK256 DUP9 DUP9 SWAP1 SWAP2 DUP1 PUSH1 0x1 DUP2 SLOAD ADD DUP1 DUP3 SSTORE DUP1 SWAP2 POP POP PUSH1 0x1 SWAP1 SUB SWAP1 PUSH1 0x0 MSTORE PUSH1 0x20 PUSH1 0x0 KECCAK256 ADD PUSH1 0x0 SWAP1 SWAP2 SWAP3 SWAP1 SWAP2 SWAP3 SWAP1 SWAP2 SWAP3 SWAP1 SWAP2 SWAP3 POP SWAP2 SWAP1 PUSH3 0x18EC SWAP3 SWAP2 SWAP1 PUSH3 0x1E1B JUMP JUMPDEST POP PUSH32 0xFCF04FF5A22C65B961750682425EF5A539C0788E5A0CDE8D1D431A5DA637134 DUP9 DUP9 DUP9 DUP9 DUP9 DUP9 DUP9 PUSH1 0x40 MLOAD PUSH3 0x192A SWAP8 SWAP7 SWAP6 SWAP5 SWAP4 SWAP3 SWAP2 SWAP1 PUSH3 0x27AB JUMP JUMPDEST PUSH1 0x40 MLOAD DUP1 SWAP2 SUB SWAP1 LOG1 PUSH1 0x1 SWAP1 POP SWAP8 SWAP7 POP POP POP POP POP POP POP JUMP JUMPDEST PUSH1 0x0 DUP1 SLOAD SWAP1 PUSH2 0x100 EXP SWAP1 DIV PUSH20 0xFFFFFFFFFFFFFFFFFFFFFFFFFFFFFFFFFFFFFFFF AND PUSH20 0xFFFFFFFFFFFFFFFFFFFFFFFFFFFFFFFFFFFFFFFF AND CALLER PUSH20 0xFFFFFFFFFFFFFFFFFFFFFFFFFFFFFFFFFFFFFFFF AND EQ DUP1 PUSH3 0x19E9 JUMPI POP PUSH1 0x1 PUSH1 0x0 SWAP1 SLOAD SWAP1 PUSH2 0x100 EXP SWAP1 DIV PUSH20 0xFFFFFFFFFFFFFFFFFFFFFFFFFFFFFFFFFFFFFFFF AND PUSH20 0xFFFFFFFFFFFFFFFFFFFFFFFFFFFFFFFFFFFFFFFF AND CALLER PUSH20 0xFFFFFFFFFFFFFFFFFFFFFFFFFFFFFFFFFFFFFFFF AND EQ JUMPDEST PUSH3 0x19F3 JUMPI PUSH1 0x0 DUP1 REVERT JUMPDEST PUSH3 0x1A01 PUSH1 0x2 SLOAD CALLVALUE PUSH3 0x1A39 JUMP JUMPDEST PUSH1 0x2 DUP2 SWAP1 SSTORE POP JUMP JUMPDEST PUSH1 0x0 DUP2 DUP4 PUSH3 0x1A19 SWAP2 SWAP1 PUSH3 0x2A84 JUMP JUMPDEST SWAP1 POP SWAP3 SWAP2 POP POP JUMP JUMPDEST PUSH1 0x0 DUP2 DUP4 PUSH3 0x1A31 SWAP2 SWAP1 PUSH3 0x2A23 JUMP JUMPDEST SWAP1 POP SWAP3 SWAP2 POP POP JUMP JUMPDEST PUSH1 0x0 DUP2 DUP4 PUSH3 0x1A49 SWAP2 SWAP1 PUSH3 0x298E JUMP JUMPDEST SWAP1 POP SWAP3 SWAP2 POP POP JUMP JUMPDEST PUSH1 0x0 DUP2 PUSH1 0x40 MLOAD PUSH1 0x20 ADD PUSH3 0x1A66 SWAP2 SWAP1 PUSH3 0x266B JUMP JUMPDEST PUSH1 0x40 MLOAD PUSH1 0x20 DUP2 DUP4 SUB SUB DUP2 MSTORE SWAP1 PUSH1 0x40 MSTORE DUP1 MLOAD SWAP1 PUSH1 0x20 ADD KECCAK256 DUP4 PUSH1 0x40 MLOAD PUSH1 0x20 ADD PUSH3 0x1A8F SWAP2 SWAP1 PUSH3 0x266B JUMP JUMPDEST PUSH1 0x40 MLOAD PUSH1 0x20 DUP2 DUP4 SUB SUB DUP2 MSTORE SWAP1 PUSH1 0x40 MSTORE DUP1 MLOAD SWAP1 PUSH1 0x20 ADD KECCAK256 EQ SWAP1 POP SWAP3 SWAP2 POP POP JUMP JUMPDEST PUSH1 0x0 PUSH1 0x6 PUSH1 0x0 DUP5 PUSH20 0xFFFFFFFFFFFFFFFFFFFFFFFFFFFFFFFFFFFFFFFF AND PUSH20 0xFFFFFFFFFFFFFFFFFFFFFFFFFFFFFFFFFFFFFFFF AND DUP2 MSTORE PUSH1 0x20 ADD SWAP1 DUP2 MSTORE PUSH1 0x20 ADD PUSH1 0x0 KECCAK256 DUP1 SLOAD DUP1 PUSH1 0x20 MUL PUSH1 0x20 ADD PUSH1 0x40 MLOAD SWAP1 DUP2 ADD PUSH1 0x40 MSTORE DUP1 SWAP3 SWAP2 SWAP1 DUP2 DUP2 MSTORE PUSH1 0x20 ADD PUSH1 0x0 SWAP1 JUMPDEST DUP3 DUP3 LT ISZERO PUSH3 0x1BC5 JUMPI DUP4 DUP3 SWAP1 PUSH1 0x0 MSTORE PUSH1 0x20 PUSH1 0x0 KECCAK256 ADD DUP1 SLOAD PUSH3 0x1B31 SWAP1 PUSH3 0x2B5B JUMP JUMPDEST DUP1 PUSH1 0x1F ADD PUSH1 0x20 DUP1 SWAP2 DIV MUL PUSH1 0x20 ADD PUSH1 0x40 MLOAD SWAP1 DUP2 ADD PUSH1 0x40 MSTORE DUP1 SWAP3 SWAP2 SWAP1 DUP2 DUP2 MSTORE PUSH1 0x20 ADD DUP3 DUP1 SLOAD PUSH3 0x1B5F SWAP1 PUSH3 0x2B5B JUMP JUMPDEST DUP1 ISZERO PUSH3 0x1BB0 JUMPI DUP1 PUSH1 0x1F LT PUSH3 0x1B84 JUMPI PUSH2 0x100 DUP1 DUP4 SLOAD DIV MUL DUP4 MSTORE SWAP2 PUSH1 0x20 ADD SWAP2 PUSH3 0x1BB0 JUMP JUMPDEST DUP3 ADD SWAP2 SWAP1 PUSH1 0x0 MSTORE PUSH1 0x20 PUSH1 0x0 KECCAK256 SWAP1 JUMPDEST DUP2 SLOAD DUP2 MSTORE SWAP1 PUSH1 0x1 ADD SWAP1 PUSH1 0x20 ADD DUP1 DUP4 GT PUSH3 0x1B92 JUMPI DUP3 SWAP1 SUB PUSH1 0x1F AND DUP3 ADD SWAP2 JUMPDEST POP POP POP POP POP DUP2 MSTORE PUSH1 0x20 ADD SWAP1 PUSH1 0x1 ADD SWAP1 PUSH3 0x1B0F JUMP JUMPDEST POP POP POP POP SWAP1 POP PUSH1 0x0 DUP1 PUSH1 0x0 DUP4 MLOAD SWAP1 POP PUSH1 0x0 SWAP3 POP JUMPDEST DUP1 DUP4 LT ISZERO PUSH3 0x1D56 JUMPI PUSH1 0x0 DUP5 DUP5 DUP2 MLOAD DUP2 LT PUSH3 0x1C1E JUMPI PUSH32 0x4E487B7100000000000000000000000000000000000000000000000000000000 PUSH1 0x0 MSTORE PUSH1 0x32 PUSH1 0x4 MSTORE PUSH1 0x24 PUSH1 0x0 REVERT JUMPDEST PUSH1 0x20 MUL PUSH1 0x20 ADD ADD MLOAD SWAP1 POP PUSH3 0x1C34 DUP7 DUP3 PUSH3 0x1A51 JUMP JUMPDEST ISZERO PUSH3 0x1C3F JUMPI PUSH1 0x1 SWAP3 POP JUMPDEST DUP3 ISZERO PUSH3 0x1D3F JUMPI PUSH1 0x1 DUP3 PUSH3 0x1C55 SWAP2 SWAP1 PUSH3 0x2A84 JUMP JUMPDEST DUP5 EQ PUSH3 0x1CF7 JUMPI DUP5 PUSH1 0x1 DUP6 PUSH3 0x1C6C SWAP2 SWAP1 PUSH3 0x298E JUMP JUMPDEST DUP2 MLOAD DUP2 LT PUSH3 0x1CA4 JUMPI PUSH32 0x4E487B7100000000000000000000000000000000000000000000000000000000 PUSH1 0x0 MSTORE PUSH1 0x32 PUSH1 0x4 MSTORE PUSH1 0x24 PUSH1 0x0 REVERT JUMPDEST PUSH1 0x20 MUL PUSH1 0x20 ADD ADD MLOAD DUP6 DUP6 DUP2 MLOAD DUP2 LT PUSH3 0x1CE6 JUMPI PUSH32 0x4E487B7100000000000000000000000000000000000000000000000000000000 PUSH1 0x0 MSTORE PUSH1 0x32 PUSH1 0x4 MSTORE PUSH1 0x24 PUSH1 0x0 REVERT JUMPDEST PUSH1 0x20 MUL PUSH1 0x20 ADD ADD DUP2 SWAP1 MSTORE POP PUSH3 0x1D3E JUMP JUMPDEST DUP5 DUP5 DUP2 MLOAD DUP2 LT PUSH3 0x1D31 JUMPI PUSH32 0x4E487B7100000000000000000000000000000000000000000000000000000000 PUSH1 0x0 MSTORE PUSH1 0x32 PUSH1 0x4 MSTORE PUSH1 0x24 PUSH1 0x0 REVERT JUMPDEST PUSH1 0x20 MUL PUSH1 0x20 ADD ADD PUSH1 0x60 DUP2 MSTORE POP JUMPDEST JUMPDEST POP DUP3 DUP1 PUSH3 0x1D4D SWAP1 PUSH3 0x2BC7 JUMP JUMPDEST SWAP4 POP POP PUSH3 0x1BD9 JUMP JUMPDEST DUP4 PUSH1 0x6 PUSH1 0x0 DUP9 PUSH20 0xFFFFFFFFFFFFFFFFFFFFFFFFFFFFFFFFFFFFFFFF AND PUSH20 0xFFFFFFFFFFFFFFFFFFFFFFFFFFFFFFFFFFFFFFFF AND DUP2 MSTORE PUSH1 0x20 ADD SWAP1 DUP2 MSTORE PUSH1 0x20 ADD PUSH1 0x0 KECCAK256 SWAP1 DUP1 MLOAD SWAP1 PUSH1 0x20 ADD SWAP1 PUSH3 0x1DAB SWAP3 SWAP2 SWAP1 PUSH3 0x1DB4 JUMP JUMPDEST POP POP POP POP POP POP POP JUMP JUMPDEST DUP3 DUP1 SLOAD DUP3 DUP3 SSTORE SWAP1 PUSH1 0x0 MSTORE PUSH1 0x20 PUSH1 0x0 KECCAK256 SWAP1 DUP2 ADD SWAP3 DUP3 ISZERO PUSH3 0x1E08 JUMPI SWAP2 PUSH1 0x20 MUL DUP3 ADD JUMPDEST DUP3 DUP2 GT ISZERO PUSH3 0x1E07 JUMPI DUP3 MLOAD DUP3 SWAP1 DUP1 MLOAD SWAP1 PUSH1 0x20 ADD SWAP1 PUSH3 0x1DF6 SWAP3 SWAP2 SWAP1 PUSH3 0x1EBA JUMP JUMPDEST POP SWAP2 PUSH1 0x20 ADD SWAP2 SWAP1 PUSH1 0x1 ADD SWAP1 PUSH3 0x1DD5 JUMP JUMPDEST JUMPDEST POP SWAP1 POP PUSH3 0x1E17 SWAP2 SWAP1 PUSH3 0x1F4B JUMP JUMPDEST POP SWAP1 JUMP JUMPDEST DUP3 DUP1 SLOAD PUSH3 0x1E29 SWAP1 PUSH3 0x2B5B JUMP JUMPDEST SWAP1 PUSH1 0x0 MSTORE PUSH1 0x20 PUSH1 0x0 KECCAK256 SWAP1 PUSH1 0x1F ADD PUSH1 0x20 SWAP1 DIV DUP2 ADD SWAP3 DUP3 PUSH3 0x1E4D JUMPI PUSH1 0x0 DUP6 SSTORE PUSH3 0x1E99 JUMP JUMPDEST DUP3 PUSH1 0x1F LT PUSH3 0x1E68 JUMPI DUP1 CALLDATALOAD PUSH1 0xFF NOT AND DUP4 DUP1 ADD OR DUP6 SSTORE PUSH3 0x1E99 JUMP JUMPDEST DUP3 DUP1 ADD PUSH1 0x1 ADD DUP6 SSTORE DUP3 ISZERO PUSH3 0x1E99 JUMPI SWAP2 DUP3 ADD JUMPDEST DUP3 DUP2 GT ISZERO PUSH3 0x1E98 JUMPI DUP3 CALLDATALOAD DUP3 SSTORE SWAP2 PUSH1 0x20 ADD SWAP2 SWAP1 PUSH1 0x1 ADD SWAP1 PUSH3 0x1E7B JUMP JUMPDEST JUMPDEST POP SWAP1 POP PUSH3 0x1EA8 SWAP2 SWAP1 PUSH3 0x1F73 JUMP JUMPDEST POP SWAP1 JUMP JUMPDEST PUSH2 0xE03 DUP1 PUSH3 0x2D31 DUP4 CODECOPY ADD SWAP1 JUMP JUMPDEST DUP3 DUP1 SLOAD PUSH3 0x1EC8 SWAP1 PUSH3 0x2B5B JUMP JUMPDEST SWAP1 PUSH1 0x0 MSTORE PUSH1 0x20 PUSH1 0x0 KECCAK256 SWAP1 PUSH1 0x1F ADD PUSH1 0x20 SWAP1 DIV DUP2 ADD SWAP3 DUP3 PUSH3 0x1EEC JUMPI PUSH1 0x0 DUP6 SSTORE PUSH3 0x1F38 JUMP JUMPDEST DUP3 PUSH1 0x1F LT PUSH3 0x1F07 JUMPI DUP1 MLOAD PUSH1 0xFF NOT AND DUP4 DUP1 ADD OR DUP6 SSTORE PUSH3 0x1F38 JUMP JUMPDEST DUP3 DUP1 ADD PUSH1 0x1 ADD DUP6 SSTORE DUP3 ISZERO PUSH3 0x1F38 JUMPI SWAP2 DUP3 ADD JUMPDEST DUP3 DUP2 GT ISZERO PUSH3 0x1F37 JUMPI DUP3 MLOAD DUP3 SSTORE SWAP2 PUSH1 0x20 ADD SWAP2 SWAP1 PUSH1 0x1 ADD SWAP1 PUSH3 0x1F1A JUMP JUMPDEST JUMPDEST POP SWAP1 POP PUSH3 0x1F47 SWAP2 SWAP1 PUSH3 0x1F73 JUMP JUMPDEST POP SWAP1 JUMP JUMPDEST JUMPDEST DUP1 DUP3 GT ISZERO PUSH3 0x1F6F JUMPI PUSH1 0x0 DUP2 DUP2 PUSH3 0x1F65 SWAP2 SWAP1 PUSH3 0x1F92 JUMP JUMPDEST POP PUSH1 0x1 ADD PUSH3 0x1F4C JUMP JUMPDEST POP SWAP1 JUMP JUMPDEST JUMPDEST DUP1 DUP3 GT ISZERO PUSH3 0x1F8E JUMPI PUSH1 0x0 DUP2 PUSH1 0x0 SWAP1 SSTORE POP PUSH1 0x1 ADD PUSH3 0x1F74 JUMP JUMPDEST POP SWAP1 JUMP JUMPDEST POP DUP1 SLOAD PUSH3 0x1FA0 SWAP1 PUSH3 0x2B5B JUMP JUMPDEST PUSH1 0x0 DUP3 SSTORE DUP1 PUSH1 0x1F LT PUSH3 0x1FB4 JUMPI POP PUSH3 0x1FD5 JUMP JUMPDEST PUSH1 0x1F ADD PUSH1 0x20 SWAP1 DIV SWAP1 PUSH1 0x0 MSTORE PUSH1 0x20 PUSH1 0x0 KECCAK256 SWAP1 DUP2 ADD SWAP1 PUSH3 0x1FD4 SWAP2 SWAP1 PUSH3 0x1F73 JUMP JUMPDEST JUMPDEST POP JUMP JUMPDEST PUSH1 0x0 PUSH3 0x1FEF PUSH3 0x1FE9 DUP5 PUSH3 0x28B8 JUMP JUMPDEST PUSH3 0x288F JUMP JUMPDEST SWAP1 POP DUP1 DUP4 DUP3 MSTORE PUSH1 0x20 DUP3 ADD SWAP1 POP DUP3 DUP6 PUSH1 0x20 DUP7 MUL DUP3 ADD GT ISZERO PUSH3 0x200F JUMPI PUSH1 0x0 DUP1 REVERT JUMPDEST PUSH1 0x0 JUMPDEST DUP6 DUP2 LT ISZERO PUSH3 0x205E JUMPI DUP2 MLOAD PUSH8 0xFFFFFFFFFFFFFFFF DUP2 GT ISZERO PUSH3 0x2033 JUMPI PUSH1 0x0 DUP1 REVERT JUMPDEST DUP1 DUP7 ADD PUSH3 0x2042 DUP10 DUP3 PUSH3 0x2155 JUMP JUMPDEST DUP6 MSTORE PUSH1 0x20 DUP6 ADD SWAP5 POP PUSH1 0x20 DUP5 ADD SWAP4 POP POP POP PUSH1 0x1 DUP2 ADD SWAP1 POP PUSH3 0x2012 JUMP JUMPDEST POP POP POP SWAP4 SWAP3 POP POP POP JUMP JUMPDEST PUSH1 0x0 PUSH3 0x207F PUSH3 0x2079 DUP5 PUSH3 0x28E7 JUMP JUMPDEST PUSH3 0x288F JUMP JUMPDEST SWAP1 POP DUP3 DUP2 MSTORE PUSH1 0x20 DUP2 ADD DUP5 DUP5 DUP5 ADD GT ISZERO PUSH3 0x2098 JUMPI PUSH1 0x0 DUP1 REVERT JUMPDEST PUSH3 0x20A5 DUP5 DUP3 DUP6 PUSH3 0x2B25 JUMP JUMPDEST POP SWAP4 SWAP3 POP POP POP JUMP JUMPDEST PUSH1 0x0 DUP2 CALLDATALOAD SWAP1 POP PUSH3 0x20BE DUP2 PUSH3 0x2CE2 JUMP JUMPDEST SWAP3 SWAP2 POP POP JUMP JUMPDEST PUSH1 0x0 DUP3 PUSH1 0x1F DUP4 ADD SLT PUSH3 0x20D6 JUMPI PUSH1 0x0 DUP1 REVERT JUMPDEST DUP2 MLOAD PUSH3 0x20E8 DUP5 DUP3 PUSH1 0x20 DUP7 ADD PUSH3 0x1FD8 JUMP JUMPDEST SWAP2 POP POP SWAP3 SWAP2 POP POP JUMP JUMPDEST PUSH1 0x0 DUP2 MLOAD SWAP1 POP PUSH3 0x2102 DUP2 PUSH3 0x2CFC JUMP JUMPDEST SWAP3 SWAP2 POP POP JUMP JUMPDEST PUSH1 0x0 DUP1 DUP4 PUSH1 0x1F DUP5 ADD SLT PUSH3 0x211B JUMPI PUSH1 0x0 DUP1 REVERT JUMPDEST DUP3 CALLDATALOAD SWAP1 POP PUSH8 0xFFFFFFFFFFFFFFFF DUP2 GT ISZERO PUSH3 0x2135 JUMPI PUSH1 0x0 DUP1 REVERT JUMPDEST PUSH1 0x20 DUP4 ADD SWAP2 POP DUP4 PUSH1 0x1 DUP3 MUL DUP4 ADD GT ISZERO PUSH3 0x214E JUMPI PUSH1 0x0 DUP1 REVERT JUMPDEST SWAP3 POP SWAP3 SWAP1 POP JUMP JUMPDEST PUSH1 0x0 DUP3 PUSH1 0x1F DUP4 ADD SLT PUSH3 0x2167 JUMPI PUSH1 0x0 DUP1 REVERT JUMPDEST DUP2 MLOAD PUSH3 0x2179 DUP5 DUP3 PUSH1 0x20 DUP7 ADD PUSH3 0x2068 JUMP JUMPDEST SWAP2 POP POP SWAP3 SWAP2 POP POP JUMP JUMPDEST PUSH1 0x0 DUP2 CALLDATALOAD SWAP1 POP PUSH3 0x2193 DUP2 PUSH3 0x2D16 JUMP JUMPDEST SWAP3 SWAP2 POP POP JUMP JUMPDEST PUSH1 0x0 DUP2 MLOAD SWAP1 POP PUSH3 0x21AA DUP2 PUSH3 0x2D16 JUMP JUMPDEST SWAP3 SWAP2 POP POP JUMP JUMPDEST PUSH1 0x0 PUSH1 0x20 DUP3 DUP5 SUB SLT ISZERO PUSH3 0x21C3 JUMPI PUSH1 0x0 DUP1 REVERT JUMPDEST PUSH1 0x0 PUSH3 0x21D3 DUP5 DUP3 DUP6 ADD PUSH3 0x20AD JUMP JUMPDEST SWAP2 POP POP SWAP3 SWAP2 POP POP JUMP JUMPDEST PUSH1 0x0 DUP1 PUSH1 0x0 PUSH1 0x40 DUP5 DUP7 SUB SLT ISZERO PUSH3 0x21F2 JUMPI PUSH1 0x0 DUP1 REVERT JUMPDEST PUSH1 0x0 PUSH3 0x2202 DUP7 DUP3 DUP8 ADD PUSH3 0x20AD JUMP JUMPDEST SWAP4 POP POP PUSH1 0x20 DUP5 ADD CALLDATALOAD PUSH8 0xFFFFFFFFFFFFFFFF DUP2 GT ISZERO PUSH3 0x2220 JUMPI PUSH1 0x0 DUP1 REVERT JUMPDEST PUSH3 0x222E DUP7 DUP3 DUP8 ADD PUSH3 0x2108 JUMP JUMPDEST SWAP3 POP SWAP3 POP POP SWAP3 POP SWAP3 POP SWAP3 JUMP JUMPDEST PUSH1 0x0 PUSH1 0x20 DUP3 DUP5 SUB SLT ISZERO PUSH3 0x224D JUMPI PUSH1 0x0 DUP1 REVERT JUMPDEST PUSH1 0x0 DUP3 ADD MLOAD PUSH8 0xFFFFFFFFFFFFFFFF DUP2 GT ISZERO PUSH3 0x2268 JUMPI PUSH1 0x0 DUP1 REVERT JUMPDEST PUSH3 0x2276 DUP5 DUP3 DUP6 ADD PUSH3 0x20C4 JUMP JUMPDEST SWAP2 POP POP SWAP3 SWAP2 POP POP JUMP JUMPDEST PUSH1 0x0 PUSH1 0x20 DUP3 DUP5 SUB SLT ISZERO PUSH3 0x2292 JUMPI PUSH1 0x0 DUP1 REVERT JUMPDEST PUSH1 0x0 PUSH3 0x22A2 DUP5 DUP3 DUP6 ADD PUSH3 0x20F1 JUMP JUMPDEST SWAP2 POP POP SWAP3 SWAP2 POP POP JUMP JUMPDEST PUSH1 0x0 DUP1 PUSH1 0x20 DUP4 DUP6 SUB SLT ISZERO PUSH3 0x22BF JUMPI PUSH1 0x0 DUP1 REVERT JUMPDEST PUSH1 0x0 DUP4 ADD CALLDATALOAD PUSH8 0xFFFFFFFFFFFFFFFF DUP2 GT ISZERO PUSH3 0x22DA JUMPI PUSH1 0x0 DUP1 REVERT JUMPDEST PUSH3 0x22E8 DUP6 DUP3 DUP7 ADD PUSH3 0x2108 JUMP JUMPDEST SWAP3 POP SWAP3 POP POP SWAP3 POP SWAP3 SWAP1 POP JUMP JUMPDEST PUSH1 0x0 DUP1 PUSH1 0x0 PUSH1 0x40 DUP5 DUP7 SUB SLT ISZERO PUSH3 0x230A JUMPI PUSH1 0x0 DUP1 REVERT JUMPDEST PUSH1 0x0 DUP5 ADD CALLDATALOAD PUSH8 0xFFFFFFFFFFFFFFFF DUP2 GT ISZERO PUSH3 0x2325 JUMPI PUSH1 0x0 DUP1 REVERT JUMPDEST PUSH3 0x2333 DUP7 DUP3 DUP8 ADD PUSH3 0x2108 JUMP JUMPDEST SWAP4 POP SWAP4 POP POP PUSH1 0x20 PUSH3 0x2348 DUP7 DUP3 DUP8 ADD PUSH3 0x20AD JUMP JUMPDEST SWAP2 POP POP SWAP3 POP SWAP3 POP SWAP3 JUMP JUMPDEST PUSH1 0x0 DUP1 PUSH1 0x0 DUP1 PUSH1 0x0 DUP1 PUSH1 0x0 PUSH1 0x80 DUP9 DUP11 SUB SLT ISZERO PUSH3 0x236E JUMPI PUSH1 0x0 DUP1 REVERT JUMPDEST PUSH1 0x0 DUP9 ADD CALLDATALOAD PUSH8 0xFFFFFFFFFFFFFFFF DUP2 GT ISZERO PUSH3 0x2389 JUMPI PUSH1 0x0 DUP1 REVERT JUMPDEST PUSH3 0x2397 DUP11 DUP3 DUP12 ADD PUSH3 0x2108 JUMP JUMPDEST SWAP8 POP SWAP8 POP POP PUSH1 0x20 DUP9 ADD CALLDATALOAD PUSH8 0xFFFFFFFFFFFFFFFF DUP2 GT ISZERO PUSH3 0x23B7 JUMPI PUSH1 0x0 DUP1 REVERT JUMPDEST PUSH3 0x23C5 DUP11 DUP3 DUP12 ADD PUSH3 0x2108 JUMP JUMPDEST SWAP6 POP SWAP6 POP POP PUSH1 0x40 DUP9 ADD CALLDATALOAD PUSH8 0xFFFFFFFFFFFFFFFF DUP2 GT ISZERO PUSH3 0x23E5 JUMPI PUSH1 0x0 DUP1 REVERT JUMPDEST PUSH3 0x23F3 DUP11 DUP3 DUP12 ADD PUSH3 0x2108 JUMP JUMPDEST SWAP4 POP SWAP4 POP POP PUSH1 0x60 PUSH3 0x2408 DUP11 DUP3 DUP12 ADD PUSH3 0x2182 JUMP JUMPDEST SWAP2 POP POP SWAP3 SWAP6 SWAP9 SWAP2 SWAP5 SWAP8 POP SWAP3 SWAP6 POP JUMP JUMPDEST PUSH1 0x0 DUP1 PUSH1 0x0 PUSH1 0x40 DUP5 DUP7 SUB SLT ISZERO PUSH3 0x242D JUMPI PUSH1 0x0 DUP1 REVERT JUMPDEST PUSH1 0x0 DUP5 ADD CALLDATALOAD PUSH8 0xFFFFFFFFFFFFFFFF DUP2 GT ISZERO PUSH3 0x2448 JUMPI PUSH1 0x0 DUP1 REVERT JUMPDEST PUSH3 0x2456 DUP7 DUP3 DUP8 ADD PUSH3 0x2108 JUMP JUMPDEST SWAP4 POP SWAP4 POP POP PUSH1 0x20 PUSH3 0x246B DUP7 DUP3 DUP8 ADD PUSH3 0x2182 JUMP JUMPDEST SWAP2 POP POP SWAP3 POP SWAP3 POP SWAP3 JUMP JUMPDEST PUSH1 0x0 PUSH1 0x20 DUP3 DUP5 SUB SLT ISZERO PUSH3 0x2488 JUMPI PUSH1 0x0 DUP1 REVERT JUMPDEST PUSH1 0x0 PUSH3 0x2498 DUP5 DUP3 DUP6 ADD PUSH3 0x2199 JUMP JUMPDEST SWAP2 POP POP SWAP3 SWAP2 POP POP JUMP JUMPDEST PUSH1 0x0 PUSH3 0x24AF DUP4 DUP4 PUSH3 0x25B6 JUMP JUMPDEST SWAP1 POP SWAP3 SWAP2 POP POP JUMP JUMPDEST PUSH3 0x24C2 DUP2 PUSH3 0x2ABF JUMP JUMPDEST DUP3 MSTORE POP POP JUMP JUMPDEST PUSH1 0x0 PUSH3 0x24D5 DUP3 PUSH3 0x292D JUMP JUMPDEST PUSH3 0x24E1 DUP2 DUP6 PUSH3 0x2950 JUMP JUMPDEST SWAP4 POP DUP4 PUSH1 0x20 DUP3 MUL DUP6 ADD PUSH3 0x24F5 DUP6 PUSH3 0x291D JUMP JUMPDEST DUP1 PUSH1 0x0 JUMPDEST DUP6 DUP2 LT ISZERO PUSH3 0x2537 JUMPI DUP5 DUP5 SUB DUP10 MSTORE DUP2 MLOAD PUSH3 0x2515 DUP6 DUP3 PUSH3 0x24A1 JUMP JUMPDEST SWAP5 POP PUSH3 0x2522 DUP4 PUSH3 0x2943 JUMP JUMPDEST SWAP3 POP PUSH1 0x20 DUP11 ADD SWAP10 POP POP PUSH1 0x1 DUP2 ADD SWAP1 POP PUSH3 0x24F9 JUMP JUMPDEST POP DUP3 SWAP8 POP DUP8 SWAP6 POP POP POP POP POP POP SWAP3 SWAP2 POP POP JUMP JUMPDEST PUSH3 0x2554 DUP2 PUSH3 0x2AD3 JUMP JUMPDEST DUP3 MSTORE POP POP JUMP JUMPDEST PUSH1 0x0 PUSH3 0x2568 DUP4 DUP6 PUSH3 0x2972 JUMP JUMPDEST SWAP4 POP PUSH3 0x2577 DUP4 DUP6 DUP5 PUSH3 0x2B16 JUMP JUMPDEST PUSH3 0x2582 DUP4 PUSH3 0x2CD1 JUMP JUMPDEST DUP5 ADD SWAP1 POP SWAP4 SWAP3 POP POP POP JUMP JUMPDEST PUSH1 0x0 PUSH3 0x259B DUP4 DUP6 PUSH3 0x2983 JUMP JUMPDEST SWAP4 POP PUSH3 0x25AA DUP4 DUP6 DUP5 PUSH3 0x2B16 JUMP JUMPDEST DUP3 DUP5 ADD SWAP1 POP SWAP4 SWAP3 POP POP POP JUMP JUMPDEST PUSH1 0x0 PUSH3 0x25C3 DUP3 PUSH3 0x2938 JUMP JUMPDEST PUSH3 0x25CF DUP2 DUP6 PUSH3 0x2961 JUMP JUMPDEST SWAP4 POP PUSH3 0x25E1 DUP2 DUP6 PUSH1 0x20 DUP7 ADD PUSH3 0x2B25 JUMP JUMPDEST PUSH3 0x25EC DUP2 PUSH3 0x2CD1 JUMP JUMPDEST DUP5 ADD SWAP2 POP POP SWAP3 SWAP2 POP POP JUMP JUMPDEST PUSH1 0x0 PUSH3 0x2604 DUP3 PUSH3 0x2938 JUMP JUMPDEST PUSH3 0x2610 DUP2 DUP6 PUSH3 0x2983 JUMP JUMPDEST SWAP4 POP PUSH3 0x2622 DUP2 DUP6 PUSH1 0x20 DUP7 ADD PUSH3 0x2B25 JUMP JUMPDEST DUP1 DUP5 ADD SWAP2 POP POP SWAP3 SWAP2 POP POP JUMP JUMPDEST PUSH3 0x2639 DUP2 PUSH3 0x2AFF JUMP JUMPDEST DUP3 MSTORE POP POP JUMP JUMPDEST PUSH3 0x264A DUP2 PUSH3 0x2B09 JUMP JUMPDEST DUP3 MSTORE POP POP JUMP JUMPDEST PUSH1 0x0 PUSH3 0x265F DUP3 DUP5 DUP7 PUSH3 0x258D JUMP JUMPDEST SWAP2 POP DUP2 SWAP1 POP SWAP4 SWAP3 POP POP POP JUMP JUMPDEST PUSH1 0x0 PUSH3 0x2679 DUP3 DUP5 PUSH3 0x25F7 JUMP JUMPDEST SWAP2 POP DUP2 SWAP1 POP SWAP3 SWAP2 POP POP JUMP JUMPDEST PUSH1 0x0 PUSH1 0x20 DUP3 ADD SWAP1 POP PUSH3 0x269B PUSH1 0x0 DUP4 ADD DUP5 PUSH3 0x24B7 JUMP JUMPDEST SWAP3 SWAP2 POP POP JUMP JUMPDEST PUSH1 0x0 PUSH1 0x60 DUP3 ADD SWAP1 POP PUSH3 0x26B8 PUSH1 0x0 DUP4 ADD DUP7 PUSH3 0x24B7 JUMP JUMPDEST PUSH3 0x26C7 PUSH1 0x20 DUP4 ADD DUP6 PUSH3 0x24B7 JUMP JUMPDEST PUSH3 0x26D6 PUSH1 0x40 DUP4 ADD DUP5 PUSH3 0x262E JUMP JUMPDEST SWAP5 SWAP4 POP POP POP POP JUMP JUMPDEST PUSH1 0x0 PUSH1 0x40 DUP3 ADD SWAP1 POP PUSH3 0x26F5 PUSH1 0x0 DUP4 ADD DUP7 PUSH3 0x24B7 JUMP JUMPDEST DUP2 DUP2 SUB PUSH1 0x20 DUP4 ADD MSTORE PUSH3 0x270A DUP2 DUP5 DUP7 PUSH3 0x255A JUMP JUMPDEST SWAP1 POP SWAP5 SWAP4 POP POP POP POP JUMP JUMPDEST PUSH1 0x0 PUSH1 0x80 DUP3 ADD SWAP1 POP PUSH3 0x272B PUSH1 0x0 DUP4 ADD DUP9 PUSH3 0x24B7 JUMP JUMPDEST DUP2 DUP2 SUB PUSH1 0x20 DUP4 ADD MSTORE PUSH3 0x2740 DUP2 DUP7 DUP9 PUSH3 0x255A JUMP JUMPDEST SWAP1 POP PUSH3 0x2751 PUSH1 0x40 DUP4 ADD DUP6 PUSH3 0x262E JUMP JUMPDEST PUSH3 0x2760 PUSH1 0x60 DUP4 ADD DUP5 PUSH3 0x262E JUMP JUMPDEST SWAP7 SWAP6 POP POP POP POP POP POP JUMP JUMPDEST PUSH1 0x0 PUSH1 0x20 DUP3 ADD SWAP1 POP DUP2 DUP2 SUB PUSH1 0x0 DUP4 ADD MSTORE PUSH3 0x2786 DUP2 DUP5 PUSH3 0x24C8 JUMP JUMPDEST SWAP1 POP SWAP3 SWAP2 POP POP JUMP JUMPDEST PUSH1 0x0 PUSH1 0x20 DUP3 ADD SWAP1 POP PUSH3 0x27A5 PUSH1 0x0 DUP4 ADD DUP5 PUSH3 0x2549 JUMP JUMPDEST SWAP3 SWAP2 POP POP JUMP JUMPDEST PUSH1 0x0 PUSH1 0x80 DUP3 ADD SWAP1 POP DUP2 DUP2 SUB PUSH1 0x0 DUP4 ADD MSTORE PUSH3 0x27C8 DUP2 DUP10 DUP12 PUSH3 0x255A JUMP JUMPDEST SWAP1 POP DUP2 DUP2 SUB PUSH1 0x20 DUP4 ADD MSTORE PUSH3 0x27DF DUP2 DUP8 DUP10 PUSH3 0x255A JUMP JUMPDEST SWAP1 POP DUP2 DUP2 SUB PUSH1 0x40 DUP4 ADD MSTORE PUSH3 0x27F6 DUP2 DUP6 DUP8 PUSH3 0x255A JUMP JUMPDEST SWAP1 POP PUSH3 0x2807 PUSH1 0x60 DUP4 ADD DUP5 PUSH3 0x262E JUMP JUMPDEST SWAP9 SWAP8 POP POP POP POP POP POP POP POP JUMP JUMPDEST PUSH1 0x0 PUSH1 0x80 DUP3 ADD SWAP1 POP DUP2 DUP2 SUB PUSH1 0x0 DUP4 ADD MSTORE PUSH3 0x2830 DUP2 DUP9 DUP11 PUSH3 0x255A JUMP JUMPDEST SWAP1 POP DUP2 DUP2 SUB PUSH1 0x20 DUP4 ADD MSTORE PUSH3 0x2847 DUP2 DUP7 DUP9 PUSH3 0x255A JUMP JUMPDEST SWAP1 POP PUSH3 0x2858 PUSH1 0x40 DUP4 ADD DUP6 PUSH3 0x262E JUMP JUMPDEST PUSH3 0x2867 PUSH1 0x60 DUP4 ADD DUP5 PUSH3 0x263F JUMP JUMPDEST SWAP8 SWAP7 POP POP POP POP POP POP POP JUMP JUMPDEST PUSH1 0x0 PUSH1 0x20 DUP3 ADD SWAP1 POP PUSH3 0x2889 PUSH1 0x0 DUP4 ADD DUP5 PUSH3 0x262E JUMP JUMPDEST SWAP3 SWAP2 POP POP JUMP JUMPDEST PUSH1 0x0 PUSH3 0x289B PUSH3 0x28AE JUMP JUMPDEST SWAP1 POP PUSH3 0x28A9 DUP3 DUP3 PUSH3 0x2B91 JUMP JUMPDEST SWAP2 SWAP1 POP JUMP JUMPDEST PUSH1 0x0 PUSH1 0x40 MLOAD SWAP1 POP SWAP1 JUMP JUMPDEST PUSH1 0x0 PUSH8 0xFFFFFFFFFFFFFFFF DUP3 GT ISZERO PUSH3 0x28D6 JUMPI PUSH3 0x28D5 PUSH3 0x2CA2 JUMP JUMPDEST JUMPDEST PUSH1 0x20 DUP3 MUL SWAP1 POP PUSH1 0x20 DUP2 ADD SWAP1 POP SWAP2 SWAP1 POP JUMP JUMPDEST PUSH1 0x0 PUSH8 0xFFFFFFFFFFFFFFFF DUP3 GT ISZERO PUSH3 0x2905 JUMPI PUSH3 0x2904 PUSH3 0x2CA2 JUMP JUMPDEST JUMPDEST PUSH3 0x2910 DUP3 PUSH3 0x2CD1 JUMP JUMPDEST SWAP1 POP PUSH1 0x20 DUP2 ADD SWAP1 POP SWAP2 SWAP1 POP JUMP JUMPDEST PUSH1 0x0 DUP2 SWAP1 POP PUSH1 0x20 DUP3 ADD SWAP1 POP SWAP2 SWAP1 POP JUMP JUMPDEST PUSH1 0x0 DUP2 MLOAD SWAP1 POP SWAP2 SWAP1 POP JUMP JUMPDEST PUSH1 0x0 DUP2 MLOAD SWAP1 POP SWAP2 SWAP1 POP JUMP JUMPDEST PUSH1 0x0 PUSH1 0x20 DUP3 ADD SWAP1 POP SWAP2 SWAP1 POP JUMP JUMPDEST PUSH1 0x0 DUP3 DUP3 MSTORE PUSH1 0x20 DUP3 ADD SWAP1 POP SWAP3 SWAP2 POP POP JUMP JUMPDEST PUSH1 0x0 DUP3 DUP3 MSTORE PUSH1 0x20 DUP3 ADD SWAP1 POP SWAP3 SWAP2 POP POP JUMP JUMPDEST PUSH1 0x0 DUP3 DUP3 MSTORE PUSH1 0x20 DUP3 ADD SWAP1 POP SWAP3 SWAP2 POP POP JUMP JUMPDEST PUSH1 0x0 DUP2 SWAP1 POP SWAP3 SWAP2 POP POP JUMP JUMPDEST PUSH1 0x0 PUSH3 0x299B DUP3 PUSH3 0x2AFF JUMP JUMPDEST SWAP2 POP PUSH3 0x29A8 DUP4 PUSH3 0x2AFF JUMP JUMPDEST SWAP3 POP DUP3 PUSH32 0xFFFFFFFFFFFFFFFFFFFFFFFFFFFFFFFFFFFFFFFFFFFFFFFFFFFFFFFFFFFFFFFF SUB DUP3 GT ISZERO PUSH3 0x29E0 JUMPI PUSH3 0x29DF PUSH3 0x2C15 JUMP JUMPDEST JUMPDEST DUP3 DUP3 ADD SWAP1 POP SWAP3 SWAP2 POP POP JUMP JUMPDEST PUSH1 0x0 PUSH3 0x29F8 DUP3 PUSH3 0x2AFF JUMP JUMPDEST SWAP2 POP PUSH3 0x2A05 DUP4 PUSH3 0x2AFF JUMP JUMPDEST SWAP3 POP DUP3 PUSH3 0x2A18 JUMPI PUSH3 0x2A17 PUSH3 0x2C44 JUMP JUMPDEST JUMPDEST DUP3 DUP3 DIV SWAP1 POP SWAP3 SWAP2 POP POP JUMP JUMPDEST PUSH1 0x0 PUSH3 0x2A30 DUP3 PUSH3 0x2AFF JUMP JUMPDEST SWAP2 POP PUSH3 0x2A3D DUP4 PUSH3 0x2AFF JUMP JUMPDEST SWAP3 POP DUP2 PUSH32 0xFFFFFFFFFFFFFFFFFFFFFFFFFFFFFFFFFFFFFFFFFFFFFFFFFFFFFFFFFFFFFFFF DIV DUP4 GT DUP3 ISZERO ISZERO AND ISZERO PUSH3 0x2A79 JUMPI PUSH3 0x2A78 PUSH3 0x2C15 JUMP JUMPDEST JUMPDEST DUP3 DUP3 MUL SWAP1 POP SWAP3 SWAP2 POP POP JUMP JUMPDEST PUSH1 0x0 PUSH3 0x2A91 DUP3 PUSH3 0x2AFF JUMP JUMPDEST SWAP2 POP PUSH3 0x2A9E DUP4 PUSH3 0x2AFF JUMP JUMPDEST SWAP3 POP DUP3 DUP3 LT ISZERO PUSH3 0x2AB4 JUMPI PUSH3 0x2AB3 PUSH3 0x2C15 JUMP JUMPDEST JUMPDEST DUP3 DUP3 SUB SWAP1 POP SWAP3 SWAP2 POP POP JUMP JUMPDEST PUSH1 0x0 PUSH3 0x2ACC DUP3 PUSH3 0x2ADF JUMP JUMPDEST SWAP1 POP SWAP2 SWAP1 POP JUMP JUMPDEST PUSH1 0x0 DUP2 ISZERO ISZERO SWAP1 POP SWAP2 SWAP1 POP JUMP JUMPDEST PUSH1 0x0 PUSH20 0xFFFFFFFFFFFFFFFFFFFFFFFFFFFFFFFFFFFFFFFF DUP3 AND SWAP1 POP SWAP2 SWAP1 POP JUMP JUMPDEST PUSH1 0x0 DUP2 SWAP1 POP SWAP2 SWAP1 POP JUMP JUMPDEST PUSH1 0x0 PUSH1 0xFF DUP3 AND SWAP1 POP SWAP2 SWAP1 POP JUMP JUMPDEST DUP3 DUP2 DUP4 CALLDATACOPY PUSH1 0x0 DUP4 DUP4 ADD MSTORE POP POP POP JUMP JUMPDEST PUSH1 0x0 JUMPDEST DUP4 DUP2 LT ISZERO PUSH3 0x2B45 JUMPI DUP1 DUP3 ADD MLOAD DUP2 DUP5 ADD MSTORE PUSH1 0x20 DUP2 ADD SWAP1 POP PUSH3 0x2B28 JUMP JUMPDEST DUP4 DUP2 GT ISZERO PUSH3 0x2B55 JUMPI PUSH1 0x0 DUP5 DUP5 ADD MSTORE JUMPDEST POP POP POP POP JUMP JUMPDEST PUSH1 0x0 PUSH1 0x2 DUP3 DIV SWAP1 POP PUSH1 0x1 DUP3 AND DUP1 PUSH3 0x2B74 JUMPI PUSH1 0x7F DUP3 AND SWAP2 POP JUMPDEST PUSH1 0x20 DUP3 LT DUP2 EQ ISZERO PUSH3 0x2B8B JUMPI PUSH3 0x2B8A PUSH3 0x2C73 JUMP JUMPDEST JUMPDEST POP SWAP2 SWAP1 POP JUMP JUMPDEST PUSH3 0x2B9C DUP3 PUSH3 0x2CD1 JUMP JUMPDEST DUP2 ADD DUP2 DUP2 LT PUSH8 0xFFFFFFFFFFFFFFFF DUP3 GT OR ISZERO PUSH3 0x2BBE JUMPI PUSH3 0x2BBD PUSH3 0x2CA2 JUMP JUMPDEST JUMPDEST DUP1 PUSH1 0x40 MSTORE POP POP POP JUMP JUMPDEST PUSH1 0x0 PUSH3 0x2BD4 DUP3 PUSH3 0x2AFF JUMP JUMPDEST SWAP2 POP PUSH32 0xFFFFFFFFFFFFFFFFFFFFFFFFFFFFFFFFFFFFFFFFFFFFFFFFFFFFFFFFFFFFFFFF DUP3 EQ ISZERO PUSH3 0x2C0A JUMPI PUSH3 0x2C09 PUSH3 0x2C15 JUMP JUMPDEST JUMPDEST PUSH1 0x1 DUP3 ADD SWAP1 POP SWAP2 SWAP1 POP JUMP JUMPDEST PUSH32 0x4E487B7100000000000000000000000000000000000000000000000000000000 PUSH1 0x0 MSTORE PUSH1 0x11 PUSH1 0x4 MSTORE PUSH1 0x24 PUSH1 0x0 REVERT JUMPDEST PUSH32 0x4E487B7100000000000000000000000000000000000000000000000000000000 PUSH1 0x0 MSTORE PUSH1 0x12 PUSH1 0x4 MSTORE PUSH1 0x24 PUSH1 0x0 REVERT JUMPDEST PUSH32 0x4E487B7100000000000000000000000000000000000000000000000000000000 PUSH1 0x0 MSTORE PUSH1 0x22 PUSH1 0x4 MSTORE PUSH1 0x24 PUSH1 0x0 REVERT JUMPDEST PUSH32 0x4E487B7100000000000000000000000000000000000000000000000000000000 PUSH1 0x0 MSTORE PUSH1 0x41 PUSH1 0x4 MSTORE PUSH1 0x24 PUSH1 0x0 REVERT JUMPDEST PUSH1 0x0 PUSH1 0x1F NOT PUSH1 0x1F DUP4 ADD AND SWAP1 POP SWAP2 SWAP1 POP JUMP JUMPDEST PUSH3 0x2CED DUP2 PUSH3 0x2ABF JUMP JUMPDEST DUP2 EQ PUSH3 0x2CF9 JUMPI PUSH1 0x0 DUP1 REVERT JUMPDEST POP JUMP JUMPDEST PUSH3 0x2D07 DUP2 PUSH3 0x2AD3 JUMP JUMPDEST DUP2 EQ PUSH3 0x2D13 JUMPI PUSH1 0x0 DUP1 REVERT JUMPDEST POP JUMP JUMPDEST PUSH3 0x2D21 DUP2 PUSH3 0x2AFF JUMP JUMPDEST DUP2 EQ PUSH3 0x2D2D JUMPI PUSH1 0x0 DUP1 REVERT JUMPDEST POP JUMP INVALID PUSH1 0x80 PUSH1 0x40 MSTORE PUSH1 0x40 MLOAD PUSH3 0xE03 CODESIZE SUB DUP1 PUSH3 0xE03 DUP4 CODECOPY DUP2 DUP2 ADD PUSH1 0x40 MSTORE DUP2 ADD SWAP1 PUSH3 0x29 SWAP2 SWAP1 PUSH3 0x27C JUMP JUMPDEST CALLER PUSH1 0x0 DUP1 PUSH2 0x100 EXP DUP2 SLOAD DUP2 PUSH20 0xFFFFFFFFFFFFFFFFFFFFFFFFFFFFFFFFFFFFFFFF MUL NOT AND SWAP1 DUP4 PUSH20 0xFFFFFFFFFFFFFFFFFFFFFFFFFFFFFFFFFFFFFFFF AND MUL OR SWAP1 SSTORE POP DUP4 PUSH1 0x1 SWAP1 DUP1 MLOAD SWAP1 PUSH1 0x20 ADD SWAP1 PUSH3 0x81 SWAP3 SWAP2 SWAP1 PUSH3 0x12C JUMP JUMPDEST POP DUP3 PUSH1 0x2 SWAP1 DUP1 MLOAD SWAP1 PUSH1 0x20 ADD SWAP1 PUSH3 0x9A SWAP3 SWAP2 SWAP1 PUSH3 0x12C JUMP JUMPDEST POP DUP2 PUSH1 0x3 DUP2 SWAP1 SSTORE POP DUP1 PUSH1 0x4 PUSH1 0x0 PUSH2 0x100 EXP DUP2 SLOAD DUP2 PUSH1 0xFF MUL NOT AND SWAP1 DUP4 PUSH1 0xFF AND MUL OR SWAP1 SSTORE POP DUP2 PUSH1 0x5 PUSH1 0x0 DUP1 PUSH1 0x0 SWAP1 SLOAD SWAP1 PUSH2 0x100 EXP SWAP1 DIV PUSH20 0xFFFFFFFFFFFFFFFFFFFFFFFFFFFFFFFFFFFFFFFF AND PUSH20 0xFFFFFFFFFFFFFFFFFFFFFFFFFFFFFFFFFFFFFFFF AND PUSH20 0xFFFFFFFFFFFFFFFFFFFFFFFFFFFFFFFFFFFFFFFF AND DUP2 MSTORE PUSH1 0x20 ADD SWAP1 DUP2 MSTORE PUSH1 0x20 ADD PUSH1 0x0 KECCAK256 DUP2 SWAP1 SSTORE POP POP POP POP POP PUSH3 0x4D5 JUMP JUMPDEST DUP3 DUP1 SLOAD PUSH3 0x13A SWAP1 PUSH3 0x3C6 JUMP JUMPDEST SWAP1 PUSH1 0x0 MSTORE PUSH1 0x20 PUSH1 0x0 KECCAK256 SWAP1 PUSH1 0x1F ADD PUSH1 0x20 SWAP1 DIV DUP2 ADD SWAP3 DUP3 PUSH3 0x15E JUMPI PUSH1 0x0 DUP6 SSTORE PUSH3 0x1AA JUMP JUMPDEST DUP3 PUSH1 0x1F LT PUSH3 0x179 JUMPI DUP1 MLOAD PUSH1 0xFF NOT AND DUP4 DUP1 ADD OR DUP6 SSTORE PUSH3 0x1AA JUMP JUMPDEST DUP3 DUP1 ADD PUSH1 0x1 ADD DUP6 SSTORE DUP3 ISZERO PUSH3 0x1AA JUMPI SWAP2 DUP3 ADD JUMPDEST DUP3 DUP2 GT ISZERO PUSH3 0x1A9 JUMPI DUP3 MLOAD DUP3 SSTORE SWAP2 PUSH1 0x20 ADD SWAP2 SWAP1 PUSH1 0x1 ADD SWAP1 PUSH3 0x18C JUMP JUMPDEST JUMPDEST POP SWAP1 POP PUSH3 0x1B9 SWAP2 SWAP1 PUSH3 0x1BD JUMP JUMPDEST POP SWAP1 JUMP JUMPDEST JUMPDEST DUP1 DUP3 GT ISZERO PUSH3 0x1D8 JUMPI PUSH1 0x0 DUP2 PUSH1 0x0 SWAP1 SSTORE POP PUSH1 0x1 ADD PUSH3 0x1BE JUMP JUMPDEST POP SWAP1 JUMP JUMPDEST PUSH1 0x0 PUSH3 0x1F3 PUSH3 0x1ED DUP5 PUSH3 0x343 JUMP JUMPDEST PUSH3 0x31A JUMP JUMPDEST SWAP1 POP DUP3 DUP2 MSTORE PUSH1 0x20 DUP2 ADD DUP5 DUP5 DUP5 ADD GT ISZERO PUSH3 0x20C JUMPI PUSH1 0x0 DUP1 REVERT JUMPDEST PUSH3 0x219 DUP5 DUP3 DUP6 PUSH3 0x390 JUMP JUMPDEST POP SWAP4 SWAP3 POP POP POP JUMP JUMPDEST PUSH1 0x0 DUP3 PUSH1 0x1F DUP4 ADD SLT PUSH3 0x233 JUMPI PUSH1 0x0 DUP1 REVERT JUMPDEST DUP2 MLOAD PUSH3 0x245 DUP5 DUP3 PUSH1 0x20 DUP7 ADD PUSH3 0x1DC JUMP JUMPDEST SWAP2 POP POP SWAP3 SWAP2 POP POP JUMP JUMPDEST PUSH1 0x0 DUP2 MLOAD SWAP1 POP PUSH3 0x25F DUP2 PUSH3 0x4A1 JUMP JUMPDEST SWAP3 SWAP2 POP POP JUMP JUMPDEST PUSH1 0x0 DUP2 MLOAD SWAP1 POP PUSH3 0x276 DUP2 PUSH3 0x4BB JUMP JUMPDEST SWAP3 SWAP2 POP POP JUMP JUMPDEST PUSH1 0x0 DUP1 PUSH1 0x0 DUP1 PUSH1 0x80 DUP6 DUP8 SUB SLT ISZERO PUSH3 0x293 JUMPI PUSH1 0x0 DUP1 REVERT JUMPDEST PUSH1 0x0 DUP6 ADD MLOAD PUSH8 0xFFFFFFFFFFFFFFFF DUP2 GT ISZERO PUSH3 0x2AE JUMPI PUSH1 0x0 DUP1 REVERT JUMPDEST PUSH3 0x2BC DUP8 DUP3 DUP9 ADD PUSH3 0x221 JUMP JUMPDEST SWAP5 POP POP PUSH1 0x20 DUP6 ADD MLOAD PUSH8 0xFFFFFFFFFFFFFFFF DUP2 GT ISZERO PUSH3 0x2DA JUMPI PUSH1 0x0 DUP1 REVERT JUMPDEST PUSH3 0x2E8 DUP8 DUP3 DUP9 ADD PUSH3 0x221 JUMP JUMPDEST SWAP4 POP POP PUSH1 0x40 PUSH3 0x2FB DUP8 DUP3 DUP9 ADD PUSH3 0x24E JUMP JUMPDEST SWAP3 POP POP PUSH1 0x60 PUSH3 0x30E DUP8 DUP3 DUP9 ADD PUSH3 0x265 JUMP JUMPDEST SWAP2 POP POP SWAP3 SWAP6 SWAP2 SWAP5 POP SWAP3 POP JUMP JUMPDEST PUSH1 0x0 PUSH3 0x326 PUSH3 0x339 JUMP JUMPDEST SWAP1 POP PUSH3 0x334 DUP3 DUP3 PUSH3 0x3FC JUMP JUMPDEST SWAP2 SWAP1 POP JUMP JUMPDEST PUSH1 0x0 PUSH1 0x40 MLOAD SWAP1 POP SWAP1 JUMP JUMPDEST PUSH1 0x0 PUSH8 0xFFFFFFFFFFFFFFFF DUP3 GT ISZERO PUSH3 0x361 JUMPI PUSH3 0x360 PUSH3 0x461 JUMP JUMPDEST JUMPDEST PUSH3 0x36C DUP3 PUSH3 0x490 JUMP JUMPDEST SWAP1 POP PUSH1 0x20 DUP2 ADD SWAP1 POP SWAP2 SWAP1 POP JUMP JUMPDEST PUSH1 0x0 DUP2 SWAP1 POP SWAP2 SWAP1 POP JUMP JUMPDEST PUSH1 0x0 PUSH1 0xFF DUP3 AND SWAP1 POP SWAP2 SWAP1 POP JUMP JUMPDEST PUSH1 0x0 JUMPDEST DUP4 DUP2 LT ISZERO PUSH3 0x3B0 JUMPI DUP1 DUP3 ADD MLOAD DUP2 DUP5 ADD MSTORE PUSH1 0x20 DUP2 ADD SWAP1 POP PUSH3 0x393 JUMP JUMPDEST DUP4 DUP2 GT ISZERO PUSH3 0x3C0 JUMPI PUSH1 0x0 DUP5 DUP5 ADD MSTORE JUMPDEST POP POP POP POP JUMP JUMPDEST PUSH1 0x0 PUSH1 0x2 DUP3 DIV SWAP1 POP PUSH1 0x1 DUP3 AND DUP1 PUSH3 0x3DF JUMPI PUSH1 0x7F DUP3 AND SWAP2 POP JUMPDEST PUSH1 0x20 DUP3 LT DUP2 EQ ISZERO PUSH3 0x3F6 JUMPI PUSH3 0x3F5 PUSH3 0x432 JUMP JUMPDEST JUMPDEST POP SWAP2 SWAP1 POP JUMP JUMPDEST PUSH3 0x407 DUP3 PUSH3 0x490 JUMP JUMPDEST DUP2 ADD DUP2 DUP2 LT PUSH8 0xFFFFFFFFFFFFFFFF DUP3 GT OR ISZERO PUSH3 0x429 JUMPI PUSH3 0x428 PUSH3 0x461 JUMP JUMPDEST JUMPDEST DUP1 PUSH1 0x40 MSTORE POP POP POP JUMP JUMPDEST PUSH32 0x4E487B7100000000000000000000000000000000000000000000000000000000 PUSH1 0x0 MSTORE PUSH1 0x22 PUSH1 0x4 MSTORE PUSH1 0x24 PUSH1 0x0 REVERT JUMPDEST PUSH32 0x4E487B7100000000000000000000000000000000000000000000000000000000 PUSH1 0x0 MSTORE PUSH1 0x41 PUSH1 0x4 MSTORE PUSH1 0x24 PUSH1 0x0 REVERT JUMPDEST PUSH1 0x0 PUSH1 0x1F NOT PUSH1 0x1F DUP4 ADD AND SWAP1 POP SWAP2 SWAP1 POP JUMP JUMPDEST PUSH3 0x4AC DUP2 PUSH3 0x379 JUMP JUMPDEST DUP2 EQ PUSH3 0x4B8 JUMPI PUSH1 0x0 DUP1 REVERT JUMPDEST POP JUMP JUMPDEST PUSH3 0x4C6 DUP2 PUSH3 0x383 JUMP JUMPDEST DUP2 EQ PUSH3 0x4D2 JUMPI PUSH1 0x0 DUP1 REVERT JUMPDEST POP JUMP JUMPDEST PUSH2 0x91E DUP1 PUSH3 0x4E5 PUSH1 0x0 CODECOPY PUSH1 0x0 RETURN INVALID PUSH1 0x80 PUSH1 0x40 MSTORE CALLVALUE DUP1 ISZERO PUSH2 0x10 JUMPI PUSH1 0x0 DUP1 REVERT JUMPDEST POP PUSH1 0x4 CALLDATASIZE LT PUSH2 0x7D JUMPI PUSH1 0x0 CALLDATALOAD PUSH1 0xE0 SHR DUP1 PUSH4 0x313CE567 GT PUSH2 0x5B JUMPI DUP1 PUSH4 0x313CE567 EQ PUSH2 0xEE JUMPI DUP1 PUSH4 0x70A08231 EQ PUSH2 0x10C JUMPI DUP1 PUSH4 0x95D89B41 EQ PUSH2 0x13C JUMPI DUP1 PUSH4 0xA9059CBB EQ PUSH2 0x15A JUMPI PUSH2 0x7D JUMP JUMPDEST DUP1 PUSH4 0x6FDDE03 EQ PUSH2 0x82 JUMPI DUP1 PUSH4 0x18160DDD EQ PUSH2 0xA0 JUMPI DUP1 PUSH4 0x23B872DD EQ PUSH2 0xBE JUMPI JUMPDEST PUSH1 0x0 DUP1 REVERT JUMPDEST PUSH2 0x8A PUSH2 0x18A JUMP JUMPDEST PUSH1 0x40 MLOAD PUSH2 0x97 SWAP2 SWAP1 PUSH2 0x693 JUMP JUMPDEST PUSH1 0x40 MLOAD DUP1 SWAP2 SUB SWAP1 RETURN JUMPDEST PUSH2 0xA8 PUSH2 0x21C JUMP JUMPDEST PUSH1 0x40 MLOAD PUSH2 0xB5 SWAP2 SWAP1 PUSH2 0x6B5 JUMP JUMPDEST PUSH1 0x40 MLOAD DUP1 SWAP2 SUB SWAP1 RETURN JUMPDEST PUSH2 0xD8 PUSH1 0x4 DUP1 CALLDATASIZE SUB DUP2 ADD SWAP1 PUSH2 0xD3 SWAP2 SWAP1 PUSH2 0x587 JUMP JUMPDEST PUSH2 0x226 JUMP JUMPDEST PUSH1 0x40 MLOAD PUSH2 0xE5 SWAP2 SWAP1 PUSH2 0x678 JUMP JUMPDEST PUSH1 0x40 MLOAD DUP1 SWAP2 SUB SWAP1 RETURN JUMPDEST PUSH2 0xF6 PUSH2 0x401 JUMP JUMPDEST PUSH1 0x40 MLOAD PUSH2 0x103 SWAP2 SWAP1 PUSH2 0x6D0 JUMP JUMPDEST PUSH1 0x40 MLOAD DUP1 SWAP2 SUB SWAP1 RETURN JUMPDEST PUSH2 0x126 PUSH1 0x4 DUP1 CALLDATASIZE SUB DUP2 ADD SWAP1 PUSH2 0x121 SWAP2 SWAP1 PUSH2 0x55E JUMP JUMPDEST PUSH2 0x418 JUMP JUMPDEST PUSH1 0x40 MLOAD PUSH2 0x133 SWAP2 SWAP1 PUSH2 0x6B5 JUMP JUMPDEST PUSH1 0x40 MLOAD DUP1 SWAP2 SUB SWAP1 RETURN JUMPDEST PUSH2 0x144 PUSH2 0x461 JUMP JUMPDEST PUSH1 0x40 MLOAD PUSH2 0x151 SWAP2 SWAP1 PUSH2 0x693 JUMP JUMPDEST PUSH1 0x40 MLOAD DUP1 SWAP2 SUB SWAP1 RETURN JUMPDEST PUSH2 0x174 PUSH1 0x4 DUP1 CALLDATASIZE SUB DUP2 ADD SWAP1 PUSH2 0x16F SWAP2 SWAP1 PUSH2 0x5D6 JUMP JUMPDEST PUSH2 0x4F3 JUMP JUMPDEST PUSH1 0x40 MLOAD PUSH2 0x181 SWAP2 SWAP1 PUSH2 0x678 JUMP JUMPDEST PUSH1 0x40 MLOAD DUP1 SWAP2 SUB SWAP1 RETURN JUMPDEST PUSH1 0x60 PUSH1 0x1 DUP1 SLOAD PUSH2 0x199 SWAP1 PUSH2 0x819 JUMP JUMPDEST DUP1 PUSH1 0x1F ADD PUSH1 0x20 DUP1 SWAP2 DIV MUL PUSH1 0x20 ADD PUSH1 0x40 MLOAD SWAP1 DUP2 ADD PUSH1 0x40 MSTORE DUP1 SWAP3 SWAP2 SWAP1 DUP2 DUP2 MSTORE PUSH1 0x20 ADD DUP3 DUP1 SLOAD PUSH2 0x1C5 SWAP1 PUSH2 0x819 JUMP JUMPDEST DUP1 ISZERO PUSH2 0x212 JUMPI DUP1 PUSH1 0x1F LT PUSH2 0x1E7 JUMPI PUSH2 0x100 DUP1 DUP4 SLOAD DIV MUL DUP4 MSTORE SWAP2 PUSH1 0x20 ADD SWAP2 PUSH2 0x212 JUMP JUMPDEST DUP3 ADD SWAP2 SWAP1 PUSH1 0x0 MSTORE PUSH1 0x20 PUSH1 0x0 KECCAK256 SWAP1 JUMPDEST DUP2 SLOAD DUP2 MSTORE SWAP1 PUSH1 0x1 ADD SWAP1 PUSH1 0x20 ADD DUP1 DUP4 GT PUSH2 0x1F5 JUMPI DUP3 SWAP1 SUB PUSH1 0x1F AND DUP3 ADD SWAP2 JUMPDEST POP POP POP POP POP SWAP1 POP SWAP1 JUMP JUMPDEST PUSH1 0x0 PUSH1 0x3 SLOAD SWAP1 POP SWAP1 JUMP JUMPDEST PUSH1 0x0 DUP1 PUSH1 0x5 PUSH1 0x0 DUP7 PUSH20 0xFFFFFFFFFFFFFFFFFFFFFFFFFFFFFFFFFFFFFFFF AND PUSH20 0xFFFFFFFFFFFFFFFFFFFFFFFFFFFFFFFFFFFFFFFF AND DUP2 MSTORE PUSH1 0x20 ADD SWAP1 DUP2 MSTORE PUSH1 0x20 ADD PUSH1 0x0 KECCAK256 SLOAD SWAP1 POP DUP3 DUP2 LT ISZERO PUSH2 0x278 JUMPI PUSH1 0x0 DUP1 REVERT JUMPDEST PUSH2 0x2C1 PUSH1 0x5 PUSH1 0x0 DUP8 PUSH20 0xFFFFFFFFFFFFFFFFFFFFFFFFFFFFFFFFFFFFFFFF AND PUSH20 0xFFFFFFFFFFFFFFFFFFFFFFFFFFFFFFFFFFFFFFFF AND DUP2 MSTORE PUSH1 0x20 ADD SWAP1 DUP2 MSTORE PUSH1 0x20 ADD PUSH1 0x0 KECCAK256 SLOAD DUP5 PUSH2 0x508 JUMP JUMPDEST PUSH1 0x5 PUSH1 0x0 DUP8 PUSH20 0xFFFFFFFFFFFFFFFFFFFFFFFFFFFFFFFFFFFFFFFF AND PUSH20 0xFFFFFFFFFFFFFFFFFFFFFFFFFFFFFFFFFFFFFFFF AND DUP2 MSTORE PUSH1 0x20 ADD SWAP1 DUP2 MSTORE PUSH1 0x20 ADD PUSH1 0x0 KECCAK256 DUP2 SWAP1 SSTORE POP PUSH2 0x34D PUSH1 0x5 PUSH1 0x0 DUP7 PUSH20 0xFFFFFFFFFFFFFFFFFFFFFFFFFFFFFFFFFFFFFFFF AND PUSH20 0xFFFFFFFFFFFFFFFFFFFFFFFFFFFFFFFFFFFFFFFF AND DUP2 MSTORE PUSH1 0x20 ADD SWAP1 DUP2 MSTORE PUSH1 0x20 ADD PUSH1 0x0 KECCAK256 SLOAD DUP5 PUSH2 0x51E JUMP JUMPDEST PUSH1 0x5 PUSH1 0x0 DUP7 PUSH20 0xFFFFFFFFFFFFFFFFFFFFFFFFFFFFFFFFFFFFFFFF AND PUSH20 0xFFFFFFFFFFFFFFFFFFFFFFFFFFFFFFFFFFFFFFFF AND DUP2 MSTORE PUSH1 0x20 ADD SWAP1 DUP2 MSTORE PUSH1 0x20 ADD PUSH1 0x0 KECCAK256 DUP2 SWAP1 SSTORE POP DUP4 PUSH20 0xFFFFFFFFFFFFFFFFFFFFFFFFFFFFFFFFFFFFFFFF AND DUP6 PUSH20 0xFFFFFFFFFFFFFFFFFFFFFFFFFFFFFFFFFFFFFFFF AND PUSH32 0xDDF252AD1BE2C89B69C2B068FC378DAA952BA7F163C4A11628F55A4DF523B3EF DUP6 PUSH1 0x40 MLOAD PUSH2 0x3ED SWAP2 SWAP1 PUSH2 0x6B5 JUMP JUMPDEST PUSH1 0x40 MLOAD DUP1 SWAP2 SUB SWAP1 LOG3 PUSH1 0x1 SWAP2 POP POP SWAP4 SWAP3 POP POP POP JUMP JUMPDEST PUSH1 0x0 PUSH1 0x4 PUSH1 0x0 SWAP1 SLOAD SWAP1 PUSH2 0x100 EXP SWAP1 DIV PUSH1 0xFF AND SWAP1 POP SWAP1 JUMP JUMPDEST PUSH1 0x0 PUSH1 0x5 PUSH1 0x0 DUP4 PUSH20 0xFFFFFFFFFFFFFFFFFFFFFFFFFFFFFFFFFFFFFFFF AND PUSH20 0xFFFFFFFFFFFFFFFFFFFFFFFFFFFFFFFFFFFFFFFF AND DUP2 MSTORE PUSH1 0x20 ADD SWAP1 DUP2 MSTORE PUSH1 0x20 ADD PUSH1 0x0 KECCAK256 SLOAD SWAP1 POP SWAP2 SWAP1 POP JUMP JUMPDEST PUSH1 0x60 PUSH1 0x2 DUP1 SLOAD PUSH2 0x470 SWAP1 PUSH2 0x819 JUMP JUMPDEST DUP1 PUSH1 0x1F ADD PUSH1 0x20 DUP1 SWAP2 DIV MUL PUSH1 0x20 ADD PUSH1 0x40 MLOAD SWAP1 DUP2 ADD PUSH1 0x40 MSTORE DUP1 SWAP3 SWAP2 SWAP1 DUP2 DUP2 MSTORE PUSH1 0x20 ADD DUP3 DUP1 SLOAD PUSH2 0x49C SWAP1 PUSH2 0x819 JUMP JUMPDEST DUP1 ISZERO PUSH2 0x4E9 JUMPI DUP1 PUSH1 0x1F LT PUSH2 0x4BE JUMPI PUSH2 0x100 DUP1 DUP4 SLOAD DIV MUL DUP4 MSTORE SWAP2 PUSH1 0x20 ADD SWAP2 PUSH2 0x4E9 JUMP JUMPDEST DUP3 ADD SWAP2 SWAP1 PUSH1 0x0 MSTORE PUSH1 0x20 PUSH1 0x0 KECCAK256 SWAP1 JUMPDEST DUP2 SLOAD DUP2 MSTORE SWAP1 PUSH1 0x1 ADD SWAP1 PUSH1 0x20 ADD DUP1 DUP4 GT PUSH2 0x4CC JUMPI DUP3 SWAP1 SUB PUSH1 0x1F AND DUP3 ADD SWAP2 JUMPDEST POP POP POP POP POP SWAP1 POP SWAP1 JUMP JUMPDEST PUSH1 0x0 PUSH2 0x500 CALLER DUP5 DUP5 PUSH2 0x226 JUMP JUMPDEST SWAP1 POP SWAP3 SWAP2 POP POP JUMP JUMPDEST PUSH1 0x0 DUP2 DUP4 PUSH2 0x516 SWAP2 SWAP1 PUSH2 0x75D JUMP JUMPDEST SWAP1 POP SWAP3 SWAP2 POP POP JUMP JUMPDEST PUSH1 0x0 DUP2 DUP4 PUSH2 0x52C SWAP2 SWAP1 PUSH2 0x707 JUMP JUMPDEST SWAP1 POP SWAP3 SWAP2 POP POP JUMP JUMPDEST PUSH1 0x0 DUP2 CALLDATALOAD SWAP1 POP PUSH2 0x543 DUP2 PUSH2 0x8BA JUMP JUMPDEST SWAP3 SWAP2 POP POP JUMP JUMPDEST PUSH1 0x0 DUP2 CALLDATALOAD SWAP1 POP PUSH2 0x558 DUP2 PUSH2 0x8D1 JUMP JUMPDEST SWAP3 SWAP2 POP POP JUMP JUMPDEST PUSH1 0x0 PUSH1 0x20 DUP3 DUP5 SUB SLT ISZERO PUSH2 0x570 JUMPI PUSH1 0x0 DUP1 REVERT JUMPDEST PUSH1 0x0 PUSH2 0x57E DUP5 DUP3 DUP6 ADD PUSH2 0x534 JUMP JUMPDEST SWAP2 POP POP SWAP3 SWAP2 POP POP JUMP JUMPDEST PUSH1 0x0 DUP1 PUSH1 0x0 PUSH1 0x60 DUP5 DUP7 SUB SLT ISZERO PUSH2 0x59C JUMPI PUSH1 0x0 DUP1 REVERT JUMPDEST PUSH1 0x0 PUSH2 0x5AA DUP7 DUP3 DUP8 ADD PUSH2 0x534 JUMP JUMPDEST SWAP4 POP POP PUSH1 0x20 PUSH2 0x5BB DUP7 DUP3 DUP8 ADD PUSH2 0x534 JUMP JUMPDEST SWAP3 POP POP PUSH1 0x40 PUSH2 0x5CC DUP7 DUP3 DUP8 ADD PUSH2 0x549 JUMP JUMPDEST SWAP2 POP POP SWAP3 POP SWAP3 POP SWAP3 JUMP JUMPDEST PUSH1 0x0 DUP1 PUSH1 0x40 DUP4 DUP6 SUB SLT ISZERO PUSH2 0x5E9 JUMPI PUSH1 0x0 DUP1 REVERT JUMPDEST PUSH1 0x0 PUSH2 0x5F7 DUP6 DUP3 DUP7 ADD PUSH2 0x534 JUMP JUMPDEST SWAP3 POP POP PUSH1 0x20 PUSH2 0x608 DUP6 DUP3 DUP7 ADD PUSH2 0x549 JUMP JUMPDEST SWAP2 POP POP SWAP3 POP SWAP3 SWAP1 POP JUMP JUMPDEST PUSH2 0x61B DUP2 PUSH2 0x7A3 JUMP JUMPDEST DUP3 MSTORE POP POP JUMP JUMPDEST PUSH1 0x0 PUSH2 0x62C DUP3 PUSH2 0x6EB JUMP JUMPDEST PUSH2 0x636 DUP2 DUP6 PUSH2 0x6F6 JUMP JUMPDEST SWAP4 POP PUSH2 0x646 DUP2 DUP6 PUSH1 0x20 DUP7 ADD PUSH2 0x7E6 JUMP JUMPDEST PUSH2 0x64F DUP2 PUSH2 0x8A9 JUMP JUMPDEST DUP5 ADD SWAP2 POP POP SWAP3 SWAP2 POP POP JUMP JUMPDEST PUSH2 0x663 DUP2 PUSH2 0x7CF JUMP JUMPDEST DUP3 MSTORE POP POP JUMP JUMPDEST PUSH2 0x672 DUP2 PUSH2 0x7D9 JUMP JUMPDEST DUP3 MSTORE POP POP JUMP JUMPDEST PUSH1 0x0 PUSH1 0x20 DUP3 ADD SWAP1 POP PUSH2 0x68D PUSH1 0x0 DUP4 ADD DUP5 PUSH2 0x612 JUMP JUMPDEST SWAP3 SWAP2 POP POP JUMP JUMPDEST PUSH1 0x0 PUSH1 0x20 DUP3 ADD SWAP1 POP DUP2 DUP2 SUB PUSH1 0x0 DUP4 ADD MSTORE PUSH2 0x6AD DUP2 DUP5 PUSH2 0x621 JUMP JUMPDEST SWAP1 POP SWAP3 SWAP2 POP POP JUMP JUMPDEST PUSH1 0x0 PUSH1 0x20 DUP3 ADD SWAP1 POP PUSH2 0x6CA PUSH1 0x0 DUP4 ADD DUP5 PUSH2 0x65A JUMP JUMPDEST SWAP3 SWAP2 POP POP JUMP JUMPDEST PUSH1 0x0 PUSH1 0x20 DUP3 ADD SWAP1 POP PUSH2 0x6E5 PUSH1 0x0 DUP4 ADD DUP5 PUSH2 0x669 JUMP JUMPDEST SWAP3 SWAP2 POP POP JUMP JUMPDEST PUSH1 0x0 DUP2 MLOAD SWAP1 POP SWAP2 SWAP1 POP JUMP JUMPDEST PUSH1 0x0 DUP3 DUP3 MSTORE PUSH1 0x20 DUP3 ADD SWAP1 POP SWAP3 SWAP2 POP POP JUMP JUMPDEST PUSH1 0x0 PUSH2 0x712 DUP3 PUSH2 0x7CF JUMP JUMPDEST SWAP2 POP PUSH2 0x71D DUP4 PUSH2 0x7CF JUMP JUMPDEST SWAP3 POP DUP3 PUSH32 0xFFFFFFFFFFFFFFFFFFFFFFFFFFFFFFFFFFFFFFFFFFFFFFFFFFFFFFFFFFFFFFFF SUB DUP3 GT ISZERO PUSH2 0x752 JUMPI PUSH2 0x751 PUSH2 0x84B JUMP JUMPDEST JUMPDEST DUP3 DUP3 ADD SWAP1 POP SWAP3 SWAP2 POP POP JUMP JUMPDEST PUSH1 0x0 PUSH2 0x768 DUP3 PUSH2 0x7CF JUMP JUMPDEST SWAP2 POP PUSH2 0x773 DUP4 PUSH2 0x7CF JUMP JUMPDEST SWAP3 POP DUP3 DUP3 LT ISZERO PUSH2 0x786 JUMPI PUSH2 0x785 PUSH2 0x84B JUMP JUMPDEST JUMPDEST DUP3 DUP3 SUB SWAP1 POP SWAP3 SWAP2 POP POP JUMP JUMPDEST PUSH1 0x0 PUSH2 0x79C DUP3 PUSH2 0x7AF JUMP JUMPDEST SWAP1 POP SWAP2 SWAP1 POP JUMP JUMPDEST PUSH1 0x0 DUP2 ISZERO ISZERO SWAP1 POP SWAP2 SWAP1 POP JUMP JUMPDEST PUSH1 0x0 PUSH20 0xFFFFFFFFFFFFFFFFFFFFFFFFFFFFFFFFFFFFFFFF DUP3 AND SWAP1 POP SWAP2 SWAP1 POP JUMP JUMPDEST PUSH1 0x0 DUP2 SWAP1 POP SWAP2 SWAP1 POP JUMP JUMPDEST PUSH1 0x0 PUSH1 0xFF DUP3 AND SWAP1 POP SWAP2 SWAP1 POP JUMP JUMPDEST PUSH1 0x0 JUMPDEST DUP4 DUP2 LT ISZERO PUSH2 0x804 JUMPI DUP1 DUP3 ADD MLOAD DUP2 DUP5 ADD MSTORE PUSH1 0x20 DUP2 ADD SWAP1 POP PUSH2 0x7E9 JUMP JUMPDEST DUP4 DUP2 GT ISZERO PUSH2 0x813 JUMPI PUSH1 0x0 DUP5 DUP5 ADD MSTORE JUMPDEST POP POP POP POP JUMP JUMPDEST PUSH1 0x0 PUSH1 0x2 DUP3 DIV SWAP1 POP PUSH1 0x1 DUP3 AND DUP1 PUSH2 0x831 JUMPI PUSH1 0x7F DUP3 AND SWAP2 POP JUMPDEST PUSH1 0x20 DUP3 LT DUP2 EQ ISZERO PUSH2 0x845 JUMPI PUSH2 0x844 PUSH2 0x87A JUMP JUMPDEST JUMPDEST POP SWAP2 SWAP1 POP JUMP JUMPDEST PUSH32 0x4E487B7100000000000000000000000000000000000000000000000000000000 PUSH1 0x0 MSTORE PUSH1 0x11 PUSH1 0x4 MSTORE PUSH1 0x24 PUSH1 0x0 REVERT JUMPDEST PUSH32 0x4E487B7100000000000000000000000000000000000000000000000000000000 PUSH1 0x0 MSTORE PUSH1 0x22 PUSH1 0x4 MSTORE PUSH1 0x24 PUSH1 0x0 REVERT JUMPDEST PUSH1 0x0 PUSH1 0x1F NOT PUSH1 0x1F DUP4 ADD AND SWAP1 POP SWAP2 SWAP1 POP JUMP JUMPDEST PUSH2 0x8C3 DUP2 PUSH2 0x791 JUMP JUMPDEST DUP2 EQ PUSH2 0x8CE JUMPI PUSH1 0x0 DUP1 REVERT JUMPDEST POP JUMP JUMPDEST PUSH2 0x8DA DUP2 PUSH2 0x7CF JUMP JUMPDEST DUP2 EQ PUSH2 0x8E5 JUMPI PUSH1 0x0 DUP1 REVERT JUMPDEST POP JUMP INVALID LOG2 PUSH5 0x6970667358 0x22 SLT KECCAK256 0xA7 PUSH2 0x7035 0xEC MLOAD PUSH25 0x691262649A930480F65B83489F63F1374642987528DACD53FE PUSH5 0x736F6C6343 STOP ADDMOD DIV STOP CALLER LOG2 PUSH5 0x6970667358 0x22 SLT KECCAK256 SWAP16 0xDA MULMOD PUSH1 0x4F SDIV 0xDE 0x25 SELFBALANCE PUSH22 0xA1E0561FC6B67C31A49A289B68421AAA84AAF3A54B71 PUSH5 0x736F6C6343 STOP ADDMOD DIV STOP CALLER "
		},
		"gasEstimates": {
			"creation": {
				"codeDepositCost": "3041800",
				"executionCost": "infinite",
				"totalCost": "infinite"
			},
			"external": {
				"add_to_holdings(address,string)": "infinite",
				"buyToken(string)": "infinite",
				"deposit()": "infinite",
				"getAllTokens()": "infinite",
				"getCost(string)": "infinite",
				"getHeldTokens(address)": "infinite",
				"getPot()": "1160",
				"getPrice(string)": "infinite",
				"getTokenBalance(string,address)": "infinite",
				"getTokenValue(string,address)": "infinite",
				"getTotalSupply(string)": "infinite",
				"mintToken(string,string,string,uint256)": "infinite",
				"sellToken(string,uint256)": "infinite",
				"updatePrice(string,uint256)": "infinite",
				"withdraw()": "infinite"
			},
			"internal": {
				"compare_strings(string memory,string memory)": "infinite",
				"remove_from_holdings(address,string memory)": "infinite"
			}
		},
		"methodIdentifiers": {
			"add_to_holdings(address,string)": "6d7dfea7",
			"buyToken(string)": "65d0dfc4",
			"deposit()": "d0e30db0",
			"getAllTokens()": "2a5c792a",
			"getCost(string)": "9ca3c29c",
			"getHeldTokens(address)": "66836b7c",
			"getPot()": "403c9fa8",
			"getPrice(string)": "524f3889",
			"getTokenBalance(string,address)": "3cdb9762",
			"getTokenValue(string,address)": "84465b3e",
			"getTotalSupply(string)": "5463109e",
			"mintToken(string,string,string,uint256)": "b4a8e0a9",
			"sellToken(string,uint256)": "93990aa6",
			"updatePrice(string,uint256)": "4a432a46",
			"withdraw()": "3ccfd60b"
		}
	},
	"abi": [
		{
			"inputs": [
				{
					"internalType": "address",
					"name": "second_owner",
					"type": "address"
				}
			],
			"stateMutability": "payable",
			"type": "constructor"
		},
		{
			"anonymous": false,
			"inputs": [
				{
					"indexed": false,
					"internalType": "address",
					"name": "buyer",
					"type": "address"
				},
				{
					"indexed": false,
					"internalType": "string",
					"name": "playerID",
					"type": "string"
				},
				{
					"indexed": false,
					"internalType": "uint256",
					"name": "price",
					"type": "uint256"
				},
				{
					"indexed": false,
					"internalType": "uint256",
					"name": "num_tokens",
					"type": "uint256"
				}
			],
			"name": "Buy",
			"type": "event"
		},
		{
			"anonymous": false,
			"inputs": [
				{
					"indexed": false,
					"internalType": "address",
					"name": "owner1",
					"type": "address"
				},
				{
					"indexed": false,
					"internalType": "address",
					"name": "owner2",
					"type": "address"
				},
				{
					"indexed": false,
					"internalType": "uint256",
					"name": "pot",
					"type": "uint256"
				}
			],
			"name": "Creation",
			"type": "event"
		},
		{
			"anonymous": false,
			"inputs": [
				{
					"indexed": false,
					"internalType": "string",
					"name": "playerID",
					"type": "string"
				},
				{
					"indexed": false,
					"internalType": "string",
					"name": "tokenName",
					"type": "string"
				},
				{
					"indexed": false,
					"internalType": "string",
					"name": "tokenSymbol",
					"type": "string"
				},
				{
					"indexed": false,
					"internalType": "uint256",
					"name": "tokenPrice",
					"type": "uint256"
				}
			],
			"name": "Mint",
			"type": "event"
		},
		{
			"anonymous": false,
			"inputs": [
				{
					"indexed": false,
					"internalType": "address",
					"name": "seller",
					"type": "address"
				},
				{
					"indexed": false,
					"internalType": "string",
					"name": "playerID",
					"type": "string"
				},
				{
					"indexed": false,
					"internalType": "uint256",
					"name": "price",
					"type": "uint256"
				},
				{
					"indexed": false,
					"internalType": "uint256",
					"name": "num_tokens",
					"type": "uint256"
				}
			],
			"name": "Sell",
			"type": "event"
		},
		{
			"inputs": [
				{
					"internalType": "address",
					"name": "user",
					"type": "address"
				},
				{
					"internalType": "string",
					"name": "playerID",
					"type": "string"
				}
			],
			"name": "add_to_holdings",
			"outputs": [
				{
					"internalType": "string[]",
					"name": "",
					"type": "string[]"
				}
			],
			"stateMutability": "nonpayable",
			"type": "function"
		},
		{
			"inputs": [
				{
					"internalType": "string",
					"name": "playerID",
					"type": "string"
				}
			],
			"name": "buyToken",
			"outputs": [
				{
					"internalType": "bool",
					"name": "",
					"type": "bool"
				}
			],
			"stateMutability": "payable",
			"type": "function"
		},
		{
			"inputs": [],
			"name": "deposit",
			"outputs": [],
			"stateMutability": "payable",
			"type": "function"
		},
		{
			"inputs": [],
			"name": "getAllTokens",
			"outputs": [
				{
					"internalType": "string[]",
					"name": "",
					"type": "string[]"
				}
			],
			"stateMutability": "view",
			"type": "function"
		},
		{
			"inputs": [
				{
					"internalType": "string",
					"name": "playerID",
					"type": "string"
				}
			],
			"name": "getCost",
			"outputs": [
				{
					"internalType": "uint256",
					"name": "",
					"type": "uint256"
				}
			],
			"stateMutability": "view",
			"type": "function"
		},
		{
			"inputs": [
				{
					"internalType": "address",
					"name": "user",
					"type": "address"
				}
			],
			"name": "getHeldTokens",
			"outputs": [
				{
					"internalType": "string[]",
					"name": "",
					"type": "string[]"
				}
			],
			"stateMutability": "view",
			"type": "function"
		},
		{
			"inputs": [],
			"name": "getPot",
			"outputs": [
				{
					"internalType": "uint256",
					"name": "",
					"type": "uint256"
				}
			],
			"stateMutability": "view",
			"type": "function"
		},
		{
			"inputs": [
				{
					"internalType": "string",
					"name": "playerID",
					"type": "string"
				}
			],
			"name": "getPrice",
			"outputs": [
				{
					"internalType": "uint256",
					"name": "",
					"type": "uint256"
				}
			],
			"stateMutability": "view",
			"type": "function"
		},
		{
			"inputs": [
				{
					"internalType": "string",
					"name": "playerID",
					"type": "string"
				},
				{
					"internalType": "address",
					"name": "user",
					"type": "address"
				}
			],
			"name": "getTokenBalance",
			"outputs": [
				{
					"internalType": "uint256",
					"name": "",
					"type": "uint256"
				}
			],
			"stateMutability": "view",
			"type": "function"
		},
		{
			"inputs": [
				{
					"internalType": "string",
					"name": "playerID",
					"type": "string"
				},
				{
					"internalType": "address",
					"name": "user",
					"type": "address"
				}
			],
			"name": "getTokenValue",
			"outputs": [
				{
					"internalType": "uint256",
					"name": "value",
					"type": "uint256"
				}
			],
			"stateMutability": "view",
			"type": "function"
		},
		{
			"inputs": [
				{
					"internalType": "string",
					"name": "playerID",
					"type": "string"
				}
			],
			"name": "getTotalSupply",
			"outputs": [
				{
					"internalType": "uint256",
					"name": "",
					"type": "uint256"
				}
			],
			"stateMutability": "view",
			"type": "function"
		},
		{
			"inputs": [
				{
					"internalType": "string",
					"name": "playerID",
					"type": "string"
				},
				{
					"internalType": "string",
					"name": "tokenName",
					"type": "string"
				},
				{
					"internalType": "string",
					"name": "tokenSymbol",
					"type": "string"
				},
				{
					"internalType": "uint256",
					"name": "tokenPrice",
					"type": "uint256"
				}
			],
			"name": "mintToken",
			"outputs": [
				{
					"internalType": "bool",
					"name": "",
					"type": "bool"
				}
			],
			"stateMutability": "nonpayable",
			"type": "function"
		},
		{
			"inputs": [
				{
					"internalType": "string",
					"name": "playerID",
					"type": "string"
				},
				{
					"internalType": "uint256",
					"name": "count",
					"type": "uint256"
				}
			],
			"name": "sellToken",
			"outputs": [
				{
					"internalType": "bool",
					"name": "",
					"type": "bool"
				}
			],
			"stateMutability": "payable",
			"type": "function"
		},
		{
			"inputs": [
				{
					"internalType": "string",
					"name": "playerID",
					"type": "string"
				},
				{
					"internalType": "uint256",
					"name": "price",
					"type": "uint256"
				}
			],
			"name": "updatePrice",
			"outputs": [
				{
					"internalType": "bool",
					"name": "",
					"type": "bool"
				}
			],
			"stateMutability": "nonpayable",
			"type": "function"
		},
		{
			"inputs": [],
			"name": "withdraw",
			"outputs": [],
			"stateMutability": "payable",
			"type": "function"
		}
	]
}