{
	"data": {
		"bytecode": {
			"linkReferences": {},
			"object": "60806040819052620186a06007556008805460ff1916600417905560056009556125a43881900390819083398101604081905261003b916100b2565b600080546001600160a01b031990811633908117909255600180546001600160a01b038516921682179055346002819055604080519384526020840192909252908201527f25ddec0e2928c71e6f378441517dd92f99efc260c557e570d4d03a6d8a51dc3a9060600160405180910390a1506100e0565b6000602082840312156100c3578081fd5b81516001600160a01b03811681146100d9578182fd5b9392505050565b6124b5806100ef6000396000f3fe608060405260043610620000d25760003560e01c80635463109e116200008957806384465b3e116200006057806384465b3e146200021457806393990aa61462000239578063b4a8e0a91462000250578063d0e30db0146200027557600080fd5b80635463109e14620001a457806365d0dfc414620001c957806366836b7c14620001e057600080fd5b80633bd02f3714620000d75780633ccfd60b14620001035780633cdb9762146200010f578063403c9fa814620001435780634a432a46146200015a578063524f3889146200017f575b600080fd5b620000ee620000e8366004620016a0565b6200027f565b60405190151581526020015b60405180910390f35b6200010d62000332565b005b3480156200011c57600080fd5b50620001346200012e3660046200159f565b62000373565b604051908152602001620000fa565b3480156200015057600080fd5b5060025462000134565b3480156200016757600080fd5b50620000ee62000179366004620016a0565b62000448565b3480156200018c57600080fd5b50620001346200019e3660046200155b565b620004d7565b348015620001b157600080fd5b5062000134620001c33660046200155b565b62000536565b620000ee620001da3660046200155b565b62000610565b348015620001ed57600080fd5b5062000205620001ff3660046200151c565b620008b5565b604051620000fa919062001799565b3480156200022157600080fd5b5062000134620002333660046200159f565b620009ae565b620000ee6200024a366004620016a0565b62000ab1565b3480156200025d57600080fd5b50620000ee6200026f366004620015f7565b62000e0d565b6200010d62000fb4565b600080600585856040516200029692919062001730565b90815260405190819003602001812054632806f5b360e11b8252336004830152602482018590526001600160a01b03169150819063500deb6690604401602060405180830381600087803b158015620002ee57600080fd5b505af115801562000303573d6000803e3d6000fd5b505050506040513d601f19601f8201168201806040525081019062000329919062001539565b95945050505050565b6000546001600160a01b03163314806200035657506001546001600160a01b031633145b6200036057600080fd5b6200036e6002543462000ff0565b600255565b6000600484846040516200038992919062001730565b9081526040519081900360200190205460ff16620003a657600080fd5b600060058585604051620003bc92919062001730565b908152604051908190036020018120546370a0823160e01b82526001600160a01b03858116600484015216915081906370a082319060240160206040518083038186803b1580156200040d57600080fd5b505afa15801562000422573d6000803e3d6000fd5b505050506040513d601f19601f82011682018060405250810190620003299190620016ee565b600080546001600160a01b03163314806200046d57506001546001600160a01b031633145b6200047757600080fd5b600484846040516200048b92919062001730565b9081526040519081900360200190205460ff16620004a857600080fd5b8160038585604051620004bd92919062001730565b908152604051908190036020019020555060019392505050565b600060048383604051620004ed92919062001730565b9081526040519081900360200190205460ff166200050a57600080fd5b600383836040516200051e92919062001730565b90815260200160405180910390205490505b92915050565b6000600483836040516200054c92919062001730565b9081526040519081900360200190205460ff166200056957600080fd5b6000600584846040516200057f92919062001730565b9081526040805160209281900383018120546318160ddd60e01b825291516001600160a01b03909216935083926318160ddd92600480840193829003018186803b158015620005cd57600080fd5b505afa158015620005e2573d6000803e3d6000fd5b505050506040513d601f19601f82011682018060405250810190620006089190620016ee565b949350505050565b6000600483836040516200062692919062001730565b9081526040519081900360200190205460ff166200064357600080fd5b6000600584846040516200065992919062001730565b908152604051908190036020018120546001600160a01b0316915060009060039062000689908790879062001730565b90815260405190819003602001902054600854909150600090620006b39060029060ff1662001a5d565b620006c090600a62001962565b600954620006d0906064620018b5565b620006dc919062001a21565b90506000620006ec828462001005565b90506000620006fc8234620018f8565b9050813410156200070c57600080fd5b60405163095ea7b360e01b8152336004820152602481018290526001906001600160a01b0387169063095ea7b390604401602060405180830381600087803b1580156200075857600080fd5b505af11580156200076d573d6000803e3d6000fd5b505050506040513d601f19601f8201168201806040525081019062000793919062001539565b90508080156200082857506040516323b872dd60e01b8152306004820152336024820152604481018390526001600160a01b038716906323b872dd90606401602060405180830381600087803b158015620007ed57600080fd5b505af115801562000802573d6000803e3d6000fd5b505050506040513d601f19601f8201168201806040525081019062000828919062001539565b90507f40f5583ae6965366e0acfa8dc48c165ed2fce35c84de4966619b6e42e4d5f4c8338a8a8886604051620008639594939291906200175e565b60405180910390a13360009081526006602090815260408220805460018101825590835291206200089791018a8a620012c1565b50620008a66002543462001013565b60025598975050505050505050565b6001600160a01b0381166000908152600660209081526040808320805482518185028101850190935280835260609492939192909184015b82821015620009a35783829060005260206000200180546200090f9062001ab6565b80601f01602080910402602001604051908101604052809291908181526020018280546200093d9062001ab6565b80156200098e5780601f1062000962576101008083540402835291602001916200098e565b820191906000526020600020905b8154815290600101906020018083116200097057829003601f168201915b505050505081526020019060010190620008ed565b505050509050919050565b600060048484604051620009c492919062001730565b9081526040519081900360200190205460ff16620009e157600080fd5b600060058585604051620009f792919062001730565b908152604051908190036020018120546370a0823160e01b82526001600160a01b038581166004840152169150620003299082906370a082319060240160206040518083038186803b15801562000a4d57600080fd5b505afa15801562000a62573d6000803e3d6000fd5b505050506040513d601f19601f8201168201806040525081019062000a889190620016ee565b6003878760405162000a9c92919062001730565b90815260200160405180910390205462001005565b6000806005858560405162000ac892919062001730565b908152604051908190036020018120546001600160a01b0316915060009060039062000af8908890889062001730565b90815260200160405180910390205490506000600954606462000b1c9190620018b5565b60085462000b2f9060ff166002620018d0565b62000b3c90600a62001962565b62000b489190620018f8565b9050600062000b58828462001005565b604051636eb1769f60e11b81523360048201523060248201529091506000906001600160a01b0386169063dd62ed3e9060440160206040518083038186803b15801562000ba457600080fd5b505afa15801562000bb9573d6000803e3d6000fd5b505050506040513d601f19601f8201168201806040525081019062000bdf9190620016ee565b90508681101562000bef57600080fd5b6040516370a0823160e01b81523360048201526000906001600160a01b038716906370a082319060240160206040518083038186803b15801562000c3257600080fd5b505afa15801562000c47573d6000803e3d6000fd5b505050506040513d601f19601f8201168201806040525081019062000c6d9190620016ee565b90508781101562000c7d57600080fd5b600062000c8b848a62001005565b905080600254101562000c9d57600080fd5b6040516323b872dd60e01b8152336004820152306024820152604481018a90526001600160a01b038816906323b872dd90606401602060405180830381600087803b15801562000cec57600080fd5b505af115801562000d01573d6000803e3d6000fd5b505050506040513d601f19601f8201168201806040525081019062000d27919062001539565b50604051339082156108fc029083906000818181858888f1935050505015801562000d56573d6000803e3d6000fd5b5062000d63898362001a43565b62000daa5762000daa338c8c8080601f0160208091040260200160405190810160405280939291908181526020018383808284376000920191909152506200102192505050565b7f049f57f92fe331c8352bc57011dd480b77f5dadaf815d7d9a33fae03e4acc349338c8c898d60405162000de39594939291906200175e565b60405180910390a162000df96002543462000ff0565b6002555060019a9950505050505050505050565b600080546001600160a01b031633148062000e3257506001546001600160a01b031633145b62000e3c57600080fd5b6004888860405162000e5092919062001730565b9081526040519081900360200190205460ff161562000e6e57600080fd5b60075460085460405188928892889288929160ff169062000e8f9062001350565b62000ea0969594939291906200186d565b604051809103906000f08015801562000ebd573d6000803e3d6000fd5b506005898960405162000ed292919062001730565b908152602001604051809103902060006101000a8154816001600160a01b0302191690836001600160a01b0316021790555060016004898960405162000f1a92919062001730565b908152604051908190036020018120805492151560ff1990931692909217909155829060039062000f4f908b908b9062001730565b9081526020016040518091039020819055507f0fcf04ff5a22c65b961750682425ef5a539c0788e5a0cde8d1d431a5da6371348888888888888860405162000f9e979695949392919062001816565b60405180910390a1506001979650505050505050565b6000546001600160a01b031633148062000fd857506001546001600160a01b031633145b62000fe257600080fd5b6200036e6002543462001013565b600062000ffe828462001a43565b9392505050565b600062000ffe828462001a21565b600062000ffe8284620018b5565b6001600160a01b038216600090815260066020908152604080832080548251818502810185019093528083529192909190849084015b828210156200110d578382906000526020600020018054620010799062001ab6565b80601f0160208091040260200160405190810160405280929190818152602001828054620010a79062001ab6565b8015620010f85780601f10620010cc57610100808354040283529160200191620010f8565b820191906000526020600020905b815481529060010190602001808311620010da57829003601f168201915b50505050508152602001906001019062001057565b5050825192935060009283925090505b80831015620012305760008484815181106200114957634e487b7160e01b600052603260045260246000fd5b602002602001015190506200115f868262001264565b156200116a57600192505b82156200121a576200117e60018362001a43565b8414620011ec578462001193856001620018b5565b81518110620011b257634e487b7160e01b600052603260045260246000fd5b6020026020010151858581518110620011db57634e487b7160e01b600052603260045260246000fd5b60200260200101819052506200121a565b8484815181106200120d57634e487b7160e01b600052603260045260246000fd5b6020026020010160608152505b5082620012278162001af3565b9350506200111d565b6001600160a01b038616600090815260066020908152604090912085516200125b928701906200135e565b50505050505050565b60008160405160200162001279919062001740565b6040516020818303038152906040528051906020012083604051602001620012a2919062001740565b6040516020818303038152906040528051906020012014905092915050565b828054620012cf9062001ab6565b90600052602060002090601f016020900481019282620012f357600085556200133e565b82601f106200130e5782800160ff198235161785556200133e565b828001600101855582156200133e579182015b828111156200133e57823582559160200191906001019062001321565b506200134c929150620013be565b5090565b6109588062001b2883390190565b828054828255906000526020600020908101928215620013b0579160200282015b82811115620013b057825180516200139f918491602090910190620013d5565b50916020019190600101906200137f565b506200134c92915062001452565b5b808211156200134c5760008155600101620013bf565b828054620013e39062001ab6565b90600052602060002090601f0160209004810192826200140757600085556200133e565b82601f106200142257805160ff19168380011785556200133e565b828001600101855582156200133e579182015b828111156200133e57825182559160200191906001019062001435565b808211156200134c57600062001469828262001473565b5060010162001452565b508054620014819062001ab6565b6000825580601f1062001492575050565b601f016020900490600052602060002090810190620014b29190620013be565b50565b80356001600160a01b0381168114620014cd57600080fd5b919050565b60008083601f840112620014e4578182fd5b50813567ffffffffffffffff811115620014fc578182fd5b6020830191508360208285010111156200151557600080fd5b9250929050565b6000602082840312156200152e578081fd5b62000ffe82620014b5565b6000602082840312156200154b578081fd5b8151801515811462000ffe578182fd5b600080602083850312156200156e578081fd5b823567ffffffffffffffff81111562001585578182fd5b6200159385828601620014d2565b90969095509350505050565b600080600060408486031215620015b4578081fd5b833567ffffffffffffffff811115620015cb578182fd5b620015d986828701620014d2565b9094509250620015ee905060208501620014b5565b90509250925092565b60008060008060008060006080888a03121562001612578283fd5b873567ffffffffffffffff808211156200162a578485fd5b620016388b838c01620014d2565b909950975060208a013591508082111562001651578485fd5b6200165f8b838c01620014d2565b909750955060408a013591508082111562001678578485fd5b50620016878a828b01620014d2565b989b979a50959894979596606090950135949350505050565b600080600060408486031215620016b5578283fd5b833567ffffffffffffffff811115620016cc578384fd5b620016da86828701620014d2565b909790965060209590950135949350505050565b60006020828403121562001700578081fd5b5051919050565b81835281816020850137506000828201602090810191909152601f909101601f19169091010190565b8183823760009101908152919050565b600082516200175481846020870162001a83565b9190910192915050565b6001600160a01b038616815260806020820181905260009062001785908301868862001707565b604083019490945250606001529392505050565b6000602080830181845280855180835260408601915060408160051b8701019250838701855b828110156200180957878503603f1901845281518051808752620017e9818989018a850162001a83565b601f01601f191695909501860194509285019290850190600101620017bf565b5092979650505050505050565b6080815260006200182c60808301898b62001707565b82810360208401526200184181888a62001707565b905082810360408401526200185881868862001707565b91505082606083015298975050505050505050565b6080815260006200188360808301888a62001707565b82810360208401526200189881878962001707565b91505083604083015260ff83166060830152979650505050505050565b60008219821115620018cb57620018cb62001b11565b500190565b600060ff821660ff84168060ff03821115620018f057620018f062001b11565b019392505050565b6000826200191457634e487b7160e01b81526012600452602481fd5b500490565b600181815b808511156200195a5781600019048211156200193e576200193e62001b11565b808516156200194c57918102915b93841c93908002906200191e565b509250929050565b600062000ffe60ff8416836000826200197e5750600162000530565b816200198d5750600062000530565b8160018114620019a65760028114620019b157620019d1565b600191505062000530565b60ff841115620019c557620019c562001b11565b50506001821b62000530565b5060208310610133831016604e8410600b8410161715620019f6575081810a62000530565b62001a02838362001919565b806000190482111562001a195762001a1962001b11565b029392505050565b600081600019048311821515161562001a3e5762001a3e62001b11565b500290565b60008282101562001a585762001a5862001b11565b500390565b600060ff821660ff84168082101562001a7a5762001a7a62001b11565b90039392505050565b60005b8381101562001aa057818101518382015260200162001a86565b8381111562001ab0576000848401525b50505050565b600181811c9082168062001acb57607f821691505b6020821081141562001aed57634e487b7160e01b600052602260045260246000fd5b50919050565b600060001982141562001b0a5762001b0a62001b11565b5060010190565b634e487b7160e01b600052601160045260246000fdfe608060405260405162000958380380620009588339810160408190526200002691620001f8565b600080546001600160a01b0319163317905583516200004d9060019060208701906200009f565b508251620000639060029060208601906200009f565b5060038290556004805460ff191660ff92909216919091179055600080546001600160a01b031681526005602052604090205550620002d49050565b828054620000ad9062000281565b90600052602060002090601f016020900481019282620000d157600085556200011c565b82601f10620000ec57805160ff19168380011785556200011c565b828001600101855582156200011c579182015b828111156200011c578251825591602001919060010190620000ff565b506200012a9291506200012e565b5090565b5b808211156200012a57600081556001016200012f565b600082601f83011262000156578081fd5b81516001600160401b0380821115620001735762000173620002be565b604051601f8301601f19908116603f011681019082821181831017156200019e576200019e620002be565b81604052838152602092508683858801011115620001ba578485fd5b8491505b83821015620001dd5785820183015181830184015290820190620001be565b83821115620001ee57848385830101525b9695505050505050565b600080600080608085870312156200020e578384fd5b84516001600160401b038082111562000225578586fd5b620002338883890162000145565b9550602087015191508082111562000249578485fd5b50620002588782880162000145565b93505060408501519150606085015160ff8116811462000276578182fd5b939692955090935050565b600181811c908216806200029657607f821691505b60208210811415620002b857634e487b7160e01b600052602260045260246000fd5b50919050565b634e487b7160e01b600052604160045260246000fd5b61067480620002e46000396000f3fe608060405234801561001057600080fd5b506004361061009e5760003560e01c8063500deb6611610066578063500deb661461011e57806370a082311461013157806395d89b411461015a578063a9059cbb14610162578063dd62ed3e1461017557600080fd5b806306fdde03146100a3578063095ea7b3146100c157806318160ddd146100e457806323b872dd146100f6578063313ce56714610109575b600080fd5b6100ab6101ae565b6040516100b8919061056b565b60405180910390f35b6100d46100cf366004610542565b610240565b60405190151581526020016100b8565b6003545b6040519081526020016100b8565b6100d4610104366004610507565b6102ac565b60045460405160ff90911681526020016100b8565b6100d461012c366004610542565b6103f4565b6100e861013f3660046104bb565b6001600160a01b031660009081526005602052604090205490565b6100ab610464565b6100d4610170366004610542565b610473565b6100e86101833660046104d5565b6001600160a01b03918216600090815260066020908152604080832093909416825291909152205490565b6060600180546101bd906105ed565b80601f01602080910402602001604051908101604052809291908181526020018280546101e9906105ed565b80156102365780601f1061020b57610100808354040283529160200191610236565b820191906000526020600020905b81548152906001019060200180831161021957829003601f168201915b5050505050905090565b3360008181526006602090815260408083206001600160a01b038716808552925280832085905551919290917f8c5be1e5ebec7d5bd14f71427d1e84f3dd0314c0f7b2291e5b200ac8c7c3b9259061029b9086815260200190565b60405180910390a350600192915050565b6001600160a01b0380841660008181526006602090815260408083209487168352938152838220549282526005905291822054838110156102ec57600080fd5b838210156102f957600080fd5b6001600160a01b03861660009081526005602052604090205461031c9085610487565b6001600160a01b03808816600090815260056020526040808220939093559087168152205461034b9085610493565b6001600160a01b03808716600081815260056020908152604080832095909555928a16815260068352838120918152915220546103889085610487565b6001600160a01b038781166000818152600660209081526040808320948b16808452948252918290209490945551878152919290917fddf252ad1be2c89b69c2b068fc378daa952ba7f163c4a11628f55a4df523b3ef910160405180910390a350600195945050505050565b600080546001600160a01b0316331461040c57600080fd5b6001600160a01b03831660008181526006602090815260408083203380855290835292819020869055518581529192917f8c5be1e5ebec7d5bd14f71427d1e84f3dd0314c0f7b2291e5b200ac8c7c3b925910161029b565b6060600280546101bd906105ed565b60006104803384846102ac565b9392505050565b600061048082846105d6565b600061048082846105be565b80356001600160a01b03811681146104b657600080fd5b919050565b6000602082840312156104cc578081fd5b6104808261049f565b600080604083850312156104e7578081fd5b6104f08361049f565b91506104fe6020840161049f565b90509250929050565b60008060006060848603121561051b578081fd5b6105248461049f565b92506105326020850161049f565b9150604084013590509250925092565b60008060408385031215610554578182fd5b61055d8361049f565b946020939093013593505050565b6000602080835283518082850152825b818110156105975785810183015185820160400152820161057b565b818111156105a85783604083870101525b50601f01601f1916929092016040019392505050565b600082198211156105d1576105d1610628565b500190565b6000828210156105e8576105e8610628565b500390565b600181811c9082168061060157607f821691505b6020821081141561062257634e487b7160e01b600052602260045260246000fd5b50919050565b634e487b7160e01b600052601160045260246000fdfea2646970667358221220ebc929ea6461d9a4eab039937f4f0bf1d36b58e9a378628f3d0587a276e4c5bb64736f6c63430008040033a2646970667358221220cfb40212e20c232138dcc13d1c2d64518f9feb0cac467ca8c0f672d47028445364736f6c63430008040033",
			"opcodes": "PUSH1 0x80 PUSH1 0x40 DUP2 SWAP1 MSTORE PUSH3 0x186A0 PUSH1 0x7 SSTORE PUSH1 0x8 DUP1 SLOAD PUSH1 0xFF NOT AND PUSH1 0x4 OR SWAP1 SSTORE PUSH1 0x5 PUSH1 0x9 SSTORE PUSH2 0x25A4 CODESIZE DUP2 SWAP1 SUB SWAP1 DUP2 SWAP1 DUP4 CODECOPY DUP2 ADD PUSH1 0x40 DUP2 SWAP1 MSTORE PUSH2 0x3B SWAP2 PUSH2 0xB2 JUMP JUMPDEST PUSH1 0x0 DUP1 SLOAD PUSH1 0x1 PUSH1 0x1 PUSH1 0xA0 SHL SUB NOT SWAP1 DUP2 AND CALLER SWAP1 DUP2 OR SWAP1 SWAP3 SSTORE PUSH1 0x1 DUP1 SLOAD PUSH1 0x1 PUSH1 0x1 PUSH1 0xA0 SHL SUB DUP6 AND SWAP3 AND DUP3 OR SWAP1 SSTORE CALLVALUE PUSH1 0x2 DUP2 SWAP1 SSTORE PUSH1 0x40 DUP1 MLOAD SWAP4 DUP5 MSTORE PUSH1 0x20 DUP5 ADD SWAP3 SWAP1 SWAP3 MSTORE SWAP1 DUP3 ADD MSTORE PUSH32 0x25DDEC0E2928C71E6F378441517DD92F99EFC260C557E570D4D03A6D8A51DC3A SWAP1 PUSH1 0x60 ADD PUSH1 0x40 MLOAD DUP1 SWAP2 SUB SWAP1 LOG1 POP PUSH2 0xE0 JUMP JUMPDEST PUSH1 0x0 PUSH1 0x20 DUP3 DUP5 SUB SLT ISZERO PUSH2 0xC3 JUMPI DUP1 DUP2 REVERT JUMPDEST DUP2 MLOAD PUSH1 0x1 PUSH1 0x1 PUSH1 0xA0 SHL SUB DUP2 AND DUP2 EQ PUSH2 0xD9 JUMPI DUP2 DUP3 REVERT JUMPDEST SWAP4 SWAP3 POP POP POP JUMP JUMPDEST PUSH2 0x24B5 DUP1 PUSH2 0xEF PUSH1 0x0 CODECOPY PUSH1 0x0 RETURN INVALID PUSH1 0x80 PUSH1 0x40 MSTORE PUSH1 0x4 CALLDATASIZE LT PUSH3 0xD2 JUMPI PUSH1 0x0 CALLDATALOAD PUSH1 0xE0 SHR DUP1 PUSH4 0x5463109E GT PUSH3 0x89 JUMPI DUP1 PUSH4 0x84465B3E GT PUSH3 0x60 JUMPI DUP1 PUSH4 0x84465B3E EQ PUSH3 0x214 JUMPI DUP1 PUSH4 0x93990AA6 EQ PUSH3 0x239 JUMPI DUP1 PUSH4 0xB4A8E0A9 EQ PUSH3 0x250 JUMPI DUP1 PUSH4 0xD0E30DB0 EQ PUSH3 0x275 JUMPI PUSH1 0x0 DUP1 REVERT JUMPDEST DUP1 PUSH4 0x5463109E EQ PUSH3 0x1A4 JUMPI DUP1 PUSH4 0x65D0DFC4 EQ PUSH3 0x1C9 JUMPI DUP1 PUSH4 0x66836B7C EQ PUSH3 0x1E0 JUMPI PUSH1 0x0 DUP1 REVERT JUMPDEST DUP1 PUSH4 0x3BD02F37 EQ PUSH3 0xD7 JUMPI DUP1 PUSH4 0x3CCFD60B EQ PUSH3 0x103 JUMPI DUP1 PUSH4 0x3CDB9762 EQ PUSH3 0x10F JUMPI DUP1 PUSH4 0x403C9FA8 EQ PUSH3 0x143 JUMPI DUP1 PUSH4 0x4A432A46 EQ PUSH3 0x15A JUMPI DUP1 PUSH4 0x524F3889 EQ PUSH3 0x17F JUMPI JUMPDEST PUSH1 0x0 DUP1 REVERT JUMPDEST PUSH3 0xEE PUSH3 0xE8 CALLDATASIZE PUSH1 0x4 PUSH3 0x16A0 JUMP JUMPDEST PUSH3 0x27F JUMP JUMPDEST PUSH1 0x40 MLOAD SWAP1 ISZERO ISZERO DUP2 MSTORE PUSH1 0x20 ADD JUMPDEST PUSH1 0x40 MLOAD DUP1 SWAP2 SUB SWAP1 RETURN JUMPDEST PUSH3 0x10D PUSH3 0x332 JUMP JUMPDEST STOP JUMPDEST CALLVALUE DUP1 ISZERO PUSH3 0x11C JUMPI PUSH1 0x0 DUP1 REVERT JUMPDEST POP PUSH3 0x134 PUSH3 0x12E CALLDATASIZE PUSH1 0x4 PUSH3 0x159F JUMP JUMPDEST PUSH3 0x373 JUMP JUMPDEST PUSH1 0x40 MLOAD SWAP1 DUP2 MSTORE PUSH1 0x20 ADD PUSH3 0xFA JUMP JUMPDEST CALLVALUE DUP1 ISZERO PUSH3 0x150 JUMPI PUSH1 0x0 DUP1 REVERT JUMPDEST POP PUSH1 0x2 SLOAD PUSH3 0x134 JUMP JUMPDEST CALLVALUE DUP1 ISZERO PUSH3 0x167 JUMPI PUSH1 0x0 DUP1 REVERT JUMPDEST POP PUSH3 0xEE PUSH3 0x179 CALLDATASIZE PUSH1 0x4 PUSH3 0x16A0 JUMP JUMPDEST PUSH3 0x448 JUMP JUMPDEST CALLVALUE DUP1 ISZERO PUSH3 0x18C JUMPI PUSH1 0x0 DUP1 REVERT JUMPDEST POP PUSH3 0x134 PUSH3 0x19E CALLDATASIZE PUSH1 0x4 PUSH3 0x155B JUMP JUMPDEST PUSH3 0x4D7 JUMP JUMPDEST CALLVALUE DUP1 ISZERO PUSH3 0x1B1 JUMPI PUSH1 0x0 DUP1 REVERT JUMPDEST POP PUSH3 0x134 PUSH3 0x1C3 CALLDATASIZE PUSH1 0x4 PUSH3 0x155B JUMP JUMPDEST PUSH3 0x536 JUMP JUMPDEST PUSH3 0xEE PUSH3 0x1DA CALLDATASIZE PUSH1 0x4 PUSH3 0x155B JUMP JUMPDEST PUSH3 0x610 JUMP JUMPDEST CALLVALUE DUP1 ISZERO PUSH3 0x1ED JUMPI PUSH1 0x0 DUP1 REVERT JUMPDEST POP PUSH3 0x205 PUSH3 0x1FF CALLDATASIZE PUSH1 0x4 PUSH3 0x151C JUMP JUMPDEST PUSH3 0x8B5 JUMP JUMPDEST PUSH1 0x40 MLOAD PUSH3 0xFA SWAP2 SWAP1 PUSH3 0x1799 JUMP JUMPDEST CALLVALUE DUP1 ISZERO PUSH3 0x221 JUMPI PUSH1 0x0 DUP1 REVERT JUMPDEST POP PUSH3 0x134 PUSH3 0x233 CALLDATASIZE PUSH1 0x4 PUSH3 0x159F JUMP JUMPDEST PUSH3 0x9AE JUMP JUMPDEST PUSH3 0xEE PUSH3 0x24A CALLDATASIZE PUSH1 0x4 PUSH3 0x16A0 JUMP JUMPDEST PUSH3 0xAB1 JUMP JUMPDEST CALLVALUE DUP1 ISZERO PUSH3 0x25D JUMPI PUSH1 0x0 DUP1 REVERT JUMPDEST POP PUSH3 0xEE PUSH3 0x26F CALLDATASIZE PUSH1 0x4 PUSH3 0x15F7 JUMP JUMPDEST PUSH3 0xE0D JUMP JUMPDEST PUSH3 0x10D PUSH3 0xFB4 JUMP JUMPDEST PUSH1 0x0 DUP1 PUSH1 0x5 DUP6 DUP6 PUSH1 0x40 MLOAD PUSH3 0x296 SWAP3 SWAP2 SWAP1 PUSH3 0x1730 JUMP JUMPDEST SWAP1 DUP2 MSTORE PUSH1 0x40 MLOAD SWAP1 DUP2 SWAP1 SUB PUSH1 0x20 ADD DUP2 KECCAK256 SLOAD PUSH4 0x2806F5B3 PUSH1 0xE1 SHL DUP3 MSTORE CALLER PUSH1 0x4 DUP4 ADD MSTORE PUSH1 0x24 DUP3 ADD DUP6 SWAP1 MSTORE PUSH1 0x1 PUSH1 0x1 PUSH1 0xA0 SHL SUB AND SWAP2 POP DUP2 SWAP1 PUSH4 0x500DEB66 SWAP1 PUSH1 0x44 ADD PUSH1 0x20 PUSH1 0x40 MLOAD DUP1 DUP4 SUB DUP2 PUSH1 0x0 DUP8 DUP1 EXTCODESIZE ISZERO DUP1 ISZERO PUSH3 0x2EE JUMPI PUSH1 0x0 DUP1 REVERT JUMPDEST POP GAS CALL ISZERO DUP1 ISZERO PUSH3 0x303 JUMPI RETURNDATASIZE PUSH1 0x0 DUP1 RETURNDATACOPY RETURNDATASIZE PUSH1 0x0 REVERT JUMPDEST POP POP POP POP PUSH1 0x40 MLOAD RETURNDATASIZE PUSH1 0x1F NOT PUSH1 0x1F DUP3 ADD AND DUP3 ADD DUP1 PUSH1 0x40 MSTORE POP DUP2 ADD SWAP1 PUSH3 0x329 SWAP2 SWAP1 PUSH3 0x1539 JUMP JUMPDEST SWAP6 SWAP5 POP POP POP POP POP JUMP JUMPDEST PUSH1 0x0 SLOAD PUSH1 0x1 PUSH1 0x1 PUSH1 0xA0 SHL SUB AND CALLER EQ DUP1 PUSH3 0x356 JUMPI POP PUSH1 0x1 SLOAD PUSH1 0x1 PUSH1 0x1 PUSH1 0xA0 SHL SUB AND CALLER EQ JUMPDEST PUSH3 0x360 JUMPI PUSH1 0x0 DUP1 REVERT JUMPDEST PUSH3 0x36E PUSH1 0x2 SLOAD CALLVALUE PUSH3 0xFF0 JUMP JUMPDEST PUSH1 0x2 SSTORE JUMP JUMPDEST PUSH1 0x0 PUSH1 0x4 DUP5 DUP5 PUSH1 0x40 MLOAD PUSH3 0x389 SWAP3 SWAP2 SWAP1 PUSH3 0x1730 JUMP JUMPDEST SWAP1 DUP2 MSTORE PUSH1 0x40 MLOAD SWAP1 DUP2 SWAP1 SUB PUSH1 0x20 ADD SWAP1 KECCAK256 SLOAD PUSH1 0xFF AND PUSH3 0x3A6 JUMPI PUSH1 0x0 DUP1 REVERT JUMPDEST PUSH1 0x0 PUSH1 0x5 DUP6 DUP6 PUSH1 0x40 MLOAD PUSH3 0x3BC SWAP3 SWAP2 SWAP1 PUSH3 0x1730 JUMP JUMPDEST SWAP1 DUP2 MSTORE PUSH1 0x40 MLOAD SWAP1 DUP2 SWAP1 SUB PUSH1 0x20 ADD DUP2 KECCAK256 SLOAD PUSH4 0x70A08231 PUSH1 0xE0 SHL DUP3 MSTORE PUSH1 0x1 PUSH1 0x1 PUSH1 0xA0 SHL SUB DUP6 DUP2 AND PUSH1 0x4 DUP5 ADD MSTORE AND SWAP2 POP DUP2 SWAP1 PUSH4 0x70A08231 SWAP1 PUSH1 0x24 ADD PUSH1 0x20 PUSH1 0x40 MLOAD DUP1 DUP4 SUB DUP2 DUP7 DUP1 EXTCODESIZE ISZERO DUP1 ISZERO PUSH3 0x40D JUMPI PUSH1 0x0 DUP1 REVERT JUMPDEST POP GAS STATICCALL ISZERO DUP1 ISZERO PUSH3 0x422 JUMPI RETURNDATASIZE PUSH1 0x0 DUP1 RETURNDATACOPY RETURNDATASIZE PUSH1 0x0 REVERT JUMPDEST POP POP POP POP PUSH1 0x40 MLOAD RETURNDATASIZE PUSH1 0x1F NOT PUSH1 0x1F DUP3 ADD AND DUP3 ADD DUP1 PUSH1 0x40 MSTORE POP DUP2 ADD SWAP1 PUSH3 0x329 SWAP2 SWAP1 PUSH3 0x16EE JUMP JUMPDEST PUSH1 0x0 DUP1 SLOAD PUSH1 0x1 PUSH1 0x1 PUSH1 0xA0 SHL SUB AND CALLER EQ DUP1 PUSH3 0x46D JUMPI POP PUSH1 0x1 SLOAD PUSH1 0x1 PUSH1 0x1 PUSH1 0xA0 SHL SUB AND CALLER EQ JUMPDEST PUSH3 0x477 JUMPI PUSH1 0x0 DUP1 REVERT JUMPDEST PUSH1 0x4 DUP5 DUP5 PUSH1 0x40 MLOAD PUSH3 0x48B SWAP3 SWAP2 SWAP1 PUSH3 0x1730 JUMP JUMPDEST SWAP1 DUP2 MSTORE PUSH1 0x40 MLOAD SWAP1 DUP2 SWAP1 SUB PUSH1 0x20 ADD SWAP1 KECCAK256 SLOAD PUSH1 0xFF AND PUSH3 0x4A8 JUMPI PUSH1 0x0 DUP1 REVERT JUMPDEST DUP2 PUSH1 0x3 DUP6 DUP6 PUSH1 0x40 MLOAD PUSH3 0x4BD SWAP3 SWAP2 SWAP1 PUSH3 0x1730 JUMP JUMPDEST SWAP1 DUP2 MSTORE PUSH1 0x40 MLOAD SWAP1 DUP2 SWAP1 SUB PUSH1 0x20 ADD SWAP1 KECCAK256 SSTORE POP PUSH1 0x1 SWAP4 SWAP3 POP POP POP JUMP JUMPDEST PUSH1 0x0 PUSH1 0x4 DUP4 DUP4 PUSH1 0x40 MLOAD PUSH3 0x4ED SWAP3 SWAP2 SWAP1 PUSH3 0x1730 JUMP JUMPDEST SWAP1 DUP2 MSTORE PUSH1 0x40 MLOAD SWAP1 DUP2 SWAP1 SUB PUSH1 0x20 ADD SWAP1 KECCAK256 SLOAD PUSH1 0xFF AND PUSH3 0x50A JUMPI PUSH1 0x0 DUP1 REVERT JUMPDEST PUSH1 0x3 DUP4 DUP4 PUSH1 0x40 MLOAD PUSH3 0x51E SWAP3 SWAP2 SWAP1 PUSH3 0x1730 JUMP JUMPDEST SWAP1 DUP2 MSTORE PUSH1 0x20 ADD PUSH1 0x40 MLOAD DUP1 SWAP2 SUB SWAP1 KECCAK256 SLOAD SWAP1 POP JUMPDEST SWAP3 SWAP2 POP POP JUMP JUMPDEST PUSH1 0x0 PUSH1 0x4 DUP4 DUP4 PUSH1 0x40 MLOAD PUSH3 0x54C SWAP3 SWAP2 SWAP1 PUSH3 0x1730 JUMP JUMPDEST SWAP1 DUP2 MSTORE PUSH1 0x40 MLOAD SWAP1 DUP2 SWAP1 SUB PUSH1 0x20 ADD SWAP1 KECCAK256 SLOAD PUSH1 0xFF AND PUSH3 0x569 JUMPI PUSH1 0x0 DUP1 REVERT JUMPDEST PUSH1 0x0 PUSH1 0x5 DUP5 DUP5 PUSH1 0x40 MLOAD PUSH3 0x57F SWAP3 SWAP2 SWAP1 PUSH3 0x1730 JUMP JUMPDEST SWAP1 DUP2 MSTORE PUSH1 0x40 DUP1 MLOAD PUSH1 0x20 SWAP3 DUP2 SWAP1 SUB DUP4 ADD DUP2 KECCAK256 SLOAD PUSH4 0x18160DDD PUSH1 0xE0 SHL DUP3 MSTORE SWAP2 MLOAD PUSH1 0x1 PUSH1 0x1 PUSH1 0xA0 SHL SUB SWAP1 SWAP3 AND SWAP4 POP DUP4 SWAP3 PUSH4 0x18160DDD SWAP3 PUSH1 0x4 DUP1 DUP5 ADD SWAP4 DUP3 SWAP1 SUB ADD DUP2 DUP7 DUP1 EXTCODESIZE ISZERO DUP1 ISZERO PUSH3 0x5CD JUMPI PUSH1 0x0 DUP1 REVERT JUMPDEST POP GAS STATICCALL ISZERO DUP1 ISZERO PUSH3 0x5E2 JUMPI RETURNDATASIZE PUSH1 0x0 DUP1 RETURNDATACOPY RETURNDATASIZE PUSH1 0x0 REVERT JUMPDEST POP POP POP POP PUSH1 0x40 MLOAD RETURNDATASIZE PUSH1 0x1F NOT PUSH1 0x1F DUP3 ADD AND DUP3 ADD DUP1 PUSH1 0x40 MSTORE POP DUP2 ADD SWAP1 PUSH3 0x608 SWAP2 SWAP1 PUSH3 0x16EE JUMP JUMPDEST SWAP5 SWAP4 POP POP POP POP JUMP JUMPDEST PUSH1 0x0 PUSH1 0x4 DUP4 DUP4 PUSH1 0x40 MLOAD PUSH3 0x626 SWAP3 SWAP2 SWAP1 PUSH3 0x1730 JUMP JUMPDEST SWAP1 DUP2 MSTORE PUSH1 0x40 MLOAD SWAP1 DUP2 SWAP1 SUB PUSH1 0x20 ADD SWAP1 KECCAK256 SLOAD PUSH1 0xFF AND PUSH3 0x643 JUMPI PUSH1 0x0 DUP1 REVERT JUMPDEST PUSH1 0x0 PUSH1 0x5 DUP5 DUP5 PUSH1 0x40 MLOAD PUSH3 0x659 SWAP3 SWAP2 SWAP1 PUSH3 0x1730 JUMP JUMPDEST SWAP1 DUP2 MSTORE PUSH1 0x40 MLOAD SWAP1 DUP2 SWAP1 SUB PUSH1 0x20 ADD DUP2 KECCAK256 SLOAD PUSH1 0x1 PUSH1 0x1 PUSH1 0xA0 SHL SUB AND SWAP2 POP PUSH1 0x0 SWAP1 PUSH1 0x3 SWAP1 PUSH3 0x689 SWAP1 DUP8 SWAP1 DUP8 SWAP1 PUSH3 0x1730 JUMP JUMPDEST SWAP1 DUP2 MSTORE PUSH1 0x40 MLOAD SWAP1 DUP2 SWAP1 SUB PUSH1 0x20 ADD SWAP1 KECCAK256 SLOAD PUSH1 0x8 SLOAD SWAP1 SWAP2 POP PUSH1 0x0 SWAP1 PUSH3 0x6B3 SWAP1 PUSH1 0x2 SWAP1 PUSH1 0xFF AND PUSH3 0x1A5D JUMP JUMPDEST PUSH3 0x6C0 SWAP1 PUSH1 0xA PUSH3 0x1962 JUMP JUMPDEST PUSH1 0x9 SLOAD PUSH3 0x6D0 SWAP1 PUSH1 0x64 PUSH3 0x18B5 JUMP JUMPDEST PUSH3 0x6DC SWAP2 SWAP1 PUSH3 0x1A21 JUMP JUMPDEST SWAP1 POP PUSH1 0x0 PUSH3 0x6EC DUP3 DUP5 PUSH3 0x1005 JUMP JUMPDEST SWAP1 POP PUSH1 0x0 PUSH3 0x6FC DUP3 CALLVALUE PUSH3 0x18F8 JUMP JUMPDEST SWAP1 POP DUP2 CALLVALUE LT ISZERO PUSH3 0x70C JUMPI PUSH1 0x0 DUP1 REVERT JUMPDEST PUSH1 0x40 MLOAD PUSH4 0x95EA7B3 PUSH1 0xE0 SHL DUP2 MSTORE CALLER PUSH1 0x4 DUP3 ADD MSTORE PUSH1 0x24 DUP2 ADD DUP3 SWAP1 MSTORE PUSH1 0x1 SWAP1 PUSH1 0x1 PUSH1 0x1 PUSH1 0xA0 SHL SUB DUP8 AND SWAP1 PUSH4 0x95EA7B3 SWAP1 PUSH1 0x44 ADD PUSH1 0x20 PUSH1 0x40 MLOAD DUP1 DUP4 SUB DUP2 PUSH1 0x0 DUP8 DUP1 EXTCODESIZE ISZERO DUP1 ISZERO PUSH3 0x758 JUMPI PUSH1 0x0 DUP1 REVERT JUMPDEST POP GAS CALL ISZERO DUP1 ISZERO PUSH3 0x76D JUMPI RETURNDATASIZE PUSH1 0x0 DUP1 RETURNDATACOPY RETURNDATASIZE PUSH1 0x0 REVERT JUMPDEST POP POP POP POP PUSH1 0x40 MLOAD RETURNDATASIZE PUSH1 0x1F NOT PUSH1 0x1F DUP3 ADD AND DUP3 ADD DUP1 PUSH1 0x40 MSTORE POP DUP2 ADD SWAP1 PUSH3 0x793 SWAP2 SWAP1 PUSH3 0x1539 JUMP JUMPDEST SWAP1 POP DUP1 DUP1 ISZERO PUSH3 0x828 JUMPI POP PUSH1 0x40 MLOAD PUSH4 0x23B872DD PUSH1 0xE0 SHL DUP2 MSTORE ADDRESS PUSH1 0x4 DUP3 ADD MSTORE CALLER PUSH1 0x24 DUP3 ADD MSTORE PUSH1 0x44 DUP2 ADD DUP4 SWAP1 MSTORE PUSH1 0x1 PUSH1 0x1 PUSH1 0xA0 SHL SUB DUP8 AND SWAP1 PUSH4 0x23B872DD SWAP1 PUSH1 0x64 ADD PUSH1 0x20 PUSH1 0x40 MLOAD DUP1 DUP4 SUB DUP2 PUSH1 0x0 DUP8 DUP1 EXTCODESIZE ISZERO DUP1 ISZERO PUSH3 0x7ED JUMPI PUSH1 0x0 DUP1 REVERT JUMPDEST POP GAS CALL ISZERO DUP1 ISZERO PUSH3 0x802 JUMPI RETURNDATASIZE PUSH1 0x0 DUP1 RETURNDATACOPY RETURNDATASIZE PUSH1 0x0 REVERT JUMPDEST POP POP POP POP PUSH1 0x40 MLOAD RETURNDATASIZE PUSH1 0x1F NOT PUSH1 0x1F DUP3 ADD AND DUP3 ADD DUP1 PUSH1 0x40 MSTORE POP DUP2 ADD SWAP1 PUSH3 0x828 SWAP2 SWAP1 PUSH3 0x1539 JUMP JUMPDEST SWAP1 POP PUSH32 0x40F5583AE6965366E0ACFA8DC48C165ED2FCE35C84DE4966619B6E42E4D5F4C8 CALLER DUP11 DUP11 DUP9 DUP7 PUSH1 0x40 MLOAD PUSH3 0x863 SWAP6 SWAP5 SWAP4 SWAP3 SWAP2 SWAP1 PUSH3 0x175E JUMP JUMPDEST PUSH1 0x40 MLOAD DUP1 SWAP2 SUB SWAP1 LOG1 CALLER PUSH1 0x0 SWAP1 DUP2 MSTORE PUSH1 0x6 PUSH1 0x20 SWAP1 DUP2 MSTORE PUSH1 0x40 DUP3 KECCAK256 DUP1 SLOAD PUSH1 0x1 DUP2 ADD DUP3 SSTORE SWAP1 DUP4 MSTORE SWAP2 KECCAK256 PUSH3 0x897 SWAP2 ADD DUP11 DUP11 PUSH3 0x12C1 JUMP JUMPDEST POP PUSH3 0x8A6 PUSH1 0x2 SLOAD CALLVALUE PUSH3 0x1013 JUMP JUMPDEST PUSH1 0x2 SSTORE SWAP9 SWAP8 POP POP POP POP POP POP POP POP JUMP JUMPDEST PUSH1 0x1 PUSH1 0x1 PUSH1 0xA0 SHL SUB DUP2 AND PUSH1 0x0 SWAP1 DUP2 MSTORE PUSH1 0x6 PUSH1 0x20 SWAP1 DUP2 MSTORE PUSH1 0x40 DUP1 DUP4 KECCAK256 DUP1 SLOAD DUP3 MLOAD DUP2 DUP6 MUL DUP2 ADD DUP6 ADD SWAP1 SWAP4 MSTORE DUP1 DUP4 MSTORE PUSH1 0x60 SWAP5 SWAP3 SWAP4 SWAP2 SWAP3 SWAP1 SWAP2 DUP5 ADD JUMPDEST DUP3 DUP3 LT ISZERO PUSH3 0x9A3 JUMPI DUP4 DUP3 SWAP1 PUSH1 0x0 MSTORE PUSH1 0x20 PUSH1 0x0 KECCAK256 ADD DUP1 SLOAD PUSH3 0x90F SWAP1 PUSH3 0x1AB6 JUMP JUMPDEST DUP1 PUSH1 0x1F ADD PUSH1 0x20 DUP1 SWAP2 DIV MUL PUSH1 0x20 ADD PUSH1 0x40 MLOAD SWAP1 DUP2 ADD PUSH1 0x40 MSTORE DUP1 SWAP3 SWAP2 SWAP1 DUP2 DUP2 MSTORE PUSH1 0x20 ADD DUP3 DUP1 SLOAD PUSH3 0x93D SWAP1 PUSH3 0x1AB6 JUMP JUMPDEST DUP1 ISZERO PUSH3 0x98E JUMPI DUP1 PUSH1 0x1F LT PUSH3 0x962 JUMPI PUSH2 0x100 DUP1 DUP4 SLOAD DIV MUL DUP4 MSTORE SWAP2 PUSH1 0x20 ADD SWAP2 PUSH3 0x98E JUMP JUMPDEST DUP3 ADD SWAP2 SWAP1 PUSH1 0x0 MSTORE PUSH1 0x20 PUSH1 0x0 KECCAK256 SWAP1 JUMPDEST DUP2 SLOAD DUP2 MSTORE SWAP1 PUSH1 0x1 ADD SWAP1 PUSH1 0x20 ADD DUP1 DUP4 GT PUSH3 0x970 JUMPI DUP3 SWAP1 SUB PUSH1 0x1F AND DUP3 ADD SWAP2 JUMPDEST POP POP POP POP POP DUP2 MSTORE PUSH1 0x20 ADD SWAP1 PUSH1 0x1 ADD SWAP1 PUSH3 0x8ED JUMP JUMPDEST POP POP POP POP SWAP1 POP SWAP2 SWAP1 POP JUMP JUMPDEST PUSH1 0x0 PUSH1 0x4 DUP5 DUP5 PUSH1 0x40 MLOAD PUSH3 0x9C4 SWAP3 SWAP2 SWAP1 PUSH3 0x1730 JUMP JUMPDEST SWAP1 DUP2 MSTORE PUSH1 0x40 MLOAD SWAP1 DUP2 SWAP1 SUB PUSH1 0x20 ADD SWAP1 KECCAK256 SLOAD PUSH1 0xFF AND PUSH3 0x9E1 JUMPI PUSH1 0x0 DUP1 REVERT JUMPDEST PUSH1 0x0 PUSH1 0x5 DUP6 DUP6 PUSH1 0x40 MLOAD PUSH3 0x9F7 SWAP3 SWAP2 SWAP1 PUSH3 0x1730 JUMP JUMPDEST SWAP1 DUP2 MSTORE PUSH1 0x40 MLOAD SWAP1 DUP2 SWAP1 SUB PUSH1 0x20 ADD DUP2 KECCAK256 SLOAD PUSH4 0x70A08231 PUSH1 0xE0 SHL DUP3 MSTORE PUSH1 0x1 PUSH1 0x1 PUSH1 0xA0 SHL SUB DUP6 DUP2 AND PUSH1 0x4 DUP5 ADD MSTORE AND SWAP2 POP PUSH3 0x329 SWAP1 DUP3 SWAP1 PUSH4 0x70A08231 SWAP1 PUSH1 0x24 ADD PUSH1 0x20 PUSH1 0x40 MLOAD DUP1 DUP4 SUB DUP2 DUP7 DUP1 EXTCODESIZE ISZERO DUP1 ISZERO PUSH3 0xA4D JUMPI PUSH1 0x0 DUP1 REVERT JUMPDEST POP GAS STATICCALL ISZERO DUP1 ISZERO PUSH3 0xA62 JUMPI RETURNDATASIZE PUSH1 0x0 DUP1 RETURNDATACOPY RETURNDATASIZE PUSH1 0x0 REVERT JUMPDEST POP POP POP POP PUSH1 0x40 MLOAD RETURNDATASIZE PUSH1 0x1F NOT PUSH1 0x1F DUP3 ADD AND DUP3 ADD DUP1 PUSH1 0x40 MSTORE POP DUP2 ADD SWAP1 PUSH3 0xA88 SWAP2 SWAP1 PUSH3 0x16EE JUMP JUMPDEST PUSH1 0x3 DUP8 DUP8 PUSH1 0x40 MLOAD PUSH3 0xA9C SWAP3 SWAP2 SWAP1 PUSH3 0x1730 JUMP JUMPDEST SWAP1 DUP2 MSTORE PUSH1 0x20 ADD PUSH1 0x40 MLOAD DUP1 SWAP2 SUB SWAP1 KECCAK256 SLOAD PUSH3 0x1005 JUMP JUMPDEST PUSH1 0x0 DUP1 PUSH1 0x5 DUP6 DUP6 PUSH1 0x40 MLOAD PUSH3 0xAC8 SWAP3 SWAP2 SWAP1 PUSH3 0x1730 JUMP JUMPDEST SWAP1 DUP2 MSTORE PUSH1 0x40 MLOAD SWAP1 DUP2 SWAP1 SUB PUSH1 0x20 ADD DUP2 KECCAK256 SLOAD PUSH1 0x1 PUSH1 0x1 PUSH1 0xA0 SHL SUB AND SWAP2 POP PUSH1 0x0 SWAP1 PUSH1 0x3 SWAP1 PUSH3 0xAF8 SWAP1 DUP9 SWAP1 DUP9 SWAP1 PUSH3 0x1730 JUMP JUMPDEST SWAP1 DUP2 MSTORE PUSH1 0x20 ADD PUSH1 0x40 MLOAD DUP1 SWAP2 SUB SWAP1 KECCAK256 SLOAD SWAP1 POP PUSH1 0x0 PUSH1 0x9 SLOAD PUSH1 0x64 PUSH3 0xB1C SWAP2 SWAP1 PUSH3 0x18B5 JUMP JUMPDEST PUSH1 0x8 SLOAD PUSH3 0xB2F SWAP1 PUSH1 0xFF AND PUSH1 0x2 PUSH3 0x18D0 JUMP JUMPDEST PUSH3 0xB3C SWAP1 PUSH1 0xA PUSH3 0x1962 JUMP JUMPDEST PUSH3 0xB48 SWAP2 SWAP1 PUSH3 0x18F8 JUMP JUMPDEST SWAP1 POP PUSH1 0x0 PUSH3 0xB58 DUP3 DUP5 PUSH3 0x1005 JUMP JUMPDEST PUSH1 0x40 MLOAD PUSH4 0x6EB1769F PUSH1 0xE1 SHL DUP2 MSTORE CALLER PUSH1 0x4 DUP3 ADD MSTORE ADDRESS PUSH1 0x24 DUP3 ADD MSTORE SWAP1 SWAP2 POP PUSH1 0x0 SWAP1 PUSH1 0x1 PUSH1 0x1 PUSH1 0xA0 SHL SUB DUP7 AND SWAP1 PUSH4 0xDD62ED3E SWAP1 PUSH1 0x44 ADD PUSH1 0x20 PUSH1 0x40 MLOAD DUP1 DUP4 SUB DUP2 DUP7 DUP1 EXTCODESIZE ISZERO DUP1 ISZERO PUSH3 0xBA4 JUMPI PUSH1 0x0 DUP1 REVERT JUMPDEST POP GAS STATICCALL ISZERO DUP1 ISZERO PUSH3 0xBB9 JUMPI RETURNDATASIZE PUSH1 0x0 DUP1 RETURNDATACOPY RETURNDATASIZE PUSH1 0x0 REVERT JUMPDEST POP POP POP POP PUSH1 0x40 MLOAD RETURNDATASIZE PUSH1 0x1F NOT PUSH1 0x1F DUP3 ADD AND DUP3 ADD DUP1 PUSH1 0x40 MSTORE POP DUP2 ADD SWAP1 PUSH3 0xBDF SWAP2 SWAP1 PUSH3 0x16EE JUMP JUMPDEST SWAP1 POP DUP7 DUP2 LT ISZERO PUSH3 0xBEF JUMPI PUSH1 0x0 DUP1 REVERT JUMPDEST PUSH1 0x40 MLOAD PUSH4 0x70A08231 PUSH1 0xE0 SHL DUP2 MSTORE CALLER PUSH1 0x4 DUP3 ADD MSTORE PUSH1 0x0 SWAP1 PUSH1 0x1 PUSH1 0x1 PUSH1 0xA0 SHL SUB DUP8 AND SWAP1 PUSH4 0x70A08231 SWAP1 PUSH1 0x24 ADD PUSH1 0x20 PUSH1 0x40 MLOAD DUP1 DUP4 SUB DUP2 DUP7 DUP1 EXTCODESIZE ISZERO DUP1 ISZERO PUSH3 0xC32 JUMPI PUSH1 0x0 DUP1 REVERT JUMPDEST POP GAS STATICCALL ISZERO DUP1 ISZERO PUSH3 0xC47 JUMPI RETURNDATASIZE PUSH1 0x0 DUP1 RETURNDATACOPY RETURNDATASIZE PUSH1 0x0 REVERT JUMPDEST POP POP POP POP PUSH1 0x40 MLOAD RETURNDATASIZE PUSH1 0x1F NOT PUSH1 0x1F DUP3 ADD AND DUP3 ADD DUP1 PUSH1 0x40 MSTORE POP DUP2 ADD SWAP1 PUSH3 0xC6D SWAP2 SWAP1 PUSH3 0x16EE JUMP JUMPDEST SWAP1 POP DUP8 DUP2 LT ISZERO PUSH3 0xC7D JUMPI PUSH1 0x0 DUP1 REVERT JUMPDEST PUSH1 0x0 PUSH3 0xC8B DUP5 DUP11 PUSH3 0x1005 JUMP JUMPDEST SWAP1 POP DUP1 PUSH1 0x2 SLOAD LT ISZERO PUSH3 0xC9D JUMPI PUSH1 0x0 DUP1 REVERT JUMPDEST PUSH1 0x40 MLOAD PUSH4 0x23B872DD PUSH1 0xE0 SHL DUP2 MSTORE CALLER PUSH1 0x4 DUP3 ADD MSTORE ADDRESS PUSH1 0x24 DUP3 ADD MSTORE PUSH1 0x44 DUP2 ADD DUP11 SWAP1 MSTORE PUSH1 0x1 PUSH1 0x1 PUSH1 0xA0 SHL SUB DUP9 AND SWAP1 PUSH4 0x23B872DD SWAP1 PUSH1 0x64 ADD PUSH1 0x20 PUSH1 0x40 MLOAD DUP1 DUP4 SUB DUP2 PUSH1 0x0 DUP8 DUP1 EXTCODESIZE ISZERO DUP1 ISZERO PUSH3 0xCEC JUMPI PUSH1 0x0 DUP1 REVERT JUMPDEST POP GAS CALL ISZERO DUP1 ISZERO PUSH3 0xD01 JUMPI RETURNDATASIZE PUSH1 0x0 DUP1 RETURNDATACOPY RETURNDATASIZE PUSH1 0x0 REVERT JUMPDEST POP POP POP POP PUSH1 0x40 MLOAD RETURNDATASIZE PUSH1 0x1F NOT PUSH1 0x1F DUP3 ADD AND DUP3 ADD DUP1 PUSH1 0x40 MSTORE POP DUP2 ADD SWAP1 PUSH3 0xD27 SWAP2 SWAP1 PUSH3 0x1539 JUMP JUMPDEST POP PUSH1 0x40 MLOAD CALLER SWAP1 DUP3 ISZERO PUSH2 0x8FC MUL SWAP1 DUP4 SWAP1 PUSH1 0x0 DUP2 DUP2 DUP2 DUP6 DUP9 DUP9 CALL SWAP4 POP POP POP POP ISZERO DUP1 ISZERO PUSH3 0xD56 JUMPI RETURNDATASIZE PUSH1 0x0 DUP1 RETURNDATACOPY RETURNDATASIZE PUSH1 0x0 REVERT JUMPDEST POP PUSH3 0xD63 DUP10 DUP4 PUSH3 0x1A43 JUMP JUMPDEST PUSH3 0xDAA JUMPI PUSH3 0xDAA CALLER DUP13 DUP13 DUP1 DUP1 PUSH1 0x1F ADD PUSH1 0x20 DUP1 SWAP2 DIV MUL PUSH1 0x20 ADD PUSH1 0x40 MLOAD SWAP1 DUP2 ADD PUSH1 0x40 MSTORE DUP1 SWAP4 SWAP3 SWAP2 SWAP1 DUP2 DUP2 MSTORE PUSH1 0x20 ADD DUP4 DUP4 DUP1 DUP3 DUP5 CALLDATACOPY PUSH1 0x0 SWAP3 ADD SWAP2 SWAP1 SWAP2 MSTORE POP PUSH3 0x1021 SWAP3 POP POP POP JUMP JUMPDEST PUSH32 0x49F57F92FE331C8352BC57011DD480B77F5DADAF815D7D9A33FAE03E4ACC349 CALLER DUP13 DUP13 DUP10 DUP14 PUSH1 0x40 MLOAD PUSH3 0xDE3 SWAP6 SWAP5 SWAP4 SWAP3 SWAP2 SWAP1 PUSH3 0x175E JUMP JUMPDEST PUSH1 0x40 MLOAD DUP1 SWAP2 SUB SWAP1 LOG1 PUSH3 0xDF9 PUSH1 0x2 SLOAD CALLVALUE PUSH3 0xFF0 JUMP JUMPDEST PUSH1 0x2 SSTORE POP PUSH1 0x1 SWAP11 SWAP10 POP POP POP POP POP POP POP POP POP POP JUMP JUMPDEST PUSH1 0x0 DUP1 SLOAD PUSH1 0x1 PUSH1 0x1 PUSH1 0xA0 SHL SUB AND CALLER EQ DUP1 PUSH3 0xE32 JUMPI POP PUSH1 0x1 SLOAD PUSH1 0x1 PUSH1 0x1 PUSH1 0xA0 SHL SUB AND CALLER EQ JUMPDEST PUSH3 0xE3C JUMPI PUSH1 0x0 DUP1 REVERT JUMPDEST PUSH1 0x4 DUP9 DUP9 PUSH1 0x40 MLOAD PUSH3 0xE50 SWAP3 SWAP2 SWAP1 PUSH3 0x1730 JUMP JUMPDEST SWAP1 DUP2 MSTORE PUSH1 0x40 MLOAD SWAP1 DUP2 SWAP1 SUB PUSH1 0x20 ADD SWAP1 KECCAK256 SLOAD PUSH1 0xFF AND ISZERO PUSH3 0xE6E JUMPI PUSH1 0x0 DUP1 REVERT JUMPDEST PUSH1 0x7 SLOAD PUSH1 0x8 SLOAD PUSH1 0x40 MLOAD DUP9 SWAP3 DUP9 SWAP3 DUP9 SWAP3 DUP9 SWAP3 SWAP2 PUSH1 0xFF AND SWAP1 PUSH3 0xE8F SWAP1 PUSH3 0x1350 JUMP JUMPDEST PUSH3 0xEA0 SWAP7 SWAP6 SWAP5 SWAP4 SWAP3 SWAP2 SWAP1 PUSH3 0x186D JUMP JUMPDEST PUSH1 0x40 MLOAD DUP1 SWAP2 SUB SWAP1 PUSH1 0x0 CREATE DUP1 ISZERO DUP1 ISZERO PUSH3 0xEBD JUMPI RETURNDATASIZE PUSH1 0x0 DUP1 RETURNDATACOPY RETURNDATASIZE PUSH1 0x0 REVERT JUMPDEST POP PUSH1 0x5 DUP10 DUP10 PUSH1 0x40 MLOAD PUSH3 0xED2 SWAP3 SWAP2 SWAP1 PUSH3 0x1730 JUMP JUMPDEST SWAP1 DUP2 MSTORE PUSH1 0x20 ADD PUSH1 0x40 MLOAD DUP1 SWAP2 SUB SWAP1 KECCAK256 PUSH1 0x0 PUSH2 0x100 EXP DUP2 SLOAD DUP2 PUSH1 0x1 PUSH1 0x1 PUSH1 0xA0 SHL SUB MUL NOT AND SWAP1 DUP4 PUSH1 0x1 PUSH1 0x1 PUSH1 0xA0 SHL SUB AND MUL OR SWAP1 SSTORE POP PUSH1 0x1 PUSH1 0x4 DUP10 DUP10 PUSH1 0x40 MLOAD PUSH3 0xF1A SWAP3 SWAP2 SWAP1 PUSH3 0x1730 JUMP JUMPDEST SWAP1 DUP2 MSTORE PUSH1 0x40 MLOAD SWAP1 DUP2 SWAP1 SUB PUSH1 0x20 ADD DUP2 KECCAK256 DUP1 SLOAD SWAP3 ISZERO ISZERO PUSH1 0xFF NOT SWAP1 SWAP4 AND SWAP3 SWAP1 SWAP3 OR SWAP1 SWAP2 SSTORE DUP3 SWAP1 PUSH1 0x3 SWAP1 PUSH3 0xF4F SWAP1 DUP12 SWAP1 DUP12 SWAP1 PUSH3 0x1730 JUMP JUMPDEST SWAP1 DUP2 MSTORE PUSH1 0x20 ADD PUSH1 0x40 MLOAD DUP1 SWAP2 SUB SWAP1 KECCAK256 DUP2 SWAP1 SSTORE POP PUSH32 0xFCF04FF5A22C65B961750682425EF5A539C0788E5A0CDE8D1D431A5DA637134 DUP9 DUP9 DUP9 DUP9 DUP9 DUP9 DUP9 PUSH1 0x40 MLOAD PUSH3 0xF9E SWAP8 SWAP7 SWAP6 SWAP5 SWAP4 SWAP3 SWAP2 SWAP1 PUSH3 0x1816 JUMP JUMPDEST PUSH1 0x40 MLOAD DUP1 SWAP2 SUB SWAP1 LOG1 POP PUSH1 0x1 SWAP8 SWAP7 POP POP POP POP POP POP POP JUMP JUMPDEST PUSH1 0x0 SLOAD PUSH1 0x1 PUSH1 0x1 PUSH1 0xA0 SHL SUB AND CALLER EQ DUP1 PUSH3 0xFD8 JUMPI POP PUSH1 0x1 SLOAD PUSH1 0x1 PUSH1 0x1 PUSH1 0xA0 SHL SUB AND CALLER EQ JUMPDEST PUSH3 0xFE2 JUMPI PUSH1 0x0 DUP1 REVERT JUMPDEST PUSH3 0x36E PUSH1 0x2 SLOAD CALLVALUE PUSH3 0x1013 JUMP JUMPDEST PUSH1 0x0 PUSH3 0xFFE DUP3 DUP5 PUSH3 0x1A43 JUMP JUMPDEST SWAP4 SWAP3 POP POP POP JUMP JUMPDEST PUSH1 0x0 PUSH3 0xFFE DUP3 DUP5 PUSH3 0x1A21 JUMP JUMPDEST PUSH1 0x0 PUSH3 0xFFE DUP3 DUP5 PUSH3 0x18B5 JUMP JUMPDEST PUSH1 0x1 PUSH1 0x1 PUSH1 0xA0 SHL SUB DUP3 AND PUSH1 0x0 SWAP1 DUP2 MSTORE PUSH1 0x6 PUSH1 0x20 SWAP1 DUP2 MSTORE PUSH1 0x40 DUP1 DUP4 KECCAK256 DUP1 SLOAD DUP3 MLOAD DUP2 DUP6 MUL DUP2 ADD DUP6 ADD SWAP1 SWAP4 MSTORE DUP1 DUP4 MSTORE SWAP2 SWAP3 SWAP1 SWAP2 SWAP1 DUP5 SWAP1 DUP5 ADD JUMPDEST DUP3 DUP3 LT ISZERO PUSH3 0x110D JUMPI DUP4 DUP3 SWAP1 PUSH1 0x0 MSTORE PUSH1 0x20 PUSH1 0x0 KECCAK256 ADD DUP1 SLOAD PUSH3 0x1079 SWAP1 PUSH3 0x1AB6 JUMP JUMPDEST DUP1 PUSH1 0x1F ADD PUSH1 0x20 DUP1 SWAP2 DIV MUL PUSH1 0x20 ADD PUSH1 0x40 MLOAD SWAP1 DUP2 ADD PUSH1 0x40 MSTORE DUP1 SWAP3 SWAP2 SWAP1 DUP2 DUP2 MSTORE PUSH1 0x20 ADD DUP3 DUP1 SLOAD PUSH3 0x10A7 SWAP1 PUSH3 0x1AB6 JUMP JUMPDEST DUP1 ISZERO PUSH3 0x10F8 JUMPI DUP1 PUSH1 0x1F LT PUSH3 0x10CC JUMPI PUSH2 0x100 DUP1 DUP4 SLOAD DIV MUL DUP4 MSTORE SWAP2 PUSH1 0x20 ADD SWAP2 PUSH3 0x10F8 JUMP JUMPDEST DUP3 ADD SWAP2 SWAP1 PUSH1 0x0 MSTORE PUSH1 0x20 PUSH1 0x0 KECCAK256 SWAP1 JUMPDEST DUP2 SLOAD DUP2 MSTORE SWAP1 PUSH1 0x1 ADD SWAP1 PUSH1 0x20 ADD DUP1 DUP4 GT PUSH3 0x10DA JUMPI DUP3 SWAP1 SUB PUSH1 0x1F AND DUP3 ADD SWAP2 JUMPDEST POP POP POP POP POP DUP2 MSTORE PUSH1 0x20 ADD SWAP1 PUSH1 0x1 ADD SWAP1 PUSH3 0x1057 JUMP JUMPDEST POP POP DUP3 MLOAD SWAP3 SWAP4 POP PUSH1 0x0 SWAP3 DUP4 SWAP3 POP SWAP1 POP JUMPDEST DUP1 DUP4 LT ISZERO PUSH3 0x1230 JUMPI PUSH1 0x0 DUP5 DUP5 DUP2 MLOAD DUP2 LT PUSH3 0x1149 JUMPI PUSH4 0x4E487B71 PUSH1 0xE0 SHL PUSH1 0x0 MSTORE PUSH1 0x32 PUSH1 0x4 MSTORE PUSH1 0x24 PUSH1 0x0 REVERT JUMPDEST PUSH1 0x20 MUL PUSH1 0x20 ADD ADD MLOAD SWAP1 POP PUSH3 0x115F DUP7 DUP3 PUSH3 0x1264 JUMP JUMPDEST ISZERO PUSH3 0x116A JUMPI PUSH1 0x1 SWAP3 POP JUMPDEST DUP3 ISZERO PUSH3 0x121A JUMPI PUSH3 0x117E PUSH1 0x1 DUP4 PUSH3 0x1A43 JUMP JUMPDEST DUP5 EQ PUSH3 0x11EC JUMPI DUP5 PUSH3 0x1193 DUP6 PUSH1 0x1 PUSH3 0x18B5 JUMP JUMPDEST DUP2 MLOAD DUP2 LT PUSH3 0x11B2 JUMPI PUSH4 0x4E487B71 PUSH1 0xE0 SHL PUSH1 0x0 MSTORE PUSH1 0x32 PUSH1 0x4 MSTORE PUSH1 0x24 PUSH1 0x0 REVERT JUMPDEST PUSH1 0x20 MUL PUSH1 0x20 ADD ADD MLOAD DUP6 DUP6 DUP2 MLOAD DUP2 LT PUSH3 0x11DB JUMPI PUSH4 0x4E487B71 PUSH1 0xE0 SHL PUSH1 0x0 MSTORE PUSH1 0x32 PUSH1 0x4 MSTORE PUSH1 0x24 PUSH1 0x0 REVERT JUMPDEST PUSH1 0x20 MUL PUSH1 0x20 ADD ADD DUP2 SWAP1 MSTORE POP PUSH3 0x121A JUMP JUMPDEST DUP5 DUP5 DUP2 MLOAD DUP2 LT PUSH3 0x120D JUMPI PUSH4 0x4E487B71 PUSH1 0xE0 SHL PUSH1 0x0 MSTORE PUSH1 0x32 PUSH1 0x4 MSTORE PUSH1 0x24 PUSH1 0x0 REVERT JUMPDEST PUSH1 0x20 MUL PUSH1 0x20 ADD ADD PUSH1 0x60 DUP2 MSTORE POP JUMPDEST POP DUP3 PUSH3 0x1227 DUP2 PUSH3 0x1AF3 JUMP JUMPDEST SWAP4 POP POP PUSH3 0x111D JUMP JUMPDEST PUSH1 0x1 PUSH1 0x1 PUSH1 0xA0 SHL SUB DUP7 AND PUSH1 0x0 SWAP1 DUP2 MSTORE PUSH1 0x6 PUSH1 0x20 SWAP1 DUP2 MSTORE PUSH1 0x40 SWAP1 SWAP2 KECCAK256 DUP6 MLOAD PUSH3 0x125B SWAP3 DUP8 ADD SWAP1 PUSH3 0x135E JUMP JUMPDEST POP POP POP POP POP POP POP JUMP JUMPDEST PUSH1 0x0 DUP2 PUSH1 0x40 MLOAD PUSH1 0x20 ADD PUSH3 0x1279 SWAP2 SWAP1 PUSH3 0x1740 JUMP JUMPDEST PUSH1 0x40 MLOAD PUSH1 0x20 DUP2 DUP4 SUB SUB DUP2 MSTORE SWAP1 PUSH1 0x40 MSTORE DUP1 MLOAD SWAP1 PUSH1 0x20 ADD KECCAK256 DUP4 PUSH1 0x40 MLOAD PUSH1 0x20 ADD PUSH3 0x12A2 SWAP2 SWAP1 PUSH3 0x1740 JUMP JUMPDEST PUSH1 0x40 MLOAD PUSH1 0x20 DUP2 DUP4 SUB SUB DUP2 MSTORE SWAP1 PUSH1 0x40 MSTORE DUP1 MLOAD SWAP1 PUSH1 0x20 ADD KECCAK256 EQ SWAP1 POP SWAP3 SWAP2 POP POP JUMP JUMPDEST DUP3 DUP1 SLOAD PUSH3 0x12CF SWAP1 PUSH3 0x1AB6 JUMP JUMPDEST SWAP1 PUSH1 0x0 MSTORE PUSH1 0x20 PUSH1 0x0 KECCAK256 SWAP1 PUSH1 0x1F ADD PUSH1 0x20 SWAP1 DIV DUP2 ADD SWAP3 DUP3 PUSH3 0x12F3 JUMPI PUSH1 0x0 DUP6 SSTORE PUSH3 0x133E JUMP JUMPDEST DUP3 PUSH1 0x1F LT PUSH3 0x130E JUMPI DUP3 DUP1 ADD PUSH1 0xFF NOT DUP3 CALLDATALOAD AND OR DUP6 SSTORE PUSH3 0x133E JUMP JUMPDEST DUP3 DUP1 ADD PUSH1 0x1 ADD DUP6 SSTORE DUP3 ISZERO PUSH3 0x133E JUMPI SWAP2 DUP3 ADD JUMPDEST DUP3 DUP2 GT ISZERO PUSH3 0x133E JUMPI DUP3 CALLDATALOAD DUP3 SSTORE SWAP2 PUSH1 0x20 ADD SWAP2 SWAP1 PUSH1 0x1 ADD SWAP1 PUSH3 0x1321 JUMP JUMPDEST POP PUSH3 0x134C SWAP3 SWAP2 POP PUSH3 0x13BE JUMP JUMPDEST POP SWAP1 JUMP JUMPDEST PUSH2 0x958 DUP1 PUSH3 0x1B28 DUP4 CODECOPY ADD SWAP1 JUMP JUMPDEST DUP3 DUP1 SLOAD DUP3 DUP3 SSTORE SWAP1 PUSH1 0x0 MSTORE PUSH1 0x20 PUSH1 0x0 KECCAK256 SWAP1 DUP2 ADD SWAP3 DUP3 ISZERO PUSH3 0x13B0 JUMPI SWAP2 PUSH1 0x20 MUL DUP3 ADD JUMPDEST DUP3 DUP2 GT ISZERO PUSH3 0x13B0 JUMPI DUP3 MLOAD DUP1 MLOAD PUSH3 0x139F SWAP2 DUP5 SWAP2 PUSH1 0x20 SWAP1 SWAP2 ADD SWAP1 PUSH3 0x13D5 JUMP JUMPDEST POP SWAP2 PUSH1 0x20 ADD SWAP2 SWAP1 PUSH1 0x1 ADD SWAP1 PUSH3 0x137F JUMP JUMPDEST POP PUSH3 0x134C SWAP3 SWAP2 POP PUSH3 0x1452 JUMP JUMPDEST JUMPDEST DUP1 DUP3 GT ISZERO PUSH3 0x134C JUMPI PUSH1 0x0 DUP2 SSTORE PUSH1 0x1 ADD PUSH3 0x13BF JUMP JUMPDEST DUP3 DUP1 SLOAD PUSH3 0x13E3 SWAP1 PUSH3 0x1AB6 JUMP JUMPDEST SWAP1 PUSH1 0x0 MSTORE PUSH1 0x20 PUSH1 0x0 KECCAK256 SWAP1 PUSH1 0x1F ADD PUSH1 0x20 SWAP1 DIV DUP2 ADD SWAP3 DUP3 PUSH3 0x1407 JUMPI PUSH1 0x0 DUP6 SSTORE PUSH3 0x133E JUMP JUMPDEST DUP3 PUSH1 0x1F LT PUSH3 0x1422 JUMPI DUP1 MLOAD PUSH1 0xFF NOT AND DUP4 DUP1 ADD OR DUP6 SSTORE PUSH3 0x133E JUMP JUMPDEST DUP3 DUP1 ADD PUSH1 0x1 ADD DUP6 SSTORE DUP3 ISZERO PUSH3 0x133E JUMPI SWAP2 DUP3 ADD JUMPDEST DUP3 DUP2 GT ISZERO PUSH3 0x133E JUMPI DUP3 MLOAD DUP3 SSTORE SWAP2 PUSH1 0x20 ADD SWAP2 SWAP1 PUSH1 0x1 ADD SWAP1 PUSH3 0x1435 JUMP JUMPDEST DUP1 DUP3 GT ISZERO PUSH3 0x134C JUMPI PUSH1 0x0 PUSH3 0x1469 DUP3 DUP3 PUSH3 0x1473 JUMP JUMPDEST POP PUSH1 0x1 ADD PUSH3 0x1452 JUMP JUMPDEST POP DUP1 SLOAD PUSH3 0x1481 SWAP1 PUSH3 0x1AB6 JUMP JUMPDEST PUSH1 0x0 DUP3 SSTORE DUP1 PUSH1 0x1F LT PUSH3 0x1492 JUMPI POP POP JUMP JUMPDEST PUSH1 0x1F ADD PUSH1 0x20 SWAP1 DIV SWAP1 PUSH1 0x0 MSTORE PUSH1 0x20 PUSH1 0x0 KECCAK256 SWAP1 DUP2 ADD SWAP1 PUSH3 0x14B2 SWAP2 SWAP1 PUSH3 0x13BE JUMP JUMPDEST POP JUMP JUMPDEST DUP1 CALLDATALOAD PUSH1 0x1 PUSH1 0x1 PUSH1 0xA0 SHL SUB DUP2 AND DUP2 EQ PUSH3 0x14CD JUMPI PUSH1 0x0 DUP1 REVERT JUMPDEST SWAP2 SWAP1 POP JUMP JUMPDEST PUSH1 0x0 DUP1 DUP4 PUSH1 0x1F DUP5 ADD SLT PUSH3 0x14E4 JUMPI DUP2 DUP3 REVERT JUMPDEST POP DUP2 CALLDATALOAD PUSH8 0xFFFFFFFFFFFFFFFF DUP2 GT ISZERO PUSH3 0x14FC JUMPI DUP2 DUP3 REVERT JUMPDEST PUSH1 0x20 DUP4 ADD SWAP2 POP DUP4 PUSH1 0x20 DUP3 DUP6 ADD ADD GT ISZERO PUSH3 0x1515 JUMPI PUSH1 0x0 DUP1 REVERT JUMPDEST SWAP3 POP SWAP3 SWAP1 POP JUMP JUMPDEST PUSH1 0x0 PUSH1 0x20 DUP3 DUP5 SUB SLT ISZERO PUSH3 0x152E JUMPI DUP1 DUP2 REVERT JUMPDEST PUSH3 0xFFE DUP3 PUSH3 0x14B5 JUMP JUMPDEST PUSH1 0x0 PUSH1 0x20 DUP3 DUP5 SUB SLT ISZERO PUSH3 0x154B JUMPI DUP1 DUP2 REVERT JUMPDEST DUP2 MLOAD DUP1 ISZERO ISZERO DUP2 EQ PUSH3 0xFFE JUMPI DUP2 DUP3 REVERT JUMPDEST PUSH1 0x0 DUP1 PUSH1 0x20 DUP4 DUP6 SUB SLT ISZERO PUSH3 0x156E JUMPI DUP1 DUP2 REVERT JUMPDEST DUP3 CALLDATALOAD PUSH8 0xFFFFFFFFFFFFFFFF DUP2 GT ISZERO PUSH3 0x1585 JUMPI DUP2 DUP3 REVERT JUMPDEST PUSH3 0x1593 DUP6 DUP3 DUP7 ADD PUSH3 0x14D2 JUMP JUMPDEST SWAP1 SWAP7 SWAP1 SWAP6 POP SWAP4 POP POP POP POP JUMP JUMPDEST PUSH1 0x0 DUP1 PUSH1 0x0 PUSH1 0x40 DUP5 DUP7 SUB SLT ISZERO PUSH3 0x15B4 JUMPI DUP1 DUP2 REVERT JUMPDEST DUP4 CALLDATALOAD PUSH8 0xFFFFFFFFFFFFFFFF DUP2 GT ISZERO PUSH3 0x15CB JUMPI DUP2 DUP3 REVERT JUMPDEST PUSH3 0x15D9 DUP7 DUP3 DUP8 ADD PUSH3 0x14D2 JUMP JUMPDEST SWAP1 SWAP5 POP SWAP3 POP PUSH3 0x15EE SWAP1 POP PUSH1 0x20 DUP6 ADD PUSH3 0x14B5 JUMP JUMPDEST SWAP1 POP SWAP3 POP SWAP3 POP SWAP3 JUMP JUMPDEST PUSH1 0x0 DUP1 PUSH1 0x0 DUP1 PUSH1 0x0 DUP1 PUSH1 0x0 PUSH1 0x80 DUP9 DUP11 SUB SLT ISZERO PUSH3 0x1612 JUMPI DUP3 DUP4 REVERT JUMPDEST DUP8 CALLDATALOAD PUSH8 0xFFFFFFFFFFFFFFFF DUP1 DUP3 GT ISZERO PUSH3 0x162A JUMPI DUP5 DUP6 REVERT JUMPDEST PUSH3 0x1638 DUP12 DUP4 DUP13 ADD PUSH3 0x14D2 JUMP JUMPDEST SWAP1 SWAP10 POP SWAP8 POP PUSH1 0x20 DUP11 ADD CALLDATALOAD SWAP2 POP DUP1 DUP3 GT ISZERO PUSH3 0x1651 JUMPI DUP5 DUP6 REVERT JUMPDEST PUSH3 0x165F DUP12 DUP4 DUP13 ADD PUSH3 0x14D2 JUMP JUMPDEST SWAP1 SWAP8 POP SWAP6 POP PUSH1 0x40 DUP11 ADD CALLDATALOAD SWAP2 POP DUP1 DUP3 GT ISZERO PUSH3 0x1678 JUMPI DUP5 DUP6 REVERT JUMPDEST POP PUSH3 0x1687 DUP11 DUP3 DUP12 ADD PUSH3 0x14D2 JUMP JUMPDEST SWAP9 SWAP12 SWAP8 SWAP11 POP SWAP6 SWAP9 SWAP5 SWAP8 SWAP6 SWAP7 PUSH1 0x60 SWAP1 SWAP6 ADD CALLDATALOAD SWAP5 SWAP4 POP POP POP POP JUMP JUMPDEST PUSH1 0x0 DUP1 PUSH1 0x0 PUSH1 0x40 DUP5 DUP7 SUB SLT ISZERO PUSH3 0x16B5 JUMPI DUP3 DUP4 REVERT JUMPDEST DUP4 CALLDATALOAD PUSH8 0xFFFFFFFFFFFFFFFF DUP2 GT ISZERO PUSH3 0x16CC JUMPI DUP4 DUP5 REVERT JUMPDEST PUSH3 0x16DA DUP7 DUP3 DUP8 ADD PUSH3 0x14D2 JUMP JUMPDEST SWAP1 SWAP8 SWAP1 SWAP7 POP PUSH1 0x20 SWAP6 SWAP1 SWAP6 ADD CALLDATALOAD SWAP5 SWAP4 POP POP POP POP JUMP JUMPDEST PUSH1 0x0 PUSH1 0x20 DUP3 DUP5 SUB SLT ISZERO PUSH3 0x1700 JUMPI DUP1 DUP2 REVERT JUMPDEST POP MLOAD SWAP2 SWAP1 POP JUMP JUMPDEST DUP2 DUP4 MSTORE DUP2 DUP2 PUSH1 0x20 DUP6 ADD CALLDATACOPY POP PUSH1 0x0 DUP3 DUP3 ADD PUSH1 0x20 SWAP1 DUP2 ADD SWAP2 SWAP1 SWAP2 MSTORE PUSH1 0x1F SWAP1 SWAP2 ADD PUSH1 0x1F NOT AND SWAP1 SWAP2 ADD ADD SWAP1 JUMP JUMPDEST DUP2 DUP4 DUP3 CALLDATACOPY PUSH1 0x0 SWAP2 ADD SWAP1 DUP2 MSTORE SWAP2 SWAP1 POP JUMP JUMPDEST PUSH1 0x0 DUP3 MLOAD PUSH3 0x1754 DUP2 DUP5 PUSH1 0x20 DUP8 ADD PUSH3 0x1A83 JUMP JUMPDEST SWAP2 SWAP1 SWAP2 ADD SWAP3 SWAP2 POP POP JUMP JUMPDEST PUSH1 0x1 PUSH1 0x1 PUSH1 0xA0 SHL SUB DUP7 AND DUP2 MSTORE PUSH1 0x80 PUSH1 0x20 DUP3 ADD DUP2 SWAP1 MSTORE PUSH1 0x0 SWAP1 PUSH3 0x1785 SWAP1 DUP4 ADD DUP7 DUP9 PUSH3 0x1707 JUMP JUMPDEST PUSH1 0x40 DUP4 ADD SWAP5 SWAP1 SWAP5 MSTORE POP PUSH1 0x60 ADD MSTORE SWAP4 SWAP3 POP POP POP JUMP JUMPDEST PUSH1 0x0 PUSH1 0x20 DUP1 DUP4 ADD DUP2 DUP5 MSTORE DUP1 DUP6 MLOAD DUP1 DUP4 MSTORE PUSH1 0x40 DUP7 ADD SWAP2 POP PUSH1 0x40 DUP2 PUSH1 0x5 SHL DUP8 ADD ADD SWAP3 POP DUP4 DUP8 ADD DUP6 JUMPDEST DUP3 DUP2 LT ISZERO PUSH3 0x1809 JUMPI DUP8 DUP6 SUB PUSH1 0x3F NOT ADD DUP5 MSTORE DUP2 MLOAD DUP1 MLOAD DUP1 DUP8 MSTORE PUSH3 0x17E9 DUP2 DUP10 DUP10 ADD DUP11 DUP6 ADD PUSH3 0x1A83 JUMP JUMPDEST PUSH1 0x1F ADD PUSH1 0x1F NOT AND SWAP6 SWAP1 SWAP6 ADD DUP7 ADD SWAP5 POP SWAP3 DUP6 ADD SWAP3 SWAP1 DUP6 ADD SWAP1 PUSH1 0x1 ADD PUSH3 0x17BF JUMP JUMPDEST POP SWAP3 SWAP8 SWAP7 POP POP POP POP POP POP POP JUMP JUMPDEST PUSH1 0x80 DUP2 MSTORE PUSH1 0x0 PUSH3 0x182C PUSH1 0x80 DUP4 ADD DUP10 DUP12 PUSH3 0x1707 JUMP JUMPDEST DUP3 DUP2 SUB PUSH1 0x20 DUP5 ADD MSTORE PUSH3 0x1841 DUP2 DUP9 DUP11 PUSH3 0x1707 JUMP JUMPDEST SWAP1 POP DUP3 DUP2 SUB PUSH1 0x40 DUP5 ADD MSTORE PUSH3 0x1858 DUP2 DUP7 DUP9 PUSH3 0x1707 JUMP JUMPDEST SWAP2 POP POP DUP3 PUSH1 0x60 DUP4 ADD MSTORE SWAP9 SWAP8 POP POP POP POP POP POP POP POP JUMP JUMPDEST PUSH1 0x80 DUP2 MSTORE PUSH1 0x0 PUSH3 0x1883 PUSH1 0x80 DUP4 ADD DUP9 DUP11 PUSH3 0x1707 JUMP JUMPDEST DUP3 DUP2 SUB PUSH1 0x20 DUP5 ADD MSTORE PUSH3 0x1898 DUP2 DUP8 DUP10 PUSH3 0x1707 JUMP JUMPDEST SWAP2 POP POP DUP4 PUSH1 0x40 DUP4 ADD MSTORE PUSH1 0xFF DUP4 AND PUSH1 0x60 DUP4 ADD MSTORE SWAP8 SWAP7 POP POP POP POP POP POP POP JUMP JUMPDEST PUSH1 0x0 DUP3 NOT DUP3 GT ISZERO PUSH3 0x18CB JUMPI PUSH3 0x18CB PUSH3 0x1B11 JUMP JUMPDEST POP ADD SWAP1 JUMP JUMPDEST PUSH1 0x0 PUSH1 0xFF DUP3 AND PUSH1 0xFF DUP5 AND DUP1 PUSH1 0xFF SUB DUP3 GT ISZERO PUSH3 0x18F0 JUMPI PUSH3 0x18F0 PUSH3 0x1B11 JUMP JUMPDEST ADD SWAP4 SWAP3 POP POP POP JUMP JUMPDEST PUSH1 0x0 DUP3 PUSH3 0x1914 JUMPI PUSH4 0x4E487B71 PUSH1 0xE0 SHL DUP2 MSTORE PUSH1 0x12 PUSH1 0x4 MSTORE PUSH1 0x24 DUP2 REVERT JUMPDEST POP DIV SWAP1 JUMP JUMPDEST PUSH1 0x1 DUP2 DUP2 JUMPDEST DUP1 DUP6 GT ISZERO PUSH3 0x195A JUMPI DUP2 PUSH1 0x0 NOT DIV DUP3 GT ISZERO PUSH3 0x193E JUMPI PUSH3 0x193E PUSH3 0x1B11 JUMP JUMPDEST DUP1 DUP6 AND ISZERO PUSH3 0x194C JUMPI SWAP2 DUP2 MUL SWAP2 JUMPDEST SWAP4 DUP5 SHR SWAP4 SWAP1 DUP1 MUL SWAP1 PUSH3 0x191E JUMP JUMPDEST POP SWAP3 POP SWAP3 SWAP1 POP JUMP JUMPDEST PUSH1 0x0 PUSH3 0xFFE PUSH1 0xFF DUP5 AND DUP4 PUSH1 0x0 DUP3 PUSH3 0x197E JUMPI POP PUSH1 0x1 PUSH3 0x530 JUMP JUMPDEST DUP2 PUSH3 0x198D JUMPI POP PUSH1 0x0 PUSH3 0x530 JUMP JUMPDEST DUP2 PUSH1 0x1 DUP2 EQ PUSH3 0x19A6 JUMPI PUSH1 0x2 DUP2 EQ PUSH3 0x19B1 JUMPI PUSH3 0x19D1 JUMP JUMPDEST PUSH1 0x1 SWAP2 POP POP PUSH3 0x530 JUMP JUMPDEST PUSH1 0xFF DUP5 GT ISZERO PUSH3 0x19C5 JUMPI PUSH3 0x19C5 PUSH3 0x1B11 JUMP JUMPDEST POP POP PUSH1 0x1 DUP3 SHL PUSH3 0x530 JUMP JUMPDEST POP PUSH1 0x20 DUP4 LT PUSH2 0x133 DUP4 LT AND PUSH1 0x4E DUP5 LT PUSH1 0xB DUP5 LT AND OR ISZERO PUSH3 0x19F6 JUMPI POP DUP2 DUP2 EXP PUSH3 0x530 JUMP JUMPDEST PUSH3 0x1A02 DUP4 DUP4 PUSH3 0x1919 JUMP JUMPDEST DUP1 PUSH1 0x0 NOT DIV DUP3 GT ISZERO PUSH3 0x1A19 JUMPI PUSH3 0x1A19 PUSH3 0x1B11 JUMP JUMPDEST MUL SWAP4 SWAP3 POP POP POP JUMP JUMPDEST PUSH1 0x0 DUP2 PUSH1 0x0 NOT DIV DUP4 GT DUP3 ISZERO ISZERO AND ISZERO PUSH3 0x1A3E JUMPI PUSH3 0x1A3E PUSH3 0x1B11 JUMP JUMPDEST POP MUL SWAP1 JUMP JUMPDEST PUSH1 0x0 DUP3 DUP3 LT ISZERO PUSH3 0x1A58 JUMPI PUSH3 0x1A58 PUSH3 0x1B11 JUMP JUMPDEST POP SUB SWAP1 JUMP JUMPDEST PUSH1 0x0 PUSH1 0xFF DUP3 AND PUSH1 0xFF DUP5 AND DUP1 DUP3 LT ISZERO PUSH3 0x1A7A JUMPI PUSH3 0x1A7A PUSH3 0x1B11 JUMP JUMPDEST SWAP1 SUB SWAP4 SWAP3 POP POP POP JUMP JUMPDEST PUSH1 0x0 JUMPDEST DUP4 DUP2 LT ISZERO PUSH3 0x1AA0 JUMPI DUP2 DUP2 ADD MLOAD DUP4 DUP3 ADD MSTORE PUSH1 0x20 ADD PUSH3 0x1A86 JUMP JUMPDEST DUP4 DUP2 GT ISZERO PUSH3 0x1AB0 JUMPI PUSH1 0x0 DUP5 DUP5 ADD MSTORE JUMPDEST POP POP POP POP JUMP JUMPDEST PUSH1 0x1 DUP2 DUP2 SHR SWAP1 DUP3 AND DUP1 PUSH3 0x1ACB JUMPI PUSH1 0x7F DUP3 AND SWAP2 POP JUMPDEST PUSH1 0x20 DUP3 LT DUP2 EQ ISZERO PUSH3 0x1AED JUMPI PUSH4 0x4E487B71 PUSH1 0xE0 SHL PUSH1 0x0 MSTORE PUSH1 0x22 PUSH1 0x4 MSTORE PUSH1 0x24 PUSH1 0x0 REVERT JUMPDEST POP SWAP2 SWAP1 POP JUMP JUMPDEST PUSH1 0x0 PUSH1 0x0 NOT DUP3 EQ ISZERO PUSH3 0x1B0A JUMPI PUSH3 0x1B0A PUSH3 0x1B11 JUMP JUMPDEST POP PUSH1 0x1 ADD SWAP1 JUMP JUMPDEST PUSH4 0x4E487B71 PUSH1 0xE0 SHL PUSH1 0x0 MSTORE PUSH1 0x11 PUSH1 0x4 MSTORE PUSH1 0x24 PUSH1 0x0 REVERT INVALID PUSH1 0x80 PUSH1 0x40 MSTORE PUSH1 0x40 MLOAD PUSH3 0x958 CODESIZE SUB DUP1 PUSH3 0x958 DUP4 CODECOPY DUP2 ADD PUSH1 0x40 DUP2 SWAP1 MSTORE PUSH3 0x26 SWAP2 PUSH3 0x1F8 JUMP JUMPDEST PUSH1 0x0 DUP1 SLOAD PUSH1 0x1 PUSH1 0x1 PUSH1 0xA0 SHL SUB NOT AND CALLER OR SWAP1 SSTORE DUP4 MLOAD PUSH3 0x4D SWAP1 PUSH1 0x1 SWAP1 PUSH1 0x20 DUP8 ADD SWAP1 PUSH3 0x9F JUMP JUMPDEST POP DUP3 MLOAD PUSH3 0x63 SWAP1 PUSH1 0x2 SWAP1 PUSH1 0x20 DUP7 ADD SWAP1 PUSH3 0x9F JUMP JUMPDEST POP PUSH1 0x3 DUP3 SWAP1 SSTORE PUSH1 0x4 DUP1 SLOAD PUSH1 0xFF NOT AND PUSH1 0xFF SWAP3 SWAP1 SWAP3 AND SWAP2 SWAP1 SWAP2 OR SWAP1 SSTORE PUSH1 0x0 DUP1 SLOAD PUSH1 0x1 PUSH1 0x1 PUSH1 0xA0 SHL SUB AND DUP2 MSTORE PUSH1 0x5 PUSH1 0x20 MSTORE PUSH1 0x40 SWAP1 KECCAK256 SSTORE POP PUSH3 0x2D4 SWAP1 POP JUMP JUMPDEST DUP3 DUP1 SLOAD PUSH3 0xAD SWAP1 PUSH3 0x281 JUMP JUMPDEST SWAP1 PUSH1 0x0 MSTORE PUSH1 0x20 PUSH1 0x0 KECCAK256 SWAP1 PUSH1 0x1F ADD PUSH1 0x20 SWAP1 DIV DUP2 ADD SWAP3 DUP3 PUSH3 0xD1 JUMPI PUSH1 0x0 DUP6 SSTORE PUSH3 0x11C JUMP JUMPDEST DUP3 PUSH1 0x1F LT PUSH3 0xEC JUMPI DUP1 MLOAD PUSH1 0xFF NOT AND DUP4 DUP1 ADD OR DUP6 SSTORE PUSH3 0x11C JUMP JUMPDEST DUP3 DUP1 ADD PUSH1 0x1 ADD DUP6 SSTORE DUP3 ISZERO PUSH3 0x11C JUMPI SWAP2 DUP3 ADD JUMPDEST DUP3 DUP2 GT ISZERO PUSH3 0x11C JUMPI DUP3 MLOAD DUP3 SSTORE SWAP2 PUSH1 0x20 ADD SWAP2 SWAP1 PUSH1 0x1 ADD SWAP1 PUSH3 0xFF JUMP JUMPDEST POP PUSH3 0x12A SWAP3 SWAP2 POP PUSH3 0x12E JUMP JUMPDEST POP SWAP1 JUMP JUMPDEST JUMPDEST DUP1 DUP3 GT ISZERO PUSH3 0x12A JUMPI PUSH1 0x0 DUP2 SSTORE PUSH1 0x1 ADD PUSH3 0x12F JUMP JUMPDEST PUSH1 0x0 DUP3 PUSH1 0x1F DUP4 ADD SLT PUSH3 0x156 JUMPI DUP1 DUP2 REVERT JUMPDEST DUP2 MLOAD PUSH1 0x1 PUSH1 0x1 PUSH1 0x40 SHL SUB DUP1 DUP3 GT ISZERO PUSH3 0x173 JUMPI PUSH3 0x173 PUSH3 0x2BE JUMP JUMPDEST PUSH1 0x40 MLOAD PUSH1 0x1F DUP4 ADD PUSH1 0x1F NOT SWAP1 DUP2 AND PUSH1 0x3F ADD AND DUP2 ADD SWAP1 DUP3 DUP3 GT DUP2 DUP4 LT OR ISZERO PUSH3 0x19E JUMPI PUSH3 0x19E PUSH3 0x2BE JUMP JUMPDEST DUP2 PUSH1 0x40 MSTORE DUP4 DUP2 MSTORE PUSH1 0x20 SWAP3 POP DUP7 DUP4 DUP6 DUP9 ADD ADD GT ISZERO PUSH3 0x1BA JUMPI DUP5 DUP6 REVERT JUMPDEST DUP5 SWAP2 POP JUMPDEST DUP4 DUP3 LT ISZERO PUSH3 0x1DD JUMPI DUP6 DUP3 ADD DUP4 ADD MLOAD DUP2 DUP4 ADD DUP5 ADD MSTORE SWAP1 DUP3 ADD SWAP1 PUSH3 0x1BE JUMP JUMPDEST DUP4 DUP3 GT ISZERO PUSH3 0x1EE JUMPI DUP5 DUP4 DUP6 DUP4 ADD ADD MSTORE JUMPDEST SWAP7 SWAP6 POP POP POP POP POP POP JUMP JUMPDEST PUSH1 0x0 DUP1 PUSH1 0x0 DUP1 PUSH1 0x80 DUP6 DUP8 SUB SLT ISZERO PUSH3 0x20E JUMPI DUP4 DUP5 REVERT JUMPDEST DUP5 MLOAD PUSH1 0x1 PUSH1 0x1 PUSH1 0x40 SHL SUB DUP1 DUP3 GT ISZERO PUSH3 0x225 JUMPI DUP6 DUP7 REVERT JUMPDEST PUSH3 0x233 DUP9 DUP4 DUP10 ADD PUSH3 0x145 JUMP JUMPDEST SWAP6 POP PUSH1 0x20 DUP8 ADD MLOAD SWAP2 POP DUP1 DUP3 GT ISZERO PUSH3 0x249 JUMPI DUP5 DUP6 REVERT JUMPDEST POP PUSH3 0x258 DUP8 DUP3 DUP9 ADD PUSH3 0x145 JUMP JUMPDEST SWAP4 POP POP PUSH1 0x40 DUP6 ADD MLOAD SWAP2 POP PUSH1 0x60 DUP6 ADD MLOAD PUSH1 0xFF DUP2 AND DUP2 EQ PUSH3 0x276 JUMPI DUP2 DUP3 REVERT JUMPDEST SWAP4 SWAP7 SWAP3 SWAP6 POP SWAP1 SWAP4 POP POP JUMP JUMPDEST PUSH1 0x1 DUP2 DUP2 SHR SWAP1 DUP3 AND DUP1 PUSH3 0x296 JUMPI PUSH1 0x7F DUP3 AND SWAP2 POP JUMPDEST PUSH1 0x20 DUP3 LT DUP2 EQ ISZERO PUSH3 0x2B8 JUMPI PUSH4 0x4E487B71 PUSH1 0xE0 SHL PUSH1 0x0 MSTORE PUSH1 0x22 PUSH1 0x4 MSTORE PUSH1 0x24 PUSH1 0x0 REVERT JUMPDEST POP SWAP2 SWAP1 POP JUMP JUMPDEST PUSH4 0x4E487B71 PUSH1 0xE0 SHL PUSH1 0x0 MSTORE PUSH1 0x41 PUSH1 0x4 MSTORE PUSH1 0x24 PUSH1 0x0 REVERT JUMPDEST PUSH2 0x674 DUP1 PUSH3 0x2E4 PUSH1 0x0 CODECOPY PUSH1 0x0 RETURN INVALID PUSH1 0x80 PUSH1 0x40 MSTORE CALLVALUE DUP1 ISZERO PUSH2 0x10 JUMPI PUSH1 0x0 DUP1 REVERT JUMPDEST POP PUSH1 0x4 CALLDATASIZE LT PUSH2 0x9E JUMPI PUSH1 0x0 CALLDATALOAD PUSH1 0xE0 SHR DUP1 PUSH4 0x500DEB66 GT PUSH2 0x66 JUMPI DUP1 PUSH4 0x500DEB66 EQ PUSH2 0x11E JUMPI DUP1 PUSH4 0x70A08231 EQ PUSH2 0x131 JUMPI DUP1 PUSH4 0x95D89B41 EQ PUSH2 0x15A JUMPI DUP1 PUSH4 0xA9059CBB EQ PUSH2 0x162 JUMPI DUP1 PUSH4 0xDD62ED3E EQ PUSH2 0x175 JUMPI PUSH1 0x0 DUP1 REVERT JUMPDEST DUP1 PUSH4 0x6FDDE03 EQ PUSH2 0xA3 JUMPI DUP1 PUSH4 0x95EA7B3 EQ PUSH2 0xC1 JUMPI DUP1 PUSH4 0x18160DDD EQ PUSH2 0xE4 JUMPI DUP1 PUSH4 0x23B872DD EQ PUSH2 0xF6 JUMPI DUP1 PUSH4 0x313CE567 EQ PUSH2 0x109 JUMPI JUMPDEST PUSH1 0x0 DUP1 REVERT JUMPDEST PUSH2 0xAB PUSH2 0x1AE JUMP JUMPDEST PUSH1 0x40 MLOAD PUSH2 0xB8 SWAP2 SWAP1 PUSH2 0x56B JUMP JUMPDEST PUSH1 0x40 MLOAD DUP1 SWAP2 SUB SWAP1 RETURN JUMPDEST PUSH2 0xD4 PUSH2 0xCF CALLDATASIZE PUSH1 0x4 PUSH2 0x542 JUMP JUMPDEST PUSH2 0x240 JUMP JUMPDEST PUSH1 0x40 MLOAD SWAP1 ISZERO ISZERO DUP2 MSTORE PUSH1 0x20 ADD PUSH2 0xB8 JUMP JUMPDEST PUSH1 0x3 SLOAD JUMPDEST PUSH1 0x40 MLOAD SWAP1 DUP2 MSTORE PUSH1 0x20 ADD PUSH2 0xB8 JUMP JUMPDEST PUSH2 0xD4 PUSH2 0x104 CALLDATASIZE PUSH1 0x4 PUSH2 0x507 JUMP JUMPDEST PUSH2 0x2AC JUMP JUMPDEST PUSH1 0x4 SLOAD PUSH1 0x40 MLOAD PUSH1 0xFF SWAP1 SWAP2 AND DUP2 MSTORE PUSH1 0x20 ADD PUSH2 0xB8 JUMP JUMPDEST PUSH2 0xD4 PUSH2 0x12C CALLDATASIZE PUSH1 0x4 PUSH2 0x542 JUMP JUMPDEST PUSH2 0x3F4 JUMP JUMPDEST PUSH2 0xE8 PUSH2 0x13F CALLDATASIZE PUSH1 0x4 PUSH2 0x4BB JUMP JUMPDEST PUSH1 0x1 PUSH1 0x1 PUSH1 0xA0 SHL SUB AND PUSH1 0x0 SWAP1 DUP2 MSTORE PUSH1 0x5 PUSH1 0x20 MSTORE PUSH1 0x40 SWAP1 KECCAK256 SLOAD SWAP1 JUMP JUMPDEST PUSH2 0xAB PUSH2 0x464 JUMP JUMPDEST PUSH2 0xD4 PUSH2 0x170 CALLDATASIZE PUSH1 0x4 PUSH2 0x542 JUMP JUMPDEST PUSH2 0x473 JUMP JUMPDEST PUSH2 0xE8 PUSH2 0x183 CALLDATASIZE PUSH1 0x4 PUSH2 0x4D5 JUMP JUMPDEST PUSH1 0x1 PUSH1 0x1 PUSH1 0xA0 SHL SUB SWAP2 DUP3 AND PUSH1 0x0 SWAP1 DUP2 MSTORE PUSH1 0x6 PUSH1 0x20 SWAP1 DUP2 MSTORE PUSH1 0x40 DUP1 DUP4 KECCAK256 SWAP4 SWAP1 SWAP5 AND DUP3 MSTORE SWAP2 SWAP1 SWAP2 MSTORE KECCAK256 SLOAD SWAP1 JUMP JUMPDEST PUSH1 0x60 PUSH1 0x1 DUP1 SLOAD PUSH2 0x1BD SWAP1 PUSH2 0x5ED JUMP JUMPDEST DUP1 PUSH1 0x1F ADD PUSH1 0x20 DUP1 SWAP2 DIV MUL PUSH1 0x20 ADD PUSH1 0x40 MLOAD SWAP1 DUP2 ADD PUSH1 0x40 MSTORE DUP1 SWAP3 SWAP2 SWAP1 DUP2 DUP2 MSTORE PUSH1 0x20 ADD DUP3 DUP1 SLOAD PUSH2 0x1E9 SWAP1 PUSH2 0x5ED JUMP JUMPDEST DUP1 ISZERO PUSH2 0x236 JUMPI DUP1 PUSH1 0x1F LT PUSH2 0x20B JUMPI PUSH2 0x100 DUP1 DUP4 SLOAD DIV MUL DUP4 MSTORE SWAP2 PUSH1 0x20 ADD SWAP2 PUSH2 0x236 JUMP JUMPDEST DUP3 ADD SWAP2 SWAP1 PUSH1 0x0 MSTORE PUSH1 0x20 PUSH1 0x0 KECCAK256 SWAP1 JUMPDEST DUP2 SLOAD DUP2 MSTORE SWAP1 PUSH1 0x1 ADD SWAP1 PUSH1 0x20 ADD DUP1 DUP4 GT PUSH2 0x219 JUMPI DUP3 SWAP1 SUB PUSH1 0x1F AND DUP3 ADD SWAP2 JUMPDEST POP POP POP POP POP SWAP1 POP SWAP1 JUMP JUMPDEST CALLER PUSH1 0x0 DUP2 DUP2 MSTORE PUSH1 0x6 PUSH1 0x20 SWAP1 DUP2 MSTORE PUSH1 0x40 DUP1 DUP4 KECCAK256 PUSH1 0x1 PUSH1 0x1 PUSH1 0xA0 SHL SUB DUP8 AND DUP1 DUP6 MSTORE SWAP3 MSTORE DUP1 DUP4 KECCAK256 DUP6 SWAP1 SSTORE MLOAD SWAP2 SWAP3 SWAP1 SWAP2 PUSH32 0x8C5BE1E5EBEC7D5BD14F71427D1E84F3DD0314C0F7B2291E5B200AC8C7C3B925 SWAP1 PUSH2 0x29B SWAP1 DUP7 DUP2 MSTORE PUSH1 0x20 ADD SWAP1 JUMP JUMPDEST PUSH1 0x40 MLOAD DUP1 SWAP2 SUB SWAP1 LOG3 POP PUSH1 0x1 SWAP3 SWAP2 POP POP JUMP JUMPDEST PUSH1 0x1 PUSH1 0x1 PUSH1 0xA0 SHL SUB DUP1 DUP5 AND PUSH1 0x0 DUP2 DUP2 MSTORE PUSH1 0x6 PUSH1 0x20 SWAP1 DUP2 MSTORE PUSH1 0x40 DUP1 DUP4 KECCAK256 SWAP5 DUP8 AND DUP4 MSTORE SWAP4 DUP2 MSTORE DUP4 DUP3 KECCAK256 SLOAD SWAP3 DUP3 MSTORE PUSH1 0x5 SWAP1 MSTORE SWAP2 DUP3 KECCAK256 SLOAD DUP4 DUP2 LT ISZERO PUSH2 0x2EC JUMPI PUSH1 0x0 DUP1 REVERT JUMPDEST DUP4 DUP3 LT ISZERO PUSH2 0x2F9 JUMPI PUSH1 0x0 DUP1 REVERT JUMPDEST PUSH1 0x1 PUSH1 0x1 PUSH1 0xA0 SHL SUB DUP7 AND PUSH1 0x0 SWAP1 DUP2 MSTORE PUSH1 0x5 PUSH1 0x20 MSTORE PUSH1 0x40 SWAP1 KECCAK256 SLOAD PUSH2 0x31C SWAP1 DUP6 PUSH2 0x487 JUMP JUMPDEST PUSH1 0x1 PUSH1 0x1 PUSH1 0xA0 SHL SUB DUP1 DUP9 AND PUSH1 0x0 SWAP1 DUP2 MSTORE PUSH1 0x5 PUSH1 0x20 MSTORE PUSH1 0x40 DUP1 DUP3 KECCAK256 SWAP4 SWAP1 SWAP4 SSTORE SWAP1 DUP8 AND DUP2 MSTORE KECCAK256 SLOAD PUSH2 0x34B SWAP1 DUP6 PUSH2 0x493 JUMP JUMPDEST PUSH1 0x1 PUSH1 0x1 PUSH1 0xA0 SHL SUB DUP1 DUP8 AND PUSH1 0x0 DUP2 DUP2 MSTORE PUSH1 0x5 PUSH1 0x20 SWAP1 DUP2 MSTORE PUSH1 0x40 DUP1 DUP4 KECCAK256 SWAP6 SWAP1 SWAP6 SSTORE SWAP3 DUP11 AND DUP2 MSTORE PUSH1 0x6 DUP4 MSTORE DUP4 DUP2 KECCAK256 SWAP2 DUP2 MSTORE SWAP2 MSTORE KECCAK256 SLOAD PUSH2 0x388 SWAP1 DUP6 PUSH2 0x487 JUMP JUMPDEST PUSH1 0x1 PUSH1 0x1 PUSH1 0xA0 SHL SUB DUP8 DUP2 AND PUSH1 0x0 DUP2 DUP2 MSTORE PUSH1 0x6 PUSH1 0x20 SWAP1 DUP2 MSTORE PUSH1 0x40 DUP1 DUP4 KECCAK256 SWAP5 DUP12 AND DUP1 DUP5 MSTORE SWAP5 DUP3 MSTORE SWAP2 DUP3 SWAP1 KECCAK256 SWAP5 SWAP1 SWAP5 SSTORE MLOAD DUP8 DUP2 MSTORE SWAP2 SWAP3 SWAP1 SWAP2 PUSH32 0xDDF252AD1BE2C89B69C2B068FC378DAA952BA7F163C4A11628F55A4DF523B3EF SWAP2 ADD PUSH1 0x40 MLOAD DUP1 SWAP2 SUB SWAP1 LOG3 POP PUSH1 0x1 SWAP6 SWAP5 POP POP POP POP POP JUMP JUMPDEST PUSH1 0x0 DUP1 SLOAD PUSH1 0x1 PUSH1 0x1 PUSH1 0xA0 SHL SUB AND CALLER EQ PUSH2 0x40C JUMPI PUSH1 0x0 DUP1 REVERT JUMPDEST PUSH1 0x1 PUSH1 0x1 PUSH1 0xA0 SHL SUB DUP4 AND PUSH1 0x0 DUP2 DUP2 MSTORE PUSH1 0x6 PUSH1 0x20 SWAP1 DUP2 MSTORE PUSH1 0x40 DUP1 DUP4 KECCAK256 CALLER DUP1 DUP6 MSTORE SWAP1 DUP4 MSTORE SWAP3 DUP2 SWAP1 KECCAK256 DUP7 SWAP1 SSTORE MLOAD DUP6 DUP2 MSTORE SWAP2 SWAP3 SWAP2 PUSH32 0x8C5BE1E5EBEC7D5BD14F71427D1E84F3DD0314C0F7B2291E5B200AC8C7C3B925 SWAP2 ADD PUSH2 0x29B JUMP JUMPDEST PUSH1 0x60 PUSH1 0x2 DUP1 SLOAD PUSH2 0x1BD SWAP1 PUSH2 0x5ED JUMP JUMPDEST PUSH1 0x0 PUSH2 0x480 CALLER DUP5 DUP5 PUSH2 0x2AC JUMP JUMPDEST SWAP4 SWAP3 POP POP POP JUMP JUMPDEST PUSH1 0x0 PUSH2 0x480 DUP3 DUP5 PUSH2 0x5D6 JUMP JUMPDEST PUSH1 0x0 PUSH2 0x480 DUP3 DUP5 PUSH2 0x5BE JUMP JUMPDEST DUP1 CALLDATALOAD PUSH1 0x1 PUSH1 0x1 PUSH1 0xA0 SHL SUB DUP2 AND DUP2 EQ PUSH2 0x4B6 JUMPI PUSH1 0x0 DUP1 REVERT JUMPDEST SWAP2 SWAP1 POP JUMP JUMPDEST PUSH1 0x0 PUSH1 0x20 DUP3 DUP5 SUB SLT ISZERO PUSH2 0x4CC JUMPI DUP1 DUP2 REVERT JUMPDEST PUSH2 0x480 DUP3 PUSH2 0x49F JUMP JUMPDEST PUSH1 0x0 DUP1 PUSH1 0x40 DUP4 DUP6 SUB SLT ISZERO PUSH2 0x4E7 JUMPI DUP1 DUP2 REVERT JUMPDEST PUSH2 0x4F0 DUP4 PUSH2 0x49F JUMP JUMPDEST SWAP2 POP PUSH2 0x4FE PUSH1 0x20 DUP5 ADD PUSH2 0x49F JUMP JUMPDEST SWAP1 POP SWAP3 POP SWAP3 SWAP1 POP JUMP JUMPDEST PUSH1 0x0 DUP1 PUSH1 0x0 PUSH1 0x60 DUP5 DUP7 SUB SLT ISZERO PUSH2 0x51B JUMPI DUP1 DUP2 REVERT JUMPDEST PUSH2 0x524 DUP5 PUSH2 0x49F JUMP JUMPDEST SWAP3 POP PUSH2 0x532 PUSH1 0x20 DUP6 ADD PUSH2 0x49F JUMP JUMPDEST SWAP2 POP PUSH1 0x40 DUP5 ADD CALLDATALOAD SWAP1 POP SWAP3 POP SWAP3 POP SWAP3 JUMP JUMPDEST PUSH1 0x0 DUP1 PUSH1 0x40 DUP4 DUP6 SUB SLT ISZERO PUSH2 0x554 JUMPI DUP2 DUP3 REVERT JUMPDEST PUSH2 0x55D DUP4 PUSH2 0x49F JUMP JUMPDEST SWAP5 PUSH1 0x20 SWAP4 SWAP1 SWAP4 ADD CALLDATALOAD SWAP4 POP POP POP JUMP JUMPDEST PUSH1 0x0 PUSH1 0x20 DUP1 DUP4 MSTORE DUP4 MLOAD DUP1 DUP3 DUP6 ADD MSTORE DUP3 JUMPDEST DUP2 DUP2 LT ISZERO PUSH2 0x597 JUMPI DUP6 DUP2 ADD DUP4 ADD MLOAD DUP6 DUP3 ADD PUSH1 0x40 ADD MSTORE DUP3 ADD PUSH2 0x57B JUMP JUMPDEST DUP2 DUP2 GT ISZERO PUSH2 0x5A8 JUMPI DUP4 PUSH1 0x40 DUP4 DUP8 ADD ADD MSTORE JUMPDEST POP PUSH1 0x1F ADD PUSH1 0x1F NOT AND SWAP3 SWAP1 SWAP3 ADD PUSH1 0x40 ADD SWAP4 SWAP3 POP POP POP JUMP JUMPDEST PUSH1 0x0 DUP3 NOT DUP3 GT ISZERO PUSH2 0x5D1 JUMPI PUSH2 0x5D1 PUSH2 0x628 JUMP JUMPDEST POP ADD SWAP1 JUMP JUMPDEST PUSH1 0x0 DUP3 DUP3 LT ISZERO PUSH2 0x5E8 JUMPI PUSH2 0x5E8 PUSH2 0x628 JUMP JUMPDEST POP SUB SWAP1 JUMP JUMPDEST PUSH1 0x1 DUP2 DUP2 SHR SWAP1 DUP3 AND DUP1 PUSH2 0x601 JUMPI PUSH1 0x7F DUP3 AND SWAP2 POP JUMPDEST PUSH1 0x20 DUP3 LT DUP2 EQ ISZERO PUSH2 0x622 JUMPI PUSH4 0x4E487B71 PUSH1 0xE0 SHL PUSH1 0x0 MSTORE PUSH1 0x22 PUSH1 0x4 MSTORE PUSH1 0x24 PUSH1 0x0 REVERT JUMPDEST POP SWAP2 SWAP1 POP JUMP JUMPDEST PUSH4 0x4E487B71 PUSH1 0xE0 SHL PUSH1 0x0 MSTORE PUSH1 0x11 PUSH1 0x4 MSTORE PUSH1 0x24 PUSH1 0x0 REVERT INVALID LOG2 PUSH5 0x6970667358 0x22 SLT KECCAK256 0xEB 0xC9 0x29 0xEA PUSH5 0x61D9A4EAB0 CODECOPY SWAP4 PUSH32 0x4F0BF1D36B58E9A378628F3D0587A276E4C5BB64736F6C63430008040033A264 PUSH10 0x70667358221220CFB402 SLT 0xE2 0xC 0x23 0x21 CODESIZE 0xDC 0xC1 RETURNDATASIZE SHR 0x2D PUSH5 0x518F9FEB0C 0xAC CHAINID PUSH29 0xA8C0F672D47028445364736F6C63430008040033000000000000000000 "
		},
		"gasEstimates": {
			"creation": {
				"codeDepositCost": "1879400",
				"executionCost": "infinite",
				"totalCost": "infinite"
			},
			"external": {
				"approveSale(string,uint256)": "infinite",
				"buyToken(string)": "infinite",
				"deposit()": "22810",
				"getHeldTokens(address)": "infinite",
				"getPot()": "1059",
				"getPrice(string)": "infinite",
				"getTokenBalance(string,address)": "infinite",
				"getTokenValue(string,address)": "infinite",
				"getTotalSupply(string)": "infinite",
				"mintToken(string,string,string,uint256)": "infinite",
				"sellToken(string,uint256)": "infinite",
				"updatePrice(string,uint256)": "infinite",
				"withdraw()": "22742"
			},
			"internal": {
				"compare_strings(string memory,string memory)": "infinite",
				"remove_from_holdings(address,string memory)": "infinite"
			}
		},
		"methodIdentifiers": {
			"approveSale(string,uint256)": "3bd02f37",
			"buyToken(string)": "65d0dfc4",
			"deposit()": "d0e30db0",
			"getHeldTokens(address)": "66836b7c",
			"getPot()": "403c9fa8",
			"getPrice(string)": "524f3889",
			"getTokenBalance(string,address)": "3cdb9762",
			"getTokenValue(string,address)": "84465b3e",
			"getTotalSupply(string)": "5463109e",
			"mintToken(string,string,string,uint256)": "b4a8e0a9",
			"sellToken(string,uint256)": "93990aa6",
			"updatePrice(string,uint256)": "4a432a46",
			"withdraw()": "3ccfd60b"
		}
	},
	"abi": [
		{
			"inputs": [
				{
					"internalType": "address",
					"name": "second_owner",
					"type": "address"
				}
			],
			"stateMutability": "payable",
			"type": "constructor"
		},
		{
			"anonymous": false,
			"inputs": [
				{
					"indexed": false,
					"internalType": "address",
					"name": "buyer",
					"type": "address"
				},
				{
					"indexed": false,
					"internalType": "string",
					"name": "playerID",
					"type": "string"
				},
				{
					"indexed": false,
					"internalType": "uint256",
					"name": "price",
					"type": "uint256"
				},
				{
					"indexed": false,
					"internalType": "uint256",
					"name": "num_tokens",
					"type": "uint256"
				}
			],
			"name": "Buy",
			"type": "event"
		},
		{
			"anonymous": false,
			"inputs": [
				{
					"indexed": false,
					"internalType": "address",
					"name": "owner1",
					"type": "address"
				},
				{
					"indexed": false,
					"internalType": "address",
					"name": "owner2",
					"type": "address"
				},
				{
					"indexed": false,
					"internalType": "uint256",
					"name": "pot",
					"type": "uint256"
				}
			],
			"name": "Creation",
			"type": "event"
		},
		{
			"anonymous": false,
			"inputs": [
				{
					"indexed": false,
					"internalType": "string",
					"name": "playerID",
					"type": "string"
				},
				{
					"indexed": false,
					"internalType": "string",
					"name": "tokenName",
					"type": "string"
				},
				{
					"indexed": false,
					"internalType": "string",
					"name": "tokenSymbol",
					"type": "string"
				},
				{
					"indexed": false,
					"internalType": "uint256",
					"name": "tokenPrice",
					"type": "uint256"
				}
			],
			"name": "Mint",
			"type": "event"
		},
		{
			"anonymous": false,
			"inputs": [
				{
					"indexed": false,
					"internalType": "address",
					"name": "seller",
					"type": "address"
				},
				{
					"indexed": false,
					"internalType": "string",
					"name": "playerID",
					"type": "string"
				},
				{
					"indexed": false,
					"internalType": "uint256",
					"name": "price",
					"type": "uint256"
				},
				{
					"indexed": false,
					"internalType": "uint256",
					"name": "num_tokens",
					"type": "uint256"
				}
			],
			"name": "Sell",
			"type": "event"
		},
		{
			"inputs": [
				{
					"internalType": "string",
					"name": "playerID",
					"type": "string"
				},
				{
					"internalType": "uint256",
					"name": "count",
					"type": "uint256"
				}
			],
			"name": "approveSale",
			"outputs": [
				{
					"internalType": "bool",
					"name": "",
					"type": "bool"
				}
			],
			"stateMutability": "payable",
			"type": "function"
		},
		{
			"inputs": [
				{
					"internalType": "string",
					"name": "playerID",
					"type": "string"
				}
			],
			"name": "buyToken",
			"outputs": [
				{
					"internalType": "bool",
					"name": "",
					"type": "bool"
				}
			],
			"stateMutability": "payable",
			"type": "function"
		},
		{
			"inputs": [],
			"name": "deposit",
			"outputs": [],
			"stateMutability": "payable",
			"type": "function"
		},
		{
			"inputs": [
				{
					"internalType": "address",
					"name": "user",
					"type": "address"
				}
			],
			"name": "getHeldTokens",
			"outputs": [
				{
					"internalType": "string[]",
					"name": "",
					"type": "string[]"
				}
			],
			"stateMutability": "view",
			"type": "function"
		},
		{
			"inputs": [],
			"name": "getPot",
			"outputs": [
				{
					"internalType": "uint256",
					"name": "",
					"type": "uint256"
				}
			],
			"stateMutability": "view",
			"type": "function"
		},
		{
			"inputs": [
				{
					"internalType": "string",
					"name": "playerID",
					"type": "string"
				}
			],
			"name": "getPrice",
			"outputs": [
				{
					"internalType": "uint256",
					"name": "",
					"type": "uint256"
				}
			],
			"stateMutability": "view",
			"type": "function"
		},
		{
			"inputs": [
				{
					"internalType": "string",
					"name": "playerID",
					"type": "string"
				},
				{
					"internalType": "address",
					"name": "user",
					"type": "address"
				}
			],
			"name": "getTokenBalance",
			"outputs": [
				{
					"internalType": "uint256",
					"name": "",
					"type": "uint256"
				}
			],
			"stateMutability": "view",
			"type": "function"
		},
		{
			"inputs": [
				{
					"internalType": "string",
					"name": "playerID",
					"type": "string"
				},
				{
					"internalType": "address",
					"name": "user",
					"type": "address"
				}
			],
			"name": "getTokenValue",
			"outputs": [
				{
					"internalType": "uint256",
					"name": "value",
					"type": "uint256"
				}
			],
			"stateMutability": "view",
			"type": "function"
		},
		{
			"inputs": [
				{
					"internalType": "string",
					"name": "playerID",
					"type": "string"
				}
			],
			"name": "getTotalSupply",
			"outputs": [
				{
					"internalType": "uint256",
					"name": "",
					"type": "uint256"
				}
			],
			"stateMutability": "view",
			"type": "function"
		},
		{
			"inputs": [
				{
					"internalType": "string",
					"name": "playerID",
					"type": "string"
				},
				{
					"internalType": "string",
					"name": "tokenName",
					"type": "string"
				},
				{
					"internalType": "string",
					"name": "tokenSymbol",
					"type": "string"
				},
				{
					"internalType": "uint256",
					"name": "tokenPrice",
					"type": "uint256"
				}
			],
			"name": "mintToken",
			"outputs": [
				{
					"internalType": "bool",
					"name": "",
					"type": "bool"
				}
			],
			"stateMutability": "nonpayable",
			"type": "function"
		},
		{
			"inputs": [
				{
					"internalType": "string",
					"name": "playerID",
					"type": "string"
				},
				{
					"internalType": "uint256",
					"name": "count",
					"type": "uint256"
				}
			],
			"name": "sellToken",
			"outputs": [
				{
					"internalType": "bool",
					"name": "",
					"type": "bool"
				}
			],
			"stateMutability": "payable",
			"type": "function"
		},
		{
			"inputs": [
				{
					"internalType": "string",
					"name": "playerID",
					"type": "string"
				},
				{
					"internalType": "uint256",
					"name": "price",
					"type": "uint256"
				}
			],
			"name": "updatePrice",
			"outputs": [
				{
					"internalType": "bool",
					"name": "",
					"type": "bool"
				}
			],
			"stateMutability": "nonpayable",
			"type": "function"
		},
		{
			"inputs": [],
			"name": "withdraw",
			"outputs": [],
			"stateMutability": "payable",
			"type": "function"
		}
	]
}